{
  "address": "0x6C982D51Fe35D664fc95e740C0E52cB95B6709fC",
  "abi": [
    {
      "inputs": [],
      "stateMutability": "nonpayable",
      "type": "constructor"
    },
    {
      "inputs": [],
      "name": "T",
      "type": "error"
    },
    {
      "anonymous": false,
      "inputs": [
        {
          "indexed": false,
          "internalType": "uint256",
          "name": "strategyId",
          "type": "uint256"
        },
        {
          "indexed": false,
          "internalType": "int256",
          "name": "delta",
          "type": "int256"
        }
      ],
      "name": "DeltaHedged",
      "type": "event"
    },
    {
      "anonymous": false,
      "inputs": [
        {
          "indexed": false,
          "internalType": "uint256",
          "name": "strategyId",
          "type": "uint256"
        },
        {
          "indexed": true,
          "internalType": "address",
          "name": "account",
          "type": "address"
        },
        {
          "indexed": false,
          "internalType": "uint256",
          "name": "strategyTokenAmount",
          "type": "uint256"
        },
        {
          "indexed": false,
          "internalType": "uint256",
          "name": "depositedAmount",
          "type": "uint256"
        }
      ],
      "name": "DepositedToStrategy",
      "type": "event"
    },
    {
      "anonymous": false,
      "inputs": [
        {
          "indexed": false,
          "internalType": "uint256",
          "name": "strategyId",
          "type": "uint256"
        },
        {
          "indexed": false,
          "internalType": "uint256",
          "name": "hedgeInterval",
          "type": "uint256"
        }
      ],
      "name": "HedgeIntervalUpdated",
      "type": "event"
    },
    {
      "anonymous": false,
      "inputs": [
        {
          "indexed": false,
          "internalType": "uint256",
          "name": "strategyId",
          "type": "uint256"
        },
        {
          "indexed": false,
          "internalType": "uint256",
          "name": "hedgeSqrtPriceThreshold",
          "type": "uint256"
        }
      ],
      "name": "HedgePriceThresholdUpdated",
      "type": "event"
    },
    {
      "anonymous": false,
      "inputs": [
        {
          "indexed": false,
          "internalType": "address",
          "name": "newHedgerAddress",
          "type": "address"
        }
      ],
      "name": "HedgerUpdated",
      "type": "event"
    },
    {
      "anonymous": false,
      "inputs": [
        {
          "indexed": false,
          "internalType": "uint8",
          "name": "version",
          "type": "uint8"
        }
      ],
      "name": "Initialized",
      "type": "event"
    },
    {
      "anonymous": false,
      "inputs": [
        {
          "indexed": false,
          "internalType": "address",
          "name": "operator",
          "type": "address"
        }
      ],
      "name": "OperatorUpdated",
      "type": "event"
    },
    {
      "anonymous": false,
      "inputs": [
        {
          "indexed": false,
          "internalType": "address",
          "name": "newReaderAddress",
          "type": "address"
        }
      ],
      "name": "ReaderUpdated",
      "type": "event"
    },
    {
      "anonymous": false,
      "inputs": [
        {
          "indexed": false,
          "internalType": "uint256",
          "name": "strategyId",
          "type": "uint256"
        },
        {
          "indexed": false,
          "internalType": "uint256",
          "name": "pairId",
          "type": "uint256"
        }
      ],
      "name": "StrategyAdded",
      "type": "event"
    },
    {
      "anonymous": false,
      "inputs": [
        {
          "indexed": false,
          "internalType": "uint256",
          "name": "strategyId",
          "type": "uint256"
        },
        {
          "indexed": true,
          "internalType": "address",
          "name": "account",
          "type": "address"
        },
        {
          "indexed": false,
          "internalType": "uint256",
          "name": "strategyTokenAmount",
          "type": "uint256"
        },
        {
          "indexed": false,
          "internalType": "uint256",
          "name": "withdrawnAmount",
          "type": "uint256"
        }
      ],
      "name": "WithdrawnFromStrategy",
      "type": "event"
    },
    {
      "inputs": [
        {
          "internalType": "uint256",
          "name": "_strategyId",
          "type": "uint256"
        },
        {
          "internalType": "uint256",
          "name": "_amount",
          "type": "uint256"
        }
      ],
      "name": "burnStrategyToken",
      "outputs": [],
      "stateMutability": "nonpayable",
      "type": "function"
    },
    {
      "inputs": [
        {
          "internalType": "uint256",
          "name": "_strategyId",
          "type": "uint256"
        }
      ],
      "name": "checkPriceHedge",
      "outputs": [
        {
          "internalType": "bool",
          "name": "",
          "type": "bool"
        }
      ],
      "stateMutability": "view",
      "type": "function"
    },
    {
      "inputs": [
        {
          "internalType": "uint256",
          "name": "_strategyId",
          "type": "uint256"
        }
      ],
      "name": "checkTimeHedge",
      "outputs": [
        {
          "internalType": "bool",
          "name": "",
          "type": "bool"
        }
      ],
      "stateMutability": "view",
      "type": "function"
    },
    {
      "inputs": [
        {
          "internalType": "uint256",
          "name": "_strategyId",
          "type": "uint256"
        },
        {
          "internalType": "uint256",
          "name": "_strategyTokenAmount",
          "type": "uint256"
        },
        {
          "internalType": "address",
          "name": "_recepient",
          "type": "address"
        },
        {
          "internalType": "uint256",
          "name": "_maxDepositAmount",
          "type": "uint256"
        },
        {
          "internalType": "bool",
          "name": "isQuoteMode",
          "type": "bool"
        },
        {
          "components": [
            {
              "internalType": "uint256",
              "name": "lowerSqrtPrice",
              "type": "uint256"
            },
            {
              "internalType": "uint256",
              "name": "upperSqrtPrice",
              "type": "uint256"
            },
            {
              "internalType": "uint256",
              "name": "deadline",
              "type": "uint256"
            }
          ],
          "internalType": "struct IStrategyVault.StrategyTradeParams",
          "name": "_tradeParams",
          "type": "tuple"
        }
      ],
      "name": "deposit",
      "outputs": [
        {
          "internalType": "uint256",
          "name": "finalDepositMargin",
          "type": "uint256"
        }
      ],
      "stateMutability": "nonpayable",
      "type": "function"
    },
    {
      "inputs": [
        {
          "internalType": "uint256",
          "name": "_strategyId",
          "type": "uint256"
        },
        {
          "internalType": "uint64",
          "name": "_pairId",
          "type": "uint64"
        },
        {
          "internalType": "uint256",
          "name": "_initialMarginAmount",
          "type": "uint256"
        },
        {
          "internalType": "int256",
          "name": "_initialPerpAmount",
          "type": "int256"
        },
        {
          "internalType": "int256",
          "name": "_initialSquartAmount",
          "type": "int256"
        },
        {
          "components": [
            {
              "internalType": "uint256",
              "name": "lowerSqrtPrice",
              "type": "uint256"
            },
            {
              "internalType": "uint256",
              "name": "upperSqrtPrice",
              "type": "uint256"
            },
            {
              "internalType": "uint256",
              "name": "deadline",
              "type": "uint256"
            }
          ],
          "internalType": "struct IStrategyVault.StrategyTradeParams",
          "name": "_tradeParams",
          "type": "tuple"
        },
        {
          "internalType": "uint256",
          "name": "_sqrtPriceThreshold",
          "type": "uint256"
        }
      ],
      "name": "depositForPositionInitialization",
      "outputs": [
        {
          "internalType": "uint256",
          "name": "",
          "type": "uint256"
        }
      ],
      "stateMutability": "nonpayable",
      "type": "function"
    },
    {
      "inputs": [
        {
          "internalType": "uint256",
          "name": "_strategyId",
          "type": "uint256"
        },
        {
          "components": [
            {
              "internalType": "uint256",
              "name": "lowerSqrtPrice",
              "type": "uint256"
            },
            {
              "internalType": "uint256",
              "name": "upperSqrtPrice",
              "type": "uint256"
            },
            {
              "internalType": "uint256",
              "name": "deadline",
              "type": "uint256"
            }
          ],
          "internalType": "struct IStrategyVault.StrategyTradeParams",
          "name": "_tradeParams",
          "type": "tuple"
        },
        {
          "internalType": "uint256",
          "name": "_deltaRatio",
          "type": "uint256"
        }
      ],
      "name": "execDeltaHedge",
      "outputs": [],
      "stateMutability": "nonpayable",
      "type": "function"
    },
    {
      "inputs": [
        {
          "internalType": "uint256",
          "name": "_strategyId",
          "type": "uint256"
        }
      ],
      "name": "getDelta",
      "outputs": [
        {
          "internalType": "int256",
          "name": "",
          "type": "int256"
        }
      ],
      "stateMutability": "view",
      "type": "function"
    },
    {
      "inputs": [
        {
          "internalType": "uint256",
          "name": "_strategyId",
          "type": "uint256"
        }
      ],
      "name": "getPrice",
      "outputs": [
        {
          "internalType": "uint256",
          "name": "",
          "type": "uint256"
        }
      ],
      "stateMutability": "nonpayable",
      "type": "function"
    },
    {
      "inputs": [
        {
          "internalType": "uint256",
          "name": "_strategyId",
          "type": "uint256"
        }
      ],
      "name": "getTotalSupply",
      "outputs": [
        {
          "internalType": "uint256",
          "name": "",
          "type": "uint256"
        }
      ],
      "stateMutability": "view",
      "type": "function"
    },
    {
      "inputs": [],
      "name": "hedger",
      "outputs": [
        {
          "internalType": "address",
          "name": "",
          "type": "address"
        }
      ],
      "stateMutability": "view",
      "type": "function"
    },
    {
      "inputs": [
        {
          "internalType": "address",
          "name": "_controller",
          "type": "address"
        },
        {
          "internalType": "address",
          "name": "_reader",
          "type": "address"
        },
        {
          "components": [
            {
              "internalType": "uint256",
              "name": "lower",
              "type": "uint256"
            },
            {
              "internalType": "uint256",
              "name": "upper",
              "type": "uint256"
            }
          ],
          "internalType": "struct BaseStrategy.MinPerValueLimit",
          "name": "_minPerValueLimit",
          "type": "tuple"
        }
      ],
      "name": "initialize",
      "outputs": [],
      "stateMutability": "nonpayable",
      "type": "function"
    },
    {
      "inputs": [],
      "name": "operator",
      "outputs": [
        {
          "internalType": "address",
          "name": "",
          "type": "address"
        }
      ],
      "stateMutability": "view",
      "type": "function"
    },
    {
      "inputs": [
        {
          "components": [
            {
              "components": [
                {
                  "internalType": "int256",
                  "name": "perpEntryUpdate",
                  "type": "int256"
                },
                {
                  "internalType": "int256",
                  "name": "sqrtEntryUpdate",
                  "type": "int256"
                },
                {
                  "internalType": "int256",
                  "name": "sqrtRebalanceEntryUpdateUnderlying",
                  "type": "int256"
                },
                {
                  "internalType": "int256",
                  "name": "sqrtRebalanceEntryUpdateStable",
                  "type": "int256"
                },
                {
                  "internalType": "int256",
                  "name": "perpPayoff",
                  "type": "int256"
                },
                {
                  "internalType": "int256",
                  "name": "sqrtPayoff",
                  "type": "int256"
                }
              ],
              "internalType": "struct Perp.Payoff",
              "name": "payoff",
              "type": "tuple"
            },
            {
              "internalType": "int256",
              "name": "fee",
              "type": "int256"
            },
            {
              "internalType": "int256",
              "name": "minDeposit",
              "type": "int256"
            }
          ],
          "internalType": "struct DataType.TradeResult",
          "name": "_tradeResult",
          "type": "tuple"
        },
        {
          "internalType": "bytes",
          "name": "_data",
          "type": "bytes"
        }
      ],
      "name": "predyTradeCallback",
      "outputs": [
        {
          "internalType": "int256",
          "name": "",
          "type": "int256"
        }
      ],
      "stateMutability": "nonpayable",
      "type": "function"
    },
    {
      "inputs": [],
      "name": "reader",
      "outputs": [
        {
          "internalType": "contract Reader",
          "name": "",
          "type": "address"
        }
      ],
      "stateMutability": "view",
      "type": "function"
    },
    {
      "inputs": [
        {
          "internalType": "address",
          "name": "_newHedger",
          "type": "address"
        }
      ],
      "name": "setHedger",
      "outputs": [],
      "stateMutability": "nonpayable",
      "type": "function"
    },
    {
      "inputs": [
        {
          "internalType": "address",
          "name": "_newOperator",
          "type": "address"
        }
      ],
      "name": "setOperator",
      "outputs": [],
      "stateMutability": "nonpayable",
      "type": "function"
    },
    {
      "inputs": [
        {
          "internalType": "address",
          "name": "_reader",
          "type": "address"
        }
      ],
      "name": "setReader",
      "outputs": [],
      "stateMutability": "nonpayable",
      "type": "function"
    },
    {
      "inputs": [
        {
          "internalType": "uint256",
          "name": "",
          "type": "uint256"
        }
      ],
      "name": "strategies",
      "outputs": [
        {
          "internalType": "uint256",
          "name": "id",
          "type": "uint256"
        },
        {
          "internalType": "uint64",
          "name": "pairGroupId",
          "type": "uint64"
        },
        {
          "internalType": "uint64",
          "name": "pairId",
          "type": "uint64"
        },
        {
          "internalType": "uint256",
          "name": "vaultId",
          "type": "uint256"
        },
        {
          "internalType": "address",
          "name": "marginToken",
          "type": "address"
        },
        {
          "internalType": "uint256",
          "name": "marginRoundedScaler",
          "type": "uint256"
        },
        {
          "internalType": "address",
          "name": "strategyToken",
          "type": "address"
        },
        {
          "components": [
            {
              "internalType": "uint256",
              "name": "lastHedgeTimestamp",
              "type": "uint256"
            },
            {
              "internalType": "uint256",
              "name": "lastHedgePrice",
              "type": "uint256"
            },
            {
              "internalType": "uint256",
              "name": "hedgeInterval",
              "type": "uint256"
            },
            {
              "internalType": "uint256",
              "name": "hedgeSqrtPriceThreshold",
              "type": "uint256"
            }
          ],
          "internalType": "struct BaseStrategy.HedgeStatus",
          "name": "hedgeStatus",
          "type": "tuple"
        }
      ],
      "stateMutability": "view",
      "type": "function"
    },
    {
      "inputs": [],
      "name": "strategyCount",
      "outputs": [
        {
          "internalType": "uint256",
          "name": "",
          "type": "uint256"
        }
      ],
      "stateMutability": "view",
      "type": "function"
    },
    {
      "inputs": [
        {
          "internalType": "uint256",
          "name": "_strategyId",
          "type": "uint256"
        },
        {
          "internalType": "int256",
          "name": "_sqrtAmount",
          "type": "int256"
        },
        {
          "components": [
            {
              "internalType": "uint256",
              "name": "lowerSqrtPrice",
              "type": "uint256"
            },
            {
              "internalType": "uint256",
              "name": "upperSqrtPrice",
              "type": "uint256"
            },
            {
              "internalType": "uint256",
              "name": "deadline",
              "type": "uint256"
            }
          ],
          "internalType": "struct IStrategyVault.StrategyTradeParams",
          "name": "_tradeParams",
          "type": "tuple"
        }
      ],
      "name": "updateGamma",
      "outputs": [],
      "stateMutability": "nonpayable",
      "type": "function"
    },
    {
      "inputs": [
        {
          "internalType": "uint256",
          "name": "_strategyId",
          "type": "uint256"
        },
        {
          "internalType": "uint256",
          "name": "_hedgeInterval",
          "type": "uint256"
        }
      ],
      "name": "updateHedgeInterval",
      "outputs": [],
      "stateMutability": "nonpayable",
      "type": "function"
    },
    {
      "inputs": [
        {
          "internalType": "uint256",
          "name": "_strategyId",
          "type": "uint256"
        },
        {
          "internalType": "uint256",
          "name": "_newSqrtPriceThreshold",
          "type": "uint256"
        }
      ],
      "name": "updateHedgePriceThreshold",
      "outputs": [],
      "stateMutability": "nonpayable",
      "type": "function"
    },
    {
      "inputs": [
        {
          "internalType": "uint256",
          "name": "_strategyId",
          "type": "uint256"
        },
        {
          "internalType": "uint256",
          "name": "_withdrawStrategyAmount",
          "type": "uint256"
        },
        {
          "internalType": "address",
          "name": "_recepient",
          "type": "address"
        },
        {
          "internalType": "int256",
          "name": "_minWithdrawAmount",
          "type": "int256"
        },
        {
          "components": [
            {
              "internalType": "uint256",
              "name": "lowerSqrtPrice",
              "type": "uint256"
            },
            {
              "internalType": "uint256",
              "name": "upperSqrtPrice",
              "type": "uint256"
            },
            {
              "internalType": "uint256",
              "name": "deadline",
              "type": "uint256"
            }
          ],
          "internalType": "struct IStrategyVault.StrategyTradeParams",
          "name": "_tradeParams",
          "type": "tuple"
        }
      ],
      "name": "withdraw",
      "outputs": [
        {
          "internalType": "uint256",
          "name": "finalWithdrawAmount",
          "type": "uint256"
        }
      ],
      "stateMutability": "nonpayable",
      "type": "function"
    }
  ],
  "transactionHash": "0x0be6edf56d9df57ddae41fa12dd2778569a9efaf0d14ad8fb0ebcb3b32789882",
  "args": [],
  "numDeployments": 1,
  "solcInputHash": "2431a425f3320a2a9c1334876dbfc380",
  "bytecode": "0x608060405234801561001057600080fd5b50600160065561504d806100256000396000f3fe608060405234801561001057600080fd5b506004361061014d5760003560e01c80638019ea4c116100c3578063b0b934611161007c578063b0b93461146102c8578063b3ab15fb146102db578063c661a333146102ee578063d4fc42c614610301578063d574ea3d14610314578063e75722301461042657600080fd5b80638019ea4c146102565780638667e3bd146102695780638ac6eaf71461027c5780638b8887511461028f57806392ab723e146102a25780639598da7f146102b557600080fd5b80634299ac46116101155780634299ac46146101d45780635404a617146101e757806356322586146101fa578063570ca7351461020d5780635a344073146102205780637607ccc81461024357600080fd5b80630275541114610152578063079cff94146101675780631839fbe21461019757806322068b44146101aa5780633d7034e2146101c1575b600080fd5b610165610160366004613c6b565b610439565b005b60095461017a906001600160a01b031681565b6040516001600160a01b0390911681526020015b60405180910390f35b6101656101a5366004613dff565b6104d4565b6101b360025481565b60405190815260200161018e565b6101656101cf366004613e35565b610793565b6101b36101e2366004613e6c565b610837565b6101656101f5366004613e35565b610cb7565b6101b3610208366004613ed4565b610df4565b60055461017a906001600160a01b031681565b61023361022e366004613ed4565b610f30565b604051901515815260200161018e565b610165610251366004613eed565b610f92565b610165610264366004613f23565b611234565b6101b3610277366004613f8b565b611366565b61016561028a366004613e35565b611892565b6101b361029d36600461401f565b6118dd565b6101b36102b0366004613ed4565b611aeb565b6101656102c3366004613c6b565b611ba3565b6102336102d6366004613ed4565b611c2e565b6101656102e9366004613c6b565b611d7d565b6101b36102fc3660046140f1565b611e08565b60075461017a906001600160a01b031681565b6103ae610322366004613ed4565b60016020818152600092835260409283902080549281015460028201546003830154600484015460058501548851608081018a5260068701548152600787015497810197909752600886015498870198909852600990940154606086015294956001600160401b0380841696600160401b909404169491936001600160a01b0393841693909291169088565b604080519889526001600160401b039788166020808b019190915296909716888801526060808901959095526001600160a01b03938416608089015260a088019290925290911660c0860152805160e0860152918201516101008501529181015161012084015201516101408201526101600161018e565b6101b3610434366004613ed4565b612146565b6005546001600160a01b0316331461046c5760405162461bcd60e51b815260040161046390614156565b60405180910390fd5b6001600160a01b03811661047f57600080fd5b600980546001600160a01b0319166001600160a01b0383169081179091556040519081527fddccb1cfdddc43a6b06c07aa52a70f68e9eb3465e92d5105079d1e0d7923b9fa906020015b60405180910390a150565b6005546001600160a01b031633146104fe5760405162461bcd60e51b815260040161046390614156565b610507836122c2565b600083815260016020818152604080842081516101008101835281548152938101546001600160401b0380821686860152600160401b90910416848301908152600282015460608087019190915260038301546001600160a01b0390811660808089019190915260048086015460a08a01526005860154831660c08a015286519182018752600686015482526007860154978201979097526008850154818701526009909401549184019190915260e08601929092528554905192516318e8074960e01b815294959462010000909104909116926318e80749926105fc929091016001600160401b0391909116815260200190565b602060405180830381865afa158015610619573d6000803e3d6000fd5b505050506040513d601f19601f8201168201806040525081019061063d919061419a565b6001600160a01b0316905060006106568286600061230b565b61065f906141cd565b60008054606086810151604080890151815160e08101835287815260208082018e90528c51828501528c810151958201959095528b830151608082015260a081018790528251948501835295845260c086019390935251633d15bc6b60e11b8152949550620100009092046001600160a01b031693637a2b78d6936106e893929160040161420d565b610100604051808303816000875af1158015610708573d6000803e3d6000fd5b505050506040513d601f19601f8201168201806040525081019061072c91906142a6565b50600061073c8460600151612330565b9050806003600001541115801561075557506004548111155b61078a5760405162461bcd60e51b81526004016104639060208082526004908201526311d4d4cd60e21b604082015260600190565b50505050505050565b6005546001600160a01b031633146107bd5760405162461bcd60e51b815260040161046390614156565b6107c6826122c2565b80610e10111580156107db5750621275008111155b6107e457600080fd5b60008281526001602090815260409182902060080183905581518481529081018390527fb11913cb371c2e22c43e8e16ade81d3f293f54df05a6dc22235537ad4314f31291015b60405180910390a15050565b6005546000906001600160a01b031633146108645760405162461bcd60e51b815260040161046390614156565b61086c6123db565b60006108788989612434565b60408051610100810182528254815260018301546001600160401b03808216602080850191909152600160401b9092041682840152600284015460608084019190915260038501546001600160a01b03908116608080860191909152600487015460a0860152600587015490911660c0850152845190810185526006860154815260078601549281019290925260088501549382019390935260098401549281019290925260e081019190915290915061093190612473565b156109675760405162461bcd60e51b8152600401610463906020808252600490820152630475353360e41b604082015260600190565b61097181846124db565b600381015461098b906001600160a01b031633308a612542565b600381015460005460405163095ea7b360e01b81526001600160a01b036201000090920482166004820152602481018a905291169063095ea7b3906044016020604051808303816000875af11580156109e8573d6000803e3d6000fd5b505050506040513d601f19601f82011682018060405250810190610a0c9190614342565b5060008054600183015460028401546040516339250da760e11b81526001600160401b0390921660048301526024820152604481018a905260648101929092526201000090046001600160a01b03169063724a1b4e906084016020604051808303816000875af1158015610a84573d6000803e3d6000fd5b505050506040513d601f19601f82011682018060405250810190610aa8919061435f565b6002820181905560005460405163156c991d60e31b81526004810192909252600160248301526201000090046001600160a01b03169063ab64c8e890604401600060405180830381600087803b158015610b0157600080fd5b505af1158015610b15573d6000803e3d6000fd5b505060008054600285015460018601546040805160e0810182528d815260208082018e90528c51828401528c81015160608301528c830151608083015260a082018790528251908101835295865260c081019590955251633d15bc6b60e11b8152620100009093046001600160a01b03169550637a2b78d69450610bb0939192600160401b9091046001600160401b0316919060040161420d565b610100604051808303816000875af1158015610bd0573d6000803e3d6000fd5b505050506040513d601f19601f82011682018060405250810190610bf491906142a6565b5060058101546040516340c10f1960e01b8152336004820152602481018990526001600160a01b03909116906340c10f1990604401600060405180830381600087803b158015610c4357600080fd5b505af1158015610c57573d6000803e3d6000fd5b5050825460408051918252602082018b905281018a90523392507f183f7d83e8b0bd3e46612a2d440145cfc36efbbc6a887f84c2af53b3a4405180915060600160405180910390a2549050610cac6001600655565b979650505050505050565b6005546001600160a01b03163314610ce15760405162461bcd60e51b815260040161046390614156565b60008281526001602081815260409283902083516101008101855281548152928101546001600160401b0380821685850152600160401b9091041683850152600281015460608085019190915260038201546001600160a01b0390811660808087019190915260048085015460a08801526005850154831660c0880190815288519283018952600686015483526007860154968301969096526008850154828901526009909401549281019290925260e085019190915291519351632770a7eb60e21b815233918101919091526024810185905291921690639dc29fac90604401600060405180830381600087803b158015610ddc57600080fd5b505af115801561078a573d6000803e3d6000fd5b5050565b6000610dff826122c2565b60008281526001602081815260409283902083516101008101855281548152928101546001600160401b0380821685850152600160401b90910481168486019081526002830154606080870191825260038501546001600160a01b039081166080808a019190915260048088015460a08b01526005880154831660c08b01528a519182018b5260068801548252600780890154998301999099526008880154828c01526009909701549281019290925260e08801919091529454915190519651632440490960e21b815292169282019290925260248101949094529192911690639101242490604401602060405180830381865afa158015610f05573d6000803e3d6000fd5b505050506040513d601f19601f82011682018060405250810190610f29919061435f565b9392505050565b6000610f3b826122c2565b610f8c6001600084815260200190815260200160002060060160405180608001604052908160008201548152602001600182015481526020016002820154815260200160038201548152505061264c565b92915050565b6009546001600160a01b03163314610fec5760405162461bcd60e51b815260206004820152601960248201527f4753533a2063616c6c6572206973206e6f7420686564676572000000000000006044820152606401610463565b610ff46123db565b610ffd836122c2565b600083815260016020819052604080832083549281015491516318e8074960e01b8152600160401b9092046001600160401b0316600483015292916201000090046001600160a01b0316906318e8074990602401602060405180830381865afa15801561106e573d6000803e3d6000fd5b505050506040513d601f19601f82011682018060405250810190611092919061419a565b6001600160a01b031690506110dc8260060160405180608001604052908160008201548152602001600182015481526020016002820154815260200160038201548152505061264c565b8061111d57506040805160808101825260068401548152600784015460208201526008840154918101919091526009830154606082015261111d908261266a565b61114e5760405162461bcd60e51b8152602060048201526002602482015261544760f01b6044820152606401610463565b60408051610100810182528354815260018401546001600160401b03808216602080850191909152600160401b9092041682840152600285015460608084019190915260038601546001600160a01b03908116608080860191909152600488015460a0860152600588015490911660c0850152845190810185526006870154815260078701549281019290925260088601549382019390935260098501549281019290925260e08101919091526112069085856126d5565b82670de0b6b3a76400000361122357600782018190554260068301555b505061122f6001600655565b505050565b600054610100900460ff16158080156112545750600054600160ff909116105b8061126e5750303b15801561126e575060005460ff166001145b6112d15760405162461bcd60e51b815260206004820152602e60248201527f496e697469616c697a61626c653a20636f6e747261637420697320616c72656160448201526d191e481a5b9a5d1a585b1a5e995960921b6064820152608401610463565b6000805460ff1916600117905580156112f4576000805461ff0019166101001790555b6112fe84836128b9565b600780546001600160a01b0319166001600160a01b0385161790558015611360576000805461ff0019169055604051600181527f7f26b83ff96e1f2b6a682f133852f6798a09c465da95921460cefb3847402498906020015b60405180910390a15b50505050565b60006113706123db565b611379866122c2565b600086815260016020818152604080842081516101008101835281548152938101546001600160401b0380821686860152600160401b9091041684830152600281015460608086019190915260038201546001600160a01b03908116608080880191909152600484015460a0880152600584015490911660c08701528351908101845260068301548152600783015494810194909452600882015492840192909252600901549082015260e08201529061143282612473565b611444670de0b6b3a764000089614378565b61144e91906143a5565b600080546060850151604051632500ed8d60e21b815260048101919091529293509091620100009091046001600160a01b031690639403b63490602401600060405180830381865afa1580156114a8573d6000803e3d6000fd5b505050506040513d6000823e601f3d908101601f191682016040526114d09190810190614537565b905060008060029054906101000a90046001600160a01b03166001600160a01b0316637a2b78d6856060015186604001516040518060e00160405280670de0b6b3a76400008860a0015160008151811061152c5761152c61464e565b602002602001015160800151600001518a611546906141cd565b6115509190614664565b61155a9190614694565b8152602001670de0b6b3a76400008860a0015160008151811061157f5761157f61464e565b602002602001015160a00151600001518a611599906141cd565b6115a39190614664565b6115ad9190614694565b81526020018b6000015181526020018b6020015181526020018b604001518152602001600015158152602001604051806020016040528060008152508152506040518463ffffffff1660e01b815260040161160a9392919061420d565b610100604051808303816000875af115801561162a573d6000803e3d6000fd5b505050506040513d601f19601f8201168201806040525081019061164e91906142a6565b90506000816000015160a00151826000015160800151670de0b6b3a7640000868560200151876060015161168291906146c2565b61168c9190614664565b6116969190614694565b6116a091906146c2565b6116aa91906146c2565b90508781121580156116bd575060008812155b6116f25760405162461bcd60e51b8152600401610463906020808252600490820152634753533360e01b604082015260600190565b60c0850151604051632770a7eb60e21b8152336004820152602481018c90526001600160a01b0390911690639dc29fac90604401600060405180830381600087803b15801561174057600080fd5b505af1158015611754573d6000803e3d6000fd5b50505050611766818660a00151612972565b9550600060029054906101000a90046001600160a01b03166001600160a01b031663724a1b4e86602001518760600151896117a0906141cd565b6040516001600160e01b031960e086901b1681526001600160401b03909316600484015260248301919091526044820152600060648201526084016020604051808303816000875af11580156117fa573d6000803e3d6000fd5b505050506040513d601f19601f8201168201806040525081019061181e919061435f565b5061182e85608001518a8861298b565b604080518c8152602081018c90529081018790526001600160a01b038a16907f7ed114e5faffa35cd08aa2a119df8db932afea80ece5cb37af070572f120dc929060600160405180910390a250505050506118896001600655565b95945050505050565b6005546001600160a01b031633146118bc5760405162461bcd60e51b815260040161046390614156565b6118c5826122c2565b6000828152600160205260409020610df090826124db565b600080546201000090046001600160a01b031633146119275760405162461bcd60e51b8152600401610463906020808252600490820152634753533560e01b604082015260600190565b6000808080611938868801886146ea565b600081815260016020818152604080842081516101008101835281548152938101546001600160401b0380821686860152600160401b90910416848301526002810154606080860191825260038301546001600160a01b03908116608080890191909152600485015460a0890152600585015490911660c088015284519081018552600684015481526007840154958101959095526008830154938501939093526009909101549183019190915260e08301919091528e519051969a509498509296509094509092909182918291611a0f91612a8b565b9250925092506000611a2384848b85612b70565b9050611a33818660a00151612beb565b600881905590508615611a4957611a4981612bfa565b611a598560800151893084612542565b608085015160005460405163095ea7b360e01b81526001600160a01b0362010000909204821660048201526024810184905291169063095ea7b3906044016020604051808303816000875af1158015611ab6573d6000803e3d6000fd5b505050506040513d601f19601f82011682018060405250810190611ada9190614342565b509c9b505050505050505050505050565b600081815260016020818152604080842081516101008101835281548152938101546001600160401b0380821686860152600160401b9091041684830152600281015460608086019190915260038201546001600160a01b03908116608080880191909152600484015460a0880152600584015490911660c08701528351908101845260068301548152600783015494810194909452600882015492840192909252600901549082015260e0820152610f8c90612473565b6005546001600160a01b03163314611bcd5760405162461bcd60e51b815260040161046390614156565b6001600160a01b038116611be057600080fd5b600780546001600160a01b0319166001600160a01b0383169081179091556040519081527f9b5e1beb1e6649002b63d33952d5d892fecf9ccc12defdf8800f910b5ddca5a4906020016104c9565b6000611c39826122c2565b600082815260016020818152604080842081516101008101835281548152938101546001600160401b0380821686860152600160401b90910416848301908152600282015460608087019190915260038301546001600160a01b0390811660808089019190915260048086015460a08a01526005860154831660c08a015286519182018752600686015482526007860154978201979097526008850154818701526009909401549184019190915260e086018390529554905192516318e8074960e01b81529495610f299592946201000090920416926318e8074992611d2e92016001600160401b0391909116815260200190565b602060405180830381865afa158015611d4b573d6000803e3d6000fd5b505050506040513d601f19601f82011682018060405250810190611d6f919061419a565b6001600160a01b031661266a565b6005546001600160a01b03163314611da75760405162461bcd60e51b815260040161046390614156565b6001600160a01b038116611dba57600080fd5b600580546001600160a01b0319166001600160a01b0383169081179091556040519081527fb3b3f5f64ab192e4b5fefde1f51ce9733bbdcf831951543b325aebd49cc27ec4906020016104c9565b6000611e126123db565b611e1b876122c2565b600087815260016020818152604080842081516101008101835281548152938101546001600160401b0380821686860152600160401b9091041684830152600281015460608086019190915260038201546001600160a01b03908116608080880191909152600484015460a0880152600584015490911660c08701528351908101845260068301548152600783015494810194909452600882015492840192909252600901549082015260e082015290611ed482612473565b11611f0a5760405162461bcd60e51b8152600401610463906020808252600490820152634753533160e01b604082015260600190565b6000611f1882898787612c13565b60005460608401516040808601519051633d15bc6b60e11b8152939450620100009092046001600160a01b031692637a2b78d692611f5b9291869060040161420d565b610100604051808303816000875af1158015611f7b573d6000803e3d6000fd5b505050506040513d601f19601f82011682018060405250810190611f9f91906142a6565b5060088054600019909155925085831115611fe55760405162461bcd60e51b81526004016104639060208082526004908201526323a9a99960e11b604082015260600190565b60c08201516040516340c10f1960e01b81526001600160a01b038981166004830152602482018b9052909116906340c10f1990604401600060405180830381600087803b15801561203557600080fd5b505af1158015612049573d6000803e3d6000fd5b5050600080546040868101519051631d591eb760e31b81526001600160401b0390911660048201529193506201000090046001600160a01b0316915063eac8f5b89060240161072060405180830381865afa1580156120ac573d6000803e3d6000fd5b505050506040513d601f19601f820116820180604052508101906120d09190614995565b90506120e38160c0015160000151612dd0565b50604080518a8152602081018a90529081018490526001600160a01b038816907f183f7d83e8b0bd3e46612a2d440145cfc36efbbc6a887f84c2af53b3a44051809060600160405180910390a2505061213c6001600655565b9695505050505050565b6000612151826122c2565b600082815260016020818152604080842081516101008101835281548152938101546001600160401b0380821686860152600160401b90910416848301526002810154606080860191825260038301546001600160a01b0390811660808089019190915260048086015460a08a01526005860154831660c08a015286519182018752600686015482526007860154978201979097526008850154818701526009909401549184019190915260e08601929092528554905192516349ebb77d60e01b8152938401929092529293926201000090910416906349ebb77d906024016000604051808303816000875af115801561224f573d6000803e3d6000fd5b505050506040513d6000823e601f3d908101601f191682016040526122779190810190614a66565b9050600081602001511361228f575060009392505050565b61229882612473565b670de0b6b3a764000082602001516122b09190614378565b6122ba91906143a5565b949350505050565b8060001080156122d3575060025481105b6123085760405162461bcd60e51b81526004016104639060208082526004908201526314d5125160e21b604082015260600190565b50565b60008361231c600160601b85614664565b6123269190614694565b6122ba90836146c2565b600080546040516349ebb77d60e01b81526004810184905282916201000090046001600160a01b0316906349ebb77d906024016000604051808303816000875af1158015612382573d6000803e3d6000fd5b505050506040513d6000823e601f3d908101601f191682016040526123aa9190810190614a66565b9050610f2981602001518260800151670de0b6b3a76400006123cc9190614664565b6123d69190614694565b612e93565b60026006540361242d5760405162461bcd60e51b815260206004820152601f60248201527f5265656e7472616e637947756172643a207265656e7472616e742063616c6c006044820152606401610463565b6002600655565b60008260000361246057600061244983612ee9565b60009081526001602052604090209150610f8c9050565b5050600090815260016020526040902090565b60008160c001516001600160a01b03166318160ddd6040518163ffffffff1660e01b8152600401602060405180830381865afa1580156124b7573d6000803e3d6000fd5b505050506040513d601f19601f82011682018060405250810190610f8c919061435f565b80670de0b6b3a7640000111580156124fa5750671bc16d674ec8000081105b61250357600080fd5b60098201819055815460408051918252602082018390527fcb172826d870a4b37246542a18613f24fcc0a3ce4ed56d876cc6ad72785f00dc910161082b565b604080516001600160a01b0385811660248301528481166044830152606480830185905283518084039091018152608490920183526020820180516001600160e01b03166323b872dd60e01b17905291516000928392908816916125a69190614b9d565b6000604051808303816000865af19150503d80600081146125e3576040519150601f19603f3d011682016040523d82523d6000602084013e6125e8565b606091505b50915091508180156126125750805115806126125750808060200190518101906126129190614342565b6126445760405162461bcd60e51b815260206004820152600360248201526229aa2360e91b6044820152606401610463565b505050505050565b600042826040015183600001516126639190614bb9565b1092915050565b6000808360600151670de0b6b3a7640000856020015161268a9190614378565b61269491906143a5565b90506000670de0b6b3a7640000856060015186602001516126b59190614378565b6126bf91906143a5565b9050818410806118895750929092109392505050565b670de0b6b3a76400008111156126ea57600080fd5b60075460408481015160608601519151632440490960e21b81526001600160401b0390911660048201526024810191909152600091670de0b6b3a76400009184916001600160a01b031690639101242490604401602060405180830381865afa15801561275b573d6000803e3d6000fd5b505050506040513d601f19601f8201168201806040525081019061277f919061435f565b6127899190614664565b6127939190614694565b9050600060029054906101000a90046001600160a01b03166001600160a01b0316637a2b78d6856060015186604001516040518060e00160405280866127d8906141cd565b815260200160008152602001886000015181526020018860200151815260200188604001518152602001600015158152602001604051806020016040528060008152508152506040518463ffffffff1660e01b815260040161283c9392919061420d565b610100604051808303816000875af115801561285c573d6000803e3d6000fd5b505050506040513d601f19601f8201168201806040525081019061288091906142a6565b50835160408051918252602082018390527f0f3204eab26ae4597b2bc50062ebf237200e166584ac00e897f0e1bdfdf7540d9101611357565b600054610100900460ff166129245760405162461bcd60e51b815260206004820152602b60248201527f496e697469616c697a61626c653a20636f6e7472616374206973206e6f74206960448201526a6e697469616c697a696e6760a81b6064820152608401610463565b600080546001600160a01b03909316620100000262010000600160b01b031990931692909217909155805160035560200151600455600580546001600160a01b031916331790556001600255565b600081612981846001856132ca565b610f299190614378565b604080516001600160a01b038481166024830152604480830185905283518084039091018152606490920183526020820180516001600160e01b031663a9059cbb60e01b17905291516000928392908716916129e79190614b9d565b6000604051808303816000865af19150503d8060008114612a24576040519150601f19603f3d011682016040523d82523d6000602084013e612a29565b606091505b5091509150818015612a53575080511580612a53575080806020019051810190612a539190614342565b612a845760405162461bcd60e51b815260206004820152600260248201526114d560f21b6044820152606401610463565b5050505050565b60008054604051632500ed8d60e21b8152600481018490528291829182916201000090046001600160a01b031690639403b63490602401600060405180830381865afa158015612adf573d6000803e3d6000fd5b505050506040513d6000823e601f3d908101601f19168201604052612b079190810190614537565b905060008160a00151600081518110612b2257612b2261464e565b6020026020010151905086602001518760000151612b4091906146c2565b94508060a0015160200151816080015160200151612b5e91906146c2565b93508160600151925050509250925092565b600080612bbb86670de0b6b3a764000087612b8a876132e8565b612b9491906146c2565b612b9d886132e8565b612ba79190614664565b612bb19190614694565b6123d69190614bcc565b9050612bcf84670de0b6b3a7640000614bec565b612be1670de0b6b3a764000083614378565b61213c91906143a5565b60008161298184600185613352565b6020518181526000602082015260006040820152606081fd5b612c556040518060e001604052806000815260200160008152602001600081526020016000815260200160008152602001600015158152602001606081525090565b60008060606000612c6e88612c698b612473565b613378565b6000805460608c0151604051632500ed8d60e21b815260048101919091529293509091620100009091046001600160a01b031690639403b63490602401600060405180830381865afa158015612cc8573d6000803e3d6000fd5b505050506040513d6000823e601f3d908101601f19168201604052612cf09190810190614537565b9050612d22828260a00151600081518110612d0d57612d0d61464e565b602002602001015160800151600001516133a0565b9450612d54828260a00151600081518110612d3f57612d3f61464e565b602002602001015160a00151600001516133a0565b995160408051602080820195909552338183015299151560608b01526080808b01929092528051808b0390920182526101808a01815260a08a0196875260c08a019b909b52875160e08a015291870151610100890152509490970151610120860152506001610140850152610160909301919091525092915050565b6000612ddb826133d9565b90506000612de8836133ee565b6001600160a01b0316905080612e03613086620f4240614bb9565b612e1084620f4240614bff565b6001600160a01b0316612e2391906143a5565b11158015612e5d5750620f4240612e3c61308682614bb9565b612e4f906001600160a01b038516614378565b612e5991906143a5565b8111155b61122f5760405162461bcd60e51b815260206004820152600760248201526614db1a5c1c195960ca1b6044820152606401610463565b600080821215612ee55760405162461bcd60e51b815260206004820181905260248201527f53616665436173743a2076616c7565206d75737420626520706f7369746976656044820152606401610463565b5090565b60025460008054604051631d591eb760e31b81526001600160401b0385166004820152620100009091046001600160a01b03169063eac8f5b89060240161072060405180830381865afa158015612f44573d6000803e3d6000fd5b505050506040513d601f19601f82011682018060405250810190612f689190614995565b60008054602083015160405162a1094560e71b815260048101919091529293509091620100009091046001600160a01b031690635084a28090602401606060405180830381865afa158015612fc1573d6000803e3d6000fd5b505050506040513d601f19601f82011682018060405250810190612fe59190614c31565b905060405180610100016040528084815260200182600001516001600160401b03168152602001856001600160401b031681526020016000815260200182602001516001600160a01b031681526020018260400151600a6130469190614d5e565b815260208381015160808601515160405163fbe29ddb60e01b81526001600160a01b039283166004820152911660248201529101907375dB1c4FFA162a59556FB9774667D5e7c4fFE3079063fbe29ddb90604401602060405180830381865af41580156130b7573d6000803e3d6000fd5b505050506040513d601f19601f820116820180604052508101906130db919061419a565b6001600160a01b0390811682526040805160808101825242815260005491516318e8074960e01b81526001600160401b038a166004820152602094850194919391840192620100009004909116906318e8074990602401602060405180830381865afa15801561314f573d6000803e3d6000fd5b505050506040513d601f19601f82011682018060405250810190613173919061419a565b6001600160a01b0390811682526202a300602080840191909152670e63882d5a95840060409384015292909352600087815260018084529082902085518155858401519181018054878501516001600160401b03908116600160401b026fffffffffffffffffffffffffffffffff1990921694169390931792909217909155606080860151600283015560808601516003830180549187166001600160a01b031992831617905560a0870151600484015560c08701516005840180549190971691161790945560e09094015180516006860155918201516007850155818101516008850155910151600990920191909155517ffebb9f26df190a233aa50cb5f7b0bbd7424869fd4c681fa16c05a8d971129d1f906132a690859087909182526001600160401b0316602082015260400190565b60405180910390a1600280549060006132be83614d6d565b91905055505050919050565b60008260001904841183021582026132e157600080fd5b5091020490565b60006001600160ff1b03821115612ee55760405162461bcd60e51b815260206004820152602860248201527f53616665436173743a2076616c756520646f65736e27742066697420696e2061604482015267371034b73a191a9b60c11b6064820152608401610463565b600082600019048411830215820261336957600080fd5b50910281810615159190040190565b60006133848383614bb9565b613396670de0b6b3a764000085614378565b610f2991906143a5565b60006133bc6133b784670de0b6b3a7640000614bec565b6132e8565b6133c5846132e8565b6133cf9084614664565b610f299190614694565b60006133e78261070861345f565b5092915050565b6000816001600160a01b0316633850c7bd6040518163ffffffff1660e01b815260040160e060405180830381865afa15801561342e573d6000803e3d6000fd5b505050506040513d601f19601f820116820180604052508101906134529190614d98565b5094979650505050505050565b604080516002808252606082018352600092839283929091602083019080368337019050509050838160008151811061349a5761349a61464e565b602002602001019063ffffffff16908163ffffffff16815250506000816001815181106134c9576134c961464e565b602002602001019063ffffffff16908163ffffffff1681525050600080866001600160a01b031663883bdbfd60e01b846040516024016135099190614e24565b60408051601f198184030181529181526020820180516001600160e01b03166001600160e01b03199094169390931790925290516135479190614b9d565b600060405180830381855afa9150503d8060008114613582576040519150601f19603f3d011682016040523d82523d6000602084013e613587565b606091505b5091509150816138675760405160206024820152600360448201526213d31160ea1b606482015260840160408051601f19818403018152919052602080820180516001600160e01b031662461bcd60e51b1781529151909120825191830191909120146135f7576135f7816138ec565b600080886001600160a01b0316633850c7bd6040518163ffffffff1660e01b815260040160e060405180830381865afa158015613638573d6000803e3d6000fd5b505050506040513d601f19601f8201168201806040525081019061365c9190614d98565b5050509350935050506000808a6001600160a01b031663252c09d7848660016136859190614e6e565b61368f9190614e89565b6040516001600160e01b031960e084901b16815261ffff9091166004820152602401608060405180830381865afa1580156136ce573d6000803e3d6000fd5b505050506040513d601f19601f820116820180604052508101906136f29190614ebc565b9350505091508061376d5760405163252c09d760e01b8152600060048201526001600160a01b038c169063252c09d790602401608060405180830381865afa158015613742573d6000803e3d6000fd5b505050506040513d601f19601f820116820180604052508101906137669190614ebc565b5091935050505b61377d63ffffffff831642614bec565b995089876000815181106137935761379361464e565b602002602001019063ffffffff16908163ffffffff16815250508a6001600160a01b031663883bdbfd60e01b886040516024016137d09190614e24565b60408051601f198184030181529181526020820180516001600160e01b03166001600160e01b031990941693909317909252905161380e9190614b9d565b600060405180830381855afa9150503d8060008114613849576040519150601f19603f3d011682016040523d82523d6000602084013e61384e565b606091505b5090965094508561386257613862856138ec565b505050505b60008180602001905181019061387d9190614f20565b9050600087826000815181106138955761389561464e565b6020026020010151836001815181106138b0576138b061464e565b60200260200101516138c29190614fac565b6138cc9190614fd9565b905060006138d982613933565b97508896505050505050505b9250929050565b8051156138fb57805181602001fd5b60405162461bcd60e51b815260206004820152600d60248201526c3297b2b6b83a3c96b2b93937b960991b6044820152606401610463565b60008060008360020b1261394a578260020b613952565b8260020b6000035b9050620d89e8811115613978576040516315e4079d60e11b815260040160405180910390fd5b60008160011660000361398f57600160801b6139a1565b6ffffcb933bd6fad37aa2d162d1a5940015b70ffffffffffffffffffffffffffffffffff16905060028216156139d5576ffff97272373d413259a46990580e213a0260801c5b60048216156139f4576ffff2e50f5f656932ef12357cf3c7fdcc0260801c5b6008821615613a13576fffe5caca7e10e4e61c3624eaa0941cd00260801c5b6010821615613a32576fffcb9843d60f6159c9db58835c9266440260801c5b6020821615613a51576fff973b41fa98c081472e6896dfb254c00260801c5b6040821615613a70576fff2ea16466c96a3843ec78b326b528610260801c5b6080821615613a8f576ffe5dee046a99a2a811c461f1969c30530260801c5b610100821615613aaf576ffcbe86c7900a88aedcffc83b479aa3a40260801c5b610200821615613acf576ff987a7253ac413176f2b074cf7815e540260801c5b610400821615613aef576ff3392b0822b70005940c7a398e4b70f30260801c5b610800821615613b0f576fe7159475a2c29b7443b29c7fa6e889d90260801c5b611000821615613b2f576fd097f3bdfd2022b8845ad8f792aa58250260801c5b612000821615613b4f576fa9f746462d870fdf8a65dc1f90e061e50260801c5b614000821615613b6f576f70d869a156d2a1b890bb3df62baf32f70260801c5b618000821615613b8f576f31be135f97d08fd981231505542fcfa60260801c5b62010000821615613bb0576f09aa508b5b7a84e1c677de54f3e99bc90260801c5b62020000821615613bd0576e5d6af8dedb81196699c329225ee6040260801c5b62040000821615613bef576d2216e584f5fa1ea926041bedfe980260801c5b62080000821615613c0c576b048a170391f7dc42444e8fa20260801c5b60008460020b1315613c2d578060001981613c2957613c2961438f565b0490505b640100000000810615613c41576001613c44565b60005b60ff16602082901c0192505050919050565b6001600160a01b038116811461230857600080fd5b600060208284031215613c7d57600080fd5b8135610f2981613c56565b634e487b7160e01b600052604160045260246000fd5b604051606081016001600160401b0381118282101715613cc057613cc0613c88565b60405290565b604080519081016001600160401b0381118282101715613cc057613cc0613c88565b60405160c081016001600160401b0381118282101715613cc057613cc0613c88565b60405161010081016001600160401b0381118282101715613cc057613cc0613c88565b604051608081016001600160401b0381118282101715613cc057613cc0613c88565b60405161022081016001600160401b0381118282101715613cc057613cc0613c88565b60405161016081016001600160401b0381118282101715613cc057613cc0613c88565b604051601f8201601f191681016001600160401b0381118282101715613dbd57613dbd613c88565b604052919050565b600060608284031215613dd757600080fd5b613ddf613c9e565b905081358152602082013560208201526040820135604082015292915050565b600080600060a08486031215613e1457600080fd5b8335925060208401359150613e2c8560408601613dc5565b90509250925092565b60008060408385031215613e4857600080fd5b50508035926020909101359150565b6001600160401b038116811461230857600080fd5b6000806000806000806000610120888a031215613e8857600080fd5b873596506020880135613e9a81613e57565b9550604088013594506060880135935060808801359250613ebe8960a08a01613dc5565b9150610100880135905092959891949750929550565b600060208284031215613ee657600080fd5b5035919050565b600080600060a08486031215613f0257600080fd5b83359250613f138560208601613dc5565b9150608084013590509250925092565b60008060008385036080811215613f3957600080fd5b8435613f4481613c56565b93506020850135613f5481613c56565b92506040603f1982011215613f6857600080fd5b50613f71613cc6565b604085013581526060909401356020850152509093909250565b600080600080600060e08688031215613fa357600080fd5b85359450602086013593506040860135613fbc81613c56565b925060608601359150613fd28760808801613dc5565b90509295509295909350565b60008083601f840112613ff057600080fd5b5081356001600160401b0381111561400757600080fd5b6020830191508360208285010111156138e557600080fd5b600080600083850361012081121561403657600080fd5b6101008082121561404657600080fd5b61404e613c9e565b60c083121561405c57600080fd5b614064613ce8565b87358152602080890135818301526040808a0135818401526060808b0135908401526080808b01359084015260a0808b01359084015291835260c08901359083015260e088013590820152945085013590506001600160401b038111156140ca57600080fd5b6140d686828701613fde565b9497909650939450505050565b801515811461230857600080fd5b600080600080600080610100878903121561410b57600080fd5b8635955060208701359450604087013561412481613c56565b935060608701359250608087013561413b816140e3565b915061414a8860a08901613dc5565b90509295509295509295565b60208082526024908201527f4261736553747261746567793a2063616c6c6572206973206e6f74206f70657260408201526330ba37b960e11b606082015260800190565b6000602082840312156141ac57600080fd5b8151610f2981613c56565b634e487b7160e01b600052601160045260246000fd5b6000600160ff1b82016141e2576141e26141b7565b5060000390565b60005b838110156142045781810151838201526020016141ec565b50506000910152565b8381526001600160401b0383166020820152606060408201528151606082015260208201516080820152604082015160a0820152606082015160c0820152608082015160e082015260a08201511515610100820152600060c083015160e061012084015280518061014085015261016061428d82828701602086016141e9565b80601f19601f8401168601019350505050949350505050565b60008183036101008112156142ba57600080fd5b6142c2613c9e565b60c08212156142d057600080fd5b6142d8613ce8565b9150835182526020840151602083015260408401516040830152606084015160608301526080840151608083015260a084015160a083015281815260c0840151602082015260e08401516040820152809250505092915050565b805161433d816140e3565b919050565b60006020828403121561435457600080fd5b8151610f29816140e3565b60006020828403121561437157600080fd5b5051919050565b8082028115828204841417610f8c57610f8c6141b7565b634e487b7160e01b600052601260045260246000fd5b6000826143b4576143b461438f565b500490565b805161433d81613c56565b60006001600160401b038211156143dd576143dd613c88565b5060051b60200190565b805161433d81613e57565b8051600281900b811461433d57600080fd5b60006040828403121561441657600080fd5b61441e613cc6565b9050815181526020820151602082015292915050565b600060c0828403121561444657600080fd5b61444e613ce8565b9050815181526020820151602082015260408201516040820152606082015160608201526080820151608082015260a082015160a082015292915050565b6000610200828403121561449f57600080fd5b6144a7613d0a565b90506144b2826143e7565b81526144c0602083016143f2565b60208201526144d1604083016143f2565b60408201526144e2606083016143e7565b60608201526144f48360808401614404565b60808201526145068360c08401614434565b60a0820152614519836101808401614404565b60c082015261452c836101c08401614404565b60e082015292915050565b6000602080838503121561454a57600080fd5b82516001600160401b038082111561456157600080fd5b9084019060c0828703121561457557600080fd5b61457d613ce8565b825181528383015184820152604083015161459781613c56565b60408201526060838101519082015260808301516145b4816140e3565b608082015260a0830151828111156145cb57600080fd5b80840193505086601f8401126145e057600080fd5b825191506145f56145f0836143c4565b613d95565b82815260099290921b8301840191848101908884111561461457600080fd5b938501935b8385101561463e5761462b898661448c565b8252858201915061020085019450614619565b60a0830152509695505050505050565b634e487b7160e01b600052603260045260246000fd5b80820260008212600160ff1b84141615614680576146806141b7565b8181058314821517610f8c57610f8c6141b7565b6000826146a3576146a361438f565b600160ff1b8214600019841416156146bd576146bd6141b7565b500590565b80820182811260008312801582168215821617156146e2576146e26141b7565b505092915050565b6000806000806080858703121561470057600080fd5b84359350602085013561471281613c56565b92506040850135614722816140e3565b9396929550929360600135925050565b60006080828403121561474457600080fd5b61474c613d2d565b90508151815260208201516020820152604082015160408201526060820151606082015292915050565b60008183036101c081121561478a57600080fd5b614792613ce8565b9150825161479f81613c56565b825260208301516147af81613c56565b602083015260c0603f19820112156147c657600080fd5b506147cf613ce8565b60408301518152606083015160208201526080830151604082015260a0830151606082015260c0830151608082015260e083015160a08201528060408301525061481d836101008401614732565b606082015261018082015160808201526101a082015160a082015292915050565b60006060828403121561485057600080fd5b614858613c9e565b90508151815261486a602083016143f2565b602082015261487b604083016143f2565b604082015292915050565b6000610260828403121561489957600080fd5b6148a1613d4f565b90506148ac826143b9565b81526148ba602083016143f2565b60208201526148cb604083016143f2565b60408201526148dc606083016143e7565b60608201526080828101519082015260a0808301519082015260c0808301519082015260e08083015190820152610100808301519082015261012080830151908201526101408083015190820152610160808301519082015261018080830151908201526101a061494f84828501614404565b908201526101e061496284848301614404565b6101c08301526102208301519082015261024090910151610200820152919050565b805160ff8116811461433d57600080fd5b600061072082840312156149a857600080fd5b6149b0613d72565b82518152602083015160208201526149ca604084016143b9565b60408201526149dc8460608501614776565b60608201526149ef846102208501614776565b6080820152614a02846103e0850161483e565b60a0820152614a15846104408501614886565b60c0820152614a276106a08401614332565b60e0820152614a396106c08401614332565b610100820152614a4c6106e08401614984565b610120820152610700929092015161014083015250919050565b60006020808385031215614a7957600080fd5b82516001600160401b0380821115614a9057600080fd5b9084019060c08287031215614aa457600080fd5b614aac613ce8565b82518152838301518482015260408084015181830152606080850151818401526080850151608084015260a085015184811115614ae857600080fd5b80860195505088601f860112614afd57600080fd5b84519350614b0d6145f0856143c4565b848152610260948502860187019487820191908b871115614b2d57600080fd5b968801965b86881015614b895780888d031215614b4a5760008081fd5b614b52613d2d565b88518152614b628d8b8b0161448c565b818b0152610220890151868201526102408901518582015283529687019691880191614b32565b5060a0850152509198975050505050505050565b60008251614baf8184602087016141e9565b9190910192915050565b80820180821115610f8c57610f8c6141b7565b81810360008312801583831316838312821617156133e7576133e76141b7565b81810381811115610f8c57610f8c6141b7565b6001600160a01b03828116828216818102831692918115828504821417614c2857614c286141b7565b50505092915050565b600060608284031215614c4357600080fd5b614c4b613c9e565b825181526020830151614c5d81613c56565b6020820152614c6e60408401614984565b60408201529392505050565b600181815b80851115614cb5578160001904821115614c9b57614c9b6141b7565b80851615614ca857918102915b93841c9390800290614c7f565b509250929050565b600082614ccc57506001610f8c565b81614cd957506000610f8c565b8160018114614cef5760028114614cf957614d15565b6001915050610f8c565b60ff841115614d0a57614d0a6141b7565b50506001821b610f8c565b5060208310610133831016604e8410600b8410161715614d38575081810a610f8c565b614d428383614c7a565b8060001904821115614d5657614d566141b7565b029392505050565b6000610f2960ff841683614cbd565b600060018201614d7f57614d7f6141b7565b5060010190565b805161ffff8116811461433d57600080fd5b600080600080600080600060e0888a031215614db357600080fd5b8751614dbe81613c56565b9650614dcc602089016143f2565b9550614dda60408901614d86565b9450614de860608901614d86565b9350614df660808901614d86565b9250614e0460a08901614984565b915060c0880151614e14816140e3565b8091505092959891949750929550565b6020808252825182820181905260009190848201906040850190845b81811015614e6257835163ffffffff1683529284019291840191600101614e40565b50909695505050505050565b61ffff8181168382160190808211156133e7576133e76141b7565b600061ffff80841680614e9e57614e9e61438f565b92169190910692915050565b8051600681900b811461433d57600080fd5b60008060008060808587031215614ed257600080fd5b845163ffffffff81168114614ee657600080fd5b9350614ef460208601614eaa565b92506040850151614f0481613c56565b6060860151909250614f15816140e3565b939692955090935050565b60006020808385031215614f3357600080fd5b82516001600160401b03811115614f4957600080fd5b8301601f81018513614f5a57600080fd5b8051614f686145f0826143c4565b81815260059190911b82018301908381019087831115614f8757600080fd5b928401925b82841015610cac57614f9d84614eaa565b82529284019290840190614f8c565b600682810b9082900b03667fffffffffffff198112667fffffffffffff82131715610f8c57610f8c6141b7565b60008160060b8360060b80614ff057614ff061438f565b667fffffffffffff1982146000198214161561500e5761500e6141b7565b9005939250505056fea26469706673582212201d429493038eadf6832efc639be8b38e98d82a8b6a6a75d823b8f8c388fe697964736f6c63430008130033",
  "deployedBytecode": "0x608060405234801561001057600080fd5b506004361061014d5760003560e01c80638019ea4c116100c3578063b0b934611161007c578063b0b93461146102c8578063b3ab15fb146102db578063c661a333146102ee578063d4fc42c614610301578063d574ea3d14610314578063e75722301461042657600080fd5b80638019ea4c146102565780638667e3bd146102695780638ac6eaf71461027c5780638b8887511461028f57806392ab723e146102a25780639598da7f146102b557600080fd5b80634299ac46116101155780634299ac46146101d45780635404a617146101e757806356322586146101fa578063570ca7351461020d5780635a344073146102205780637607ccc81461024357600080fd5b80630275541114610152578063079cff94146101675780631839fbe21461019757806322068b44146101aa5780633d7034e2146101c1575b600080fd5b610165610160366004613c6b565b610439565b005b60095461017a906001600160a01b031681565b6040516001600160a01b0390911681526020015b60405180910390f35b6101656101a5366004613dff565b6104d4565b6101b360025481565b60405190815260200161018e565b6101656101cf366004613e35565b610793565b6101b36101e2366004613e6c565b610837565b6101656101f5366004613e35565b610cb7565b6101b3610208366004613ed4565b610df4565b60055461017a906001600160a01b031681565b61023361022e366004613ed4565b610f30565b604051901515815260200161018e565b610165610251366004613eed565b610f92565b610165610264366004613f23565b611234565b6101b3610277366004613f8b565b611366565b61016561028a366004613e35565b611892565b6101b361029d36600461401f565b6118dd565b6101b36102b0366004613ed4565b611aeb565b6101656102c3366004613c6b565b611ba3565b6102336102d6366004613ed4565b611c2e565b6101656102e9366004613c6b565b611d7d565b6101b36102fc3660046140f1565b611e08565b60075461017a906001600160a01b031681565b6103ae610322366004613ed4565b60016020818152600092835260409283902080549281015460028201546003830154600484015460058501548851608081018a5260068701548152600787015497810197909752600886015498870198909852600990940154606086015294956001600160401b0380841696600160401b909404169491936001600160a01b0393841693909291169088565b604080519889526001600160401b039788166020808b019190915296909716888801526060808901959095526001600160a01b03938416608089015260a088019290925290911660c0860152805160e0860152918201516101008501529181015161012084015201516101408201526101600161018e565b6101b3610434366004613ed4565b612146565b6005546001600160a01b0316331461046c5760405162461bcd60e51b815260040161046390614156565b60405180910390fd5b6001600160a01b03811661047f57600080fd5b600980546001600160a01b0319166001600160a01b0383169081179091556040519081527fddccb1cfdddc43a6b06c07aa52a70f68e9eb3465e92d5105079d1e0d7923b9fa906020015b60405180910390a150565b6005546001600160a01b031633146104fe5760405162461bcd60e51b815260040161046390614156565b610507836122c2565b600083815260016020818152604080842081516101008101835281548152938101546001600160401b0380821686860152600160401b90910416848301908152600282015460608087019190915260038301546001600160a01b0390811660808089019190915260048086015460a08a01526005860154831660c08a015286519182018752600686015482526007860154978201979097526008850154818701526009909401549184019190915260e08601929092528554905192516318e8074960e01b815294959462010000909104909116926318e80749926105fc929091016001600160401b0391909116815260200190565b602060405180830381865afa158015610619573d6000803e3d6000fd5b505050506040513d601f19601f8201168201806040525081019061063d919061419a565b6001600160a01b0316905060006106568286600061230b565b61065f906141cd565b60008054606086810151604080890151815160e08101835287815260208082018e90528c51828501528c810151958201959095528b830151608082015260a081018790528251948501835295845260c086019390935251633d15bc6b60e11b8152949550620100009092046001600160a01b031693637a2b78d6936106e893929160040161420d565b610100604051808303816000875af1158015610708573d6000803e3d6000fd5b505050506040513d601f19601f8201168201806040525081019061072c91906142a6565b50600061073c8460600151612330565b9050806003600001541115801561075557506004548111155b61078a5760405162461bcd60e51b81526004016104639060208082526004908201526311d4d4cd60e21b604082015260600190565b50505050505050565b6005546001600160a01b031633146107bd5760405162461bcd60e51b815260040161046390614156565b6107c6826122c2565b80610e10111580156107db5750621275008111155b6107e457600080fd5b60008281526001602090815260409182902060080183905581518481529081018390527fb11913cb371c2e22c43e8e16ade81d3f293f54df05a6dc22235537ad4314f31291015b60405180910390a15050565b6005546000906001600160a01b031633146108645760405162461bcd60e51b815260040161046390614156565b61086c6123db565b60006108788989612434565b60408051610100810182528254815260018301546001600160401b03808216602080850191909152600160401b9092041682840152600284015460608084019190915260038501546001600160a01b03908116608080860191909152600487015460a0860152600587015490911660c0850152845190810185526006860154815260078601549281019290925260088501549382019390935260098401549281019290925260e081019190915290915061093190612473565b156109675760405162461bcd60e51b8152600401610463906020808252600490820152630475353360e41b604082015260600190565b61097181846124db565b600381015461098b906001600160a01b031633308a612542565b600381015460005460405163095ea7b360e01b81526001600160a01b036201000090920482166004820152602481018a905291169063095ea7b3906044016020604051808303816000875af11580156109e8573d6000803e3d6000fd5b505050506040513d601f19601f82011682018060405250810190610a0c9190614342565b5060008054600183015460028401546040516339250da760e11b81526001600160401b0390921660048301526024820152604481018a905260648101929092526201000090046001600160a01b03169063724a1b4e906084016020604051808303816000875af1158015610a84573d6000803e3d6000fd5b505050506040513d601f19601f82011682018060405250810190610aa8919061435f565b6002820181905560005460405163156c991d60e31b81526004810192909252600160248301526201000090046001600160a01b03169063ab64c8e890604401600060405180830381600087803b158015610b0157600080fd5b505af1158015610b15573d6000803e3d6000fd5b505060008054600285015460018601546040805160e0810182528d815260208082018e90528c51828401528c81015160608301528c830151608083015260a082018790528251908101835295865260c081019590955251633d15bc6b60e11b8152620100009093046001600160a01b03169550637a2b78d69450610bb0939192600160401b9091046001600160401b0316919060040161420d565b610100604051808303816000875af1158015610bd0573d6000803e3d6000fd5b505050506040513d601f19601f82011682018060405250810190610bf491906142a6565b5060058101546040516340c10f1960e01b8152336004820152602481018990526001600160a01b03909116906340c10f1990604401600060405180830381600087803b158015610c4357600080fd5b505af1158015610c57573d6000803e3d6000fd5b5050825460408051918252602082018b905281018a90523392507f183f7d83e8b0bd3e46612a2d440145cfc36efbbc6a887f84c2af53b3a4405180915060600160405180910390a2549050610cac6001600655565b979650505050505050565b6005546001600160a01b03163314610ce15760405162461bcd60e51b815260040161046390614156565b60008281526001602081815260409283902083516101008101855281548152928101546001600160401b0380821685850152600160401b9091041683850152600281015460608085019190915260038201546001600160a01b0390811660808087019190915260048085015460a08801526005850154831660c0880190815288519283018952600686015483526007860154968301969096526008850154828901526009909401549281019290925260e085019190915291519351632770a7eb60e21b815233918101919091526024810185905291921690639dc29fac90604401600060405180830381600087803b158015610ddc57600080fd5b505af115801561078a573d6000803e3d6000fd5b5050565b6000610dff826122c2565b60008281526001602081815260409283902083516101008101855281548152928101546001600160401b0380821685850152600160401b90910481168486019081526002830154606080870191825260038501546001600160a01b039081166080808a019190915260048088015460a08b01526005880154831660c08b01528a519182018b5260068801548252600780890154998301999099526008880154828c01526009909701549281019290925260e08801919091529454915190519651632440490960e21b815292169282019290925260248101949094529192911690639101242490604401602060405180830381865afa158015610f05573d6000803e3d6000fd5b505050506040513d601f19601f82011682018060405250810190610f29919061435f565b9392505050565b6000610f3b826122c2565b610f8c6001600084815260200190815260200160002060060160405180608001604052908160008201548152602001600182015481526020016002820154815260200160038201548152505061264c565b92915050565b6009546001600160a01b03163314610fec5760405162461bcd60e51b815260206004820152601960248201527f4753533a2063616c6c6572206973206e6f7420686564676572000000000000006044820152606401610463565b610ff46123db565b610ffd836122c2565b600083815260016020819052604080832083549281015491516318e8074960e01b8152600160401b9092046001600160401b0316600483015292916201000090046001600160a01b0316906318e8074990602401602060405180830381865afa15801561106e573d6000803e3d6000fd5b505050506040513d601f19601f82011682018060405250810190611092919061419a565b6001600160a01b031690506110dc8260060160405180608001604052908160008201548152602001600182015481526020016002820154815260200160038201548152505061264c565b8061111d57506040805160808101825260068401548152600784015460208201526008840154918101919091526009830154606082015261111d908261266a565b61114e5760405162461bcd60e51b8152602060048201526002602482015261544760f01b6044820152606401610463565b60408051610100810182528354815260018401546001600160401b03808216602080850191909152600160401b9092041682840152600285015460608084019190915260038601546001600160a01b03908116608080860191909152600488015460a0860152600588015490911660c0850152845190810185526006870154815260078701549281019290925260088601549382019390935260098501549281019290925260e08101919091526112069085856126d5565b82670de0b6b3a76400000361122357600782018190554260068301555b505061122f6001600655565b505050565b600054610100900460ff16158080156112545750600054600160ff909116105b8061126e5750303b15801561126e575060005460ff166001145b6112d15760405162461bcd60e51b815260206004820152602e60248201527f496e697469616c697a61626c653a20636f6e747261637420697320616c72656160448201526d191e481a5b9a5d1a585b1a5e995960921b6064820152608401610463565b6000805460ff1916600117905580156112f4576000805461ff0019166101001790555b6112fe84836128b9565b600780546001600160a01b0319166001600160a01b0385161790558015611360576000805461ff0019169055604051600181527f7f26b83ff96e1f2b6a682f133852f6798a09c465da95921460cefb3847402498906020015b60405180910390a15b50505050565b60006113706123db565b611379866122c2565b600086815260016020818152604080842081516101008101835281548152938101546001600160401b0380821686860152600160401b9091041684830152600281015460608086019190915260038201546001600160a01b03908116608080880191909152600484015460a0880152600584015490911660c08701528351908101845260068301548152600783015494810194909452600882015492840192909252600901549082015260e08201529061143282612473565b611444670de0b6b3a764000089614378565b61144e91906143a5565b600080546060850151604051632500ed8d60e21b815260048101919091529293509091620100009091046001600160a01b031690639403b63490602401600060405180830381865afa1580156114a8573d6000803e3d6000fd5b505050506040513d6000823e601f3d908101601f191682016040526114d09190810190614537565b905060008060029054906101000a90046001600160a01b03166001600160a01b0316637a2b78d6856060015186604001516040518060e00160405280670de0b6b3a76400008860a0015160008151811061152c5761152c61464e565b602002602001015160800151600001518a611546906141cd565b6115509190614664565b61155a9190614694565b8152602001670de0b6b3a76400008860a0015160008151811061157f5761157f61464e565b602002602001015160a00151600001518a611599906141cd565b6115a39190614664565b6115ad9190614694565b81526020018b6000015181526020018b6020015181526020018b604001518152602001600015158152602001604051806020016040528060008152508152506040518463ffffffff1660e01b815260040161160a9392919061420d565b610100604051808303816000875af115801561162a573d6000803e3d6000fd5b505050506040513d601f19601f8201168201806040525081019061164e91906142a6565b90506000816000015160a00151826000015160800151670de0b6b3a7640000868560200151876060015161168291906146c2565b61168c9190614664565b6116969190614694565b6116a091906146c2565b6116aa91906146c2565b90508781121580156116bd575060008812155b6116f25760405162461bcd60e51b8152600401610463906020808252600490820152634753533360e01b604082015260600190565b60c0850151604051632770a7eb60e21b8152336004820152602481018c90526001600160a01b0390911690639dc29fac90604401600060405180830381600087803b15801561174057600080fd5b505af1158015611754573d6000803e3d6000fd5b50505050611766818660a00151612972565b9550600060029054906101000a90046001600160a01b03166001600160a01b031663724a1b4e86602001518760600151896117a0906141cd565b6040516001600160e01b031960e086901b1681526001600160401b03909316600484015260248301919091526044820152600060648201526084016020604051808303816000875af11580156117fa573d6000803e3d6000fd5b505050506040513d601f19601f8201168201806040525081019061181e919061435f565b5061182e85608001518a8861298b565b604080518c8152602081018c90529081018790526001600160a01b038a16907f7ed114e5faffa35cd08aa2a119df8db932afea80ece5cb37af070572f120dc929060600160405180910390a250505050506118896001600655565b95945050505050565b6005546001600160a01b031633146118bc5760405162461bcd60e51b815260040161046390614156565b6118c5826122c2565b6000828152600160205260409020610df090826124db565b600080546201000090046001600160a01b031633146119275760405162461bcd60e51b8152600401610463906020808252600490820152634753533560e01b604082015260600190565b6000808080611938868801886146ea565b600081815260016020818152604080842081516101008101835281548152938101546001600160401b0380821686860152600160401b90910416848301526002810154606080860191825260038301546001600160a01b03908116608080890191909152600485015460a0890152600585015490911660c088015284519081018552600684015481526007840154958101959095526008830154938501939093526009909101549183019190915260e08301919091528e519051969a509498509296509094509092909182918291611a0f91612a8b565b9250925092506000611a2384848b85612b70565b9050611a33818660a00151612beb565b600881905590508615611a4957611a4981612bfa565b611a598560800151893084612542565b608085015160005460405163095ea7b360e01b81526001600160a01b0362010000909204821660048201526024810184905291169063095ea7b3906044016020604051808303816000875af1158015611ab6573d6000803e3d6000fd5b505050506040513d601f19601f82011682018060405250810190611ada9190614342565b509c9b505050505050505050505050565b600081815260016020818152604080842081516101008101835281548152938101546001600160401b0380821686860152600160401b9091041684830152600281015460608086019190915260038201546001600160a01b03908116608080880191909152600484015460a0880152600584015490911660c08701528351908101845260068301548152600783015494810194909452600882015492840192909252600901549082015260e0820152610f8c90612473565b6005546001600160a01b03163314611bcd5760405162461bcd60e51b815260040161046390614156565b6001600160a01b038116611be057600080fd5b600780546001600160a01b0319166001600160a01b0383169081179091556040519081527f9b5e1beb1e6649002b63d33952d5d892fecf9ccc12defdf8800f910b5ddca5a4906020016104c9565b6000611c39826122c2565b600082815260016020818152604080842081516101008101835281548152938101546001600160401b0380821686860152600160401b90910416848301908152600282015460608087019190915260038301546001600160a01b0390811660808089019190915260048086015460a08a01526005860154831660c08a015286519182018752600686015482526007860154978201979097526008850154818701526009909401549184019190915260e086018390529554905192516318e8074960e01b81529495610f299592946201000090920416926318e8074992611d2e92016001600160401b0391909116815260200190565b602060405180830381865afa158015611d4b573d6000803e3d6000fd5b505050506040513d601f19601f82011682018060405250810190611d6f919061419a565b6001600160a01b031661266a565b6005546001600160a01b03163314611da75760405162461bcd60e51b815260040161046390614156565b6001600160a01b038116611dba57600080fd5b600580546001600160a01b0319166001600160a01b0383169081179091556040519081527fb3b3f5f64ab192e4b5fefde1f51ce9733bbdcf831951543b325aebd49cc27ec4906020016104c9565b6000611e126123db565b611e1b876122c2565b600087815260016020818152604080842081516101008101835281548152938101546001600160401b0380821686860152600160401b9091041684830152600281015460608086019190915260038201546001600160a01b03908116608080880191909152600484015460a0880152600584015490911660c08701528351908101845260068301548152600783015494810194909452600882015492840192909252600901549082015260e082015290611ed482612473565b11611f0a5760405162461bcd60e51b8152600401610463906020808252600490820152634753533160e01b604082015260600190565b6000611f1882898787612c13565b60005460608401516040808601519051633d15bc6b60e11b8152939450620100009092046001600160a01b031692637a2b78d692611f5b9291869060040161420d565b610100604051808303816000875af1158015611f7b573d6000803e3d6000fd5b505050506040513d601f19601f82011682018060405250810190611f9f91906142a6565b5060088054600019909155925085831115611fe55760405162461bcd60e51b81526004016104639060208082526004908201526323a9a99960e11b604082015260600190565b60c08201516040516340c10f1960e01b81526001600160a01b038981166004830152602482018b9052909116906340c10f1990604401600060405180830381600087803b15801561203557600080fd5b505af1158015612049573d6000803e3d6000fd5b5050600080546040868101519051631d591eb760e31b81526001600160401b0390911660048201529193506201000090046001600160a01b0316915063eac8f5b89060240161072060405180830381865afa1580156120ac573d6000803e3d6000fd5b505050506040513d601f19601f820116820180604052508101906120d09190614995565b90506120e38160c0015160000151612dd0565b50604080518a8152602081018a90529081018490526001600160a01b038816907f183f7d83e8b0bd3e46612a2d440145cfc36efbbc6a887f84c2af53b3a44051809060600160405180910390a2505061213c6001600655565b9695505050505050565b6000612151826122c2565b600082815260016020818152604080842081516101008101835281548152938101546001600160401b0380821686860152600160401b90910416848301526002810154606080860191825260038301546001600160a01b0390811660808089019190915260048086015460a08a01526005860154831660c08a015286519182018752600686015482526007860154978201979097526008850154818701526009909401549184019190915260e08601929092528554905192516349ebb77d60e01b8152938401929092529293926201000090910416906349ebb77d906024016000604051808303816000875af115801561224f573d6000803e3d6000fd5b505050506040513d6000823e601f3d908101601f191682016040526122779190810190614a66565b9050600081602001511361228f575060009392505050565b61229882612473565b670de0b6b3a764000082602001516122b09190614378565b6122ba91906143a5565b949350505050565b8060001080156122d3575060025481105b6123085760405162461bcd60e51b81526004016104639060208082526004908201526314d5125160e21b604082015260600190565b50565b60008361231c600160601b85614664565b6123269190614694565b6122ba90836146c2565b600080546040516349ebb77d60e01b81526004810184905282916201000090046001600160a01b0316906349ebb77d906024016000604051808303816000875af1158015612382573d6000803e3d6000fd5b505050506040513d6000823e601f3d908101601f191682016040526123aa9190810190614a66565b9050610f2981602001518260800151670de0b6b3a76400006123cc9190614664565b6123d69190614694565b612e93565b60026006540361242d5760405162461bcd60e51b815260206004820152601f60248201527f5265656e7472616e637947756172643a207265656e7472616e742063616c6c006044820152606401610463565b6002600655565b60008260000361246057600061244983612ee9565b60009081526001602052604090209150610f8c9050565b5050600090815260016020526040902090565b60008160c001516001600160a01b03166318160ddd6040518163ffffffff1660e01b8152600401602060405180830381865afa1580156124b7573d6000803e3d6000fd5b505050506040513d601f19601f82011682018060405250810190610f8c919061435f565b80670de0b6b3a7640000111580156124fa5750671bc16d674ec8000081105b61250357600080fd5b60098201819055815460408051918252602082018390527fcb172826d870a4b37246542a18613f24fcc0a3ce4ed56d876cc6ad72785f00dc910161082b565b604080516001600160a01b0385811660248301528481166044830152606480830185905283518084039091018152608490920183526020820180516001600160e01b03166323b872dd60e01b17905291516000928392908816916125a69190614b9d565b6000604051808303816000865af19150503d80600081146125e3576040519150601f19603f3d011682016040523d82523d6000602084013e6125e8565b606091505b50915091508180156126125750805115806126125750808060200190518101906126129190614342565b6126445760405162461bcd60e51b815260206004820152600360248201526229aa2360e91b6044820152606401610463565b505050505050565b600042826040015183600001516126639190614bb9565b1092915050565b6000808360600151670de0b6b3a7640000856020015161268a9190614378565b61269491906143a5565b90506000670de0b6b3a7640000856060015186602001516126b59190614378565b6126bf91906143a5565b9050818410806118895750929092109392505050565b670de0b6b3a76400008111156126ea57600080fd5b60075460408481015160608601519151632440490960e21b81526001600160401b0390911660048201526024810191909152600091670de0b6b3a76400009184916001600160a01b031690639101242490604401602060405180830381865afa15801561275b573d6000803e3d6000fd5b505050506040513d601f19601f8201168201806040525081019061277f919061435f565b6127899190614664565b6127939190614694565b9050600060029054906101000a90046001600160a01b03166001600160a01b0316637a2b78d6856060015186604001516040518060e00160405280866127d8906141cd565b815260200160008152602001886000015181526020018860200151815260200188604001518152602001600015158152602001604051806020016040528060008152508152506040518463ffffffff1660e01b815260040161283c9392919061420d565b610100604051808303816000875af115801561285c573d6000803e3d6000fd5b505050506040513d601f19601f8201168201806040525081019061288091906142a6565b50835160408051918252602082018390527f0f3204eab26ae4597b2bc50062ebf237200e166584ac00e897f0e1bdfdf7540d9101611357565b600054610100900460ff166129245760405162461bcd60e51b815260206004820152602b60248201527f496e697469616c697a61626c653a20636f6e7472616374206973206e6f74206960448201526a6e697469616c697a696e6760a81b6064820152608401610463565b600080546001600160a01b03909316620100000262010000600160b01b031990931692909217909155805160035560200151600455600580546001600160a01b031916331790556001600255565b600081612981846001856132ca565b610f299190614378565b604080516001600160a01b038481166024830152604480830185905283518084039091018152606490920183526020820180516001600160e01b031663a9059cbb60e01b17905291516000928392908716916129e79190614b9d565b6000604051808303816000865af19150503d8060008114612a24576040519150601f19603f3d011682016040523d82523d6000602084013e612a29565b606091505b5091509150818015612a53575080511580612a53575080806020019051810190612a539190614342565b612a845760405162461bcd60e51b815260206004820152600260248201526114d560f21b6044820152606401610463565b5050505050565b60008054604051632500ed8d60e21b8152600481018490528291829182916201000090046001600160a01b031690639403b63490602401600060405180830381865afa158015612adf573d6000803e3d6000fd5b505050506040513d6000823e601f3d908101601f19168201604052612b079190810190614537565b905060008160a00151600081518110612b2257612b2261464e565b6020026020010151905086602001518760000151612b4091906146c2565b94508060a0015160200151816080015160200151612b5e91906146c2565b93508160600151925050509250925092565b600080612bbb86670de0b6b3a764000087612b8a876132e8565b612b9491906146c2565b612b9d886132e8565b612ba79190614664565b612bb19190614694565b6123d69190614bcc565b9050612bcf84670de0b6b3a7640000614bec565b612be1670de0b6b3a764000083614378565b61213c91906143a5565b60008161298184600185613352565b6020518181526000602082015260006040820152606081fd5b612c556040518060e001604052806000815260200160008152602001600081526020016000815260200160008152602001600015158152602001606081525090565b60008060606000612c6e88612c698b612473565b613378565b6000805460608c0151604051632500ed8d60e21b815260048101919091529293509091620100009091046001600160a01b031690639403b63490602401600060405180830381865afa158015612cc8573d6000803e3d6000fd5b505050506040513d6000823e601f3d908101601f19168201604052612cf09190810190614537565b9050612d22828260a00151600081518110612d0d57612d0d61464e565b602002602001015160800151600001516133a0565b9450612d54828260a00151600081518110612d3f57612d3f61464e565b602002602001015160a00151600001516133a0565b995160408051602080820195909552338183015299151560608b01526080808b01929092528051808b0390920182526101808a01815260a08a0196875260c08a019b909b52875160e08a015291870151610100890152509490970151610120860152506001610140850152610160909301919091525092915050565b6000612ddb826133d9565b90506000612de8836133ee565b6001600160a01b0316905080612e03613086620f4240614bb9565b612e1084620f4240614bff565b6001600160a01b0316612e2391906143a5565b11158015612e5d5750620f4240612e3c61308682614bb9565b612e4f906001600160a01b038516614378565b612e5991906143a5565b8111155b61122f5760405162461bcd60e51b815260206004820152600760248201526614db1a5c1c195960ca1b6044820152606401610463565b600080821215612ee55760405162461bcd60e51b815260206004820181905260248201527f53616665436173743a2076616c7565206d75737420626520706f7369746976656044820152606401610463565b5090565b60025460008054604051631d591eb760e31b81526001600160401b0385166004820152620100009091046001600160a01b03169063eac8f5b89060240161072060405180830381865afa158015612f44573d6000803e3d6000fd5b505050506040513d601f19601f82011682018060405250810190612f689190614995565b60008054602083015160405162a1094560e71b815260048101919091529293509091620100009091046001600160a01b031690635084a28090602401606060405180830381865afa158015612fc1573d6000803e3d6000fd5b505050506040513d601f19601f82011682018060405250810190612fe59190614c31565b905060405180610100016040528084815260200182600001516001600160401b03168152602001856001600160401b031681526020016000815260200182602001516001600160a01b031681526020018260400151600a6130469190614d5e565b815260208381015160808601515160405163fbe29ddb60e01b81526001600160a01b0392831660048201529116602482015291019073__$cd710f183e134f2ed60fc4ce33900e1b11$__9063fbe29ddb90604401602060405180830381865af41580156130b7573d6000803e3d6000fd5b505050506040513d601f19601f820116820180604052508101906130db919061419a565b6001600160a01b0390811682526040805160808101825242815260005491516318e8074960e01b81526001600160401b038a166004820152602094850194919391840192620100009004909116906318e8074990602401602060405180830381865afa15801561314f573d6000803e3d6000fd5b505050506040513d601f19601f82011682018060405250810190613173919061419a565b6001600160a01b0390811682526202a300602080840191909152670e63882d5a95840060409384015292909352600087815260018084529082902085518155858401519181018054878501516001600160401b03908116600160401b026fffffffffffffffffffffffffffffffff1990921694169390931792909217909155606080860151600283015560808601516003830180549187166001600160a01b031992831617905560a0870151600484015560c08701516005840180549190971691161790945560e09094015180516006860155918201516007850155818101516008850155910151600990920191909155517ffebb9f26df190a233aa50cb5f7b0bbd7424869fd4c681fa16c05a8d971129d1f906132a690859087909182526001600160401b0316602082015260400190565b60405180910390a1600280549060006132be83614d6d565b91905055505050919050565b60008260001904841183021582026132e157600080fd5b5091020490565b60006001600160ff1b03821115612ee55760405162461bcd60e51b815260206004820152602860248201527f53616665436173743a2076616c756520646f65736e27742066697420696e2061604482015267371034b73a191a9b60c11b6064820152608401610463565b600082600019048411830215820261336957600080fd5b50910281810615159190040190565b60006133848383614bb9565b613396670de0b6b3a764000085614378565b610f2991906143a5565b60006133bc6133b784670de0b6b3a7640000614bec565b6132e8565b6133c5846132e8565b6133cf9084614664565b610f299190614694565b60006133e78261070861345f565b5092915050565b6000816001600160a01b0316633850c7bd6040518163ffffffff1660e01b815260040160e060405180830381865afa15801561342e573d6000803e3d6000fd5b505050506040513d601f19601f820116820180604052508101906134529190614d98565b5094979650505050505050565b604080516002808252606082018352600092839283929091602083019080368337019050509050838160008151811061349a5761349a61464e565b602002602001019063ffffffff16908163ffffffff16815250506000816001815181106134c9576134c961464e565b602002602001019063ffffffff16908163ffffffff1681525050600080866001600160a01b031663883bdbfd60e01b846040516024016135099190614e24565b60408051601f198184030181529181526020820180516001600160e01b03166001600160e01b03199094169390931790925290516135479190614b9d565b600060405180830381855afa9150503d8060008114613582576040519150601f19603f3d011682016040523d82523d6000602084013e613587565b606091505b5091509150816138675760405160206024820152600360448201526213d31160ea1b606482015260840160408051601f19818403018152919052602080820180516001600160e01b031662461bcd60e51b1781529151909120825191830191909120146135f7576135f7816138ec565b600080886001600160a01b0316633850c7bd6040518163ffffffff1660e01b815260040160e060405180830381865afa158015613638573d6000803e3d6000fd5b505050506040513d601f19601f8201168201806040525081019061365c9190614d98565b5050509350935050506000808a6001600160a01b031663252c09d7848660016136859190614e6e565b61368f9190614e89565b6040516001600160e01b031960e084901b16815261ffff9091166004820152602401608060405180830381865afa1580156136ce573d6000803e3d6000fd5b505050506040513d601f19601f820116820180604052508101906136f29190614ebc565b9350505091508061376d5760405163252c09d760e01b8152600060048201526001600160a01b038c169063252c09d790602401608060405180830381865afa158015613742573d6000803e3d6000fd5b505050506040513d601f19601f820116820180604052508101906137669190614ebc565b5091935050505b61377d63ffffffff831642614bec565b995089876000815181106137935761379361464e565b602002602001019063ffffffff16908163ffffffff16815250508a6001600160a01b031663883bdbfd60e01b886040516024016137d09190614e24565b60408051601f198184030181529181526020820180516001600160e01b03166001600160e01b031990941693909317909252905161380e9190614b9d565b600060405180830381855afa9150503d8060008114613849576040519150601f19603f3d011682016040523d82523d6000602084013e61384e565b606091505b5090965094508561386257613862856138ec565b505050505b60008180602001905181019061387d9190614f20565b9050600087826000815181106138955761389561464e565b6020026020010151836001815181106138b0576138b061464e565b60200260200101516138c29190614fac565b6138cc9190614fd9565b905060006138d982613933565b97508896505050505050505b9250929050565b8051156138fb57805181602001fd5b60405162461bcd60e51b815260206004820152600d60248201526c3297b2b6b83a3c96b2b93937b960991b6044820152606401610463565b60008060008360020b1261394a578260020b613952565b8260020b6000035b9050620d89e8811115613978576040516315e4079d60e11b815260040160405180910390fd5b60008160011660000361398f57600160801b6139a1565b6ffffcb933bd6fad37aa2d162d1a5940015b70ffffffffffffffffffffffffffffffffff16905060028216156139d5576ffff97272373d413259a46990580e213a0260801c5b60048216156139f4576ffff2e50f5f656932ef12357cf3c7fdcc0260801c5b6008821615613a13576fffe5caca7e10e4e61c3624eaa0941cd00260801c5b6010821615613a32576fffcb9843d60f6159c9db58835c9266440260801c5b6020821615613a51576fff973b41fa98c081472e6896dfb254c00260801c5b6040821615613a70576fff2ea16466c96a3843ec78b326b528610260801c5b6080821615613a8f576ffe5dee046a99a2a811c461f1969c30530260801c5b610100821615613aaf576ffcbe86c7900a88aedcffc83b479aa3a40260801c5b610200821615613acf576ff987a7253ac413176f2b074cf7815e540260801c5b610400821615613aef576ff3392b0822b70005940c7a398e4b70f30260801c5b610800821615613b0f576fe7159475a2c29b7443b29c7fa6e889d90260801c5b611000821615613b2f576fd097f3bdfd2022b8845ad8f792aa58250260801c5b612000821615613b4f576fa9f746462d870fdf8a65dc1f90e061e50260801c5b614000821615613b6f576f70d869a156d2a1b890bb3df62baf32f70260801c5b618000821615613b8f576f31be135f97d08fd981231505542fcfa60260801c5b62010000821615613bb0576f09aa508b5b7a84e1c677de54f3e99bc90260801c5b62020000821615613bd0576e5d6af8dedb81196699c329225ee6040260801c5b62040000821615613bef576d2216e584f5fa1ea926041bedfe980260801c5b62080000821615613c0c576b048a170391f7dc42444e8fa20260801c5b60008460020b1315613c2d578060001981613c2957613c2961438f565b0490505b640100000000810615613c41576001613c44565b60005b60ff16602082901c0192505050919050565b6001600160a01b038116811461230857600080fd5b600060208284031215613c7d57600080fd5b8135610f2981613c56565b634e487b7160e01b600052604160045260246000fd5b604051606081016001600160401b0381118282101715613cc057613cc0613c88565b60405290565b604080519081016001600160401b0381118282101715613cc057613cc0613c88565b60405160c081016001600160401b0381118282101715613cc057613cc0613c88565b60405161010081016001600160401b0381118282101715613cc057613cc0613c88565b604051608081016001600160401b0381118282101715613cc057613cc0613c88565b60405161022081016001600160401b0381118282101715613cc057613cc0613c88565b60405161016081016001600160401b0381118282101715613cc057613cc0613c88565b604051601f8201601f191681016001600160401b0381118282101715613dbd57613dbd613c88565b604052919050565b600060608284031215613dd757600080fd5b613ddf613c9e565b905081358152602082013560208201526040820135604082015292915050565b600080600060a08486031215613e1457600080fd5b8335925060208401359150613e2c8560408601613dc5565b90509250925092565b60008060408385031215613e4857600080fd5b50508035926020909101359150565b6001600160401b038116811461230857600080fd5b6000806000806000806000610120888a031215613e8857600080fd5b873596506020880135613e9a81613e57565b9550604088013594506060880135935060808801359250613ebe8960a08a01613dc5565b9150610100880135905092959891949750929550565b600060208284031215613ee657600080fd5b5035919050565b600080600060a08486031215613f0257600080fd5b83359250613f138560208601613dc5565b9150608084013590509250925092565b60008060008385036080811215613f3957600080fd5b8435613f4481613c56565b93506020850135613f5481613c56565b92506040603f1982011215613f6857600080fd5b50613f71613cc6565b604085013581526060909401356020850152509093909250565b600080600080600060e08688031215613fa357600080fd5b85359450602086013593506040860135613fbc81613c56565b925060608601359150613fd28760808801613dc5565b90509295509295909350565b60008083601f840112613ff057600080fd5b5081356001600160401b0381111561400757600080fd5b6020830191508360208285010111156138e557600080fd5b600080600083850361012081121561403657600080fd5b6101008082121561404657600080fd5b61404e613c9e565b60c083121561405c57600080fd5b614064613ce8565b87358152602080890135818301526040808a0135818401526060808b0135908401526080808b01359084015260a0808b01359084015291835260c08901359083015260e088013590820152945085013590506001600160401b038111156140ca57600080fd5b6140d686828701613fde565b9497909650939450505050565b801515811461230857600080fd5b600080600080600080610100878903121561410b57600080fd5b8635955060208701359450604087013561412481613c56565b935060608701359250608087013561413b816140e3565b915061414a8860a08901613dc5565b90509295509295509295565b60208082526024908201527f4261736553747261746567793a2063616c6c6572206973206e6f74206f70657260408201526330ba37b960e11b606082015260800190565b6000602082840312156141ac57600080fd5b8151610f2981613c56565b634e487b7160e01b600052601160045260246000fd5b6000600160ff1b82016141e2576141e26141b7565b5060000390565b60005b838110156142045781810151838201526020016141ec565b50506000910152565b8381526001600160401b0383166020820152606060408201528151606082015260208201516080820152604082015160a0820152606082015160c0820152608082015160e082015260a08201511515610100820152600060c083015160e061012084015280518061014085015261016061428d82828701602086016141e9565b80601f19601f8401168601019350505050949350505050565b60008183036101008112156142ba57600080fd5b6142c2613c9e565b60c08212156142d057600080fd5b6142d8613ce8565b9150835182526020840151602083015260408401516040830152606084015160608301526080840151608083015260a084015160a083015281815260c0840151602082015260e08401516040820152809250505092915050565b805161433d816140e3565b919050565b60006020828403121561435457600080fd5b8151610f29816140e3565b60006020828403121561437157600080fd5b5051919050565b8082028115828204841417610f8c57610f8c6141b7565b634e487b7160e01b600052601260045260246000fd5b6000826143b4576143b461438f565b500490565b805161433d81613c56565b60006001600160401b038211156143dd576143dd613c88565b5060051b60200190565b805161433d81613e57565b8051600281900b811461433d57600080fd5b60006040828403121561441657600080fd5b61441e613cc6565b9050815181526020820151602082015292915050565b600060c0828403121561444657600080fd5b61444e613ce8565b9050815181526020820151602082015260408201516040820152606082015160608201526080820151608082015260a082015160a082015292915050565b6000610200828403121561449f57600080fd5b6144a7613d0a565b90506144b2826143e7565b81526144c0602083016143f2565b60208201526144d1604083016143f2565b60408201526144e2606083016143e7565b60608201526144f48360808401614404565b60808201526145068360c08401614434565b60a0820152614519836101808401614404565b60c082015261452c836101c08401614404565b60e082015292915050565b6000602080838503121561454a57600080fd5b82516001600160401b038082111561456157600080fd5b9084019060c0828703121561457557600080fd5b61457d613ce8565b825181528383015184820152604083015161459781613c56565b60408201526060838101519082015260808301516145b4816140e3565b608082015260a0830151828111156145cb57600080fd5b80840193505086601f8401126145e057600080fd5b825191506145f56145f0836143c4565b613d95565b82815260099290921b8301840191848101908884111561461457600080fd5b938501935b8385101561463e5761462b898661448c565b8252858201915061020085019450614619565b60a0830152509695505050505050565b634e487b7160e01b600052603260045260246000fd5b80820260008212600160ff1b84141615614680576146806141b7565b8181058314821517610f8c57610f8c6141b7565b6000826146a3576146a361438f565b600160ff1b8214600019841416156146bd576146bd6141b7565b500590565b80820182811260008312801582168215821617156146e2576146e26141b7565b505092915050565b6000806000806080858703121561470057600080fd5b84359350602085013561471281613c56565b92506040850135614722816140e3565b9396929550929360600135925050565b60006080828403121561474457600080fd5b61474c613d2d565b90508151815260208201516020820152604082015160408201526060820151606082015292915050565b60008183036101c081121561478a57600080fd5b614792613ce8565b9150825161479f81613c56565b825260208301516147af81613c56565b602083015260c0603f19820112156147c657600080fd5b506147cf613ce8565b60408301518152606083015160208201526080830151604082015260a0830151606082015260c0830151608082015260e083015160a08201528060408301525061481d836101008401614732565b606082015261018082015160808201526101a082015160a082015292915050565b60006060828403121561485057600080fd5b614858613c9e565b90508151815261486a602083016143f2565b602082015261487b604083016143f2565b604082015292915050565b6000610260828403121561489957600080fd5b6148a1613d4f565b90506148ac826143b9565b81526148ba602083016143f2565b60208201526148cb604083016143f2565b60408201526148dc606083016143e7565b60608201526080828101519082015260a0808301519082015260c0808301519082015260e08083015190820152610100808301519082015261012080830151908201526101408083015190820152610160808301519082015261018080830151908201526101a061494f84828501614404565b908201526101e061496284848301614404565b6101c08301526102208301519082015261024090910151610200820152919050565b805160ff8116811461433d57600080fd5b600061072082840312156149a857600080fd5b6149b0613d72565b82518152602083015160208201526149ca604084016143b9565b60408201526149dc8460608501614776565b60608201526149ef846102208501614776565b6080820152614a02846103e0850161483e565b60a0820152614a15846104408501614886565b60c0820152614a276106a08401614332565b60e0820152614a396106c08401614332565b610100820152614a4c6106e08401614984565b610120820152610700929092015161014083015250919050565b60006020808385031215614a7957600080fd5b82516001600160401b0380821115614a9057600080fd5b9084019060c08287031215614aa457600080fd5b614aac613ce8565b82518152838301518482015260408084015181830152606080850151818401526080850151608084015260a085015184811115614ae857600080fd5b80860195505088601f860112614afd57600080fd5b84519350614b0d6145f0856143c4565b848152610260948502860187019487820191908b871115614b2d57600080fd5b968801965b86881015614b895780888d031215614b4a5760008081fd5b614b52613d2d565b88518152614b628d8b8b0161448c565b818b0152610220890151868201526102408901518582015283529687019691880191614b32565b5060a0850152509198975050505050505050565b60008251614baf8184602087016141e9565b9190910192915050565b80820180821115610f8c57610f8c6141b7565b81810360008312801583831316838312821617156133e7576133e76141b7565b81810381811115610f8c57610f8c6141b7565b6001600160a01b03828116828216818102831692918115828504821417614c2857614c286141b7565b50505092915050565b600060608284031215614c4357600080fd5b614c4b613c9e565b825181526020830151614c5d81613c56565b6020820152614c6e60408401614984565b60408201529392505050565b600181815b80851115614cb5578160001904821115614c9b57614c9b6141b7565b80851615614ca857918102915b93841c9390800290614c7f565b509250929050565b600082614ccc57506001610f8c565b81614cd957506000610f8c565b8160018114614cef5760028114614cf957614d15565b6001915050610f8c565b60ff841115614d0a57614d0a6141b7565b50506001821b610f8c565b5060208310610133831016604e8410600b8410161715614d38575081810a610f8c565b614d428383614c7a565b8060001904821115614d5657614d566141b7565b029392505050565b6000610f2960ff841683614cbd565b600060018201614d7f57614d7f6141b7565b5060010190565b805161ffff8116811461433d57600080fd5b600080600080600080600060e0888a031215614db357600080fd5b8751614dbe81613c56565b9650614dcc602089016143f2565b9550614dda60408901614d86565b9450614de860608901614d86565b9350614df660808901614d86565b9250614e0460a08901614984565b915060c0880151614e14816140e3565b8091505092959891949750929550565b6020808252825182820181905260009190848201906040850190845b81811015614e6257835163ffffffff1683529284019291840191600101614e40565b50909695505050505050565b61ffff8181168382160190808211156133e7576133e76141b7565b600061ffff80841680614e9e57614e9e61438f565b92169190910692915050565b8051600681900b811461433d57600080fd5b60008060008060808587031215614ed257600080fd5b845163ffffffff81168114614ee657600080fd5b9350614ef460208601614eaa565b92506040850151614f0481613c56565b6060860151909250614f15816140e3565b939692955090935050565b60006020808385031215614f3357600080fd5b82516001600160401b03811115614f4957600080fd5b8301601f81018513614f5a57600080fd5b8051614f686145f0826143c4565b81815260059190911b82018301908381019087831115614f8757600080fd5b928401925b82841015610cac57614f9d84614eaa565b82529284019290840190614f8c565b600682810b9082900b03667fffffffffffff198112667fffffffffffff82131715610f8c57610f8c6141b7565b60008160060b8360060b80614ff057614ff061438f565b667fffffffffffff1982146000198214161561500e5761500e6141b7565b9005939250505056fea26469706673582212201d429493038eadf6832efc639be8b38e98d82a8b6a6a75d823b8f8c388fe697964736f6c63430008130033",
  "libraries": {
    "DeployStrategyTokenLogic": "0x75dB1c4FFA162a59556FB9774667D5e7c4fFE307"
  },
  "devdoc": {
    "events": {
      "Initialized(uint8)": {
        "details": "Triggered when the contract has been initialized or reinitialized."
      }
    },
    "kind": "dev",
    "methods": {
      "deposit(uint256,uint256,address,uint256,bool,(uint256,uint256,uint256))": {
        "params": {
          "_maxDepositAmount": "maximum USDC amount that caller deposits",
          "_recepient": "recepient address of strategy token",
          "_strategyTokenAmount": "strategy token amount to mint",
          "_tradeParams": "trade parameters",
          "isQuoteMode": "is quote mode or not"
        },
        "returns": {
          "finalDepositMargin": "USDC amount that caller actually deposits"
        }
      },
      "depositForPositionInitialization(uint256,uint64,uint256,int256,int256,(uint256,uint256,uint256),uint256)": {
        "details": "The function can be called by owner.",
        "params": {
          "_initialMarginAmount": "initial margin amount",
          "_initialPerpAmount": "initial perp amount",
          "_initialSquartAmount": "initial squart amount",
          "_sqrtPriceThreshold": "hedge threshold",
          "_tradeParams": "trade parameters"
        }
      },
      "execDeltaHedge(uint256,(uint256,uint256,uint256),uint256)": {
        "params": {
          "_tradeParams": "Trade parameters for Predy contract"
        }
      },
      "getPrice(uint256)": {
        "details": "The function should not be called on chain."
      },
      "predyTradeCallback(((int256,int256,int256,int256,int256,int256),int256,int256),bytes)": {
        "details": "Callback for Predy Controller"
      },
      "setHedger(address)": {
        "details": "Only operator can call this function.",
        "params": {
          "_newHedger": "The address of new hedger"
        }
      },
      "setOperator(address)": {
        "details": "Only operator can call this function.",
        "params": {
          "_newOperator": "The address of new operator"
        }
      },
      "updateGamma(uint256,int256,(uint256,uint256,uint256))": {
        "params": {
          "_sqrtAmount": "squart amount",
          "_tradeParams": "trade parameters"
        }
      },
      "updateHedgeInterval(uint256,uint256)": {
        "params": {
          "_hedgeInterval": "New interval"
        }
      },
      "updateHedgePriceThreshold(uint256,uint256)": {
        "params": {
          "_newSqrtPriceThreshold": "New square root price threshold"
        }
      },
      "withdraw(uint256,uint256,address,int256,(uint256,uint256,uint256))": {
        "params": {
          "_minWithdrawAmount": "minimum USDC amount that caller deposits",
          "_recepient": "recepient address of stable token",
          "_tradeParams": "trade parameters",
          "_withdrawStrategyAmount": "strategy token amount to burn"
        },
        "returns": {
          "finalWithdrawAmount": "USDC amount that caller actually withdraws"
        }
      }
    },
    "version": 1
  },
  "userdoc": {
    "kind": "user",
    "methods": {
      "deposit(uint256,uint256,address,uint256,bool,(uint256,uint256,uint256))": {
        "notice": "Deposits margin and mints strategy token."
      },
      "depositForPositionInitialization(uint256,uint64,uint256,int256,int256,(uint256,uint256,uint256),uint256)": {
        "notice": "deposit for the position initialization"
      },
      "execDeltaHedge(uint256,(uint256,uint256,uint256),uint256)": {
        "notice": "Hedger can call the delta hedging function if the price has changed by a set ratio from the last price at the hedging or time has elapsed by a set interval since the last hedge time."
      },
      "getPrice(uint256)": {
        "notice": "Gets price of strategy token by USDC."
      },
      "setHedger(address)": {
        "notice": "Sets new hedger address"
      },
      "setOperator(address)": {
        "notice": "Sets new operator"
      },
      "updateGamma(uint256,int256,(uint256,uint256,uint256))": {
        "notice": "Changes gamma size per share."
      },
      "updateHedgeInterval(uint256,uint256)": {
        "notice": "Updates interval for delta hedging."
      },
      "updateHedgePriceThreshold(uint256,uint256)": {
        "notice": "Updates price threshold for delta hedging."
      },
      "withdraw(uint256,uint256,address,int256,(uint256,uint256,uint256))": {
        "notice": "Withdraws margin and burns strategy token."
      }
    },
    "notice": "Error Codes GSS0: already initialized GSS1: not initialized GSS2: required margin amount must be less than maximum GSS3: withdrawn margin amount must be greater than minimum GSS4: invalid leverage GSS5: caller must be Controller",
    "version": 1
  },
  "storageLayout": {
    "storage": [
      {
        "astId": 6,
        "contract": "src/strategy/GammaShortStrategy.sol:GammaShortStrategy",
        "label": "_initialized",
        "offset": 0,
        "slot": "0",
        "type": "t_uint8"
      },
      {
        "astId": 9,
        "contract": "src/strategy/GammaShortStrategy.sol:GammaShortStrategy",
        "label": "_initializing",
        "offset": 1,
        "slot": "0",
        "type": "t_bool"
      },
      {
        "astId": 19232,
        "contract": "src/strategy/GammaShortStrategy.sol:GammaShortStrategy",
        "label": "controller",
        "offset": 2,
        "slot": "0",
        "type": "t_contract(IController)6437"
      },
      {
        "astId": 19237,
        "contract": "src/strategy/GammaShortStrategy.sol:GammaShortStrategy",
        "label": "strategies",
        "offset": 0,
        "slot": "1",
        "type": "t_mapping(t_uint256,t_struct(Strategy)19224_storage)"
      },
      {
        "astId": 19239,
        "contract": "src/strategy/GammaShortStrategy.sol:GammaShortStrategy",
        "label": "strategyCount",
        "offset": 0,
        "slot": "2",
        "type": "t_uint256"
      },
      {
        "astId": 19242,
        "contract": "src/strategy/GammaShortStrategy.sol:GammaShortStrategy",
        "label": "minPerValueLimit",
        "offset": 0,
        "slot": "3",
        "type": "t_struct(MinPerValueLimit)19229_storage"
      },
      {
        "astId": 19244,
        "contract": "src/strategy/GammaShortStrategy.sol:GammaShortStrategy",
        "label": "operator",
        "offset": 0,
        "slot": "5",
        "type": "t_address"
      },
      {
        "astId": 179,
        "contract": "src/strategy/GammaShortStrategy.sol:GammaShortStrategy",
        "label": "_status",
        "offset": 0,
        "slot": "6",
        "type": "t_uint256"
      },
      {
        "astId": 17442,
        "contract": "src/strategy/GammaShortStrategy.sol:GammaShortStrategy",
        "label": "reader",
        "offset": 0,
        "slot": "7",
        "type": "t_contract(Reader)6351"
      },
      {
        "astId": 17454,
        "contract": "src/strategy/GammaShortStrategy.sol:GammaShortStrategy",
        "label": "finalDepositAmountCached",
        "offset": 0,
        "slot": "8",
        "type": "t_uint256"
      },
      {
        "astId": 17456,
        "contract": "src/strategy/GammaShortStrategy.sol:GammaShortStrategy",
        "label": "hedger",
        "offset": 0,
        "slot": "9",
        "type": "t_address"
      }
    ],
    "types": {
      "t_address": {
        "encoding": "inplace",
        "label": "address",
        "numberOfBytes": "20"
      },
      "t_bool": {
        "encoding": "inplace",
        "label": "bool",
        "numberOfBytes": "1"
      },
      "t_contract(IController)6437": {
        "encoding": "inplace",
        "label": "contract IController",
        "numberOfBytes": "20"
      },
      "t_contract(Reader)6351": {
        "encoding": "inplace",
        "label": "contract Reader",
        "numberOfBytes": "20"
      },
      "t_mapping(t_uint256,t_struct(Strategy)19224_storage)": {
        "encoding": "mapping",
        "key": "t_uint256",
        "label": "mapping(uint256 => struct BaseStrategy.Strategy)",
        "numberOfBytes": "32",
        "value": "t_struct(Strategy)19224_storage"
      },
      "t_struct(HedgeStatus)19206_storage": {
        "encoding": "inplace",
        "label": "struct BaseStrategy.HedgeStatus",
        "members": [
          {
            "astId": 19199,
            "contract": "src/strategy/GammaShortStrategy.sol:GammaShortStrategy",
            "label": "lastHedgeTimestamp",
            "offset": 0,
            "slot": "0",
            "type": "t_uint256"
          },
          {
            "astId": 19201,
            "contract": "src/strategy/GammaShortStrategy.sol:GammaShortStrategy",
            "label": "lastHedgePrice",
            "offset": 0,
            "slot": "1",
            "type": "t_uint256"
          },
          {
            "astId": 19203,
            "contract": "src/strategy/GammaShortStrategy.sol:GammaShortStrategy",
            "label": "hedgeInterval",
            "offset": 0,
            "slot": "2",
            "type": "t_uint256"
          },
          {
            "astId": 19205,
            "contract": "src/strategy/GammaShortStrategy.sol:GammaShortStrategy",
            "label": "hedgeSqrtPriceThreshold",
            "offset": 0,
            "slot": "3",
            "type": "t_uint256"
          }
        ],
        "numberOfBytes": "128"
      },
      "t_struct(MinPerValueLimit)19229_storage": {
        "encoding": "inplace",
        "label": "struct BaseStrategy.MinPerValueLimit",
        "members": [
          {
            "astId": 19226,
            "contract": "src/strategy/GammaShortStrategy.sol:GammaShortStrategy",
            "label": "lower",
            "offset": 0,
            "slot": "0",
            "type": "t_uint256"
          },
          {
            "astId": 19228,
            "contract": "src/strategy/GammaShortStrategy.sol:GammaShortStrategy",
            "label": "upper",
            "offset": 0,
            "slot": "1",
            "type": "t_uint256"
          }
        ],
        "numberOfBytes": "64"
      },
      "t_struct(Strategy)19224_storage": {
        "encoding": "inplace",
        "label": "struct BaseStrategy.Strategy",
        "members": [
          {
            "astId": 19208,
            "contract": "src/strategy/GammaShortStrategy.sol:GammaShortStrategy",
            "label": "id",
            "offset": 0,
            "slot": "0",
            "type": "t_uint256"
          },
          {
            "astId": 19210,
            "contract": "src/strategy/GammaShortStrategy.sol:GammaShortStrategy",
            "label": "pairGroupId",
            "offset": 0,
            "slot": "1",
            "type": "t_uint64"
          },
          {
            "astId": 19212,
            "contract": "src/strategy/GammaShortStrategy.sol:GammaShortStrategy",
            "label": "pairId",
            "offset": 8,
            "slot": "1",
            "type": "t_uint64"
          },
          {
            "astId": 19214,
            "contract": "src/strategy/GammaShortStrategy.sol:GammaShortStrategy",
            "label": "vaultId",
            "offset": 0,
            "slot": "2",
            "type": "t_uint256"
          },
          {
            "astId": 19216,
            "contract": "src/strategy/GammaShortStrategy.sol:GammaShortStrategy",
            "label": "marginToken",
            "offset": 0,
            "slot": "3",
            "type": "t_address"
          },
          {
            "astId": 19218,
            "contract": "src/strategy/GammaShortStrategy.sol:GammaShortStrategy",
            "label": "marginRoundedScaler",
            "offset": 0,
            "slot": "4",
            "type": "t_uint256"
          },
          {
            "astId": 19220,
            "contract": "src/strategy/GammaShortStrategy.sol:GammaShortStrategy",
            "label": "strategyToken",
            "offset": 0,
            "slot": "5",
            "type": "t_address"
          },
          {
            "astId": 19223,
            "contract": "src/strategy/GammaShortStrategy.sol:GammaShortStrategy",
            "label": "hedgeStatus",
            "offset": 0,
            "slot": "6",
            "type": "t_struct(HedgeStatus)19206_storage"
          }
        ],
        "numberOfBytes": "320"
      },
      "t_uint256": {
        "encoding": "inplace",
        "label": "uint256",
        "numberOfBytes": "32"
      },
      "t_uint64": {
        "encoding": "inplace",
        "label": "uint64",
        "numberOfBytes": "8"
      },
      "t_uint8": {
        "encoding": "inplace",
        "label": "uint8",
        "numberOfBytes": "1"
      }
    }
  }
}