{
  "address": "0x269462d83f6872ecE3f92AE44F1D25Df0296D314",
  "abi": [
    {
      "inputs": [],
      "stateMutability": "nonpayable",
      "type": "constructor"
    },
    {
      "inputs": [],
      "name": "T",
      "type": "error"
    },
    {
      "anonymous": false,
      "inputs": [
        {
          "indexed": false,
          "internalType": "uint8",
          "name": "version",
          "type": "uint8"
        }
      ],
      "name": "Initialized",
      "type": "event"
    },
    {
      "anonymous": false,
      "inputs": [
        {
          "indexed": false,
          "internalType": "address",
          "name": "liquidator",
          "type": "address"
        }
      ],
      "name": "LiquidatorUpdated",
      "type": "event"
    },
    {
      "anonymous": false,
      "inputs": [
        {
          "indexed": false,
          "internalType": "address",
          "name": "operator",
          "type": "address"
        }
      ],
      "name": "OperatorUpdated",
      "type": "event"
    },
    {
      "anonymous": false,
      "inputs": [
        {
          "indexed": false,
          "internalType": "uint256",
          "name": "vaultId",
          "type": "uint256"
        },
        {
          "indexed": false,
          "internalType": "address",
          "name": "owner",
          "type": "address"
        },
        {
          "indexed": false,
          "internalType": "bool",
          "name": "isMainVault",
          "type": "bool"
        }
      ],
      "name": "VaultCreated",
      "type": "event"
    },
    {
      "inputs": [
        {
          "components": [
            {
              "internalType": "address",
              "name": "uniswapPool",
              "type": "address"
            },
            {
              "internalType": "bool",
              "name": "isIsolatedMode",
              "type": "bool"
            },
            {
              "components": [
                {
                  "internalType": "uint256",
                  "name": "riskRatio",
                  "type": "uint256"
                },
                {
                  "internalType": "int24",
                  "name": "rangeSize",
                  "type": "int24"
                },
                {
                  "internalType": "int24",
                  "name": "rebalanceThreshold",
                  "type": "int24"
                }
              ],
              "internalType": "struct DataType.AssetRiskParams",
              "name": "assetRiskParams",
              "type": "tuple"
            },
            {
              "components": [
                {
                  "internalType": "uint256",
                  "name": "baseRate",
                  "type": "uint256"
                },
                {
                  "internalType": "uint256",
                  "name": "kinkRate",
                  "type": "uint256"
                },
                {
                  "internalType": "uint256",
                  "name": "slope1",
                  "type": "uint256"
                },
                {
                  "internalType": "uint256",
                  "name": "slope2",
                  "type": "uint256"
                }
              ],
              "internalType": "struct InterestRateModel.IRMParams",
              "name": "stableIrmParams",
              "type": "tuple"
            },
            {
              "components": [
                {
                  "internalType": "uint256",
                  "name": "baseRate",
                  "type": "uint256"
                },
                {
                  "internalType": "uint256",
                  "name": "kinkRate",
                  "type": "uint256"
                },
                {
                  "internalType": "uint256",
                  "name": "slope1",
                  "type": "uint256"
                },
                {
                  "internalType": "uint256",
                  "name": "slope2",
                  "type": "uint256"
                }
              ],
              "internalType": "struct InterestRateModel.IRMParams",
              "name": "underlyingIrmParams",
              "type": "tuple"
            }
          ],
          "internalType": "struct DataType.AddAssetParams",
          "name": "_addAssetParam",
          "type": "tuple"
        }
      ],
      "name": "addPair",
      "outputs": [
        {
          "internalType": "uint256",
          "name": "",
          "type": "uint256"
        }
      ],
      "stateMutability": "nonpayable",
      "type": "function"
    },
    {
      "inputs": [
        {
          "internalType": "address",
          "name": "",
          "type": "address"
        }
      ],
      "name": "allowedUniswapPools",
      "outputs": [
        {
          "internalType": "bool",
          "name": "",
          "type": "bool"
        }
      ],
      "stateMutability": "view",
      "type": "function"
    },
    {
      "inputs": [
        {
          "internalType": "uint256",
          "name": "_isolatedVaultId",
          "type": "uint256"
        },
        {
          "internalType": "uint64",
          "name": "_pairId",
          "type": "uint64"
        },
        {
          "components": [
            {
              "internalType": "uint256",
              "name": "lowerSqrtPrice",
              "type": "uint256"
            },
            {
              "internalType": "uint256",
              "name": "upperSqrtPrice",
              "type": "uint256"
            },
            {
              "internalType": "uint256",
              "name": "deadline",
              "type": "uint256"
            }
          ],
          "internalType": "struct IsolatedVaultLogic.CloseParams",
          "name": "_closeParams",
          "type": "tuple"
        }
      ],
      "name": "closeIsolatedVault",
      "outputs": [
        {
          "components": [
            {
              "components": [
                {
                  "internalType": "int256",
                  "name": "perpEntryUpdate",
                  "type": "int256"
                },
                {
                  "internalType": "int256",
                  "name": "sqrtEntryUpdate",
                  "type": "int256"
                },
                {
                  "internalType": "int256",
                  "name": "sqrtRebalanceEntryUpdateUnderlying",
                  "type": "int256"
                },
                {
                  "internalType": "int256",
                  "name": "sqrtRebalanceEntryUpdateStable",
                  "type": "int256"
                },
                {
                  "internalType": "int256",
                  "name": "perpPayoff",
                  "type": "int256"
                },
                {
                  "internalType": "int256",
                  "name": "sqrtPayoff",
                  "type": "int256"
                }
              ],
              "internalType": "struct Perp.Payoff",
              "name": "payoff",
              "type": "tuple"
            },
            {
              "internalType": "int256",
              "name": "fee",
              "type": "int256"
            },
            {
              "internalType": "int256",
              "name": "minDeposit",
              "type": "int256"
            }
          ],
          "internalType": "struct DataType.TradeResult",
          "name": "tradeResult",
          "type": "tuple"
        }
      ],
      "stateMutability": "nonpayable",
      "type": "function"
    },
    {
      "inputs": [
        {
          "internalType": "uint256",
          "name": "_id",
          "type": "uint256"
        }
      ],
      "name": "getAsset",
      "outputs": [
        {
          "components": [
            {
              "internalType": "uint256",
              "name": "id",
              "type": "uint256"
            },
            {
              "components": [
                {
                  "internalType": "address",
                  "name": "token",
                  "type": "address"
                },
                {
                  "internalType": "address",
                  "name": "supplyTokenAddress",
                  "type": "address"
                },
                {
                  "components": [
                    {
                      "internalType": "uint256",
                      "name": "totalCompoundDeposited",
                      "type": "uint256"
                    },
                    {
                      "internalType": "uint256",
                      "name": "totalNormalDeposited",
                      "type": "uint256"
                    },
                    {
                      "internalType": "uint256",
                      "name": "totalNormalBorrowed",
                      "type": "uint256"
                    },
                    {
                      "internalType": "uint256",
                      "name": "assetScaler",
                      "type": "uint256"
                    },
                    {
                      "internalType": "uint256",
                      "name": "assetGrowth",
                      "type": "uint256"
                    },
                    {
                      "internalType": "uint256",
                      "name": "debtGrowth",
                      "type": "uint256"
                    }
                  ],
                  "internalType": "struct ScaledAsset.TokenStatus",
                  "name": "tokenStatus",
                  "type": "tuple"
                },
                {
                  "components": [
                    {
                      "internalType": "uint256",
                      "name": "baseRate",
                      "type": "uint256"
                    },
                    {
                      "internalType": "uint256",
                      "name": "kinkRate",
                      "type": "uint256"
                    },
                    {
                      "internalType": "uint256",
                      "name": "slope1",
                      "type": "uint256"
                    },
                    {
                      "internalType": "uint256",
                      "name": "slope2",
                      "type": "uint256"
                    }
                  ],
                  "internalType": "struct InterestRateModel.IRMParams",
                  "name": "irmParams",
                  "type": "tuple"
                }
              ],
              "internalType": "struct DataType.AssetPoolStatus",
              "name": "stablePool",
              "type": "tuple"
            },
            {
              "components": [
                {
                  "internalType": "address",
                  "name": "token",
                  "type": "address"
                },
                {
                  "internalType": "address",
                  "name": "supplyTokenAddress",
                  "type": "address"
                },
                {
                  "components": [
                    {
                      "internalType": "uint256",
                      "name": "totalCompoundDeposited",
                      "type": "uint256"
                    },
                    {
                      "internalType": "uint256",
                      "name": "totalNormalDeposited",
                      "type": "uint256"
                    },
                    {
                      "internalType": "uint256",
                      "name": "totalNormalBorrowed",
                      "type": "uint256"
                    },
                    {
                      "internalType": "uint256",
                      "name": "assetScaler",
                      "type": "uint256"
                    },
                    {
                      "internalType": "uint256",
                      "name": "assetGrowth",
                      "type": "uint256"
                    },
                    {
                      "internalType": "uint256",
                      "name": "debtGrowth",
                      "type": "uint256"
                    }
                  ],
                  "internalType": "struct ScaledAsset.TokenStatus",
                  "name": "tokenStatus",
                  "type": "tuple"
                },
                {
                  "components": [
                    {
                      "internalType": "uint256",
                      "name": "baseRate",
                      "type": "uint256"
                    },
                    {
                      "internalType": "uint256",
                      "name": "kinkRate",
                      "type": "uint256"
                    },
                    {
                      "internalType": "uint256",
                      "name": "slope1",
                      "type": "uint256"
                    },
                    {
                      "internalType": "uint256",
                      "name": "slope2",
                      "type": "uint256"
                    }
                  ],
                  "internalType": "struct InterestRateModel.IRMParams",
                  "name": "irmParams",
                  "type": "tuple"
                }
              ],
              "internalType": "struct DataType.AssetPoolStatus",
              "name": "underlyingPool",
              "type": "tuple"
            },
            {
              "components": [
                {
                  "internalType": "uint256",
                  "name": "riskRatio",
                  "type": "uint256"
                },
                {
                  "internalType": "int24",
                  "name": "rangeSize",
                  "type": "int24"
                },
                {
                  "internalType": "int24",
                  "name": "rebalanceThreshold",
                  "type": "int24"
                }
              ],
              "internalType": "struct DataType.AssetRiskParams",
              "name": "riskParams",
              "type": "tuple"
            },
            {
              "components": [
                {
                  "internalType": "address",
                  "name": "uniswapPool",
                  "type": "address"
                },
                {
                  "internalType": "int24",
                  "name": "tickLower",
                  "type": "int24"
                },
                {
                  "internalType": "int24",
                  "name": "tickUpper",
                  "type": "int24"
                },
                {
                  "internalType": "uint64",
                  "name": "numRebalance",
                  "type": "uint64"
                },
                {
                  "internalType": "uint256",
                  "name": "totalAmount",
                  "type": "uint256"
                },
                {
                  "internalType": "uint256",
                  "name": "borrowedAmount",
                  "type": "uint256"
                },
                {
                  "internalType": "uint256",
                  "name": "lastRebalanceTotalSquartAmount",
                  "type": "uint256"
                },
                {
                  "internalType": "uint256",
                  "name": "lastFee0Growth",
                  "type": "uint256"
                },
                {
                  "internalType": "uint256",
                  "name": "lastFee1Growth",
                  "type": "uint256"
                },
                {
                  "internalType": "uint256",
                  "name": "borrowPremium0Growth",
                  "type": "uint256"
                },
                {
                  "internalType": "uint256",
                  "name": "borrowPremium1Growth",
                  "type": "uint256"
                },
                {
                  "internalType": "uint256",
                  "name": "fee0Growth",
                  "type": "uint256"
                },
                {
                  "internalType": "uint256",
                  "name": "fee1Growth",
                  "type": "uint256"
                },
                {
                  "components": [
                    {
                      "internalType": "int256",
                      "name": "positionAmount",
                      "type": "int256"
                    },
                    {
                      "internalType": "uint256",
                      "name": "lastFeeGrowth",
                      "type": "uint256"
                    }
                  ],
                  "internalType": "struct ScaledAsset.UserStatus",
                  "name": "rebalancePositionUnderlying",
                  "type": "tuple"
                },
                {
                  "components": [
                    {
                      "internalType": "int256",
                      "name": "positionAmount",
                      "type": "int256"
                    },
                    {
                      "internalType": "uint256",
                      "name": "lastFeeGrowth",
                      "type": "uint256"
                    }
                  ],
                  "internalType": "struct ScaledAsset.UserStatus",
                  "name": "rebalancePositionStable",
                  "type": "tuple"
                },
                {
                  "internalType": "int256",
                  "name": "rebalanceFeeGrowthUnderlying",
                  "type": "int256"
                },
                {
                  "internalType": "int256",
                  "name": "rebalanceFeeGrowthStable",
                  "type": "int256"
                }
              ],
              "internalType": "struct Perp.SqrtPerpAssetStatus",
              "name": "sqrtAssetStatus",
              "type": "tuple"
            },
            {
              "internalType": "bool",
              "name": "isMarginZero",
              "type": "bool"
            },
            {
              "internalType": "bool",
              "name": "isIsolatedMode",
              "type": "bool"
            },
            {
              "internalType": "uint256",
              "name": "lastUpdateTimestamp",
              "type": "uint256"
            }
          ],
          "internalType": "struct DataType.PairStatus",
          "name": "",
          "type": "tuple"
        }
      ],
      "stateMutability": "view",
      "type": "function"
    },
    {
      "inputs": [
        {
          "internalType": "uint256",
          "name": "_id",
          "type": "uint256"
        }
      ],
      "name": "getLatestAssetStatus",
      "outputs": [
        {
          "components": [
            {
              "internalType": "uint256",
              "name": "id",
              "type": "uint256"
            },
            {
              "components": [
                {
                  "internalType": "address",
                  "name": "token",
                  "type": "address"
                },
                {
                  "internalType": "address",
                  "name": "supplyTokenAddress",
                  "type": "address"
                },
                {
                  "components": [
                    {
                      "internalType": "uint256",
                      "name": "totalCompoundDeposited",
                      "type": "uint256"
                    },
                    {
                      "internalType": "uint256",
                      "name": "totalNormalDeposited",
                      "type": "uint256"
                    },
                    {
                      "internalType": "uint256",
                      "name": "totalNormalBorrowed",
                      "type": "uint256"
                    },
                    {
                      "internalType": "uint256",
                      "name": "assetScaler",
                      "type": "uint256"
                    },
                    {
                      "internalType": "uint256",
                      "name": "assetGrowth",
                      "type": "uint256"
                    },
                    {
                      "internalType": "uint256",
                      "name": "debtGrowth",
                      "type": "uint256"
                    }
                  ],
                  "internalType": "struct ScaledAsset.TokenStatus",
                  "name": "tokenStatus",
                  "type": "tuple"
                },
                {
                  "components": [
                    {
                      "internalType": "uint256",
                      "name": "baseRate",
                      "type": "uint256"
                    },
                    {
                      "internalType": "uint256",
                      "name": "kinkRate",
                      "type": "uint256"
                    },
                    {
                      "internalType": "uint256",
                      "name": "slope1",
                      "type": "uint256"
                    },
                    {
                      "internalType": "uint256",
                      "name": "slope2",
                      "type": "uint256"
                    }
                  ],
                  "internalType": "struct InterestRateModel.IRMParams",
                  "name": "irmParams",
                  "type": "tuple"
                }
              ],
              "internalType": "struct DataType.AssetPoolStatus",
              "name": "stablePool",
              "type": "tuple"
            },
            {
              "components": [
                {
                  "internalType": "address",
                  "name": "token",
                  "type": "address"
                },
                {
                  "internalType": "address",
                  "name": "supplyTokenAddress",
                  "type": "address"
                },
                {
                  "components": [
                    {
                      "internalType": "uint256",
                      "name": "totalCompoundDeposited",
                      "type": "uint256"
                    },
                    {
                      "internalType": "uint256",
                      "name": "totalNormalDeposited",
                      "type": "uint256"
                    },
                    {
                      "internalType": "uint256",
                      "name": "totalNormalBorrowed",
                      "type": "uint256"
                    },
                    {
                      "internalType": "uint256",
                      "name": "assetScaler",
                      "type": "uint256"
                    },
                    {
                      "internalType": "uint256",
                      "name": "assetGrowth",
                      "type": "uint256"
                    },
                    {
                      "internalType": "uint256",
                      "name": "debtGrowth",
                      "type": "uint256"
                    }
                  ],
                  "internalType": "struct ScaledAsset.TokenStatus",
                  "name": "tokenStatus",
                  "type": "tuple"
                },
                {
                  "components": [
                    {
                      "internalType": "uint256",
                      "name": "baseRate",
                      "type": "uint256"
                    },
                    {
                      "internalType": "uint256",
                      "name": "kinkRate",
                      "type": "uint256"
                    },
                    {
                      "internalType": "uint256",
                      "name": "slope1",
                      "type": "uint256"
                    },
                    {
                      "internalType": "uint256",
                      "name": "slope2",
                      "type": "uint256"
                    }
                  ],
                  "internalType": "struct InterestRateModel.IRMParams",
                  "name": "irmParams",
                  "type": "tuple"
                }
              ],
              "internalType": "struct DataType.AssetPoolStatus",
              "name": "underlyingPool",
              "type": "tuple"
            },
            {
              "components": [
                {
                  "internalType": "uint256",
                  "name": "riskRatio",
                  "type": "uint256"
                },
                {
                  "internalType": "int24",
                  "name": "rangeSize",
                  "type": "int24"
                },
                {
                  "internalType": "int24",
                  "name": "rebalanceThreshold",
                  "type": "int24"
                }
              ],
              "internalType": "struct DataType.AssetRiskParams",
              "name": "riskParams",
              "type": "tuple"
            },
            {
              "components": [
                {
                  "internalType": "address",
                  "name": "uniswapPool",
                  "type": "address"
                },
                {
                  "internalType": "int24",
                  "name": "tickLower",
                  "type": "int24"
                },
                {
                  "internalType": "int24",
                  "name": "tickUpper",
                  "type": "int24"
                },
                {
                  "internalType": "uint64",
                  "name": "numRebalance",
                  "type": "uint64"
                },
                {
                  "internalType": "uint256",
                  "name": "totalAmount",
                  "type": "uint256"
                },
                {
                  "internalType": "uint256",
                  "name": "borrowedAmount",
                  "type": "uint256"
                },
                {
                  "internalType": "uint256",
                  "name": "lastRebalanceTotalSquartAmount",
                  "type": "uint256"
                },
                {
                  "internalType": "uint256",
                  "name": "lastFee0Growth",
                  "type": "uint256"
                },
                {
                  "internalType": "uint256",
                  "name": "lastFee1Growth",
                  "type": "uint256"
                },
                {
                  "internalType": "uint256",
                  "name": "borrowPremium0Growth",
                  "type": "uint256"
                },
                {
                  "internalType": "uint256",
                  "name": "borrowPremium1Growth",
                  "type": "uint256"
                },
                {
                  "internalType": "uint256",
                  "name": "fee0Growth",
                  "type": "uint256"
                },
                {
                  "internalType": "uint256",
                  "name": "fee1Growth",
                  "type": "uint256"
                },
                {
                  "components": [
                    {
                      "internalType": "int256",
                      "name": "positionAmount",
                      "type": "int256"
                    },
                    {
                      "internalType": "uint256",
                      "name": "lastFeeGrowth",
                      "type": "uint256"
                    }
                  ],
                  "internalType": "struct ScaledAsset.UserStatus",
                  "name": "rebalancePositionUnderlying",
                  "type": "tuple"
                },
                {
                  "components": [
                    {
                      "internalType": "int256",
                      "name": "positionAmount",
                      "type": "int256"
                    },
                    {
                      "internalType": "uint256",
                      "name": "lastFeeGrowth",
                      "type": "uint256"
                    }
                  ],
                  "internalType": "struct ScaledAsset.UserStatus",
                  "name": "rebalancePositionStable",
                  "type": "tuple"
                },
                {
                  "internalType": "int256",
                  "name": "rebalanceFeeGrowthUnderlying",
                  "type": "int256"
                },
                {
                  "internalType": "int256",
                  "name": "rebalanceFeeGrowthStable",
                  "type": "int256"
                }
              ],
              "internalType": "struct Perp.SqrtPerpAssetStatus",
              "name": "sqrtAssetStatus",
              "type": "tuple"
            },
            {
              "internalType": "bool",
              "name": "isMarginZero",
              "type": "bool"
            },
            {
              "internalType": "bool",
              "name": "isIsolatedMode",
              "type": "bool"
            },
            {
              "internalType": "uint256",
              "name": "lastUpdateTimestamp",
              "type": "uint256"
            }
          ],
          "internalType": "struct DataType.PairStatus",
          "name": "",
          "type": "tuple"
        }
      ],
      "stateMutability": "nonpayable",
      "type": "function"
    },
    {
      "inputs": [],
      "name": "getPairGroup",
      "outputs": [
        {
          "components": [
            {
              "internalType": "address",
              "name": "stableTokenAddress",
              "type": "address"
            },
            {
              "internalType": "uint256",
              "name": "assetsCount",
              "type": "uint256"
            },
            {
              "internalType": "uint8",
              "name": "marginRoundedDecimal",
              "type": "uint8"
            }
          ],
          "internalType": "struct DataType.PairGroup",
          "name": "",
          "type": "tuple"
        }
      ],
      "stateMutability": "view",
      "type": "function"
    },
    {
      "inputs": [
        {
          "internalType": "uint256",
          "name": "_tokenId",
          "type": "uint256"
        }
      ],
      "name": "getSqrtIndexPrice",
      "outputs": [
        {
          "internalType": "uint160",
          "name": "",
          "type": "uint160"
        }
      ],
      "stateMutability": "view",
      "type": "function"
    },
    {
      "inputs": [
        {
          "internalType": "uint256",
          "name": "_tokenId",
          "type": "uint256"
        }
      ],
      "name": "getSqrtPrice",
      "outputs": [
        {
          "internalType": "uint160",
          "name": "",
          "type": "uint160"
        }
      ],
      "stateMutability": "view",
      "type": "function"
    },
    {
      "inputs": [
        {
          "internalType": "uint256",
          "name": "_id",
          "type": "uint256"
        }
      ],
      "name": "getVault",
      "outputs": [
        {
          "components": [
            {
              "internalType": "uint256",
              "name": "id",
              "type": "uint256"
            },
            {
              "internalType": "address",
              "name": "owner",
              "type": "address"
            },
            {
              "internalType": "int256",
              "name": "margin",
              "type": "int256"
            },
            {
              "components": [
                {
                  "internalType": "uint64",
                  "name": "pairId",
                  "type": "uint64"
                },
                {
                  "internalType": "int24",
                  "name": "rebalanceLastTickLower",
                  "type": "int24"
                },
                {
                  "internalType": "int24",
                  "name": "rebalanceLastTickUpper",
                  "type": "int24"
                },
                {
                  "internalType": "uint64",
                  "name": "lastNumRebalance",
                  "type": "uint64"
                },
                {
                  "components": [
                    {
                      "internalType": "int256",
                      "name": "amount",
                      "type": "int256"
                    },
                    {
                      "internalType": "int256",
                      "name": "entryValue",
                      "type": "int256"
                    }
                  ],
                  "internalType": "struct Perp.PositionStatus",
                  "name": "perp",
                  "type": "tuple"
                },
                {
                  "components": [
                    {
                      "internalType": "int256",
                      "name": "amount",
                      "type": "int256"
                    },
                    {
                      "internalType": "int256",
                      "name": "entryValue",
                      "type": "int256"
                    },
                    {
                      "internalType": "int256",
                      "name": "stableRebalanceEntryValue",
                      "type": "int256"
                    },
                    {
                      "internalType": "int256",
                      "name": "underlyingRebalanceEntryValue",
                      "type": "int256"
                    },
                    {
                      "internalType": "uint256",
                      "name": "entryTradeFee0",
                      "type": "uint256"
                    },
                    {
                      "internalType": "uint256",
                      "name": "entryTradeFee1",
                      "type": "uint256"
                    }
                  ],
                  "internalType": "struct Perp.SqrtPositionStatus",
                  "name": "sqrtPerp",
                  "type": "tuple"
                },
                {
                  "components": [
                    {
                      "internalType": "int256",
                      "name": "positionAmount",
                      "type": "int256"
                    },
                    {
                      "internalType": "uint256",
                      "name": "lastFeeGrowth",
                      "type": "uint256"
                    }
                  ],
                  "internalType": "struct ScaledAsset.UserStatus",
                  "name": "underlying",
                  "type": "tuple"
                },
                {
                  "components": [
                    {
                      "internalType": "int256",
                      "name": "positionAmount",
                      "type": "int256"
                    },
                    {
                      "internalType": "uint256",
                      "name": "lastFeeGrowth",
                      "type": "uint256"
                    }
                  ],
                  "internalType": "struct ScaledAsset.UserStatus",
                  "name": "stable",
                  "type": "tuple"
                }
              ],
              "internalType": "struct Perp.UserStatus[]",
              "name": "openPositions",
              "type": "tuple[]"
            }
          ],
          "internalType": "struct DataType.Vault",
          "name": "",
          "type": "tuple"
        }
      ],
      "stateMutability": "view",
      "type": "function"
    },
    {
      "inputs": [
        {
          "internalType": "uint256",
          "name": "_vaultId",
          "type": "uint256"
        }
      ],
      "name": "getVaultStatus",
      "outputs": [
        {
          "components": [
            {
              "internalType": "uint256",
              "name": "vaultId",
              "type": "uint256"
            },
            {
              "internalType": "int256",
              "name": "vaultValue",
              "type": "int256"
            },
            {
              "internalType": "int256",
              "name": "margin",
              "type": "int256"
            },
            {
              "internalType": "int256",
              "name": "positionValue",
              "type": "int256"
            },
            {
              "internalType": "int256",
              "name": "minDeposit",
              "type": "int256"
            },
            {
              "components": [
                {
                  "internalType": "uint256",
                  "name": "pairId",
                  "type": "uint256"
                },
                {
                  "components": [
                    {
                      "internalType": "uint64",
                      "name": "pairId",
                      "type": "uint64"
                    },
                    {
                      "internalType": "int24",
                      "name": "rebalanceLastTickLower",
                      "type": "int24"
                    },
                    {
                      "internalType": "int24",
                      "name": "rebalanceLastTickUpper",
                      "type": "int24"
                    },
                    {
                      "internalType": "uint64",
                      "name": "lastNumRebalance",
                      "type": "uint64"
                    },
                    {
                      "components": [
                        {
                          "internalType": "int256",
                          "name": "amount",
                          "type": "int256"
                        },
                        {
                          "internalType": "int256",
                          "name": "entryValue",
                          "type": "int256"
                        }
                      ],
                      "internalType": "struct Perp.PositionStatus",
                      "name": "perp",
                      "type": "tuple"
                    },
                    {
                      "components": [
                        {
                          "internalType": "int256",
                          "name": "amount",
                          "type": "int256"
                        },
                        {
                          "internalType": "int256",
                          "name": "entryValue",
                          "type": "int256"
                        },
                        {
                          "internalType": "int256",
                          "name": "stableRebalanceEntryValue",
                          "type": "int256"
                        },
                        {
                          "internalType": "int256",
                          "name": "underlyingRebalanceEntryValue",
                          "type": "int256"
                        },
                        {
                          "internalType": "uint256",
                          "name": "entryTradeFee0",
                          "type": "uint256"
                        },
                        {
                          "internalType": "uint256",
                          "name": "entryTradeFee1",
                          "type": "uint256"
                        }
                      ],
                      "internalType": "struct Perp.SqrtPositionStatus",
                      "name": "sqrtPerp",
                      "type": "tuple"
                    },
                    {
                      "components": [
                        {
                          "internalType": "int256",
                          "name": "positionAmount",
                          "type": "int256"
                        },
                        {
                          "internalType": "uint256",
                          "name": "lastFeeGrowth",
                          "type": "uint256"
                        }
                      ],
                      "internalType": "struct ScaledAsset.UserStatus",
                      "name": "underlying",
                      "type": "tuple"
                    },
                    {
                      "components": [
                        {
                          "internalType": "int256",
                          "name": "positionAmount",
                          "type": "int256"
                        },
                        {
                          "internalType": "uint256",
                          "name": "lastFeeGrowth",
                          "type": "uint256"
                        }
                      ],
                      "internalType": "struct ScaledAsset.UserStatus",
                      "name": "stable",
                      "type": "tuple"
                    }
                  ],
                  "internalType": "struct Perp.UserStatus",
                  "name": "position",
                  "type": "tuple"
                },
                {
                  "internalType": "int256",
                  "name": "delta",
                  "type": "int256"
                },
                {
                  "internalType": "int256",
                  "name": "unrealizedFee",
                  "type": "int256"
                }
              ],
              "internalType": "struct DataType.SubVaultStatusResult[]",
              "name": "subVaults",
              "type": "tuple[]"
            }
          ],
          "internalType": "struct DataType.VaultStatusResult",
          "name": "",
          "type": "tuple"
        }
      ],
      "stateMutability": "nonpayable",
      "type": "function"
    },
    {
      "inputs": [],
      "name": "getVaultStatusWithAddress",
      "outputs": [
        {
          "components": [
            {
              "internalType": "uint256",
              "name": "vaultId",
              "type": "uint256"
            },
            {
              "internalType": "int256",
              "name": "vaultValue",
              "type": "int256"
            },
            {
              "internalType": "int256",
              "name": "margin",
              "type": "int256"
            },
            {
              "internalType": "int256",
              "name": "positionValue",
              "type": "int256"
            },
            {
              "internalType": "int256",
              "name": "minDeposit",
              "type": "int256"
            },
            {
              "components": [
                {
                  "internalType": "uint256",
                  "name": "pairId",
                  "type": "uint256"
                },
                {
                  "components": [
                    {
                      "internalType": "uint64",
                      "name": "pairId",
                      "type": "uint64"
                    },
                    {
                      "internalType": "int24",
                      "name": "rebalanceLastTickLower",
                      "type": "int24"
                    },
                    {
                      "internalType": "int24",
                      "name": "rebalanceLastTickUpper",
                      "type": "int24"
                    },
                    {
                      "internalType": "uint64",
                      "name": "lastNumRebalance",
                      "type": "uint64"
                    },
                    {
                      "components": [
                        {
                          "internalType": "int256",
                          "name": "amount",
                          "type": "int256"
                        },
                        {
                          "internalType": "int256",
                          "name": "entryValue",
                          "type": "int256"
                        }
                      ],
                      "internalType": "struct Perp.PositionStatus",
                      "name": "perp",
                      "type": "tuple"
                    },
                    {
                      "components": [
                        {
                          "internalType": "int256",
                          "name": "amount",
                          "type": "int256"
                        },
                        {
                          "internalType": "int256",
                          "name": "entryValue",
                          "type": "int256"
                        },
                        {
                          "internalType": "int256",
                          "name": "stableRebalanceEntryValue",
                          "type": "int256"
                        },
                        {
                          "internalType": "int256",
                          "name": "underlyingRebalanceEntryValue",
                          "type": "int256"
                        },
                        {
                          "internalType": "uint256",
                          "name": "entryTradeFee0",
                          "type": "uint256"
                        },
                        {
                          "internalType": "uint256",
                          "name": "entryTradeFee1",
                          "type": "uint256"
                        }
                      ],
                      "internalType": "struct Perp.SqrtPositionStatus",
                      "name": "sqrtPerp",
                      "type": "tuple"
                    },
                    {
                      "components": [
                        {
                          "internalType": "int256",
                          "name": "positionAmount",
                          "type": "int256"
                        },
                        {
                          "internalType": "uint256",
                          "name": "lastFeeGrowth",
                          "type": "uint256"
                        }
                      ],
                      "internalType": "struct ScaledAsset.UserStatus",
                      "name": "underlying",
                      "type": "tuple"
                    },
                    {
                      "components": [
                        {
                          "internalType": "int256",
                          "name": "positionAmount",
                          "type": "int256"
                        },
                        {
                          "internalType": "uint256",
                          "name": "lastFeeGrowth",
                          "type": "uint256"
                        }
                      ],
                      "internalType": "struct ScaledAsset.UserStatus",
                      "name": "stable",
                      "type": "tuple"
                    }
                  ],
                  "internalType": "struct Perp.UserStatus",
                  "name": "position",
                  "type": "tuple"
                },
                {
                  "internalType": "int256",
                  "name": "delta",
                  "type": "int256"
                },
                {
                  "internalType": "int256",
                  "name": "unrealizedFee",
                  "type": "int256"
                }
              ],
              "internalType": "struct DataType.SubVaultStatusResult[]",
              "name": "subVaults",
              "type": "tuple[]"
            }
          ],
          "internalType": "struct DataType.VaultStatusResult",
          "name": "",
          "type": "tuple"
        },
        {
          "components": [
            {
              "internalType": "uint256",
              "name": "vaultId",
              "type": "uint256"
            },
            {
              "internalType": "int256",
              "name": "vaultValue",
              "type": "int256"
            },
            {
              "internalType": "int256",
              "name": "margin",
              "type": "int256"
            },
            {
              "internalType": "int256",
              "name": "positionValue",
              "type": "int256"
            },
            {
              "internalType": "int256",
              "name": "minDeposit",
              "type": "int256"
            },
            {
              "components": [
                {
                  "internalType": "uint256",
                  "name": "pairId",
                  "type": "uint256"
                },
                {
                  "components": [
                    {
                      "internalType": "uint64",
                      "name": "pairId",
                      "type": "uint64"
                    },
                    {
                      "internalType": "int24",
                      "name": "rebalanceLastTickLower",
                      "type": "int24"
                    },
                    {
                      "internalType": "int24",
                      "name": "rebalanceLastTickUpper",
                      "type": "int24"
                    },
                    {
                      "internalType": "uint64",
                      "name": "lastNumRebalance",
                      "type": "uint64"
                    },
                    {
                      "components": [
                        {
                          "internalType": "int256",
                          "name": "amount",
                          "type": "int256"
                        },
                        {
                          "internalType": "int256",
                          "name": "entryValue",
                          "type": "int256"
                        }
                      ],
                      "internalType": "struct Perp.PositionStatus",
                      "name": "perp",
                      "type": "tuple"
                    },
                    {
                      "components": [
                        {
                          "internalType": "int256",
                          "name": "amount",
                          "type": "int256"
                        },
                        {
                          "internalType": "int256",
                          "name": "entryValue",
                          "type": "int256"
                        },
                        {
                          "internalType": "int256",
                          "name": "stableRebalanceEntryValue",
                          "type": "int256"
                        },
                        {
                          "internalType": "int256",
                          "name": "underlyingRebalanceEntryValue",
                          "type": "int256"
                        },
                        {
                          "internalType": "uint256",
                          "name": "entryTradeFee0",
                          "type": "uint256"
                        },
                        {
                          "internalType": "uint256",
                          "name": "entryTradeFee1",
                          "type": "uint256"
                        }
                      ],
                      "internalType": "struct Perp.SqrtPositionStatus",
                      "name": "sqrtPerp",
                      "type": "tuple"
                    },
                    {
                      "components": [
                        {
                          "internalType": "int256",
                          "name": "positionAmount",
                          "type": "int256"
                        },
                        {
                          "internalType": "uint256",
                          "name": "lastFeeGrowth",
                          "type": "uint256"
                        }
                      ],
                      "internalType": "struct ScaledAsset.UserStatus",
                      "name": "underlying",
                      "type": "tuple"
                    },
                    {
                      "components": [
                        {
                          "internalType": "int256",
                          "name": "positionAmount",
                          "type": "int256"
                        },
                        {
                          "internalType": "uint256",
                          "name": "lastFeeGrowth",
                          "type": "uint256"
                        }
                      ],
                      "internalType": "struct ScaledAsset.UserStatus",
                      "name": "stable",
                      "type": "tuple"
                    }
                  ],
                  "internalType": "struct Perp.UserStatus",
                  "name": "position",
                  "type": "tuple"
                },
                {
                  "internalType": "int256",
                  "name": "delta",
                  "type": "int256"
                },
                {
                  "internalType": "int256",
                  "name": "unrealizedFee",
                  "type": "int256"
                }
              ],
              "internalType": "struct DataType.SubVaultStatusResult[]",
              "name": "subVaults",
              "type": "tuple[]"
            }
          ],
          "internalType": "struct DataType.VaultStatusResult[]",
          "name": "",
          "type": "tuple[]"
        }
      ],
      "stateMutability": "nonpayable",
      "type": "function"
    },
    {
      "inputs": [
        {
          "internalType": "address",
          "name": "_stableAssetAddress",
          "type": "address"
        },
        {
          "internalType": "uint8",
          "name": "_marginRounder",
          "type": "uint8"
        },
        {
          "components": [
            {
              "internalType": "address",
              "name": "uniswapPool",
              "type": "address"
            },
            {
              "internalType": "bool",
              "name": "isIsolatedMode",
              "type": "bool"
            },
            {
              "components": [
                {
                  "internalType": "uint256",
                  "name": "riskRatio",
                  "type": "uint256"
                },
                {
                  "internalType": "int24",
                  "name": "rangeSize",
                  "type": "int24"
                },
                {
                  "internalType": "int24",
                  "name": "rebalanceThreshold",
                  "type": "int24"
                }
              ],
              "internalType": "struct DataType.AssetRiskParams",
              "name": "assetRiskParams",
              "type": "tuple"
            },
            {
              "components": [
                {
                  "internalType": "uint256",
                  "name": "baseRate",
                  "type": "uint256"
                },
                {
                  "internalType": "uint256",
                  "name": "kinkRate",
                  "type": "uint256"
                },
                {
                  "internalType": "uint256",
                  "name": "slope1",
                  "type": "uint256"
                },
                {
                  "internalType": "uint256",
                  "name": "slope2",
                  "type": "uint256"
                }
              ],
              "internalType": "struct InterestRateModel.IRMParams",
              "name": "stableIrmParams",
              "type": "tuple"
            },
            {
              "components": [
                {
                  "internalType": "uint256",
                  "name": "baseRate",
                  "type": "uint256"
                },
                {
                  "internalType": "uint256",
                  "name": "kinkRate",
                  "type": "uint256"
                },
                {
                  "internalType": "uint256",
                  "name": "slope1",
                  "type": "uint256"
                },
                {
                  "internalType": "uint256",
                  "name": "slope2",
                  "type": "uint256"
                }
              ],
              "internalType": "struct InterestRateModel.IRMParams",
              "name": "underlyingIrmParams",
              "type": "tuple"
            }
          ],
          "internalType": "struct DataType.AddAssetParams[]",
          "name": "_addAssetParams",
          "type": "tuple[]"
        }
      ],
      "name": "initialize",
      "outputs": [],
      "stateMutability": "nonpayable",
      "type": "function"
    },
    {
      "inputs": [
        {
          "internalType": "uint256",
          "name": "_vaultId",
          "type": "uint256"
        },
        {
          "internalType": "uint256",
          "name": "_closeRatio",
          "type": "uint256"
        },
        {
          "internalType": "uint256",
          "name": "_sqrtSlippageTolerance",
          "type": "uint256"
        }
      ],
      "name": "liquidationCall",
      "outputs": [],
      "stateMutability": "nonpayable",
      "type": "function"
    },
    {
      "inputs": [],
      "name": "liquidator",
      "outputs": [
        {
          "internalType": "address",
          "name": "",
          "type": "address"
        }
      ],
      "stateMutability": "view",
      "type": "function"
    },
    {
      "inputs": [
        {
          "internalType": "uint256",
          "name": "_depositAmount",
          "type": "uint256"
        },
        {
          "internalType": "uint64",
          "name": "_pairId",
          "type": "uint64"
        },
        {
          "components": [
            {
              "internalType": "int256",
              "name": "tradeAmount",
              "type": "int256"
            },
            {
              "internalType": "int256",
              "name": "tradeAmountSqrt",
              "type": "int256"
            },
            {
              "internalType": "uint256",
              "name": "lowerSqrtPrice",
              "type": "uint256"
            },
            {
              "internalType": "uint256",
              "name": "upperSqrtPrice",
              "type": "uint256"
            },
            {
              "internalType": "uint256",
              "name": "deadline",
              "type": "uint256"
            },
            {
              "internalType": "bool",
              "name": "enableCallback",
              "type": "bool"
            },
            {
              "internalType": "bytes",
              "name": "data",
              "type": "bytes"
            }
          ],
          "internalType": "struct TradePerpLogic.TradeParams",
          "name": "_tradeParams",
          "type": "tuple"
        }
      ],
      "name": "openIsolatedVault",
      "outputs": [
        {
          "internalType": "uint256",
          "name": "isolatedVaultId",
          "type": "uint256"
        },
        {
          "components": [
            {
              "components": [
                {
                  "internalType": "int256",
                  "name": "perpEntryUpdate",
                  "type": "int256"
                },
                {
                  "internalType": "int256",
                  "name": "sqrtEntryUpdate",
                  "type": "int256"
                },
                {
                  "internalType": "int256",
                  "name": "sqrtRebalanceEntryUpdateUnderlying",
                  "type": "int256"
                },
                {
                  "internalType": "int256",
                  "name": "sqrtRebalanceEntryUpdateStable",
                  "type": "int256"
                },
                {
                  "internalType": "int256",
                  "name": "perpPayoff",
                  "type": "int256"
                },
                {
                  "internalType": "int256",
                  "name": "sqrtPayoff",
                  "type": "int256"
                }
              ],
              "internalType": "struct Perp.Payoff",
              "name": "payoff",
              "type": "tuple"
            },
            {
              "internalType": "int256",
              "name": "fee",
              "type": "int256"
            },
            {
              "internalType": "int256",
              "name": "minDeposit",
              "type": "int256"
            }
          ],
          "internalType": "struct DataType.TradeResult",
          "name": "tradeResult",
          "type": "tuple"
        }
      ],
      "stateMutability": "nonpayable",
      "type": "function"
    },
    {
      "inputs": [],
      "name": "operator",
      "outputs": [
        {
          "internalType": "address",
          "name": "",
          "type": "address"
        }
      ],
      "stateMutability": "view",
      "type": "function"
    },
    {
      "inputs": [
        {
          "internalType": "uint256",
          "name": "_pairId",
          "type": "uint256"
        }
      ],
      "name": "reallocate",
      "outputs": [
        {
          "internalType": "bool",
          "name": "",
          "type": "bool"
        },
        {
          "internalType": "int256",
          "name": "",
          "type": "int256"
        }
      ],
      "stateMutability": "nonpayable",
      "type": "function"
    },
    {
      "inputs": [
        {
          "internalType": "address",
          "name": "_newLiquidator",
          "type": "address"
        }
      ],
      "name": "setLiquidator",
      "outputs": [],
      "stateMutability": "nonpayable",
      "type": "function"
    },
    {
      "inputs": [
        {
          "internalType": "address",
          "name": "_newOperator",
          "type": "address"
        }
      ],
      "name": "setOperator",
      "outputs": [],
      "stateMutability": "nonpayable",
      "type": "function"
    },
    {
      "inputs": [
        {
          "internalType": "uint256",
          "name": "_pairId",
          "type": "uint256"
        },
        {
          "internalType": "uint256",
          "name": "_amount",
          "type": "uint256"
        },
        {
          "internalType": "bool",
          "name": "_isStable",
          "type": "bool"
        }
      ],
      "name": "supplyToken",
      "outputs": [
        {
          "internalType": "uint256",
          "name": "finalMintAmount",
          "type": "uint256"
        }
      ],
      "stateMutability": "nonpayable",
      "type": "function"
    },
    {
      "inputs": [
        {
          "internalType": "uint256",
          "name": "_vaultId",
          "type": "uint256"
        },
        {
          "internalType": "uint64",
          "name": "_pairId",
          "type": "uint64"
        },
        {
          "components": [
            {
              "internalType": "int256",
              "name": "tradeAmount",
              "type": "int256"
            },
            {
              "internalType": "int256",
              "name": "tradeAmountSqrt",
              "type": "int256"
            },
            {
              "internalType": "uint256",
              "name": "lowerSqrtPrice",
              "type": "uint256"
            },
            {
              "internalType": "uint256",
              "name": "upperSqrtPrice",
              "type": "uint256"
            },
            {
              "internalType": "uint256",
              "name": "deadline",
              "type": "uint256"
            },
            {
              "internalType": "bool",
              "name": "enableCallback",
              "type": "bool"
            },
            {
              "internalType": "bytes",
              "name": "data",
              "type": "bytes"
            }
          ],
          "internalType": "struct TradePerpLogic.TradeParams",
          "name": "_tradeParams",
          "type": "tuple"
        }
      ],
      "name": "tradePerp",
      "outputs": [
        {
          "components": [
            {
              "components": [
                {
                  "internalType": "int256",
                  "name": "perpEntryUpdate",
                  "type": "int256"
                },
                {
                  "internalType": "int256",
                  "name": "sqrtEntryUpdate",
                  "type": "int256"
                },
                {
                  "internalType": "int256",
                  "name": "sqrtRebalanceEntryUpdateUnderlying",
                  "type": "int256"
                },
                {
                  "internalType": "int256",
                  "name": "sqrtRebalanceEntryUpdateStable",
                  "type": "int256"
                },
                {
                  "internalType": "int256",
                  "name": "perpPayoff",
                  "type": "int256"
                },
                {
                  "internalType": "int256",
                  "name": "sqrtPayoff",
                  "type": "int256"
                }
              ],
              "internalType": "struct Perp.Payoff",
              "name": "payoff",
              "type": "tuple"
            },
            {
              "internalType": "int256",
              "name": "fee",
              "type": "int256"
            },
            {
              "internalType": "int256",
              "name": "minDeposit",
              "type": "int256"
            }
          ],
          "internalType": "struct DataType.TradeResult",
          "name": "",
          "type": "tuple"
        }
      ],
      "stateMutability": "nonpayable",
      "type": "function"
    },
    {
      "inputs": [
        {
          "internalType": "uint256",
          "name": "amount0",
          "type": "uint256"
        },
        {
          "internalType": "uint256",
          "name": "amount1",
          "type": "uint256"
        },
        {
          "internalType": "bytes",
          "name": "",
          "type": "bytes"
        }
      ],
      "name": "uniswapV3MintCallback",
      "outputs": [],
      "stateMutability": "nonpayable",
      "type": "function"
    },
    {
      "inputs": [
        {
          "internalType": "int256",
          "name": "amount0Delta",
          "type": "int256"
        },
        {
          "internalType": "int256",
          "name": "amount1Delta",
          "type": "int256"
        },
        {
          "internalType": "bytes",
          "name": "",
          "type": "bytes"
        }
      ],
      "name": "uniswapV3SwapCallback",
      "outputs": [],
      "stateMutability": "nonpayable",
      "type": "function"
    },
    {
      "inputs": [
        {
          "internalType": "uint256",
          "name": "_pairId",
          "type": "uint256"
        },
        {
          "components": [
            {
              "internalType": "uint256",
              "name": "riskRatio",
              "type": "uint256"
            },
            {
              "internalType": "int24",
              "name": "rangeSize",
              "type": "int24"
            },
            {
              "internalType": "int24",
              "name": "rebalanceThreshold",
              "type": "int24"
            }
          ],
          "internalType": "struct DataType.AssetRiskParams",
          "name": "_riskParams",
          "type": "tuple"
        }
      ],
      "name": "updateAssetRiskParams",
      "outputs": [],
      "stateMutability": "nonpayable",
      "type": "function"
    },
    {
      "inputs": [
        {
          "internalType": "uint256",
          "name": "_pairId",
          "type": "uint256"
        },
        {
          "components": [
            {
              "internalType": "uint256",
              "name": "baseRate",
              "type": "uint256"
            },
            {
              "internalType": "uint256",
              "name": "kinkRate",
              "type": "uint256"
            },
            {
              "internalType": "uint256",
              "name": "slope1",
              "type": "uint256"
            },
            {
              "internalType": "uint256",
              "name": "slope2",
              "type": "uint256"
            }
          ],
          "internalType": "struct InterestRateModel.IRMParams",
          "name": "_stableIrmParams",
          "type": "tuple"
        },
        {
          "components": [
            {
              "internalType": "uint256",
              "name": "baseRate",
              "type": "uint256"
            },
            {
              "internalType": "uint256",
              "name": "kinkRate",
              "type": "uint256"
            },
            {
              "internalType": "uint256",
              "name": "slope1",
              "type": "uint256"
            },
            {
              "internalType": "uint256",
              "name": "slope2",
              "type": "uint256"
            }
          ],
          "internalType": "struct InterestRateModel.IRMParams",
          "name": "_underlyingIrmParams",
          "type": "tuple"
        }
      ],
      "name": "updateIRMParams",
      "outputs": [],
      "stateMutability": "nonpayable",
      "type": "function"
    },
    {
      "inputs": [
        {
          "internalType": "int256",
          "name": "_marginAmount",
          "type": "int256"
        },
        {
          "internalType": "uint256",
          "name": "_vaultId",
          "type": "uint256"
        }
      ],
      "name": "updateMargin",
      "outputs": [
        {
          "internalType": "uint256",
          "name": "vaultId",
          "type": "uint256"
        }
      ],
      "stateMutability": "nonpayable",
      "type": "function"
    },
    {
      "inputs": [],
      "name": "vaultCount",
      "outputs": [
        {
          "internalType": "uint256",
          "name": "",
          "type": "uint256"
        }
      ],
      "stateMutability": "view",
      "type": "function"
    },
    {
      "inputs": [
        {
          "internalType": "uint256",
          "name": "_pairId",
          "type": "uint256"
        },
        {
          "internalType": "uint256",
          "name": "_amount",
          "type": "uint256"
        },
        {
          "internalType": "bool",
          "name": "_isStable",
          "type": "bool"
        }
      ],
      "name": "withdrawToken",
      "outputs": [
        {
          "internalType": "uint256",
          "name": "finalBurnAmount",
          "type": "uint256"
        },
        {
          "internalType": "uint256",
          "name": "finalWithdrawAmount",
          "type": "uint256"
        }
      ],
      "stateMutability": "nonpayable",
      "type": "function"
    }
  ],
  "transactionHash": "0x7d34d8cbcd10043a633bb773a38f64eb108f4282ab8b7832f454c70b3bfb5dd4",
  "args": [],
  "numDeployments": 1,
  "solcInputHash": "bcfa0473d1699482e44fe98d03214809",
  "bytecode": "0x608060405234801561001057600080fd5b5060018055615aa380620000256000396000f3fe608060405234801561001057600080fd5b50600436106101c45760003560e01c80639403b634116100f9578063d348799711610097578063eac8f5b811610071578063eac8f5b81461047f578063f3eb8cd814610492578063fa461e33146104c5578063fc3b475e146104d857600080fd5b8063d348799714610431578063d65dd74c14610444578063e10caa381461046c57600080fd5b8063a7c6a100116100d3578063a7c6a10014610399578063acfcd9fd146103a2578063b3ab15fb146103b5578063badfd663146103c857600080fd5b80639403b6341461034557806395be76a2146103655780639cbaff8d1461037857600080fd5b80632d3c7f361161016657806349ebb77d1161014057806349ebb77d146102df578063570ca735146102ff5780637a2b78d6146103125780638f1f63291461033257600080fd5b80632d3c7f36146102a657806338bb2fc8146102b95780634046ebae146102cc57600080fd5b806316560456116101a2578063165604561461023157806318e8074914610247578063240c641014610272578063241741cc1461028557600080fd5b806301c76f81146101c957806307159aec146101de5780630fe433db14610207575b600080fd5b6101dc6101d7366004613f99565b6104eb565b005b6101f16101ec366004613fb6565b610586565b6040516101fe919061405c565b60405180910390f35b61021a610215366004613fb6565b6108a2565b6040805192151583526020830191909152016101fe565b61023961099b565b6040516101fe92919061435a565b61025a610255366004613fb6565b610af3565b6040516001600160a01b0390911681526020016101fe565b6101dc6102803660046143cc565b610b3b565b610298610293366004614640565b610e48565b6040519081526020016101fe565b6102986102b436600461465d565b610efb565b6102986102c7366004614696565b611014565b600b5461025a906001600160a01b031681565b6102f26102ed366004613fb6565b6110d8565b6040516101fe91906146b8565b600a5461025a906001600160a01b031681565b61032561032036600461474f565b6112da565b6040516101fe919061486d565b6101dc61034036600461487c565b61154d565b610358610353366004613fb6565b6115f2565b6040516101fe91906148a9565b6101dc61037336600461492c565b6117a9565b61038b61038636600461474f565b611851565b6040516101fe92919061496b565b61029860095481565b61025a6103b0366004613fb6565b611c1e565b6101dc6103c3366004613f99565b611c46565b60408051606080820183526000808352602080840182905292840152825180820184526002546001600160a01b031680825260035482850190815260045460ff9081169387019384528651928352905194820194909452905190921692820192909252016101fe565b6101dc61043f3660046149c1565b611cd1565b61045761045236600461465d565b611dd9565b604080519283526020830191909152016101fe565b61032561047a366004614a13565b611eed565b6101f161048d366004613fb6565b6122a5565b6104b56104a0366004613f99565b600c6020526000908152604090205460ff1681565b60405190151581526020016101fe565b6101dc6104d33660046149c1565b612557565b6101dc6104e6366004614ab0565b612608565b600a546001600160a01b0316331461051e5760405162461bcd60e51b815260040161051590614b76565b60405180910390fd5b6001600160a01b03811661053157600080fd5b600b80546001600160a01b0319166001600160a01b0383169081179091556040519081527f82d2860e9f6296845ec2615b720571f4ac80342692d4396a1decf505bfc063b3906020015b60405180910390a150565b61058e613c71565b604051630105479f60e01b8152600560048201526024810183905273F31C6df2E3cc287b6C66CA1bEF05b5814821757890630105479f9060440160006040518083038186803b1580156105e057600080fd5b505af41580156105f4573d6000803e3d6000fd5b5050506000928352505060056020818152604092839020835161010080820186528254825285516080808201885260018501546001600160a01b039081168352600280870154821684890152895160c08082018c52600389015482526004890154828b015299880154818c01526006880154606080830191909152600789015482860152600889015460a080840191909152868d01929092528b518086018d5260098a01548152600a8a0154818c0152600b8a0154818e0152600c8a01548183015281870152878a01959095528a518085018c52600d89015484168152600e8901548416818b01528b51808c018d52600f8a0154815260108a0154818c015260118a0154818e015260128a01548188015260138a01548187015260148a015481840152818d01528b518086018d5260158a0154815260168a0154818c015260178a0154818e015260188a01548188015281870152878c01528a518086018c5260198901548152601a89015480840b828c015263010000009004830b818d0152858801528a5161022081018c52601b8901549384168152600160a01b8404830b818b0152600160b81b90930490910b828b0152601c8701546001600160401b031693820193909352601d86015481830152601e86015481840152601f860154818901528587015460e08083019190915260218701548286015260228701546101208301526023870154610140830152602487015461016083015260258701546101808301528951808b018b52602688015481526027880154818a01526101a08301528951808b01909a5260288701548a526029870154978a01979097526101c0810198909852602a8501546101e0890152602b850154610200890152830196909652602c83015460ff80821615159784019790975204909416151592840192909252602d909101549082015290565b604051630105479f60e01b81526005600482015260248101829052600090819073F31C6df2E3cc287b6C66CA1bEF05b5814821757890630105479f9060440160006040518083038186803b1580156108f957600080fd5b505af415801561090d573d6000803e3d6000fd5b5050604051638d7c930960e01b815260056004820152600660248201526044810186905273F31C6df2E3cc287b6C66CA1bEF05b581482175789250638d7c930991506064016040805180830381865af415801561096e573d6000803e3d6000fd5b505050506040513d601f19601f820116820180604052508101906109929190614b92565b91509150915091565b6109a3613ce1565b33600090815260086020908152604080832081518083018352815481526001820180548451818702810187019095528085526060969592948584019390929190830182828015610a1257602002820191906000526020600020905b8154815260200190600101908083116109fe575b505050505081525050905060008160200151516001600160401b03811115610a3c57610a3c6143f8565b604051908082528060200260200182016040528015610a7557816020015b610a62613ce1565b815260200190600190039081610a5a5790505b50905060005b826020015151811015610ade57610aae83602001518281518110610aa157610aa1614bc0565b60200260200101516110d8565b828281518110610ac057610ac0614bc0565b60200260200101819052508080610ad690614bec565b915050610a7b565b508151610aea906110d8565b94909350915050565b6000818152600560205260408120601b0154610b3590610b1b906001600160a01b03166127b5565b6000848152600560205260409020602c015460ff16612826565b92915050565b610b43612853565b600083815260076020526040902060018101546001600160a01b0316610b6857600080fd5b600b546001600160a01b0316331480610b7f575081155b610b8857600080fd5b604080516080810182528254815260018301546001600160a01b0316602080830191909152600284015482840152600384018054845181840281018401909552808552610d03948693606086019391929060009084015b82821015610cf65760008481526020908190206040805161010081018252600d860290920180546001600160401b038082168552600160401b8204600290810b86880152600160581b8304810b86860152600160701b909204166060808601919091528351808501855260018085015482529284015481880152608080870191909152845160c08082018752600386015482526004860154828a0152600586015482880152600686015493820193909352600785015491810191909152600884015460a0828101919091528601528351808501855260098401548152600a84015481880152908501528251808401909352600b8201548352600c909101548285015260e08301919091529083529092019101610bdf565b50505050815250506128ac565b60018101546001600160a01b03166000908152600860209081526040808320548084526007909252808320905163756afcc760e01b815291929182917327d2db9bB71053708Fea8fb3DD88D60a10b6884B9163756afcc791610d76916002916005916006918b918e908e90600401614c2b565b6040805180830381865af4158015610d92573d6000803e3d6000fd5b505050506040513d601f19601f82011682018060405250810190610db69190614c6b565b915091508015610de85760018401546001600160a01b031660009081526008602052604090208454610de89190612912565b6000821315610e0d57600254610e08906001600160a01b031633846129c4565b610e36565b6000821215610e3657600254610e36906001600160a01b03163330610e3186614c9b565b612abd565b50505050610e4360018055565b505050565b600a546000906001600160a01b03163314610e755760405162461bcd60e51b815260040161051590614b76565b60405163072b728d60e21b815273Db9Ff105650f2019330681813DCB24936463701090631cadca3490610eb590600290600590600c908890600401614d51565b602060405180830381865af4158015610ed2573d6000803e3d6000fd5b505050506040513d601f19601f82011682018060405250810190610b359190614d74565b919050565b6000610f05612853565b604051630105479f60e01b8152600560048201526024810185905273F31C6df2E3cc287b6C66CA1bEF05b5814821757890630105479f9060440160006040518083038186803b158015610f5757600080fd5b505af4158015610f6b573d6000803e3d6000fd5b505050600085815260056020526040908190209051630d44d8cd60e21b8152600481019190915260248101859052831515604482015273d30ab149Ea63875363f1A777c31F82A35B054c619150633513633490606401602060405180830381865af4158015610fde573d6000803e3d6000fd5b505050506040513d601f19601f820116820180604052508101906110029190614d74565b905061100d60018055565b9392505050565b600061101e612853565b811561102b57508061103d565b50336000908152600860205260409020545b61104981336001612bbf565b60008181526007602052604090819020905163a62aa62360e01b81529192509073bde1092eB6634A63db20B6d1F62f8933ebC762F89063a62aa6239061109e9060029060059060069087908b90600401614d8d565b60006040518083038186803b1580156110b657600080fd5b505af41580156110ca573d6000803e3d6000fd5b5050505050610b3560018055565b6110e0613ce1565b600082815260076020908152604080832081516080810183528154815260018201546001600160a01b031681850152600282015481840152600382018054845181870281018701909552808552929561125895929487946060870194919392909184018215610cf65760008481526020908190206040805161010081018252600d860290920180546001600160401b038082168552600160401b8204600290810b86880152600160581b8304810b86860152600160701b909204166060808601919091528351808501855260018085015482529284015481880152608080870191909152845160c08082018752600386015482526004860154828a0152600586015482880152600686015493820193909352600785015491810191909152600884015460a0828101919091528601528351808501855260098401548152600a84015481880152908501528251808401909352600b8201548352600c909101548285015260e08301919091529083529092019101610bdf565b6040516316c6a23f60e21b81527317A38279d6A10A66c0C9CE85f0E7dB125Fe2fE0590635b1a88fc90611295906005906006908690600401614dbd565b600060405180830381865af41580156112b2573d6000803e3d6000fd5b505050506040513d6000823e601f3d908101601f1916820160405261100d9190810190614fe0565b6112e2613d17565b6112ea612853565b604080516060810182526002546001600160a01b0316815260035460208083019190915260045460ff168284015260008781526007909152918220611333919060059087612ce2565b600086815260076020908152604080832081516080810183528154815260018201546001600160a01b0316818501526002820154818401526003820180548451818702810187019095528085529697506114ac96919592946060870194939192919084018215610cf65760008481526020908190206040805161010081018252600d860290920180546001600160401b038082168552600160401b8204600290810b86880152600160581b8304810b86860152600160701b909204166060808601919091528351808501855260018085015482529284015481880152608080870191909152845160c08082018752600386015482526004860154828a0152600586015482880152600686015493820193909352600785015491810191909152600884015460a0828101919091528601528351808501855260098401548152600a84015481880152908501528251808401909352600b8201548352600c909101548285015260e08301919091529083529092019101610bdf565b60008581526007602052604090819020905163f645708f60e01b81527320032AfEB90A25BafBb5fa62Be537b6339271A789163f645708f916114ff916002916005916006918b9089908c9060040161524e565b61010060405180830381865af415801561151d573d6000803e3d6000fd5b505050506040513d601f19601f8201168201806040525081019061154191906152a5565b91505061100d60018055565b600a546001600160a01b031633146115775760405162461bcd60e51b815260040161051590614b76565b60008281526005602052604090819020905163ce45db6b60e01b815273Db9Ff105650f2019330681813DCB2493646370109163ce45db6b916115be91908590600401615331565b60006040518083038186803b1580156115d657600080fd5b505af41580156115ea573d6000803e3d6000fd5b505050505050565b61162660405180608001604052806000815260200160006001600160a01b0316815260200160008152602001606081525090565b600082815260076020908152604080832081516080810183528154815260018201546001600160a01b031681850152600282015481840152600382018054845181870281018701909552808552919592946060870194939192919084015b8282101561179b5760008481526020908190206040805161010081018252600d860290920180546001600160401b038082168552600160401b8204600290810b86880152600160581b8304810b86860152600160701b909204166060808601919091528351808501855260018085015482529284015481880152608080870191909152845160c08082018752600386015482526004860154828a0152600586015482880152600686015493820193909352600785015491810191909152600884015460a0828101919091528601528351808501855260098401548152600a84015481880152908501528251808401909352600b8201548352600c909101548285015260e08301919091529083529092019101611684565b505050915250909392505050565b600a546001600160a01b031633146117d35760405162461bcd60e51b815260040161051590614b76565b600083815260056020526040908190209051631a9cd26b60e01b815273Db9Ff105650f2019330681813DCB24936463701091631a9cd26b9161181c919086908690600401615362565b60006040518083038186803b15801561183457600080fd5b505af4158015611848573d6000803e3d6000fd5b50505050505050565b600061185b613d17565b611863612853565b336000908152600860209081526040808320548084526007835281842082516080810184528154815260018201546001600160a01b031681860152600282015481850152600382018054855181880281018801909652808652939692956119f795929487946060870194939284015b828210156119e95760008481526020908190206040805161010081018252600d860290920180546001600160401b038082168552600160401b8204600290810b86880152600160581b8304810b86860152600160701b909204166060808601919091528351808501855260018085015482529284015481880152608080870191909152845160c08082018752600386015482526004860154828a0152600586015482880152600686015493820193909352600785015491810191909152600884015460a0828101919091528601528351808501855260098401548152600a84015481880152908501528251808401909352600b8201548352600c909101548285015260e083019190915290835290920191016118d2565b505050508152505033612ea9565b604080516080810182528254815260018301546001600160a01b0316602080830191909152600284015482840152600384018054845181840281018401909552808552611b62948693606086019391929060009084018215610cf65760008481526020908190206040805161010081018252600d860290920180546001600160401b038082168552600160401b8204600290810b86880152600160581b8304810b86860152600160701b909204166060808601919091528351808501855260018085015482529284015481880152608080870191909152845160c08082018752600386015482526004860154828a0152600586015482880152600686015493820193909352600785015491810191909152600884015460a0828101919091528601528351808501855260098401548152600a84015481880152908501528251808401909352600b8201548352600c909101548285015260e08301919091529083529092019101610bdf565b611b6f6000336000612bbf565b60008181526007602052604090819020905163e271d02760e01b81529195507397d87dD346d46De82C51CA2b9710151167B42E379163e271d02791611bc79160029160059160069188918f908f908f906004016153c6565b61010060405180830381865af4158015611be5573d6000803e3d6000fd5b505050506040513d601f19601f82011682018060405250810190611c0991906152a5565b92505050611c1660018055565b935093915050565b6000818152600560205260408120601b0154610b3590610b1b906001600160a01b0316612f15565b600a546001600160a01b03163314611c705760405162461bcd60e51b815260040161051590614b76565b6001600160a01b038116611c8357600080fd5b600a80546001600160a01b0319166001600160a01b0383169081179091556040519081527fb3b3f5f64ab192e4b5fefde1f51ce9733bbdcf831951543b325aebd49cc27ec49060200161057b565b336000908152600c602052604090205460ff16611ced57600080fd5b338415611d6057611d60816001600160a01b0316630dfe16816040518163ffffffff1660e01b8152600401602060405180830381865afa158015611d35573d6000803e3d6000fd5b505050506040513d601f19601f82011682018060405250810190611d599190615425565b33876129c4565b8315611dd257611dd2816001600160a01b031663d21220a76040518163ffffffff1660e01b8152600401602060405180830381865afa158015611da7573d6000803e3d6000fd5b505050506040513d601f19601f82011682018060405250810190611dcb9190615425565b33866129c4565b5050505050565b600080611de4612853565b604051630105479f60e01b8152600560048201526024810186905273F31C6df2E3cc287b6C66CA1bEF05b5814821757890630105479f9060440160006040518083038186803b158015611e3657600080fd5b505af4158015611e4a573d6000803e3d6000fd5b505050600086815260056020526040908190209051635b622cbd60e11b8152600481019190915260248101869052841515604482015273d30ab149Ea63875363f1A777c31F82A35B054c61915063b6c4597a906064016040805180830381865af4158015611ebc573d6000803e3d6000fd5b505050506040513d601f19601f82011682018060405250810190611ee09190615442565b91509150611c1660018055565b611ef5613d17565b611efd612853565b336000908152600860209081526040808320548084526007835281842088855282852083516080810185528254815260018301546001600160a01b03168187015260028301548186015260038301805486518189028101890190975280875294979396929561208b959294889460608701949293929190840182156119e95760008481526020908190206040805161010081018252600d860290920180546001600160401b038082168552600160401b8204600290810b86880152600160581b8304810b86860152600160701b909204166060808601919091528351808501855260018085015482529284015481880152608080870191909152845160c08082018752600386015482526004860154828a0152600586015482880152600686015493820193909352600785015491810191909152600884015460a0828101919091528601528351808501855260098401548152600a84015481880152908501528251808401909352600b8201548352600c909101548285015260e083019190915290835290920191016118d2565b604080516080810182528254815260018301546001600160a01b03166020808301919091526002840154828401526003840180548451818402810184019095528085526121f6948693606086019391929060009084018215610cf65760008481526020908190206040805161010081018252600d860290920180546001600160401b038082168552600160401b8204600290810b86880152600160581b8304810b86860152600160701b909204166060808601919091528351808501855260018085015482529284015481880152608080870191909152845160c08082018752600386015482526004860154828a0152600586015482880152600686015493820193909352600785015491810191909152600884015460a0828101919091528601528351808501855260098401548152600a84015481880152908501528251808401909352600b8201548352600c909101548285015260e08301919091529083529092019101610bdf565b604051627fa7b960e11b81527397d87dD346d46De82C51CA2b9710151167B42E379062ff4f729061223a90600290600590600690889088908e908e90600401615466565b61010060405180830381865af4158015612258573d6000803e3d6000fd5b505050506040513d601f19601f8201168201806040525081019061227c91906152a5565b336000908152600860205260409020825491955061229991612912565b50505061100d60018055565b6122ad613c71565b50600090815260056020818152604092839020835161010080820186528254825285516080808201885260018501546001600160a01b039081168352600280870154821684890152895160c08082018c52600389015482526004890154828b015299880154818c01526006880154606080830191909152600789015482860152600889015460a080840191909152868d01929092528b518086018d5260098a01548152600a8a0154818c0152600b8a0154818e0152600c8a01548183015281870152878a01959095528a518085018c52600d89015484168152600e8901548416818b01528b51808c018d52600f8a0154815260108a0154818c015260118a0154818e015260128a01548188015260138a01548187015260148a015481840152818d01528b518086018d5260158a0154815260168a0154818c015260178a0154818e015260188a01548188015281870152878c01528a518086018c5260198901548152601a89015480840b828c015263010000009004830b818d0152858801528a5161022081018c52601b8901549384168152600160a01b8404830b818b0152600160b81b90930490910b828b0152601c8701546001600160401b031693820193909352601d86015481830152601e86015481840152601f860154818901528587015460e08083019190915260218701548286015260228701546101208301526023870154610140830152602487015461016083015260258701546101808301528951808b018b52602688015481526027880154818a01526101a08301528951808b01909a5260288701548a526029870154978a01979097526101c0810198909852602a8501546101e0890152602b850154610200890152830196909652602c83015460ff80821615159784019790975204909416151592840192909252602d909101549082015290565b336000908152600c602052604090205460ff1661257357600080fd5b3360008513156125be576125be816001600160a01b0316630dfe16816040518163ffffffff1660e01b8152600401602060405180830381865afa158015611d35573d6000803e3d6000fd5b6000841315611dd257611dd2816001600160a01b031663d21220a76040518163ffffffff1660e01b8152600401602060405180830381865afa158015611da7573d6000803e3d6000fd5b600054610100900460ff16158080156126285750600054600160ff909116105b806126425750303b158015612642575060005460ff166001145b6126a55760405162461bcd60e51b815260206004820152602e60248201527f496e697469616c697a61626c653a20636f6e747261637420697320616c72656160448201526d191e481a5b9a5d1a585b1a5e995960921b6064820152608401610515565b6000805460ff1916600117905580156126c8576000805461ff0019166101001790555b6001600955600a80546001600160a01b031916331790556040516327807d0160e21b815273Db9Ff105650f2019330681813DCB24936463701090639e01f4049061272390600290600590600c908a908a908a906004016154c6565b600060405180830381865af4158015612740573d6000803e3d6000fd5b505050506040513d6000823e601f3d908101601f191682016040526127689190810190615547565b5080156127af576000805461ff0019169055604051600181527f7f26b83ff96e1f2b6a682f133852f6798a09c465da95921460cefb38474024989060200160405180910390a15b50505050565b6000816001600160a01b0316633850c7bd6040518163ffffffff1660e01b815260040160e060405180830381865afa1580156127f5573d6000803e3d6000fd5b505050506040513d601f19601f8201168201806040525081019061281991906155e9565b5094979650505050505050565b6000811561284c576128456001600160a01b038416600160c01b615691565b9050610b35565b5081610b35565b6002600154036128a55760405162461bcd60e51b815260206004820152601f60248201527f5265656e7472616e637947756172643a207265656e7472616e742063616c6c006044820152606401610515565b6002600155565b6040516319aadfb560e01b815273F31C6df2E3cc287b6C66CA1bEF05b58148217578906319aadfb5906128e69084906005906004016156a5565b60006040518083038186803b1580156128fe57600080fd5b505af4158015611dd2573d6000803e3d6000fd5b600081116129325760405162461bcd60e51b8152600401610515906157fc565b815481900361293f575050565b60006129b88360405180604001604052908160008201548152602001600182018054806020026020016040519081016040528092919081815260200182805480156129a957602002820191906000526020600020905b815481526020019060010190808311612995575b50505050508152505083612f2a565b9050610e438382612fb3565b604080516001600160a01b038481166024830152604480830185905283518084039091018152606490920183526020820180516001600160e01b031663a9059cbb60e01b1790529151600092839290871691612a209190615818565b6000604051808303816000865af19150503d8060008114612a5d576040519150601f19603f3d011682016040523d82523d6000602084013e612a62565b606091505b5091509150818015612a8c575080511580612a8c575080806020019051810190612a8c9190615834565b611dd25760405162461bcd60e51b815260206004820152600260248201526114d560f21b6044820152606401610515565b604080516001600160a01b0385811660248301528481166044830152606480830185905283518084039091018152608490920183526020820180516001600160e01b03166323b872dd60e01b1790529151600092839290881691612b219190615818565b6000604051808303816000865af19150503d8060008114612b5e576040519150601f19603f3d011682016040523d82523d6000602084013e612b63565b606091505b5091509150818015612b8d575080511580612b8d575080806020019051810190612b8d9190615834565b6115ea5760405162461bcd60e51b815260206004820152600360248201526229aa2360e91b6044820152606401610515565b600083600003612cdb5760098054906000612bd983614bec565b9091555090506001600160a01b038316612c1a5760405162461bcd60e51b8152602060048201526002602482015261433560f01b6044820152606401610515565b600081815260076020526040902081815560010180546001600160a01b0319166001600160a01b0385161790558115612c74576001600160a01b0383166000908152600860205260409020612c6f908261302e565b612c96565b6001600160a01b0383166000908152600860205260409020612c969082613066565b604080518281523360208201528315158183015290517f2426281c09515ec0a53173de7284551c54a4c6fc61de7d2ccb225a44eee0c98b9181900360600190a161100d565b508261100d565b604080516080810182528354815260018401546001600160a01b0316602080830191909152600285015482840152600385018054845181840281018401909552808552600094612e4f94938893606086019390918890840182156119e95760008481526020908190206040805161010081018252600d860290920180546001600160401b038082168552600160401b8204600290810b86880152600160581b8304810b86860152600160701b909204166060808601919091528351808501855260018085015482529284015481880152608080870191909152845160c08082018752600386015482526004860154828a0152600586015482880152600686015493820193909352600785015491810191909152600884015460a0828101919091528601528351808501855260098401548152600a84015481880152908501528251808401909352600b8201548352600c909101548285015260e083019190915290835290920191016118d2565b60208501516001600160401b03831610612e955760405162461bcd60e51b81526020600482015260076024820152661054d4d155125160ca1b6044820152606401610515565b612ea08484846130d7565b95945050505050565b8151612ec75760405162461bcd60e51b8152600401610515906157fc565b806001600160a01b031682602001516001600160a01b031614612f115760405162461bcd60e51b81526020600482015260026024820152612b1960f11b6044820152606401610515565b5050565b6000612f238261070861337c565b5092915050565b6000600019815b846020015151811015612f7c578385602001518281518110612f5557612f55614bc0565b602002602001015103612f6a57809150612f7c565b80612f7481614bec565b915050612f31565b50606481111561100d5760405162461bcd60e51b8152602060048201526002602482015261563360f01b6044820152606401610515565b600180830180549091612fc591615851565b81548110612fd557612fd5614bc0565b9060005260206000200154826001018281548110612ff557612ff5614bc0565b6000918252602090912001556001820180548061301457613014615864565b600190038181906000526020600020016000905590555050565b8154156130625760405162461bcd60e51b8152602060048201526002602482015261158d60f21b6044820152606401610515565b9055565b600081116130865760405162461bcd60e51b8152600401610515906157fc565b6001808301805491820181556000818152602090209091018290555460641015612f115760405162461bcd60e51b8152602060048201526002602482015261563360f01b6044820152606401610515565b6000805b600384015481101561316257826001600160401b031684600301828154811061310657613106614bc0565b60009182526020909120600d90910201546001600160401b0316036131505783600301818154811061313a5761313a614bc0565b90600052602060002090600d020191505061100d565b8061315a81614bec565b9150506130db565b506003830154600111613223578360008460030160008154811061318857613188614bc0565b60009182526020808320600d909202909101546001600160401b031683528201929092526040019020602c015460ff610100909104161580156131ec57506001600160401b0382166000908152602085905260409020602c0154610100900460ff16155b6132235760405162461bcd60e51b81526020600482015260086024820152671254d3d31055115160c21b6044820152606401610515565b8260030161323083613809565b81546001818101845560009384526020938490208351600d909302018054858501516040808701516060808901516001600160401b03908116600160701b0267ffffffffffffffff60701b1962ffffff948516600160581b02166affffffffffffffffffffff60581b1994909616600160401b026affffffffffffffffffffff199097169190991617949094171691909117949094178255608080860151805184860155870151600284015560a0808701518051600380870191909155818a015160048701559681015160058601559283015160068501559082015160078401550151600882015560c084015180516009830155850151600a82015560e0909301518051600b85015590930151600c9092019190915584018054909161335591615851565b8154811061336557613365614bc0565b90600052602060002090600d020190509392505050565b60408051600280825260608201835260009283928392909160208301908036833701905050905083816000815181106133b7576133b7614bc0565b602002602001019063ffffffff16908163ffffffff16815250506000816001815181106133e6576133e6614bc0565b602002602001019063ffffffff16908163ffffffff1681525050600080866001600160a01b031663883bdbfd60e01b84604051602401613426919061587a565b60408051601f198184030181529181526020820180516001600160e01b03166001600160e01b03199094169390931790925290516134649190615818565b600060405180830381855afa9150503d806000811461349f576040519150601f19603f3d011682016040523d82523d6000602084013e6134a4565b606091505b5091509150816137845760405160206024820152600360448201526213d31160ea1b606482015260840160408051601f19818403018152919052602080820180516001600160e01b031662461bcd60e51b1781529151909120825191830191909120146135145761351481613907565b600080886001600160a01b0316633850c7bd6040518163ffffffff1660e01b815260040160e060405180830381865afa158015613555573d6000803e3d6000fd5b505050506040513d601f19601f8201168201806040525081019061357991906155e9565b5050509350935050506000808a6001600160a01b031663252c09d7848660016135a291906158c4565b6135ac91906158df565b6040516001600160e01b031960e084901b16815261ffff9091166004820152602401608060405180830381865afa1580156135eb573d6000803e3d6000fd5b505050506040513d601f19601f8201168201806040525081019061360f9190615912565b9350505091508061368a5760405163252c09d760e01b8152600060048201526001600160a01b038c169063252c09d790602401608060405180830381865afa15801561365f573d6000803e3d6000fd5b505050506040513d601f19601f820116820180604052508101906136839190615912565b5091935050505b61369a63ffffffff831642615851565b995089876000815181106136b0576136b0614bc0565b602002602001019063ffffffff16908163ffffffff16815250508a6001600160a01b031663883bdbfd60e01b886040516024016136ed919061587a565b60408051601f198184030181529181526020820180516001600160e01b03166001600160e01b031990941693909317909252905161372b9190615818565b600060405180830381855afa9150503d8060008114613766576040519150601f19603f3d011682016040523d82523d6000602084013e61376b565b606091505b5090965094508561377f5761377f85613907565b505050505b60008180602001905181019061379a9190615976565b9050600087826000815181106137b2576137b2614bc0565b6020026020010151836001815181106137cd576137cd614bc0565b60200260200101516137df9190615a02565b6137e99190615a2f565b905060006137f68261394e565b97508896505050505050505b9250929050565b613811613d6f565b604051806101000160405280836001600160401b03168152602001600060020b8152602001600060020b815260200160006001600160401b03168152602001604051806040016040528060008152602001600081525081526020016040518060c001604052806000815260200160008152602001600081526020016000815260200160008152602001600081525081526020016138cf6040805180820182526000808252602091820181905282518084019093528083529082015290565b81526020016138ff6040805180820182526000808252602091820181905282518084019093528083529082015290565b905292915050565b80511561391657805181602001fd5b60405162461bcd60e51b815260206004820152600d60248201526c3297b2b6b83a3c96b2b93937b960991b6044820152606401610515565b60008060008360020b12613965578260020b61396d565b8260020b6000035b9050620d89e8811115613993576040516315e4079d60e11b815260040160405180910390fd5b6000816001166000036139aa57600160801b6139bc565b6ffffcb933bd6fad37aa2d162d1a5940015b70ffffffffffffffffffffffffffffffffff16905060028216156139f0576ffff97272373d413259a46990580e213a0260801c5b6004821615613a0f576ffff2e50f5f656932ef12357cf3c7fdcc0260801c5b6008821615613a2e576fffe5caca7e10e4e61c3624eaa0941cd00260801c5b6010821615613a4d576fffcb9843d60f6159c9db58835c9266440260801c5b6020821615613a6c576fff973b41fa98c081472e6896dfb254c00260801c5b6040821615613a8b576fff2ea16466c96a3843ec78b326b528610260801c5b6080821615613aaa576ffe5dee046a99a2a811c461f1969c30530260801c5b610100821615613aca576ffcbe86c7900a88aedcffc83b479aa3a40260801c5b610200821615613aea576ff987a7253ac413176f2b074cf7815e540260801c5b610400821615613b0a576ff3392b0822b70005940c7a398e4b70f30260801c5b610800821615613b2a576fe7159475a2c29b7443b29c7fa6e889d90260801c5b611000821615613b4a576fd097f3bdfd2022b8845ad8f792aa58250260801c5b612000821615613b6a576fa9f746462d870fdf8a65dc1f90e061e50260801c5b614000821615613b8a576f70d869a156d2a1b890bb3df62baf32f70260801c5b618000821615613baa576f31be135f97d08fd981231505542fcfa60260801c5b62010000821615613bcb576f09aa508b5b7a84e1c677de54f3e99bc90260801c5b62020000821615613beb576e5d6af8dedb81196699c329225ee6040260801c5b62040000821615613c0a576d2216e584f5fa1ea926041bedfe980260801c5b62080000821615613c27576b048a170391f7dc42444e8fa20260801c5b60008460020b1315613c48578060001981613c4457613c4461567b565b0490505b640100000000810615613c5c576001613c5f565b60005b60ff16602082901c0192505050919050565b60405180610100016040528060008152602001613c8c613e2f565b8152602001613c99613e2f565b81526040805160608101825260008082526020828101829052928201529101908152602001613cc6613ec3565b81526000602082018190526040820181905260609091015290565b6040518060c001604052806000815260200160008152602001600081526020016000815260200160008152602001606081525090565b6040518060600160405280613d5b6040518060c001604052806000815260200160008152602001600081526020016000815260200160008152602001600081525090565b815260200160008152602001600081525090565b6040805161010081018252600080825260208083018290528284018290526060830182905283518085019094528184528301529060808201908152602001613de66040518060c001604052806000815260200160008152602001600081526020016000815260200160008152602001600081525090565b8152602001613e08604051806040016040528060008152602001600081525090565b8152602001613e2a604051806040016040528060008152602001600081525090565b905290565b604051806080016040528060006001600160a01b0316815260200160006001600160a01b03168152602001613e936040518060c001604052806000815260200160008152602001600081526020016000815260200160008152602001600081525090565b8152602001613e2a6040518060800160405280600081526020016000815260200160008152602001600081525090565b60405180610220016040528060006001600160a01b03168152602001600060020b8152602001600060020b815260200160006001600160401b03168152602001600081526020016000815260200160008152602001600081526020016000815260200160008152602001600081526020016000815260200160008152602001613f5f604051806040016040528060008152602001600081525090565b8152602001613d5b604051806040016040528060008152602001600081525090565b6001600160a01b0381168114613f9657600080fd5b50565b600060208284031215613fab57600080fd5b813561100d81613f81565b600060208284031215613fc857600080fd5b5035919050565b60018060a01b03808251168352806020830151166020840152506040810151805160408401526020810151606084015260408101516080840152606081015160a0840152608081015160c084015260a081015160e0840152506060810151610e43610100840182805182526020810151602083015260408101516040830152606081015160608301525050565b8151815260208083015161064083019161407890840182613fcf565b5060408301516101a061408d81850183613fcf565b606085015180516103208601526020810151600290810b6103408701526040820151900b6103608601529150608085015180516001600160a01b0316610380860152915060208201516140e66103a086018260020b9052565b5060408201516140fc6103c086018260020b9052565b5060608201516001600160401b03166103e0850152608082015161040085015260a08083015161042086015260c08084015161044087015260e0808501516104608801526101008501516104808801526101208501516104a08801526101408501516104c08801526101608501516104e08801526101808501516105008801529284015180516105208801526020908101516105408801526101c0850151805161056089015201516105808701526101e08401516105a0870152610200909301516105c086015285015115156105e085015290840151151561060084015292909201516106209091015290565b6001600160401b03808251168352602082015160020b6020840152604082015160020b604084015280606083015116606084015250608081015161423a608084018280518252602090810151910152565b5060a081810151805160c0850152602081015160e0850152604081015161010085015260608101516101208501526080810151610140850152908101516101608401525060c0810151805161018084015260208101516101a08401525060e0015180516101c0830152602001516101e090910152565b600060c08301825184526020808401518186015260408085015181870152606080860151818801526080860151608088015260a086015160c060a089015284815180875260e08a0191508583019650600092505b8083101561434d5786518051835286810151614322888501826141e9565b5080860151610220840152840151610240830152958501956001929092019161026090910190614304565b5098975050505050505050565b60408152600061436d60408301856142b0565b6020838203818501528185518084528284019150828160051b85010183880160005b838110156143bd57601f198784030185526143ab8383516142b0565b9486019492509085019060010161438f565b50909998505050505050505050565b6000806000606084860312156143e157600080fd5b505081359360208301359350604090920135919050565b634e487b7160e01b600052604160045260246000fd5b604051606081016001600160401b0381118282101715614430576144306143f8565b60405290565b604051608081016001600160401b0381118282101715614430576144306143f8565b60405160e081016001600160401b0381118282101715614430576144306143f8565b60405160c081016001600160401b0381118282101715614430576144306143f8565b60405161010081016001600160401b0381118282101715614430576144306143f8565b604051601f8201601f191681016001600160401b03811182821017156144e7576144e76143f8565b604052919050565b8015158114613f9657600080fd5b8035610ef6816144ef565b8060020b8114613f9657600080fd5b60006060828403121561452957600080fd5b61453161440e565b905081358152602082013561454581614508565b6020820152604082013561455881614508565b604082015292915050565b60006080828403121561457557600080fd5b61457d614436565b90508135815260208201356020820152604082013560408201526060820135606082015292915050565b60006101a082840312156145ba57600080fd5b60405160a081018181106001600160401b03821117156145dc576145dc6143f8565b60405290508082356145ed81613f81565b815260208301356145fd816144ef565b602082015261460f8460408501614517565b60408201526146218460a08501614563565b6060820152614634846101208501614563565b60808201525092915050565b60006101a0828403121561465357600080fd5b61100d83836145a7565b60008060006060848603121561467257600080fd5b8335925060208401359150604084013561468b816144ef565b809150509250925092565b600080604083850312156146a957600080fd5b50508035926020909101359150565b60208152600061100d60208301846142b0565b6001600160401b0381168114613f9657600080fd5b600082601f8301126146f157600080fd5b81356001600160401b0381111561470a5761470a6143f8565b61471d601f8201601f19166020016144bf565b81815284602083860101111561473257600080fd5b816020850160208301376000918101602001919091529392505050565b60008060006060848603121561476457600080fd5b833592506020840135614776816146cb565b915060408401356001600160401b038082111561479257600080fd5b9085019060e082880312156147a657600080fd5b6147ae614458565b82358152602083013560208201526040830135604082015260608301356060820152608083013560808201526147e660a084016144fd565b60a082015260c0830135828111156147fd57600080fd5b614809898286016146e0565b60c0830152508093505050509250925092565b8051805183526020810151602084015260408101516040840152606081015160608401526080810151608084015260a081015160a084015250602081015160c0830152604081015160e08301525050565b6101008101610b35828461481c565b6000806080838503121561488f57600080fd5b823591506148a08460208501614517565b90509250929050565b6020808252825182820152828101516001600160a01b0316604080840191909152830151606080840191909152830151608080840152805160a0840181905260009291820190839060c08601905b808310156149215761490a8285516141e9565b6102008201915084840193506001830192506148f7565b509695505050505050565b6000806000610120848603121561494257600080fd5b833592506149538560208601614563565b91506149628560a08601614563565b90509250925092565b828152610120810161100d602083018461481c565b60008083601f84011261499257600080fd5b5081356001600160401b038111156149a957600080fd5b60208301915083602082850101111561380257600080fd5b600080600080606085870312156149d757600080fd5b843593506020850135925060408501356001600160401b038111156149fb57600080fd5b614a0787828801614980565b95989497509550505050565b600080600083850360a0811215614a2957600080fd5b843593506020850135614a3b816146cb565b92506060603f1982011215614a4f57600080fd5b50614a5861440e565b604085013581526060850135602082015260808501356040820152809150509250925092565b60ff81168114613f9657600080fd5b60006001600160401b03821115614aa657614aa66143f8565b5060051b60200190565b600080600060608486031215614ac557600080fd5b8335614ad081613f81565b9250602084810135614ae181614a7e565b925060408501356001600160401b03811115614afc57600080fd5b8501601f81018713614b0d57600080fd5b8035614b20614b1b82614a8d565b6144bf565b8181526101a0918202830184019184820191908a841115614b4057600080fd5b938501935b83851015614b6657614b578b866145a7565b83529384019391850191614b45565b5080955050505050509250925092565b602080825260029082015261433160f01b604082015260600190565b60008060408385031215614ba557600080fd5b8251614bb0816144ef565b6020939093015192949293505050565b634e487b7160e01b600052603260045260246000fd5b634e487b7160e01b600052601160045260246000fd5b600060018201614bfe57614bfe614bd6565b5060010190565b80546001600160a01b03168252600181015460208301526002015460ff16604090910152565b6101208101614c3a828a614c05565b8760608301528660808301528560a08301528460c08301528360e08301528261010083015298975050505050505050565b60008060408385031215614c7e57600080fd5b825191506020830151614c90816144ef565b809150509250929050565b6000600160ff1b8201614cb057614cb0614bd6565b5060000390565b80516001600160a01b0316825260208082015115158184015260408083015180518286015291820151600290810b606086015290820151900b608084015250606081810151805160a0850152602081015160c0850152604081015160e08501529081015161010084015250608001518051610120830152602081015161014083015260408101516101608301526060015161018090910152565b84815260208101849052604081018390526102008101612ea06060830184614cb7565b600060208284031215614d8657600080fd5b5051919050565b60e08101614d9b8288614c05565b8560608301528460808301528360a08301528260c08301529695505050505050565b60006060858352602085818501526040828186015260e08501865484870152600180600160a01b038189015416608081818a015260029150818a015460a08a01526003808b0160c083818d01528682548089526101008e019150836000528a6000209850600093505b80841015614f105788546001600160401b038082168452818c1c890b8d850152614e598c85018360581c8b0b60020b9052565b614e728e8501828460701c166001600160401b03169052565b5050614e8d868301898b018054825260010154602090910152565b614ece838301868b0180548252600181015460208301526002810154604083015260038101546060830152600481015460808301526005015460a090910152565b6009890154610180830152600a8901546101a0830152600b8901546101c0830152600c8901546101e0830152600d909801979287019261020090910190614e26565b509f9e505050505050505050505050505050565b8051610ef6816146cb565b8051610ef681614508565b600060408284031215614f4c57600080fd5b604051604081018181106001600160401b0382111715614f6e57614f6e6143f8565b604052825181526020928301519281019290925250919050565b600060c08284031215614f9a57600080fd5b614fa261447a565b9050815181526020820151602082015260408201516040820152606082015160608201526080820151608082015260a082015160a082015292915050565b60006020808385031215614ff357600080fd5b82516001600160401b038082111561500a57600080fd5b9084019060c0828703121561501e57600080fd5b61502661447a565b82518152838301518482015260408084015181830152606080850151818401526080850151608084015260a08501518481111561506257600080fd5b80860195505088601f86011261507757600080fd5b84519350615087614b1b85614a8d565b848152610260948502860187019487820191908b8711156150a757600080fd5b968801965b8688101561519e57878c03818112156150c55760008081fd5b6150cd614436565b89518152610200601f19830112156150e55760008081fd5b6150ed61449c565b91506150fa8b8b01614f24565b8252615107878b01614f2f565b8b830152615116868b01614f2f565b8783015261512660808b01614f24565b868301526151378e60a08c01614f3a565b608083015260e061514a8f828d01614f88565b60a084015261515d8f6101a08d01614f3a565b60c08401526151708f6101e08d01614f3a565b90830152808b01919091526102208901518682015261024089015185820152835296870196918801916150ac565b5060a0850152509198975050505050505050565b60005b838110156151cd5781810151838201526020016151b5565b50506000910152565b805182526020810151602083015260408101516040830152606081015160608301526080810151608083015260a0810151151560a0830152600060c082015160e060c085015280518060e086015261010061523782828801602086016151b2565b80601f19601f840116870101935050505092915050565b600061012061525d838b614c05565b8860608401528760808401528660a08401526001600160401b03861660c08401528460e084015280610100840152615297818401856151d6565b9a9950505050505050505050565b60008183036101008112156152b957600080fd5b6152c161440e565b60c08212156152cf57600080fd5b6152d761447a565b9150835182526020840151602083015260408401516040830152606084015160608301526080840151608083015260a084015160a083015281815260c0840151602082015260e08401516040820152809250505092915050565b8281526080810161100d602083018480518252602081015160020b6020830152604081015160020b60408301525050565b83815261012081016153986020830185805182526020810151602083015260408101516040830152606081015160608301525050565b825160a0830152602083015160c0830152604083015160e08301526060830151610100830152949350505050565b60006101406153d5838c614c05565b8960608401528860808401528760a08401528660c08401528560e08401526001600160401b03851661010084015280610120840152615416818401856151d6565b9b9a5050505050505050505050565b60006020828403121561543757600080fd5b815161100d81613f81565b6000806040838503121561545557600080fd5b505080516020909101519092909150565b6101608101615475828a614c05565b8760608301528660808301528560a08301528460c08301526001600160401b03841660e083015282516101008301526020830151610120830152604083015161014083015298975050505050505050565b8681526020808201879052604082018690526001600160a01b038516606083015260ff8416608083015260c060a0830181905283519083018190526000918481019160e0850190845b8181101561553657615522838651614cb7565b938301936101a0929092019160010161550f565b50909b9a5050505050505050505050565b6000602080838503121561555a57600080fd5b82516001600160401b0381111561557057600080fd5b8301601f8101851361558157600080fd5b805161558f614b1b82614a8d565b81815260059190911b820183019083810190878311156155ae57600080fd5b928401925b828410156155cc578351825292840192908401906155b3565b979650505050505050565b805161ffff81168114610ef657600080fd5b600080600080600080600060e0888a03121561560457600080fd5b875161560f81613f81565b602089015190975061562081614508565b955061562e604089016155d7565b945061563c606089016155d7565b935061564a608089016155d7565b925060a088015161565a81614a7e565b60c089015190925061566b816144ef565b8091505092959891949750929550565b634e487b7160e01b600052601260045260246000fd5b6000826156a0576156a061567b565b500490565b6000604080835260c0808401865183860152602080880151606060018060a01b03821681890152858a01519150608082818a0152818b0151925060a081818b015285845180885260e09750878c019150868601955060005b818110156157e457865180516001600160401b0316845288810151600290810b8a8601528c820151900b8c85015286810151615743888601826001600160401b03169052565b508581015161575e8786018280518252602090810151910152565b50848101516157a48c860182805182526020810151602083015260408101516040830152606081015160608301526080810151608083015260a081015160a08301525050565b508a81015180516101808601526020908101516101a0860152908a015180516101c086015201516101e084015295870195610200909201916001016156fd565b50509990940199909952509598975050505050505050565b602080825260029082015261563160f01b604082015260600190565b6000825161582a8184602087016151b2565b9190910192915050565b60006020828403121561584657600080fd5b815161100d816144ef565b81810381811115610b3557610b35614bd6565b634e487b7160e01b600052603160045260246000fd5b6020808252825182820181905260009190848201906040850190845b818110156158b857835163ffffffff1683529284019291840191600101615896565b50909695505050505050565b61ffff818116838216019080821115612f2357612f23614bd6565b600061ffff808416806158f4576158f461567b565b92169190910692915050565b8051600681900b8114610ef657600080fd5b6000806000806080858703121561592857600080fd5b845163ffffffff8116811461593c57600080fd5b935061594a60208601615900565b9250604085015161595a81613f81565b606086015190925061596b816144ef565b939692955090935050565b6000602080838503121561598957600080fd5b82516001600160401b0381111561599f57600080fd5b8301601f810185136159b057600080fd5b80516159be614b1b82614a8d565b81815260059190911b820183019083810190878311156159dd57600080fd5b928401925b828410156155cc576159f384615900565b825292840192908401906159e2565b600682810b9082900b03667fffffffffffff198112667fffffffffffff82131715610b3557610b35614bd6565b60008160060b8360060b80615a4657615a4661567b565b667fffffffffffff19821460001982141615615a6457615a64614bd6565b9005939250505056fea26469706673582212200d60d22c3b369b9285b896a859a0508a3e096bef2f1f30a8e13271bfac41ce9d64736f6c63430008130033",
  "deployedBytecode": "0x608060405234801561001057600080fd5b50600436106101c45760003560e01c80639403b634116100f9578063d348799711610097578063eac8f5b811610071578063eac8f5b81461047f578063f3eb8cd814610492578063fa461e33146104c5578063fc3b475e146104d857600080fd5b8063d348799714610431578063d65dd74c14610444578063e10caa381461046c57600080fd5b8063a7c6a100116100d3578063a7c6a10014610399578063acfcd9fd146103a2578063b3ab15fb146103b5578063badfd663146103c857600080fd5b80639403b6341461034557806395be76a2146103655780639cbaff8d1461037857600080fd5b80632d3c7f361161016657806349ebb77d1161014057806349ebb77d146102df578063570ca735146102ff5780637a2b78d6146103125780638f1f63291461033257600080fd5b80632d3c7f36146102a657806338bb2fc8146102b95780634046ebae146102cc57600080fd5b806316560456116101a2578063165604561461023157806318e8074914610247578063240c641014610272578063241741cc1461028557600080fd5b806301c76f81146101c957806307159aec146101de5780630fe433db14610207575b600080fd5b6101dc6101d7366004613f99565b6104eb565b005b6101f16101ec366004613fb6565b610586565b6040516101fe919061405c565b60405180910390f35b61021a610215366004613fb6565b6108a2565b6040805192151583526020830191909152016101fe565b61023961099b565b6040516101fe92919061435a565b61025a610255366004613fb6565b610af3565b6040516001600160a01b0390911681526020016101fe565b6101dc6102803660046143cc565b610b3b565b610298610293366004614640565b610e48565b6040519081526020016101fe565b6102986102b436600461465d565b610efb565b6102986102c7366004614696565b611014565b600b5461025a906001600160a01b031681565b6102f26102ed366004613fb6565b6110d8565b6040516101fe91906146b8565b600a5461025a906001600160a01b031681565b61032561032036600461474f565b6112da565b6040516101fe919061486d565b6101dc61034036600461487c565b61154d565b610358610353366004613fb6565b6115f2565b6040516101fe91906148a9565b6101dc61037336600461492c565b6117a9565b61038b61038636600461474f565b611851565b6040516101fe92919061496b565b61029860095481565b61025a6103b0366004613fb6565b611c1e565b6101dc6103c3366004613f99565b611c46565b60408051606080820183526000808352602080840182905292840152825180820184526002546001600160a01b031680825260035482850190815260045460ff9081169387019384528651928352905194820194909452905190921692820192909252016101fe565b6101dc61043f3660046149c1565b611cd1565b61045761045236600461465d565b611dd9565b604080519283526020830191909152016101fe565b61032561047a366004614a13565b611eed565b6101f161048d366004613fb6565b6122a5565b6104b56104a0366004613f99565b600c6020526000908152604090205460ff1681565b60405190151581526020016101fe565b6101dc6104d33660046149c1565b612557565b6101dc6104e6366004614ab0565b612608565b600a546001600160a01b0316331461051e5760405162461bcd60e51b815260040161051590614b76565b60405180910390fd5b6001600160a01b03811661053157600080fd5b600b80546001600160a01b0319166001600160a01b0383169081179091556040519081527f82d2860e9f6296845ec2615b720571f4ac80342692d4396a1decf505bfc063b3906020015b60405180910390a150565b61058e613c71565b604051630105479f60e01b8152600560048201526024810183905273__$7a0b87ce898fe502b2df3b643e5d7fb9ba$__90630105479f9060440160006040518083038186803b1580156105e057600080fd5b505af41580156105f4573d6000803e3d6000fd5b5050506000928352505060056020818152604092839020835161010080820186528254825285516080808201885260018501546001600160a01b039081168352600280870154821684890152895160c08082018c52600389015482526004890154828b015299880154818c01526006880154606080830191909152600789015482860152600889015460a080840191909152868d01929092528b518086018d5260098a01548152600a8a0154818c0152600b8a0154818e0152600c8a01548183015281870152878a01959095528a518085018c52600d89015484168152600e8901548416818b01528b51808c018d52600f8a0154815260108a0154818c015260118a0154818e015260128a01548188015260138a01548187015260148a015481840152818d01528b518086018d5260158a0154815260168a0154818c015260178a0154818e015260188a01548188015281870152878c01528a518086018c5260198901548152601a89015480840b828c015263010000009004830b818d0152858801528a5161022081018c52601b8901549384168152600160a01b8404830b818b0152600160b81b90930490910b828b0152601c8701546001600160401b031693820193909352601d86015481830152601e86015481840152601f860154818901528587015460e08083019190915260218701548286015260228701546101208301526023870154610140830152602487015461016083015260258701546101808301528951808b018b52602688015481526027880154818a01526101a08301528951808b01909a5260288701548a526029870154978a01979097526101c0810198909852602a8501546101e0890152602b850154610200890152830196909652602c83015460ff80821615159784019790975204909416151592840192909252602d909101549082015290565b604051630105479f60e01b81526005600482015260248101829052600090819073__$7a0b87ce898fe502b2df3b643e5d7fb9ba$__90630105479f9060440160006040518083038186803b1580156108f957600080fd5b505af415801561090d573d6000803e3d6000fd5b5050604051638d7c930960e01b815260056004820152600660248201526044810186905273__$7a0b87ce898fe502b2df3b643e5d7fb9ba$__9250638d7c930991506064016040805180830381865af415801561096e573d6000803e3d6000fd5b505050506040513d601f19601f820116820180604052508101906109929190614b92565b91509150915091565b6109a3613ce1565b33600090815260086020908152604080832081518083018352815481526001820180548451818702810187019095528085526060969592948584019390929190830182828015610a1257602002820191906000526020600020905b8154815260200190600101908083116109fe575b505050505081525050905060008160200151516001600160401b03811115610a3c57610a3c6143f8565b604051908082528060200260200182016040528015610a7557816020015b610a62613ce1565b815260200190600190039081610a5a5790505b50905060005b826020015151811015610ade57610aae83602001518281518110610aa157610aa1614bc0565b60200260200101516110d8565b828281518110610ac057610ac0614bc0565b60200260200101819052508080610ad690614bec565b915050610a7b565b508151610aea906110d8565b94909350915050565b6000818152600560205260408120601b0154610b3590610b1b906001600160a01b03166127b5565b6000848152600560205260409020602c015460ff16612826565b92915050565b610b43612853565b600083815260076020526040902060018101546001600160a01b0316610b6857600080fd5b600b546001600160a01b0316331480610b7f575081155b610b8857600080fd5b604080516080810182528254815260018301546001600160a01b0316602080830191909152600284015482840152600384018054845181840281018401909552808552610d03948693606086019391929060009084015b82821015610cf65760008481526020908190206040805161010081018252600d860290920180546001600160401b038082168552600160401b8204600290810b86880152600160581b8304810b86860152600160701b909204166060808601919091528351808501855260018085015482529284015481880152608080870191909152845160c08082018752600386015482526004860154828a0152600586015482880152600686015493820193909352600785015491810191909152600884015460a0828101919091528601528351808501855260098401548152600a84015481880152908501528251808401909352600b8201548352600c909101548285015260e08301919091529083529092019101610bdf565b50505050815250506128ac565b60018101546001600160a01b03166000908152600860209081526040808320548084526007909252808320905163756afcc760e01b8152919291829173__$a1fa80d38d689cae49e54718da49b6432c$__9163756afcc791610d76916002916005916006918b918e908e90600401614c2b565b6040805180830381865af4158015610d92573d6000803e3d6000fd5b505050506040513d601f19601f82011682018060405250810190610db69190614c6b565b915091508015610de85760018401546001600160a01b031660009081526008602052604090208454610de89190612912565b6000821315610e0d57600254610e08906001600160a01b031633846129c4565b610e36565b6000821215610e3657600254610e36906001600160a01b03163330610e3186614c9b565b612abd565b50505050610e4360018055565b505050565b600a546000906001600160a01b03163314610e755760405162461bcd60e51b815260040161051590614b76565b60405163072b728d60e21b815273__$71768fc6d10fd0c3e96eb532fdab6eacf8$__90631cadca3490610eb590600290600590600c908890600401614d51565b602060405180830381865af4158015610ed2573d6000803e3d6000fd5b505050506040513d601f19601f82011682018060405250810190610b359190614d74565b919050565b6000610f05612853565b604051630105479f60e01b8152600560048201526024810185905273__$7a0b87ce898fe502b2df3b643e5d7fb9ba$__90630105479f9060440160006040518083038186803b158015610f5757600080fd5b505af4158015610f6b573d6000803e3d6000fd5b505050600085815260056020526040908190209051630d44d8cd60e21b8152600481019190915260248101859052831515604482015273__$22e71cc2a9e9de4b2967c224ed91c7d01e$__9150633513633490606401602060405180830381865af4158015610fde573d6000803e3d6000fd5b505050506040513d601f19601f820116820180604052508101906110029190614d74565b905061100d60018055565b9392505050565b600061101e612853565b811561102b57508061103d565b50336000908152600860205260409020545b61104981336001612bbf565b60008181526007602052604090819020905163a62aa62360e01b81529192509073__$1f4d3c4bb88e02f5b45caa05c79da92b33$__9063a62aa6239061109e9060029060059060069087908b90600401614d8d565b60006040518083038186803b1580156110b657600080fd5b505af41580156110ca573d6000803e3d6000fd5b5050505050610b3560018055565b6110e0613ce1565b600082815260076020908152604080832081516080810183528154815260018201546001600160a01b031681850152600282015481840152600382018054845181870281018701909552808552929561125895929487946060870194919392909184018215610cf65760008481526020908190206040805161010081018252600d860290920180546001600160401b038082168552600160401b8204600290810b86880152600160581b8304810b86860152600160701b909204166060808601919091528351808501855260018085015482529284015481880152608080870191909152845160c08082018752600386015482526004860154828a0152600586015482880152600686015493820193909352600785015491810191909152600884015460a0828101919091528601528351808501855260098401548152600a84015481880152908501528251808401909352600b8201548352600c909101548285015260e08301919091529083529092019101610bdf565b6040516316c6a23f60e21b815273__$4278c074fd6acd31e7e5f642d169fef5d3$__90635b1a88fc90611295906005906006908690600401614dbd565b600060405180830381865af41580156112b2573d6000803e3d6000fd5b505050506040513d6000823e601f3d908101601f1916820160405261100d9190810190614fe0565b6112e2613d17565b6112ea612853565b604080516060810182526002546001600160a01b0316815260035460208083019190915260045460ff168284015260008781526007909152918220611333919060059087612ce2565b600086815260076020908152604080832081516080810183528154815260018201546001600160a01b0316818501526002820154818401526003820180548451818702810187019095528085529697506114ac96919592946060870194939192919084018215610cf65760008481526020908190206040805161010081018252600d860290920180546001600160401b038082168552600160401b8204600290810b86880152600160581b8304810b86860152600160701b909204166060808601919091528351808501855260018085015482529284015481880152608080870191909152845160c08082018752600386015482526004860154828a0152600586015482880152600686015493820193909352600785015491810191909152600884015460a0828101919091528601528351808501855260098401548152600a84015481880152908501528251808401909352600b8201548352600c909101548285015260e08301919091529083529092019101610bdf565b60008581526007602052604090819020905163f645708f60e01b815273__$0b623280e191457df753735b6fc86de420$__9163f645708f916114ff916002916005916006918b9089908c9060040161524e565b61010060405180830381865af415801561151d573d6000803e3d6000fd5b505050506040513d601f19601f8201168201806040525081019061154191906152a5565b91505061100d60018055565b600a546001600160a01b031633146115775760405162461bcd60e51b815260040161051590614b76565b60008281526005602052604090819020905163ce45db6b60e01b815273__$71768fc6d10fd0c3e96eb532fdab6eacf8$__9163ce45db6b916115be91908590600401615331565b60006040518083038186803b1580156115d657600080fd5b505af41580156115ea573d6000803e3d6000fd5b505050505050565b61162660405180608001604052806000815260200160006001600160a01b0316815260200160008152602001606081525090565b600082815260076020908152604080832081516080810183528154815260018201546001600160a01b031681850152600282015481840152600382018054845181870281018701909552808552919592946060870194939192919084015b8282101561179b5760008481526020908190206040805161010081018252600d860290920180546001600160401b038082168552600160401b8204600290810b86880152600160581b8304810b86860152600160701b909204166060808601919091528351808501855260018085015482529284015481880152608080870191909152845160c08082018752600386015482526004860154828a0152600586015482880152600686015493820193909352600785015491810191909152600884015460a0828101919091528601528351808501855260098401548152600a84015481880152908501528251808401909352600b8201548352600c909101548285015260e08301919091529083529092019101611684565b505050915250909392505050565b600a546001600160a01b031633146117d35760405162461bcd60e51b815260040161051590614b76565b600083815260056020526040908190209051631a9cd26b60e01b815273__$71768fc6d10fd0c3e96eb532fdab6eacf8$__91631a9cd26b9161181c919086908690600401615362565b60006040518083038186803b15801561183457600080fd5b505af4158015611848573d6000803e3d6000fd5b50505050505050565b600061185b613d17565b611863612853565b336000908152600860209081526040808320548084526007835281842082516080810184528154815260018201546001600160a01b031681860152600282015481850152600382018054855181880281018801909652808652939692956119f795929487946060870194939284015b828210156119e95760008481526020908190206040805161010081018252600d860290920180546001600160401b038082168552600160401b8204600290810b86880152600160581b8304810b86860152600160701b909204166060808601919091528351808501855260018085015482529284015481880152608080870191909152845160c08082018752600386015482526004860154828a0152600586015482880152600686015493820193909352600785015491810191909152600884015460a0828101919091528601528351808501855260098401548152600a84015481880152908501528251808401909352600b8201548352600c909101548285015260e083019190915290835290920191016118d2565b505050508152505033612ea9565b604080516080810182528254815260018301546001600160a01b0316602080830191909152600284015482840152600384018054845181840281018401909552808552611b62948693606086019391929060009084018215610cf65760008481526020908190206040805161010081018252600d860290920180546001600160401b038082168552600160401b8204600290810b86880152600160581b8304810b86860152600160701b909204166060808601919091528351808501855260018085015482529284015481880152608080870191909152845160c08082018752600386015482526004860154828a0152600586015482880152600686015493820193909352600785015491810191909152600884015460a0828101919091528601528351808501855260098401548152600a84015481880152908501528251808401909352600b8201548352600c909101548285015260e08301919091529083529092019101610bdf565b611b6f6000336000612bbf565b60008181526007602052604090819020905163e271d02760e01b815291955073__$e2217eb696a5c09092bdef553420bd7ff4$__9163e271d02791611bc79160029160059160069188918f908f908f906004016153c6565b61010060405180830381865af4158015611be5573d6000803e3d6000fd5b505050506040513d601f19601f82011682018060405250810190611c0991906152a5565b92505050611c1660018055565b935093915050565b6000818152600560205260408120601b0154610b3590610b1b906001600160a01b0316612f15565b600a546001600160a01b03163314611c705760405162461bcd60e51b815260040161051590614b76565b6001600160a01b038116611c8357600080fd5b600a80546001600160a01b0319166001600160a01b0383169081179091556040519081527fb3b3f5f64ab192e4b5fefde1f51ce9733bbdcf831951543b325aebd49cc27ec49060200161057b565b336000908152600c602052604090205460ff16611ced57600080fd5b338415611d6057611d60816001600160a01b0316630dfe16816040518163ffffffff1660e01b8152600401602060405180830381865afa158015611d35573d6000803e3d6000fd5b505050506040513d601f19601f82011682018060405250810190611d599190615425565b33876129c4565b8315611dd257611dd2816001600160a01b031663d21220a76040518163ffffffff1660e01b8152600401602060405180830381865afa158015611da7573d6000803e3d6000fd5b505050506040513d601f19601f82011682018060405250810190611dcb9190615425565b33866129c4565b5050505050565b600080611de4612853565b604051630105479f60e01b8152600560048201526024810186905273__$7a0b87ce898fe502b2df3b643e5d7fb9ba$__90630105479f9060440160006040518083038186803b158015611e3657600080fd5b505af4158015611e4a573d6000803e3d6000fd5b505050600086815260056020526040908190209051635b622cbd60e11b8152600481019190915260248101869052841515604482015273__$22e71cc2a9e9de4b2967c224ed91c7d01e$__915063b6c4597a906064016040805180830381865af4158015611ebc573d6000803e3d6000fd5b505050506040513d601f19601f82011682018060405250810190611ee09190615442565b91509150611c1660018055565b611ef5613d17565b611efd612853565b336000908152600860209081526040808320548084526007835281842088855282852083516080810185528254815260018301546001600160a01b03168187015260028301548186015260038301805486518189028101890190975280875294979396929561208b959294889460608701949293929190840182156119e95760008481526020908190206040805161010081018252600d860290920180546001600160401b038082168552600160401b8204600290810b86880152600160581b8304810b86860152600160701b909204166060808601919091528351808501855260018085015482529284015481880152608080870191909152845160c08082018752600386015482526004860154828a0152600586015482880152600686015493820193909352600785015491810191909152600884015460a0828101919091528601528351808501855260098401548152600a84015481880152908501528251808401909352600b8201548352600c909101548285015260e083019190915290835290920191016118d2565b604080516080810182528254815260018301546001600160a01b03166020808301919091526002840154828401526003840180548451818402810184019095528085526121f6948693606086019391929060009084018215610cf65760008481526020908190206040805161010081018252600d860290920180546001600160401b038082168552600160401b8204600290810b86880152600160581b8304810b86860152600160701b909204166060808601919091528351808501855260018085015482529284015481880152608080870191909152845160c08082018752600386015482526004860154828a0152600586015482880152600686015493820193909352600785015491810191909152600884015460a0828101919091528601528351808501855260098401548152600a84015481880152908501528251808401909352600b8201548352600c909101548285015260e08301919091529083529092019101610bdf565b604051627fa7b960e11b815273__$e2217eb696a5c09092bdef553420bd7ff4$__9062ff4f729061223a90600290600590600690889088908e908e90600401615466565b61010060405180830381865af4158015612258573d6000803e3d6000fd5b505050506040513d601f19601f8201168201806040525081019061227c91906152a5565b336000908152600860205260409020825491955061229991612912565b50505061100d60018055565b6122ad613c71565b50600090815260056020818152604092839020835161010080820186528254825285516080808201885260018501546001600160a01b039081168352600280870154821684890152895160c08082018c52600389015482526004890154828b015299880154818c01526006880154606080830191909152600789015482860152600889015460a080840191909152868d01929092528b518086018d5260098a01548152600a8a0154818c0152600b8a0154818e0152600c8a01548183015281870152878a01959095528a518085018c52600d89015484168152600e8901548416818b01528b51808c018d52600f8a0154815260108a0154818c015260118a0154818e015260128a01548188015260138a01548187015260148a015481840152818d01528b518086018d5260158a0154815260168a0154818c015260178a0154818e015260188a01548188015281870152878c01528a518086018c5260198901548152601a89015480840b828c015263010000009004830b818d0152858801528a5161022081018c52601b8901549384168152600160a01b8404830b818b0152600160b81b90930490910b828b0152601c8701546001600160401b031693820193909352601d86015481830152601e86015481840152601f860154818901528587015460e08083019190915260218701548286015260228701546101208301526023870154610140830152602487015461016083015260258701546101808301528951808b018b52602688015481526027880154818a01526101a08301528951808b01909a5260288701548a526029870154978a01979097526101c0810198909852602a8501546101e0890152602b850154610200890152830196909652602c83015460ff80821615159784019790975204909416151592840192909252602d909101549082015290565b336000908152600c602052604090205460ff1661257357600080fd5b3360008513156125be576125be816001600160a01b0316630dfe16816040518163ffffffff1660e01b8152600401602060405180830381865afa158015611d35573d6000803e3d6000fd5b6000841315611dd257611dd2816001600160a01b031663d21220a76040518163ffffffff1660e01b8152600401602060405180830381865afa158015611da7573d6000803e3d6000fd5b600054610100900460ff16158080156126285750600054600160ff909116105b806126425750303b158015612642575060005460ff166001145b6126a55760405162461bcd60e51b815260206004820152602e60248201527f496e697469616c697a61626c653a20636f6e747261637420697320616c72656160448201526d191e481a5b9a5d1a585b1a5e995960921b6064820152608401610515565b6000805460ff1916600117905580156126c8576000805461ff0019166101001790555b6001600955600a80546001600160a01b031916331790556040516327807d0160e21b815273__$71768fc6d10fd0c3e96eb532fdab6eacf8$__90639e01f4049061272390600290600590600c908a908a908a906004016154c6565b600060405180830381865af4158015612740573d6000803e3d6000fd5b505050506040513d6000823e601f3d908101601f191682016040526127689190810190615547565b5080156127af576000805461ff0019169055604051600181527f7f26b83ff96e1f2b6a682f133852f6798a09c465da95921460cefb38474024989060200160405180910390a15b50505050565b6000816001600160a01b0316633850c7bd6040518163ffffffff1660e01b815260040160e060405180830381865afa1580156127f5573d6000803e3d6000fd5b505050506040513d601f19601f8201168201806040525081019061281991906155e9565b5094979650505050505050565b6000811561284c576128456001600160a01b038416600160c01b615691565b9050610b35565b5081610b35565b6002600154036128a55760405162461bcd60e51b815260206004820152601f60248201527f5265656e7472616e637947756172643a207265656e7472616e742063616c6c006044820152606401610515565b6002600155565b6040516319aadfb560e01b815273__$7a0b87ce898fe502b2df3b643e5d7fb9ba$__906319aadfb5906128e69084906005906004016156a5565b60006040518083038186803b1580156128fe57600080fd5b505af4158015611dd2573d6000803e3d6000fd5b600081116129325760405162461bcd60e51b8152600401610515906157fc565b815481900361293f575050565b60006129b88360405180604001604052908160008201548152602001600182018054806020026020016040519081016040528092919081815260200182805480156129a957602002820191906000526020600020905b815481526020019060010190808311612995575b50505050508152505083612f2a565b9050610e438382612fb3565b604080516001600160a01b038481166024830152604480830185905283518084039091018152606490920183526020820180516001600160e01b031663a9059cbb60e01b1790529151600092839290871691612a209190615818565b6000604051808303816000865af19150503d8060008114612a5d576040519150601f19603f3d011682016040523d82523d6000602084013e612a62565b606091505b5091509150818015612a8c575080511580612a8c575080806020019051810190612a8c9190615834565b611dd25760405162461bcd60e51b815260206004820152600260248201526114d560f21b6044820152606401610515565b604080516001600160a01b0385811660248301528481166044830152606480830185905283518084039091018152608490920183526020820180516001600160e01b03166323b872dd60e01b1790529151600092839290881691612b219190615818565b6000604051808303816000865af19150503d8060008114612b5e576040519150601f19603f3d011682016040523d82523d6000602084013e612b63565b606091505b5091509150818015612b8d575080511580612b8d575080806020019051810190612b8d9190615834565b6115ea5760405162461bcd60e51b815260206004820152600360248201526229aa2360e91b6044820152606401610515565b600083600003612cdb5760098054906000612bd983614bec565b9091555090506001600160a01b038316612c1a5760405162461bcd60e51b8152602060048201526002602482015261433560f01b6044820152606401610515565b600081815260076020526040902081815560010180546001600160a01b0319166001600160a01b0385161790558115612c74576001600160a01b0383166000908152600860205260409020612c6f908261302e565b612c96565b6001600160a01b0383166000908152600860205260409020612c969082613066565b604080518281523360208201528315158183015290517f2426281c09515ec0a53173de7284551c54a4c6fc61de7d2ccb225a44eee0c98b9181900360600190a161100d565b508261100d565b604080516080810182528354815260018401546001600160a01b0316602080830191909152600285015482840152600385018054845181840281018401909552808552600094612e4f94938893606086019390918890840182156119e95760008481526020908190206040805161010081018252600d860290920180546001600160401b038082168552600160401b8204600290810b86880152600160581b8304810b86860152600160701b909204166060808601919091528351808501855260018085015482529284015481880152608080870191909152845160c08082018752600386015482526004860154828a0152600586015482880152600686015493820193909352600785015491810191909152600884015460a0828101919091528601528351808501855260098401548152600a84015481880152908501528251808401909352600b8201548352600c909101548285015260e083019190915290835290920191016118d2565b60208501516001600160401b03831610612e955760405162461bcd60e51b81526020600482015260076024820152661054d4d155125160ca1b6044820152606401610515565b612ea08484846130d7565b95945050505050565b8151612ec75760405162461bcd60e51b8152600401610515906157fc565b806001600160a01b031682602001516001600160a01b031614612f115760405162461bcd60e51b81526020600482015260026024820152612b1960f11b6044820152606401610515565b5050565b6000612f238261070861337c565b5092915050565b6000600019815b846020015151811015612f7c578385602001518281518110612f5557612f55614bc0565b602002602001015103612f6a57809150612f7c565b80612f7481614bec565b915050612f31565b50606481111561100d5760405162461bcd60e51b8152602060048201526002602482015261563360f01b6044820152606401610515565b600180830180549091612fc591615851565b81548110612fd557612fd5614bc0565b9060005260206000200154826001018281548110612ff557612ff5614bc0565b6000918252602090912001556001820180548061301457613014615864565b600190038181906000526020600020016000905590555050565b8154156130625760405162461bcd60e51b8152602060048201526002602482015261158d60f21b6044820152606401610515565b9055565b600081116130865760405162461bcd60e51b8152600401610515906157fc565b6001808301805491820181556000818152602090209091018290555460641015612f115760405162461bcd60e51b8152602060048201526002602482015261563360f01b6044820152606401610515565b6000805b600384015481101561316257826001600160401b031684600301828154811061310657613106614bc0565b60009182526020909120600d90910201546001600160401b0316036131505783600301818154811061313a5761313a614bc0565b90600052602060002090600d020191505061100d565b8061315a81614bec565b9150506130db565b506003830154600111613223578360008460030160008154811061318857613188614bc0565b60009182526020808320600d909202909101546001600160401b031683528201929092526040019020602c015460ff610100909104161580156131ec57506001600160401b0382166000908152602085905260409020602c0154610100900460ff16155b6132235760405162461bcd60e51b81526020600482015260086024820152671254d3d31055115160c21b6044820152606401610515565b8260030161323083613809565b81546001818101845560009384526020938490208351600d909302018054858501516040808701516060808901516001600160401b03908116600160701b0267ffffffffffffffff60701b1962ffffff948516600160581b02166affffffffffffffffffffff60581b1994909616600160401b026affffffffffffffffffffff199097169190991617949094171691909117949094178255608080860151805184860155870151600284015560a0808701518051600380870191909155818a015160048701559681015160058601559283015160068501559082015160078401550151600882015560c084015180516009830155850151600a82015560e0909301518051600b85015590930151600c9092019190915584018054909161335591615851565b8154811061336557613365614bc0565b90600052602060002090600d020190509392505050565b60408051600280825260608201835260009283928392909160208301908036833701905050905083816000815181106133b7576133b7614bc0565b602002602001019063ffffffff16908163ffffffff16815250506000816001815181106133e6576133e6614bc0565b602002602001019063ffffffff16908163ffffffff1681525050600080866001600160a01b031663883bdbfd60e01b84604051602401613426919061587a565b60408051601f198184030181529181526020820180516001600160e01b03166001600160e01b03199094169390931790925290516134649190615818565b600060405180830381855afa9150503d806000811461349f576040519150601f19603f3d011682016040523d82523d6000602084013e6134a4565b606091505b5091509150816137845760405160206024820152600360448201526213d31160ea1b606482015260840160408051601f19818403018152919052602080820180516001600160e01b031662461bcd60e51b1781529151909120825191830191909120146135145761351481613907565b600080886001600160a01b0316633850c7bd6040518163ffffffff1660e01b815260040160e060405180830381865afa158015613555573d6000803e3d6000fd5b505050506040513d601f19601f8201168201806040525081019061357991906155e9565b5050509350935050506000808a6001600160a01b031663252c09d7848660016135a291906158c4565b6135ac91906158df565b6040516001600160e01b031960e084901b16815261ffff9091166004820152602401608060405180830381865afa1580156135eb573d6000803e3d6000fd5b505050506040513d601f19601f8201168201806040525081019061360f9190615912565b9350505091508061368a5760405163252c09d760e01b8152600060048201526001600160a01b038c169063252c09d790602401608060405180830381865afa15801561365f573d6000803e3d6000fd5b505050506040513d601f19601f820116820180604052508101906136839190615912565b5091935050505b61369a63ffffffff831642615851565b995089876000815181106136b0576136b0614bc0565b602002602001019063ffffffff16908163ffffffff16815250508a6001600160a01b031663883bdbfd60e01b886040516024016136ed919061587a565b60408051601f198184030181529181526020820180516001600160e01b03166001600160e01b031990941693909317909252905161372b9190615818565b600060405180830381855afa9150503d8060008114613766576040519150601f19603f3d011682016040523d82523d6000602084013e61376b565b606091505b5090965094508561377f5761377f85613907565b505050505b60008180602001905181019061379a9190615976565b9050600087826000815181106137b2576137b2614bc0565b6020026020010151836001815181106137cd576137cd614bc0565b60200260200101516137df9190615a02565b6137e99190615a2f565b905060006137f68261394e565b97508896505050505050505b9250929050565b613811613d6f565b604051806101000160405280836001600160401b03168152602001600060020b8152602001600060020b815260200160006001600160401b03168152602001604051806040016040528060008152602001600081525081526020016040518060c001604052806000815260200160008152602001600081526020016000815260200160008152602001600081525081526020016138cf6040805180820182526000808252602091820181905282518084019093528083529082015290565b81526020016138ff6040805180820182526000808252602091820181905282518084019093528083529082015290565b905292915050565b80511561391657805181602001fd5b60405162461bcd60e51b815260206004820152600d60248201526c3297b2b6b83a3c96b2b93937b960991b6044820152606401610515565b60008060008360020b12613965578260020b61396d565b8260020b6000035b9050620d89e8811115613993576040516315e4079d60e11b815260040160405180910390fd5b6000816001166000036139aa57600160801b6139bc565b6ffffcb933bd6fad37aa2d162d1a5940015b70ffffffffffffffffffffffffffffffffff16905060028216156139f0576ffff97272373d413259a46990580e213a0260801c5b6004821615613a0f576ffff2e50f5f656932ef12357cf3c7fdcc0260801c5b6008821615613a2e576fffe5caca7e10e4e61c3624eaa0941cd00260801c5b6010821615613a4d576fffcb9843d60f6159c9db58835c9266440260801c5b6020821615613a6c576fff973b41fa98c081472e6896dfb254c00260801c5b6040821615613a8b576fff2ea16466c96a3843ec78b326b528610260801c5b6080821615613aaa576ffe5dee046a99a2a811c461f1969c30530260801c5b610100821615613aca576ffcbe86c7900a88aedcffc83b479aa3a40260801c5b610200821615613aea576ff987a7253ac413176f2b074cf7815e540260801c5b610400821615613b0a576ff3392b0822b70005940c7a398e4b70f30260801c5b610800821615613b2a576fe7159475a2c29b7443b29c7fa6e889d90260801c5b611000821615613b4a576fd097f3bdfd2022b8845ad8f792aa58250260801c5b612000821615613b6a576fa9f746462d870fdf8a65dc1f90e061e50260801c5b614000821615613b8a576f70d869a156d2a1b890bb3df62baf32f70260801c5b618000821615613baa576f31be135f97d08fd981231505542fcfa60260801c5b62010000821615613bcb576f09aa508b5b7a84e1c677de54f3e99bc90260801c5b62020000821615613beb576e5d6af8dedb81196699c329225ee6040260801c5b62040000821615613c0a576d2216e584f5fa1ea926041bedfe980260801c5b62080000821615613c27576b048a170391f7dc42444e8fa20260801c5b60008460020b1315613c48578060001981613c4457613c4461567b565b0490505b640100000000810615613c5c576001613c5f565b60005b60ff16602082901c0192505050919050565b60405180610100016040528060008152602001613c8c613e2f565b8152602001613c99613e2f565b81526040805160608101825260008082526020828101829052928201529101908152602001613cc6613ec3565b81526000602082018190526040820181905260609091015290565b6040518060c001604052806000815260200160008152602001600081526020016000815260200160008152602001606081525090565b6040518060600160405280613d5b6040518060c001604052806000815260200160008152602001600081526020016000815260200160008152602001600081525090565b815260200160008152602001600081525090565b6040805161010081018252600080825260208083018290528284018290526060830182905283518085019094528184528301529060808201908152602001613de66040518060c001604052806000815260200160008152602001600081526020016000815260200160008152602001600081525090565b8152602001613e08604051806040016040528060008152602001600081525090565b8152602001613e2a604051806040016040528060008152602001600081525090565b905290565b604051806080016040528060006001600160a01b0316815260200160006001600160a01b03168152602001613e936040518060c001604052806000815260200160008152602001600081526020016000815260200160008152602001600081525090565b8152602001613e2a6040518060800160405280600081526020016000815260200160008152602001600081525090565b60405180610220016040528060006001600160a01b03168152602001600060020b8152602001600060020b815260200160006001600160401b03168152602001600081526020016000815260200160008152602001600081526020016000815260200160008152602001600081526020016000815260200160008152602001613f5f604051806040016040528060008152602001600081525090565b8152602001613d5b604051806040016040528060008152602001600081525090565b6001600160a01b0381168114613f9657600080fd5b50565b600060208284031215613fab57600080fd5b813561100d81613f81565b600060208284031215613fc857600080fd5b5035919050565b60018060a01b03808251168352806020830151166020840152506040810151805160408401526020810151606084015260408101516080840152606081015160a0840152608081015160c084015260a081015160e0840152506060810151610e43610100840182805182526020810151602083015260408101516040830152606081015160608301525050565b8151815260208083015161064083019161407890840182613fcf565b5060408301516101a061408d81850183613fcf565b606085015180516103208601526020810151600290810b6103408701526040820151900b6103608601529150608085015180516001600160a01b0316610380860152915060208201516140e66103a086018260020b9052565b5060408201516140fc6103c086018260020b9052565b5060608201516001600160401b03166103e0850152608082015161040085015260a08083015161042086015260c08084015161044087015260e0808501516104608801526101008501516104808801526101208501516104a08801526101408501516104c08801526101608501516104e08801526101808501516105008801529284015180516105208801526020908101516105408801526101c0850151805161056089015201516105808701526101e08401516105a0870152610200909301516105c086015285015115156105e085015290840151151561060084015292909201516106209091015290565b6001600160401b03808251168352602082015160020b6020840152604082015160020b604084015280606083015116606084015250608081015161423a608084018280518252602090810151910152565b5060a081810151805160c0850152602081015160e0850152604081015161010085015260608101516101208501526080810151610140850152908101516101608401525060c0810151805161018084015260208101516101a08401525060e0015180516101c0830152602001516101e090910152565b600060c08301825184526020808401518186015260408085015181870152606080860151818801526080860151608088015260a086015160c060a089015284815180875260e08a0191508583019650600092505b8083101561434d5786518051835286810151614322888501826141e9565b5080860151610220840152840151610240830152958501956001929092019161026090910190614304565b5098975050505050505050565b60408152600061436d60408301856142b0565b6020838203818501528185518084528284019150828160051b85010183880160005b838110156143bd57601f198784030185526143ab8383516142b0565b9486019492509085019060010161438f565b50909998505050505050505050565b6000806000606084860312156143e157600080fd5b505081359360208301359350604090920135919050565b634e487b7160e01b600052604160045260246000fd5b604051606081016001600160401b0381118282101715614430576144306143f8565b60405290565b604051608081016001600160401b0381118282101715614430576144306143f8565b60405160e081016001600160401b0381118282101715614430576144306143f8565b60405160c081016001600160401b0381118282101715614430576144306143f8565b60405161010081016001600160401b0381118282101715614430576144306143f8565b604051601f8201601f191681016001600160401b03811182821017156144e7576144e76143f8565b604052919050565b8015158114613f9657600080fd5b8035610ef6816144ef565b8060020b8114613f9657600080fd5b60006060828403121561452957600080fd5b61453161440e565b905081358152602082013561454581614508565b6020820152604082013561455881614508565b604082015292915050565b60006080828403121561457557600080fd5b61457d614436565b90508135815260208201356020820152604082013560408201526060820135606082015292915050565b60006101a082840312156145ba57600080fd5b60405160a081018181106001600160401b03821117156145dc576145dc6143f8565b60405290508082356145ed81613f81565b815260208301356145fd816144ef565b602082015261460f8460408501614517565b60408201526146218460a08501614563565b6060820152614634846101208501614563565b60808201525092915050565b60006101a0828403121561465357600080fd5b61100d83836145a7565b60008060006060848603121561467257600080fd5b8335925060208401359150604084013561468b816144ef565b809150509250925092565b600080604083850312156146a957600080fd5b50508035926020909101359150565b60208152600061100d60208301846142b0565b6001600160401b0381168114613f9657600080fd5b600082601f8301126146f157600080fd5b81356001600160401b0381111561470a5761470a6143f8565b61471d601f8201601f19166020016144bf565b81815284602083860101111561473257600080fd5b816020850160208301376000918101602001919091529392505050565b60008060006060848603121561476457600080fd5b833592506020840135614776816146cb565b915060408401356001600160401b038082111561479257600080fd5b9085019060e082880312156147a657600080fd5b6147ae614458565b82358152602083013560208201526040830135604082015260608301356060820152608083013560808201526147e660a084016144fd565b60a082015260c0830135828111156147fd57600080fd5b614809898286016146e0565b60c0830152508093505050509250925092565b8051805183526020810151602084015260408101516040840152606081015160608401526080810151608084015260a081015160a084015250602081015160c0830152604081015160e08301525050565b6101008101610b35828461481c565b6000806080838503121561488f57600080fd5b823591506148a08460208501614517565b90509250929050565b6020808252825182820152828101516001600160a01b0316604080840191909152830151606080840191909152830151608080840152805160a0840181905260009291820190839060c08601905b808310156149215761490a8285516141e9565b6102008201915084840193506001830192506148f7565b509695505050505050565b6000806000610120848603121561494257600080fd5b833592506149538560208601614563565b91506149628560a08601614563565b90509250925092565b828152610120810161100d602083018461481c565b60008083601f84011261499257600080fd5b5081356001600160401b038111156149a957600080fd5b60208301915083602082850101111561380257600080fd5b600080600080606085870312156149d757600080fd5b843593506020850135925060408501356001600160401b038111156149fb57600080fd5b614a0787828801614980565b95989497509550505050565b600080600083850360a0811215614a2957600080fd5b843593506020850135614a3b816146cb565b92506060603f1982011215614a4f57600080fd5b50614a5861440e565b604085013581526060850135602082015260808501356040820152809150509250925092565b60ff81168114613f9657600080fd5b60006001600160401b03821115614aa657614aa66143f8565b5060051b60200190565b600080600060608486031215614ac557600080fd5b8335614ad081613f81565b9250602084810135614ae181614a7e565b925060408501356001600160401b03811115614afc57600080fd5b8501601f81018713614b0d57600080fd5b8035614b20614b1b82614a8d565b6144bf565b8181526101a0918202830184019184820191908a841115614b4057600080fd5b938501935b83851015614b6657614b578b866145a7565b83529384019391850191614b45565b5080955050505050509250925092565b602080825260029082015261433160f01b604082015260600190565b60008060408385031215614ba557600080fd5b8251614bb0816144ef565b6020939093015192949293505050565b634e487b7160e01b600052603260045260246000fd5b634e487b7160e01b600052601160045260246000fd5b600060018201614bfe57614bfe614bd6565b5060010190565b80546001600160a01b03168252600181015460208301526002015460ff16604090910152565b6101208101614c3a828a614c05565b8760608301528660808301528560a08301528460c08301528360e08301528261010083015298975050505050505050565b60008060408385031215614c7e57600080fd5b825191506020830151614c90816144ef565b809150509250929050565b6000600160ff1b8201614cb057614cb0614bd6565b5060000390565b80516001600160a01b0316825260208082015115158184015260408083015180518286015291820151600290810b606086015290820151900b608084015250606081810151805160a0850152602081015160c0850152604081015160e08501529081015161010084015250608001518051610120830152602081015161014083015260408101516101608301526060015161018090910152565b84815260208101849052604081018390526102008101612ea06060830184614cb7565b600060208284031215614d8657600080fd5b5051919050565b60e08101614d9b8288614c05565b8560608301528460808301528360a08301528260c08301529695505050505050565b60006060858352602085818501526040828186015260e08501865484870152600180600160a01b038189015416608081818a015260029150818a015460a08a01526003808b0160c083818d01528682548089526101008e019150836000528a6000209850600093505b80841015614f105788546001600160401b038082168452818c1c890b8d850152614e598c85018360581c8b0b60020b9052565b614e728e8501828460701c166001600160401b03169052565b5050614e8d868301898b018054825260010154602090910152565b614ece838301868b0180548252600181015460208301526002810154604083015260038101546060830152600481015460808301526005015460a090910152565b6009890154610180830152600a8901546101a0830152600b8901546101c0830152600c8901546101e0830152600d909801979287019261020090910190614e26565b509f9e505050505050505050505050505050565b8051610ef6816146cb565b8051610ef681614508565b600060408284031215614f4c57600080fd5b604051604081018181106001600160401b0382111715614f6e57614f6e6143f8565b604052825181526020928301519281019290925250919050565b600060c08284031215614f9a57600080fd5b614fa261447a565b9050815181526020820151602082015260408201516040820152606082015160608201526080820151608082015260a082015160a082015292915050565b60006020808385031215614ff357600080fd5b82516001600160401b038082111561500a57600080fd5b9084019060c0828703121561501e57600080fd5b61502661447a565b82518152838301518482015260408084015181830152606080850151818401526080850151608084015260a08501518481111561506257600080fd5b80860195505088601f86011261507757600080fd5b84519350615087614b1b85614a8d565b848152610260948502860187019487820191908b8711156150a757600080fd5b968801965b8688101561519e57878c03818112156150c55760008081fd5b6150cd614436565b89518152610200601f19830112156150e55760008081fd5b6150ed61449c565b91506150fa8b8b01614f24565b8252615107878b01614f2f565b8b830152615116868b01614f2f565b8783015261512660808b01614f24565b868301526151378e60a08c01614f3a565b608083015260e061514a8f828d01614f88565b60a084015261515d8f6101a08d01614f3a565b60c08401526151708f6101e08d01614f3a565b90830152808b01919091526102208901518682015261024089015185820152835296870196918801916150ac565b5060a0850152509198975050505050505050565b60005b838110156151cd5781810151838201526020016151b5565b50506000910152565b805182526020810151602083015260408101516040830152606081015160608301526080810151608083015260a0810151151560a0830152600060c082015160e060c085015280518060e086015261010061523782828801602086016151b2565b80601f19601f840116870101935050505092915050565b600061012061525d838b614c05565b8860608401528760808401528660a08401526001600160401b03861660c08401528460e084015280610100840152615297818401856151d6565b9a9950505050505050505050565b60008183036101008112156152b957600080fd5b6152c161440e565b60c08212156152cf57600080fd5b6152d761447a565b9150835182526020840151602083015260408401516040830152606084015160608301526080840151608083015260a084015160a083015281815260c0840151602082015260e08401516040820152809250505092915050565b8281526080810161100d602083018480518252602081015160020b6020830152604081015160020b60408301525050565b83815261012081016153986020830185805182526020810151602083015260408101516040830152606081015160608301525050565b825160a0830152602083015160c0830152604083015160e08301526060830151610100830152949350505050565b60006101406153d5838c614c05565b8960608401528860808401528760a08401528660c08401528560e08401526001600160401b03851661010084015280610120840152615416818401856151d6565b9b9a5050505050505050505050565b60006020828403121561543757600080fd5b815161100d81613f81565b6000806040838503121561545557600080fd5b505080516020909101519092909150565b6101608101615475828a614c05565b8760608301528660808301528560a08301528460c08301526001600160401b03841660e083015282516101008301526020830151610120830152604083015161014083015298975050505050505050565b8681526020808201879052604082018690526001600160a01b038516606083015260ff8416608083015260c060a0830181905283519083018190526000918481019160e0850190845b8181101561553657615522838651614cb7565b938301936101a0929092019160010161550f565b50909b9a5050505050505050505050565b6000602080838503121561555a57600080fd5b82516001600160401b0381111561557057600080fd5b8301601f8101851361558157600080fd5b805161558f614b1b82614a8d565b81815260059190911b820183019083810190878311156155ae57600080fd5b928401925b828410156155cc578351825292840192908401906155b3565b979650505050505050565b805161ffff81168114610ef657600080fd5b600080600080600080600060e0888a03121561560457600080fd5b875161560f81613f81565b602089015190975061562081614508565b955061562e604089016155d7565b945061563c606089016155d7565b935061564a608089016155d7565b925060a088015161565a81614a7e565b60c089015190925061566b816144ef565b8091505092959891949750929550565b634e487b7160e01b600052601260045260246000fd5b6000826156a0576156a061567b565b500490565b6000604080835260c0808401865183860152602080880151606060018060a01b03821681890152858a01519150608082818a0152818b0151925060a081818b015285845180885260e09750878c019150868601955060005b818110156157e457865180516001600160401b0316845288810151600290810b8a8601528c820151900b8c85015286810151615743888601826001600160401b03169052565b508581015161575e8786018280518252602090810151910152565b50848101516157a48c860182805182526020810151602083015260408101516040830152606081015160608301526080810151608083015260a081015160a08301525050565b508a81015180516101808601526020908101516101a0860152908a015180516101c086015201516101e084015295870195610200909201916001016156fd565b50509990940199909952509598975050505050505050565b602080825260029082015261563160f01b604082015260600190565b6000825161582a8184602087016151b2565b9190910192915050565b60006020828403121561584657600080fd5b815161100d816144ef565b81810381811115610b3557610b35614bd6565b634e487b7160e01b600052603160045260246000fd5b6020808252825182820181905260009190848201906040850190845b818110156158b857835163ffffffff1683529284019291840191600101615896565b50909695505050505050565b61ffff818116838216019080821115612f2357612f23614bd6565b600061ffff808416806158f4576158f461567b565b92169190910692915050565b8051600681900b8114610ef657600080fd5b6000806000806080858703121561592857600080fd5b845163ffffffff8116811461593c57600080fd5b935061594a60208601615900565b9250604085015161595a81613f81565b606086015190925061596b816144ef565b939692955090935050565b6000602080838503121561598957600080fd5b82516001600160401b0381111561599f57600080fd5b8301601f810185136159b057600080fd5b80516159be614b1b82614a8d565b81815260059190911b820183019083810190878311156159dd57600080fd5b928401925b828410156155cc576159f384615900565b825292840192908401906159e2565b600682810b9082900b03667fffffffffffff198112667fffffffffffff82131715610b3557610b35614bd6565b60008160060b8360060b80615a4657615a4661567b565b667fffffffffffff19821460001982141615615a6457615a64614bd6565b9005939250505056fea26469706673582212200d60d22c3b369b9285b896a859a0508a3e096bef2f1f30a8e13271bfac41ce9d64736f6c63430008130033",
  "libraries": {
    "ApplyInterestLogic": "0xF31C6df2E3cc287b6C66CA1bEF05b58148217578",
    "LiquidationLogic": "0x27d2db9bB71053708Fea8fb3DD88D60a10b6884B",
    "ReaderLogic": "0x17A38279d6A10A66c0C9CE85f0E7dB125Fe2fE05",
    "AddAssetLogic": "0xDb9Ff105650f2019330681813DCB249364637010",
    "SupplyLogic": "0xd30ab149Ea63875363f1A777c31F82A35B054c61",
    "TradePerpLogic": "0x20032AfEB90A25BafBb5fa62Be537b6339271A78",
    "UpdateMarginLogic": "0xbde1092eB6634A63db20B6d1F62f8933ebC762F8",
    "IsolatedVaultLogic": "0x97d87dD346d46De82C51CA2b9710151167B42E37"
  },
  "devdoc": {
    "events": {
      "Initialized(uint8)": {
        "details": "Triggered when the contract has been initialized or reinitialized."
      }
    },
    "kind": "dev",
    "methods": {
      "addPair((address,bool,(uint256,int24,int24),(uint256,uint256,uint256,uint256),(uint256,uint256,uint256,uint256)))": {
        "details": "Only operator can call this function.",
        "params": {
          "_addAssetParam": "parameters to define asset risk and interest rate model"
        },
        "returns": {
          "_0": "pairId The id of pair"
        }
      },
      "closeIsolatedVault(uint256,uint64,(uint256,uint256,uint256))": {
        "params": {
          "_closeParams": "The close parameters",
          "_isolatedVaultId": "The id of isolated vault",
          "_pairId": "The id of asset pair"
        },
        "returns": {
          "tradeResult": "The result of perp trade"
        }
      },
      "getVaultStatus(uint256)": {
        "details": "This function should not be called on chain.",
        "params": {
          "_vaultId": "The id of the vault"
        }
      },
      "getVaultStatusWithAddress()": {
        "details": "This function should not be called on chain."
      },
      "liquidationCall(uint256,uint256,uint256)": {
        "params": {
          "_closeRatio": "If you'll close all position, set 1e18.",
          "_sqrtSlippageTolerance": "if caller is liquidator, the caller can set custom slippage tolerance.",
          "_vaultId": "The id of vault"
        }
      },
      "openIsolatedVault(uint256,uint64,(int256,int256,uint256,uint256,uint256,bool,bytes))": {
        "params": {
          "_depositAmount": "The amount of margin to deposit from main vault.",
          "_pairId": "The id of asset pair",
          "_tradeParams": "The trade parameters"
        },
        "returns": {
          "isolatedVaultId": "The id of isolated vault",
          "tradeResult": "The result of perp trade"
        }
      },
      "reallocate(uint256)": {
        "params": {
          "_pairId": "The id of pair to reallocate."
        }
      },
      "setLiquidator(address)": {
        "details": "Only operator can call this function.",
        "params": {
          "_newLiquidator": "The address of new operator"
        }
      },
      "setOperator(address)": {
        "details": "Only operator can call this function.",
        "params": {
          "_newOperator": "The address of new operator"
        }
      },
      "supplyToken(uint256,uint256,bool)": {
        "params": {
          "_amount": "The amount of asset being supplied",
          "_isStable": "If true supplys to stable pool, if false supplys to underlying pool",
          "_pairId": "The id of pair being supplied to the pool"
        },
        "returns": {
          "finalMintAmount": "The amount of claim token being minted"
        }
      },
      "tradePerp(uint256,uint64,(int256,int256,uint256,uint256,uint256,bool,bytes))": {
        "params": {
          "_pairId": "The id of asset pair",
          "_tradeParams": "The trade parameters",
          "_vaultId": "The id of vault"
        },
        "returns": {
          "_0": "TradeResult The result of perp trade"
        }
      },
      "uniswapV3MintCallback(uint256,uint256,bytes)": {
        "details": "Callback for Uniswap V3 pool."
      },
      "uniswapV3SwapCallback(int256,int256,bytes)": {
        "details": "Callback for Uniswap V3 pool."
      },
      "updateAssetRiskParams(uint256,(uint256,int24,int24))": {
        "details": "The function can be called by operator.",
        "params": {
          "_pairId": "The id of asset to update params.",
          "_riskParams": "Asset risk parameters."
        }
      },
      "updateIRMParams(uint256,(uint256,uint256,uint256,uint256),(uint256,uint256,uint256,uint256))": {
        "details": "The function can be called by operator.",
        "params": {
          "_pairId": "The id of pair to update params.",
          "_stableIrmParams": "Asset interest-rate parameters for stable.",
          "_underlyingIrmParams": "Asset interest-rate parameters for underlying."
        }
      },
      "updateMargin(int256,uint256)": {
        "params": {
          "_marginAmount": "The amount of margin. Positive means deposit and negative means withdraw.",
          "_vaultId": "The id of vault to update margin. If _vaultId is 0, update margin of the main vault."
        },
        "returns": {
          "vaultId": "The id of vault created"
        }
      },
      "withdrawToken(uint256,uint256,bool)": {
        "params": {
          "_amount": "The amount of asset being withdrawn",
          "_isStable": "If true supplys to stable pool, if false supplys to underlying pool",
          "_pairId": "The id of pair being withdrawn from the pool"
        },
        "returns": {
          "finalBurnAmount": "The amount of claim token being burned",
          "finalWithdrawAmount": "The amount of token being withdrawn"
        }
      }
    },
    "stateVariables": {
      "ownVaultsMap": {
        "details": "account -> vaultId"
      }
    },
    "version": 1
  },
  "userdoc": {
    "kind": "user",
    "methods": {
      "addPair((address,bool,(uint256,int24,int24),(uint256,uint256,uint256,uint256),(uint256,uint256,uint256,uint256)))": {
        "notice": "Adds token pair to the contract"
      },
      "closeIsolatedVault(uint256,uint64,(uint256,uint256,uint256))": {
        "notice": "Close positions in the isolated vault and move margin to main vault."
      },
      "getSqrtPrice(uint256)": {
        "notice": "Gets square root of current underlying token price by quote token."
      },
      "getVaultStatus(uint256)": {
        "notice": "Gets latest vault status."
      },
      "getVaultStatusWithAddress()": {
        "notice": "Gets latest main vault status that the caller has."
      },
      "liquidationCall(uint256,uint256,uint256)": {
        "notice": "Executes liquidation call and gets reward. Anyone can call this function."
      },
      "openIsolatedVault(uint256,uint64,(int256,int256,uint256,uint256,uint256,bool,bytes))": {
        "notice": "Creates new isolated vault and open perp positions."
      },
      "reallocate(uint256)": {
        "notice": "Reallocates range of Uniswap LP position."
      },
      "setLiquidator(address)": {
        "notice": "Sets new liquidator"
      },
      "setOperator(address)": {
        "notice": "Sets new operator"
      },
      "supplyToken(uint256,uint256,bool)": {
        "notice": "Supplys token and mints claim token"
      },
      "tradePerp(uint256,uint64,(int256,int256,uint256,uint256,uint256,bool,bytes))": {
        "notice": "Trades perps of x and sqrt(x)"
      },
      "updateAssetRiskParams(uint256,(uint256,int24,int24))": {
        "notice": "Updates asset risk parameters."
      },
      "updateIRMParams(uint256,(uint256,uint256,uint256,uint256),(uint256,uint256,uint256,uint256))": {
        "notice": "Updates interest rate model parameters."
      },
      "updateMargin(int256,uint256)": {
        "notice": "Deposit or withdraw margin"
      },
      "withdrawToken(uint256,uint256,bool)": {
        "notice": "Withdraws token and burns claim token"
      }
    },
    "notice": "Error Codes C0: invalid asset rist parameters C1: caller must be operator C2: caller must be vault owner C3: token0 or token1 must be registered stable token C4: invalid interest rate model parameters C5: invalid vault creation",
    "version": 1
  },
  "storageLayout": {
    "storage": [
      {
        "astId": 1216,
        "contract": "src/Controller.sol:Controller",
        "label": "_initialized",
        "offset": 0,
        "slot": "0",
        "type": "t_uint8"
      },
      {
        "astId": 1219,
        "contract": "src/Controller.sol:Controller",
        "label": "_initializing",
        "offset": 1,
        "slot": "0",
        "type": "t_bool"
      },
      {
        "astId": 1389,
        "contract": "src/Controller.sol:Controller",
        "label": "_status",
        "offset": 0,
        "slot": "1",
        "type": "t_uint256"
      },
      {
        "astId": 6289,
        "contract": "src/Controller.sol:Controller",
        "label": "pairGroup",
        "offset": 0,
        "slot": "2",
        "type": "t_struct(PairGroup)7714_storage"
      },
      {
        "astId": 6294,
        "contract": "src/Controller.sol:Controller",
        "label": "pairs",
        "offset": 0,
        "slot": "5",
        "type": "t_mapping(t_uint256,t_struct(PairStatus)7762_storage)"
      },
      {
        "astId": 6299,
        "contract": "src/Controller.sol:Controller",
        "label": "rebalanceFeeGrowthCache",
        "offset": 0,
        "slot": "6",
        "type": "t_mapping(t_uint256,t_struct(RebalanceFeeGrowthCache)7789_storage)"
      },
      {
        "astId": 6304,
        "contract": "src/Controller.sol:Controller",
        "label": "vaults",
        "offset": 0,
        "slot": "7",
        "type": "t_mapping(t_uint256,t_struct(Vault)7784_storage)"
      },
      {
        "astId": 6310,
        "contract": "src/Controller.sol:Controller",
        "label": "ownVaultsMap",
        "offset": 0,
        "slot": "8",
        "type": "t_mapping(t_address,t_struct(OwnVaults)7720_storage)"
      },
      {
        "astId": 6312,
        "contract": "src/Controller.sol:Controller",
        "label": "vaultCount",
        "offset": 0,
        "slot": "9",
        "type": "t_uint256"
      },
      {
        "astId": 6314,
        "contract": "src/Controller.sol:Controller",
        "label": "operator",
        "offset": 0,
        "slot": "10",
        "type": "t_address"
      },
      {
        "astId": 6316,
        "contract": "src/Controller.sol:Controller",
        "label": "liquidator",
        "offset": 0,
        "slot": "11",
        "type": "t_address"
      },
      {
        "astId": 6320,
        "contract": "src/Controller.sol:Controller",
        "label": "allowedUniswapPools",
        "offset": 0,
        "slot": "12",
        "type": "t_mapping(t_address,t_bool)"
      }
    ],
    "types": {
      "t_address": {
        "encoding": "inplace",
        "label": "address",
        "numberOfBytes": "20"
      },
      "t_array(t_struct(UserStatus)8047_storage)dyn_storage": {
        "base": "t_struct(UserStatus)8047_storage",
        "encoding": "dynamic_array",
        "label": "struct Perp.UserStatus[]",
        "numberOfBytes": "32"
      },
      "t_array(t_uint256)dyn_storage": {
        "base": "t_uint256",
        "encoding": "dynamic_array",
        "label": "uint256[]",
        "numberOfBytes": "32"
      },
      "t_bool": {
        "encoding": "inplace",
        "label": "bool",
        "numberOfBytes": "1"
      },
      "t_int24": {
        "encoding": "inplace",
        "label": "int24",
        "numberOfBytes": "3"
      },
      "t_int256": {
        "encoding": "inplace",
        "label": "int256",
        "numberOfBytes": "32"
      },
      "t_mapping(t_address,t_bool)": {
        "encoding": "mapping",
        "key": "t_address",
        "label": "mapping(address => bool)",
        "numberOfBytes": "32",
        "value": "t_bool"
      },
      "t_mapping(t_address,t_struct(OwnVaults)7720_storage)": {
        "encoding": "mapping",
        "key": "t_address",
        "label": "mapping(address => struct DataType.OwnVaults)",
        "numberOfBytes": "32",
        "value": "t_struct(OwnVaults)7720_storage"
      },
      "t_mapping(t_uint256,t_struct(PairStatus)7762_storage)": {
        "encoding": "mapping",
        "key": "t_uint256",
        "label": "mapping(uint256 => struct DataType.PairStatus)",
        "numberOfBytes": "32",
        "value": "t_struct(PairStatus)7762_storage"
      },
      "t_mapping(t_uint256,t_struct(RebalanceFeeGrowthCache)7789_storage)": {
        "encoding": "mapping",
        "key": "t_uint256",
        "label": "mapping(uint256 => struct DataType.RebalanceFeeGrowthCache)",
        "numberOfBytes": "32",
        "value": "t_struct(RebalanceFeeGrowthCache)7789_storage"
      },
      "t_mapping(t_uint256,t_struct(Vault)7784_storage)": {
        "encoding": "mapping",
        "key": "t_uint256",
        "label": "mapping(uint256 => struct DataType.Vault)",
        "numberOfBytes": "32",
        "value": "t_struct(Vault)7784_storage"
      },
      "t_struct(AssetPoolStatus)7773_storage": {
        "encoding": "inplace",
        "label": "struct DataType.AssetPoolStatus",
        "members": [
          {
            "astId": 7764,
            "contract": "src/Controller.sol:Controller",
            "label": "token",
            "offset": 0,
            "slot": "0",
            "type": "t_address"
          },
          {
            "astId": 7766,
            "contract": "src/Controller.sol:Controller",
            "label": "supplyTokenAddress",
            "offset": 0,
            "slot": "1",
            "type": "t_address"
          },
          {
            "astId": 7769,
            "contract": "src/Controller.sol:Controller",
            "label": "tokenStatus",
            "offset": 0,
            "slot": "2",
            "type": "t_struct(TokenStatus)12111_storage"
          },
          {
            "astId": 7772,
            "contract": "src/Controller.sol:Controller",
            "label": "irmParams",
            "offset": 0,
            "slot": "8",
            "type": "t_struct(IRMParams)7834_storage"
          }
        ],
        "numberOfBytes": "384"
      },
      "t_struct(AssetRiskParams)7741_storage": {
        "encoding": "inplace",
        "label": "struct DataType.AssetRiskParams",
        "members": [
          {
            "astId": 7736,
            "contract": "src/Controller.sol:Controller",
            "label": "riskRatio",
            "offset": 0,
            "slot": "0",
            "type": "t_uint256"
          },
          {
            "astId": 7738,
            "contract": "src/Controller.sol:Controller",
            "label": "rangeSize",
            "offset": 0,
            "slot": "1",
            "type": "t_int24"
          },
          {
            "astId": 7740,
            "contract": "src/Controller.sol:Controller",
            "label": "rebalanceThreshold",
            "offset": 3,
            "slot": "1",
            "type": "t_int24"
          }
        ],
        "numberOfBytes": "64"
      },
      "t_struct(IRMParams)7834_storage": {
        "encoding": "inplace",
        "label": "struct InterestRateModel.IRMParams",
        "members": [
          {
            "astId": 7827,
            "contract": "src/Controller.sol:Controller",
            "label": "baseRate",
            "offset": 0,
            "slot": "0",
            "type": "t_uint256"
          },
          {
            "astId": 7829,
            "contract": "src/Controller.sol:Controller",
            "label": "kinkRate",
            "offset": 0,
            "slot": "1",
            "type": "t_uint256"
          },
          {
            "astId": 7831,
            "contract": "src/Controller.sol:Controller",
            "label": "slope1",
            "offset": 0,
            "slot": "2",
            "type": "t_uint256"
          },
          {
            "astId": 7833,
            "contract": "src/Controller.sol:Controller",
            "label": "slope2",
            "offset": 0,
            "slot": "3",
            "type": "t_uint256"
          }
        ],
        "numberOfBytes": "128"
      },
      "t_struct(OwnVaults)7720_storage": {
        "encoding": "inplace",
        "label": "struct DataType.OwnVaults",
        "members": [
          {
            "astId": 7716,
            "contract": "src/Controller.sol:Controller",
            "label": "mainVaultId",
            "offset": 0,
            "slot": "0",
            "type": "t_uint256"
          },
          {
            "astId": 7719,
            "contract": "src/Controller.sol:Controller",
            "label": "isolatedVaultIds",
            "offset": 0,
            "slot": "1",
            "type": "t_array(t_uint256)dyn_storage"
          }
        ],
        "numberOfBytes": "64"
      },
      "t_struct(PairGroup)7714_storage": {
        "encoding": "inplace",
        "label": "struct DataType.PairGroup",
        "members": [
          {
            "astId": 7709,
            "contract": "src/Controller.sol:Controller",
            "label": "stableTokenAddress",
            "offset": 0,
            "slot": "0",
            "type": "t_address"
          },
          {
            "astId": 7711,
            "contract": "src/Controller.sol:Controller",
            "label": "assetsCount",
            "offset": 0,
            "slot": "1",
            "type": "t_uint256"
          },
          {
            "astId": 7713,
            "contract": "src/Controller.sol:Controller",
            "label": "marginRoundedDecimal",
            "offset": 0,
            "slot": "2",
            "type": "t_uint8"
          }
        ],
        "numberOfBytes": "96"
      },
      "t_struct(PairStatus)7762_storage": {
        "encoding": "inplace",
        "label": "struct DataType.PairStatus",
        "members": [
          {
            "astId": 7743,
            "contract": "src/Controller.sol:Controller",
            "label": "id",
            "offset": 0,
            "slot": "0",
            "type": "t_uint256"
          },
          {
            "astId": 7746,
            "contract": "src/Controller.sol:Controller",
            "label": "stablePool",
            "offset": 0,
            "slot": "1",
            "type": "t_struct(AssetPoolStatus)7773_storage"
          },
          {
            "astId": 7749,
            "contract": "src/Controller.sol:Controller",
            "label": "underlyingPool",
            "offset": 0,
            "slot": "13",
            "type": "t_struct(AssetPoolStatus)7773_storage"
          },
          {
            "astId": 7752,
            "contract": "src/Controller.sol:Controller",
            "label": "riskParams",
            "offset": 0,
            "slot": "25",
            "type": "t_struct(AssetRiskParams)7741_storage"
          },
          {
            "astId": 7755,
            "contract": "src/Controller.sol:Controller",
            "label": "sqrtAssetStatus",
            "offset": 0,
            "slot": "27",
            "type": "t_struct(SqrtPerpAssetStatus)8026_storage"
          },
          {
            "astId": 7757,
            "contract": "src/Controller.sol:Controller",
            "label": "isMarginZero",
            "offset": 0,
            "slot": "44",
            "type": "t_bool"
          },
          {
            "astId": 7759,
            "contract": "src/Controller.sol:Controller",
            "label": "isIsolatedMode",
            "offset": 1,
            "slot": "44",
            "type": "t_bool"
          },
          {
            "astId": 7761,
            "contract": "src/Controller.sol:Controller",
            "label": "lastUpdateTimestamp",
            "offset": 0,
            "slot": "45",
            "type": "t_uint256"
          }
        ],
        "numberOfBytes": "1472"
      },
      "t_struct(PositionStatus)7953_storage": {
        "encoding": "inplace",
        "label": "struct Perp.PositionStatus",
        "members": [
          {
            "astId": 7950,
            "contract": "src/Controller.sol:Controller",
            "label": "amount",
            "offset": 0,
            "slot": "0",
            "type": "t_int256"
          },
          {
            "astId": 7952,
            "contract": "src/Controller.sol:Controller",
            "label": "entryValue",
            "offset": 0,
            "slot": "1",
            "type": "t_int256"
          }
        ],
        "numberOfBytes": "64"
      },
      "t_struct(RebalanceFeeGrowthCache)7789_storage": {
        "encoding": "inplace",
        "label": "struct DataType.RebalanceFeeGrowthCache",
        "members": [
          {
            "astId": 7786,
            "contract": "src/Controller.sol:Controller",
            "label": "stableGrowth",
            "offset": 0,
            "slot": "0",
            "type": "t_int256"
          },
          {
            "astId": 7788,
            "contract": "src/Controller.sol:Controller",
            "label": "underlyingGrowth",
            "offset": 0,
            "slot": "1",
            "type": "t_int256"
          }
        ],
        "numberOfBytes": "64"
      },
      "t_struct(SqrtPerpAssetStatus)8026_storage": {
        "encoding": "inplace",
        "label": "struct Perp.SqrtPerpAssetStatus",
        "members": [
          {
            "astId": 7991,
            "contract": "src/Controller.sol:Controller",
            "label": "uniswapPool",
            "offset": 0,
            "slot": "0",
            "type": "t_address"
          },
          {
            "astId": 7993,
            "contract": "src/Controller.sol:Controller",
            "label": "tickLower",
            "offset": 20,
            "slot": "0",
            "type": "t_int24"
          },
          {
            "astId": 7995,
            "contract": "src/Controller.sol:Controller",
            "label": "tickUpper",
            "offset": 23,
            "slot": "0",
            "type": "t_int24"
          },
          {
            "astId": 7997,
            "contract": "src/Controller.sol:Controller",
            "label": "numRebalance",
            "offset": 0,
            "slot": "1",
            "type": "t_uint64"
          },
          {
            "astId": 7999,
            "contract": "src/Controller.sol:Controller",
            "label": "totalAmount",
            "offset": 0,
            "slot": "2",
            "type": "t_uint256"
          },
          {
            "astId": 8001,
            "contract": "src/Controller.sol:Controller",
            "label": "borrowedAmount",
            "offset": 0,
            "slot": "3",
            "type": "t_uint256"
          },
          {
            "astId": 8003,
            "contract": "src/Controller.sol:Controller",
            "label": "lastRebalanceTotalSquartAmount",
            "offset": 0,
            "slot": "4",
            "type": "t_uint256"
          },
          {
            "astId": 8005,
            "contract": "src/Controller.sol:Controller",
            "label": "lastFee0Growth",
            "offset": 0,
            "slot": "5",
            "type": "t_uint256"
          },
          {
            "astId": 8007,
            "contract": "src/Controller.sol:Controller",
            "label": "lastFee1Growth",
            "offset": 0,
            "slot": "6",
            "type": "t_uint256"
          },
          {
            "astId": 8009,
            "contract": "src/Controller.sol:Controller",
            "label": "borrowPremium0Growth",
            "offset": 0,
            "slot": "7",
            "type": "t_uint256"
          },
          {
            "astId": 8011,
            "contract": "src/Controller.sol:Controller",
            "label": "borrowPremium1Growth",
            "offset": 0,
            "slot": "8",
            "type": "t_uint256"
          },
          {
            "astId": 8013,
            "contract": "src/Controller.sol:Controller",
            "label": "fee0Growth",
            "offset": 0,
            "slot": "9",
            "type": "t_uint256"
          },
          {
            "astId": 8015,
            "contract": "src/Controller.sol:Controller",
            "label": "fee1Growth",
            "offset": 0,
            "slot": "10",
            "type": "t_uint256"
          },
          {
            "astId": 8018,
            "contract": "src/Controller.sol:Controller",
            "label": "rebalancePositionUnderlying",
            "offset": 0,
            "slot": "11",
            "type": "t_struct(UserStatus)12116_storage"
          },
          {
            "astId": 8021,
            "contract": "src/Controller.sol:Controller",
            "label": "rebalancePositionStable",
            "offset": 0,
            "slot": "13",
            "type": "t_struct(UserStatus)12116_storage"
          },
          {
            "astId": 8023,
            "contract": "src/Controller.sol:Controller",
            "label": "rebalanceFeeGrowthUnderlying",
            "offset": 0,
            "slot": "15",
            "type": "t_int256"
          },
          {
            "astId": 8025,
            "contract": "src/Controller.sol:Controller",
            "label": "rebalanceFeeGrowthStable",
            "offset": 0,
            "slot": "16",
            "type": "t_int256"
          }
        ],
        "numberOfBytes": "544"
      },
      "t_struct(SqrtPositionStatus)7966_storage": {
        "encoding": "inplace",
        "label": "struct Perp.SqrtPositionStatus",
        "members": [
          {
            "astId": 7955,
            "contract": "src/Controller.sol:Controller",
            "label": "amount",
            "offset": 0,
            "slot": "0",
            "type": "t_int256"
          },
          {
            "astId": 7957,
            "contract": "src/Controller.sol:Controller",
            "label": "entryValue",
            "offset": 0,
            "slot": "1",
            "type": "t_int256"
          },
          {
            "astId": 7959,
            "contract": "src/Controller.sol:Controller",
            "label": "stableRebalanceEntryValue",
            "offset": 0,
            "slot": "2",
            "type": "t_int256"
          },
          {
            "astId": 7961,
            "contract": "src/Controller.sol:Controller",
            "label": "underlyingRebalanceEntryValue",
            "offset": 0,
            "slot": "3",
            "type": "t_int256"
          },
          {
            "astId": 7963,
            "contract": "src/Controller.sol:Controller",
            "label": "entryTradeFee0",
            "offset": 0,
            "slot": "4",
            "type": "t_uint256"
          },
          {
            "astId": 7965,
            "contract": "src/Controller.sol:Controller",
            "label": "entryTradeFee1",
            "offset": 0,
            "slot": "5",
            "type": "t_uint256"
          }
        ],
        "numberOfBytes": "192"
      },
      "t_struct(TokenStatus)12111_storage": {
        "encoding": "inplace",
        "label": "struct ScaledAsset.TokenStatus",
        "members": [
          {
            "astId": 12100,
            "contract": "src/Controller.sol:Controller",
            "label": "totalCompoundDeposited",
            "offset": 0,
            "slot": "0",
            "type": "t_uint256"
          },
          {
            "astId": 12102,
            "contract": "src/Controller.sol:Controller",
            "label": "totalNormalDeposited",
            "offset": 0,
            "slot": "1",
            "type": "t_uint256"
          },
          {
            "astId": 12104,
            "contract": "src/Controller.sol:Controller",
            "label": "totalNormalBorrowed",
            "offset": 0,
            "slot": "2",
            "type": "t_uint256"
          },
          {
            "astId": 12106,
            "contract": "src/Controller.sol:Controller",
            "label": "assetScaler",
            "offset": 0,
            "slot": "3",
            "type": "t_uint256"
          },
          {
            "astId": 12108,
            "contract": "src/Controller.sol:Controller",
            "label": "assetGrowth",
            "offset": 0,
            "slot": "4",
            "type": "t_uint256"
          },
          {
            "astId": 12110,
            "contract": "src/Controller.sol:Controller",
            "label": "debtGrowth",
            "offset": 0,
            "slot": "5",
            "type": "t_uint256"
          }
        ],
        "numberOfBytes": "192"
      },
      "t_struct(UserStatus)12116_storage": {
        "encoding": "inplace",
        "label": "struct ScaledAsset.UserStatus",
        "members": [
          {
            "astId": 12113,
            "contract": "src/Controller.sol:Controller",
            "label": "positionAmount",
            "offset": 0,
            "slot": "0",
            "type": "t_int256"
          },
          {
            "astId": 12115,
            "contract": "src/Controller.sol:Controller",
            "label": "lastFeeGrowth",
            "offset": 0,
            "slot": "1",
            "type": "t_uint256"
          }
        ],
        "numberOfBytes": "64"
      },
      "t_struct(UserStatus)8047_storage": {
        "encoding": "inplace",
        "label": "struct Perp.UserStatus",
        "members": [
          {
            "astId": 8028,
            "contract": "src/Controller.sol:Controller",
            "label": "pairId",
            "offset": 0,
            "slot": "0",
            "type": "t_uint64"
          },
          {
            "astId": 8030,
            "contract": "src/Controller.sol:Controller",
            "label": "rebalanceLastTickLower",
            "offset": 8,
            "slot": "0",
            "type": "t_int24"
          },
          {
            "astId": 8032,
            "contract": "src/Controller.sol:Controller",
            "label": "rebalanceLastTickUpper",
            "offset": 11,
            "slot": "0",
            "type": "t_int24"
          },
          {
            "astId": 8034,
            "contract": "src/Controller.sol:Controller",
            "label": "lastNumRebalance",
            "offset": 14,
            "slot": "0",
            "type": "t_uint64"
          },
          {
            "astId": 8037,
            "contract": "src/Controller.sol:Controller",
            "label": "perp",
            "offset": 0,
            "slot": "1",
            "type": "t_struct(PositionStatus)7953_storage"
          },
          {
            "astId": 8040,
            "contract": "src/Controller.sol:Controller",
            "label": "sqrtPerp",
            "offset": 0,
            "slot": "3",
            "type": "t_struct(SqrtPositionStatus)7966_storage"
          },
          {
            "astId": 8043,
            "contract": "src/Controller.sol:Controller",
            "label": "underlying",
            "offset": 0,
            "slot": "9",
            "type": "t_struct(UserStatus)12116_storage"
          },
          {
            "astId": 8046,
            "contract": "src/Controller.sol:Controller",
            "label": "stable",
            "offset": 0,
            "slot": "11",
            "type": "t_struct(UserStatus)12116_storage"
          }
        ],
        "numberOfBytes": "416"
      },
      "t_struct(Vault)7784_storage": {
        "encoding": "inplace",
        "label": "struct DataType.Vault",
        "members": [
          {
            "astId": 7775,
            "contract": "src/Controller.sol:Controller",
            "label": "id",
            "offset": 0,
            "slot": "0",
            "type": "t_uint256"
          },
          {
            "astId": 7777,
            "contract": "src/Controller.sol:Controller",
            "label": "owner",
            "offset": 0,
            "slot": "1",
            "type": "t_address"
          },
          {
            "astId": 7779,
            "contract": "src/Controller.sol:Controller",
            "label": "margin",
            "offset": 0,
            "slot": "2",
            "type": "t_int256"
          },
          {
            "astId": 7783,
            "contract": "src/Controller.sol:Controller",
            "label": "openPositions",
            "offset": 0,
            "slot": "3",
            "type": "t_array(t_struct(UserStatus)8047_storage)dyn_storage"
          }
        ],
        "numberOfBytes": "128"
      },
      "t_uint256": {
        "encoding": "inplace",
        "label": "uint256",
        "numberOfBytes": "32"
      },
      "t_uint64": {
        "encoding": "inplace",
        "label": "uint64",
        "numberOfBytes": "8"
      },
      "t_uint8": {
        "encoding": "inplace",
        "label": "uint8",
        "numberOfBytes": "1"
      }
    }
  }
}