{
  "address": "0xF61fa7D3bA843665E406CD4309b36e42048a795b",
  "abi": [
    {
      "inputs": [],
      "stateMutability": "nonpayable",
      "type": "constructor"
    },
    {
      "inputs": [],
      "name": "T",
      "type": "error"
    },
    {
      "anonymous": false,
      "inputs": [
        {
          "indexed": true,
          "internalType": "address",
          "name": "owner",
          "type": "address"
        },
        {
          "indexed": true,
          "internalType": "address",
          "name": "spender",
          "type": "address"
        },
        {
          "indexed": false,
          "internalType": "uint256",
          "name": "value",
          "type": "uint256"
        }
      ],
      "name": "Approval",
      "type": "event"
    },
    {
      "anonymous": false,
      "inputs": [
        {
          "indexed": false,
          "internalType": "int256",
          "name": "delta",
          "type": "int256"
        }
      ],
      "name": "DeltaHedged",
      "type": "event"
    },
    {
      "anonymous": false,
      "inputs": [
        {
          "indexed": true,
          "internalType": "address",
          "name": "account",
          "type": "address"
        },
        {
          "indexed": false,
          "internalType": "uint256",
          "name": "strategyTokenAmount",
          "type": "uint256"
        },
        {
          "indexed": false,
          "internalType": "uint256",
          "name": "depositedAmount",
          "type": "uint256"
        }
      ],
      "name": "DepositedToStrategy",
      "type": "event"
    },
    {
      "anonymous": false,
      "inputs": [
        {
          "indexed": false,
          "internalType": "uint256",
          "name": "hedgeInterval",
          "type": "uint256"
        }
      ],
      "name": "HedgeIntervalUpdated",
      "type": "event"
    },
    {
      "anonymous": false,
      "inputs": [
        {
          "indexed": false,
          "internalType": "uint256",
          "name": "hedgeSqrtPriceThreshold",
          "type": "uint256"
        }
      ],
      "name": "HedgePriceThresholdUpdated",
      "type": "event"
    },
    {
      "anonymous": false,
      "inputs": [
        {
          "indexed": false,
          "internalType": "address",
          "name": "newHedgerAddress",
          "type": "address"
        }
      ],
      "name": "HedgerUpdated",
      "type": "event"
    },
    {
      "anonymous": false,
      "inputs": [
        {
          "indexed": false,
          "internalType": "uint8",
          "name": "version",
          "type": "uint8"
        }
      ],
      "name": "Initialized",
      "type": "event"
    },
    {
      "anonymous": false,
      "inputs": [
        {
          "indexed": false,
          "internalType": "address",
          "name": "operator",
          "type": "address"
        }
      ],
      "name": "OperatorUpdated",
      "type": "event"
    },
    {
      "anonymous": false,
      "inputs": [
        {
          "indexed": false,
          "internalType": "address",
          "name": "newReaderAddress",
          "type": "address"
        }
      ],
      "name": "ReaderUpdated",
      "type": "event"
    },
    {
      "anonymous": false,
      "inputs": [
        {
          "indexed": true,
          "internalType": "address",
          "name": "from",
          "type": "address"
        },
        {
          "indexed": true,
          "internalType": "address",
          "name": "to",
          "type": "address"
        },
        {
          "indexed": false,
          "internalType": "uint256",
          "name": "value",
          "type": "uint256"
        }
      ],
      "name": "Transfer",
      "type": "event"
    },
    {
      "anonymous": false,
      "inputs": [
        {
          "indexed": true,
          "internalType": "address",
          "name": "account",
          "type": "address"
        },
        {
          "indexed": false,
          "internalType": "uint256",
          "name": "strategyTokenAmount",
          "type": "uint256"
        },
        {
          "indexed": false,
          "internalType": "uint256",
          "name": "withdrawnAmount",
          "type": "uint256"
        }
      ],
      "name": "WithdrawnFromStrategy",
      "type": "event"
    },
    {
      "inputs": [
        {
          "internalType": "address",
          "name": "owner",
          "type": "address"
        },
        {
          "internalType": "address",
          "name": "spender",
          "type": "address"
        }
      ],
      "name": "allowance",
      "outputs": [
        {
          "internalType": "uint256",
          "name": "",
          "type": "uint256"
        }
      ],
      "stateMutability": "view",
      "type": "function"
    },
    {
      "inputs": [
        {
          "internalType": "address",
          "name": "spender",
          "type": "address"
        },
        {
          "internalType": "uint256",
          "name": "amount",
          "type": "uint256"
        }
      ],
      "name": "approve",
      "outputs": [
        {
          "internalType": "bool",
          "name": "",
          "type": "bool"
        }
      ],
      "stateMutability": "nonpayable",
      "type": "function"
    },
    {
      "inputs": [
        {
          "internalType": "address",
          "name": "account",
          "type": "address"
        }
      ],
      "name": "balanceOf",
      "outputs": [
        {
          "internalType": "uint256",
          "name": "",
          "type": "uint256"
        }
      ],
      "stateMutability": "view",
      "type": "function"
    },
    {
      "inputs": [],
      "name": "checkPriceHedge",
      "outputs": [
        {
          "internalType": "bool",
          "name": "",
          "type": "bool"
        }
      ],
      "stateMutability": "view",
      "type": "function"
    },
    {
      "inputs": [],
      "name": "checkTimeHedge",
      "outputs": [
        {
          "internalType": "bool",
          "name": "",
          "type": "bool"
        }
      ],
      "stateMutability": "view",
      "type": "function"
    },
    {
      "inputs": [],
      "name": "decimals",
      "outputs": [
        {
          "internalType": "uint8",
          "name": "",
          "type": "uint8"
        }
      ],
      "stateMutability": "view",
      "type": "function"
    },
    {
      "inputs": [
        {
          "internalType": "address",
          "name": "spender",
          "type": "address"
        },
        {
          "internalType": "uint256",
          "name": "subtractedValue",
          "type": "uint256"
        }
      ],
      "name": "decreaseAllowance",
      "outputs": [
        {
          "internalType": "bool",
          "name": "",
          "type": "bool"
        }
      ],
      "stateMutability": "nonpayable",
      "type": "function"
    },
    {
      "inputs": [
        {
          "internalType": "uint256",
          "name": "_strategyTokenAmount",
          "type": "uint256"
        },
        {
          "internalType": "address",
          "name": "_recepient",
          "type": "address"
        },
        {
          "internalType": "uint256",
          "name": "_maxDepositAmount",
          "type": "uint256"
        },
        {
          "internalType": "bool",
          "name": "isQuoteMode",
          "type": "bool"
        },
        {
          "components": [
            {
              "internalType": "uint256",
              "name": "lowerSqrtPrice",
              "type": "uint256"
            },
            {
              "internalType": "uint256",
              "name": "upperSqrtPrice",
              "type": "uint256"
            },
            {
              "internalType": "uint256",
              "name": "deadline",
              "type": "uint256"
            }
          ],
          "internalType": "struct IStrategyVault.StrategyTradeParams",
          "name": "_tradeParams",
          "type": "tuple"
        }
      ],
      "name": "deposit",
      "outputs": [
        {
          "internalType": "uint256",
          "name": "finalDepositMargin",
          "type": "uint256"
        }
      ],
      "stateMutability": "nonpayable",
      "type": "function"
    },
    {
      "inputs": [
        {
          "internalType": "uint256",
          "name": "_initialMarginAmount",
          "type": "uint256"
        },
        {
          "internalType": "int256",
          "name": "_initialPerpAmount",
          "type": "int256"
        },
        {
          "internalType": "int256",
          "name": "_initialSquartAmount",
          "type": "int256"
        },
        {
          "components": [
            {
              "internalType": "uint256",
              "name": "lowerSqrtPrice",
              "type": "uint256"
            },
            {
              "internalType": "uint256",
              "name": "upperSqrtPrice",
              "type": "uint256"
            },
            {
              "internalType": "uint256",
              "name": "deadline",
              "type": "uint256"
            }
          ],
          "internalType": "struct IStrategyVault.StrategyTradeParams",
          "name": "_tradeParams",
          "type": "tuple"
        }
      ],
      "name": "depositForPositionInitialization",
      "outputs": [],
      "stateMutability": "nonpayable",
      "type": "function"
    },
    {
      "inputs": [
        {
          "components": [
            {
              "internalType": "uint256",
              "name": "lowerSqrtPrice",
              "type": "uint256"
            },
            {
              "internalType": "uint256",
              "name": "upperSqrtPrice",
              "type": "uint256"
            },
            {
              "internalType": "uint256",
              "name": "deadline",
              "type": "uint256"
            }
          ],
          "internalType": "struct IStrategyVault.StrategyTradeParams",
          "name": "_tradeParams",
          "type": "tuple"
        },
        {
          "internalType": "uint256",
          "name": "_deltaRatio",
          "type": "uint256"
        }
      ],
      "name": "execDeltaHedge",
      "outputs": [],
      "stateMutability": "nonpayable",
      "type": "function"
    },
    {
      "inputs": [],
      "name": "getDelta",
      "outputs": [
        {
          "internalType": "int256",
          "name": "",
          "type": "int256"
        }
      ],
      "stateMutability": "view",
      "type": "function"
    },
    {
      "inputs": [],
      "name": "getPrice",
      "outputs": [
        {
          "internalType": "uint256",
          "name": "",
          "type": "uint256"
        }
      ],
      "stateMutability": "nonpayable",
      "type": "function"
    },
    {
      "inputs": [],
      "name": "hedger",
      "outputs": [
        {
          "internalType": "address",
          "name": "",
          "type": "address"
        }
      ],
      "stateMutability": "view",
      "type": "function"
    },
    {
      "inputs": [
        {
          "internalType": "address",
          "name": "spender",
          "type": "address"
        },
        {
          "internalType": "uint256",
          "name": "addedValue",
          "type": "uint256"
        }
      ],
      "name": "increaseAllowance",
      "outputs": [
        {
          "internalType": "bool",
          "name": "",
          "type": "bool"
        }
      ],
      "stateMutability": "nonpayable",
      "type": "function"
    },
    {
      "inputs": [
        {
          "internalType": "address",
          "name": "_controller",
          "type": "address"
        },
        {
          "internalType": "address",
          "name": "_reader",
          "type": "address"
        },
        {
          "internalType": "uint64",
          "name": "_pairId",
          "type": "uint64"
        },
        {
          "components": [
            {
              "internalType": "uint256",
              "name": "lower",
              "type": "uint256"
            },
            {
              "internalType": "uint256",
              "name": "upper",
              "type": "uint256"
            }
          ],
          "internalType": "struct BaseStrategy.MinPerValueLimit",
          "name": "_minPerValueLimit",
          "type": "tuple"
        },
        {
          "internalType": "string",
          "name": "_name",
          "type": "string"
        },
        {
          "internalType": "string",
          "name": "_symbol",
          "type": "string"
        }
      ],
      "name": "initialize",
      "outputs": [],
      "stateMutability": "nonpayable",
      "type": "function"
    },
    {
      "inputs": [],
      "name": "lastHedgePrice",
      "outputs": [
        {
          "internalType": "uint256",
          "name": "",
          "type": "uint256"
        }
      ],
      "stateMutability": "view",
      "type": "function"
    },
    {
      "inputs": [],
      "name": "lastHedgeTimestamp",
      "outputs": [
        {
          "internalType": "uint256",
          "name": "",
          "type": "uint256"
        }
      ],
      "stateMutability": "view",
      "type": "function"
    },
    {
      "inputs": [],
      "name": "name",
      "outputs": [
        {
          "internalType": "string",
          "name": "",
          "type": "string"
        }
      ],
      "stateMutability": "view",
      "type": "function"
    },
    {
      "inputs": [],
      "name": "operator",
      "outputs": [
        {
          "internalType": "address",
          "name": "",
          "type": "address"
        }
      ],
      "stateMutability": "view",
      "type": "function"
    },
    {
      "inputs": [
        {
          "components": [
            {
              "components": [
                {
                  "internalType": "int256",
                  "name": "perpEntryUpdate",
                  "type": "int256"
                },
                {
                  "internalType": "int256",
                  "name": "sqrtEntryUpdate",
                  "type": "int256"
                },
                {
                  "internalType": "int256",
                  "name": "sqrtRebalanceEntryUpdateUnderlying",
                  "type": "int256"
                },
                {
                  "internalType": "int256",
                  "name": "sqrtRebalanceEntryUpdateStable",
                  "type": "int256"
                },
                {
                  "internalType": "int256",
                  "name": "perpPayoff",
                  "type": "int256"
                },
                {
                  "internalType": "int256",
                  "name": "sqrtPayoff",
                  "type": "int256"
                }
              ],
              "internalType": "struct Perp.Payoff",
              "name": "payoff",
              "type": "tuple"
            },
            {
              "internalType": "int256",
              "name": "fee",
              "type": "int256"
            },
            {
              "internalType": "int256",
              "name": "minDeposit",
              "type": "int256"
            }
          ],
          "internalType": "struct DataType.TradeResult",
          "name": "_tradeResult",
          "type": "tuple"
        },
        {
          "internalType": "bytes",
          "name": "_data",
          "type": "bytes"
        }
      ],
      "name": "predyTradeCallback",
      "outputs": [
        {
          "internalType": "int256",
          "name": "",
          "type": "int256"
        }
      ],
      "stateMutability": "nonpayable",
      "type": "function"
    },
    {
      "inputs": [],
      "name": "reader",
      "outputs": [
        {
          "internalType": "contract Reader",
          "name": "",
          "type": "address"
        }
      ],
      "stateMutability": "view",
      "type": "function"
    },
    {
      "inputs": [
        {
          "internalType": "address",
          "name": "_newHedger",
          "type": "address"
        }
      ],
      "name": "setHedger",
      "outputs": [],
      "stateMutability": "nonpayable",
      "type": "function"
    },
    {
      "inputs": [
        {
          "internalType": "address",
          "name": "_newOperator",
          "type": "address"
        }
      ],
      "name": "setOperator",
      "outputs": [],
      "stateMutability": "nonpayable",
      "type": "function"
    },
    {
      "inputs": [
        {
          "internalType": "address",
          "name": "_reader",
          "type": "address"
        }
      ],
      "name": "setReader",
      "outputs": [],
      "stateMutability": "nonpayable",
      "type": "function"
    },
    {
      "inputs": [],
      "name": "symbol",
      "outputs": [
        {
          "internalType": "string",
          "name": "",
          "type": "string"
        }
      ],
      "stateMutability": "view",
      "type": "function"
    },
    {
      "inputs": [],
      "name": "totalSupply",
      "outputs": [
        {
          "internalType": "uint256",
          "name": "",
          "type": "uint256"
        }
      ],
      "stateMutability": "view",
      "type": "function"
    },
    {
      "inputs": [
        {
          "internalType": "address",
          "name": "to",
          "type": "address"
        },
        {
          "internalType": "uint256",
          "name": "amount",
          "type": "uint256"
        }
      ],
      "name": "transfer",
      "outputs": [
        {
          "internalType": "bool",
          "name": "",
          "type": "bool"
        }
      ],
      "stateMutability": "nonpayable",
      "type": "function"
    },
    {
      "inputs": [
        {
          "internalType": "address",
          "name": "from",
          "type": "address"
        },
        {
          "internalType": "address",
          "name": "to",
          "type": "address"
        },
        {
          "internalType": "uint256",
          "name": "amount",
          "type": "uint256"
        }
      ],
      "name": "transferFrom",
      "outputs": [
        {
          "internalType": "bool",
          "name": "",
          "type": "bool"
        }
      ],
      "stateMutability": "nonpayable",
      "type": "function"
    },
    {
      "inputs": [
        {
          "internalType": "int256",
          "name": "_squartAmount",
          "type": "int256"
        },
        {
          "components": [
            {
              "internalType": "uint256",
              "name": "lowerSqrtPrice",
              "type": "uint256"
            },
            {
              "internalType": "uint256",
              "name": "upperSqrtPrice",
              "type": "uint256"
            },
            {
              "internalType": "uint256",
              "name": "deadline",
              "type": "uint256"
            }
          ],
          "internalType": "struct IStrategyVault.StrategyTradeParams",
          "name": "_tradeParams",
          "type": "tuple"
        }
      ],
      "name": "updateGamma",
      "outputs": [],
      "stateMutability": "nonpayable",
      "type": "function"
    },
    {
      "inputs": [
        {
          "internalType": "uint256",
          "name": "_hedgeInterval",
          "type": "uint256"
        }
      ],
      "name": "updateHedgeInterval",
      "outputs": [],
      "stateMutability": "nonpayable",
      "type": "function"
    },
    {
      "inputs": [
        {
          "internalType": "uint256",
          "name": "_newSqrtPriceThreshold",
          "type": "uint256"
        }
      ],
      "name": "updateHedgePriceThreshold",
      "outputs": [],
      "stateMutability": "nonpayable",
      "type": "function"
    },
    {
      "inputs": [],
      "name": "vaultId",
      "outputs": [
        {
          "internalType": "uint256",
          "name": "",
          "type": "uint256"
        }
      ],
      "stateMutability": "view",
      "type": "function"
    },
    {
      "inputs": [
        {
          "internalType": "uint256",
          "name": "_withdrawStrategyAmount",
          "type": "uint256"
        },
        {
          "internalType": "address",
          "name": "_recepient",
          "type": "address"
        },
        {
          "internalType": "int256",
          "name": "_minWithdrawAmount",
          "type": "int256"
        },
        {
          "components": [
            {
              "internalType": "uint256",
              "name": "lowerSqrtPrice",
              "type": "uint256"
            },
            {
              "internalType": "uint256",
              "name": "upperSqrtPrice",
              "type": "uint256"
            },
            {
              "internalType": "uint256",
              "name": "deadline",
              "type": "uint256"
            }
          ],
          "internalType": "struct IStrategyVault.StrategyTradeParams",
          "name": "_tradeParams",
          "type": "tuple"
        }
      ],
      "name": "withdraw",
      "outputs": [
        {
          "internalType": "uint256",
          "name": "finalWithdrawAmount",
          "type": "uint256"
        }
      ],
      "stateMutability": "nonpayable",
      "type": "function"
    }
  ],
  "transactionHash": "0xf2e110d929faafe37048837c56b44267f8c0d2decabc13d00fa92591de2227a0",
  "args": [],
  "numDeployments": 1,
  "solcInputHash": "640fbc71553a924f292a647bb7428946",
  "bytecode": "0x608060405234801561001057600080fd5b506001606d55614976806100256000396000f3fe608060405234801561001057600080fd5b50600436106101fb5760003560e01c806370a082311161011a578063b3ab15fb116100ad578063d3f0b8c11161007c578063d3f0b8c114610409578063d4fc42c61461041c578063d56108411461042f578063dd62ed3e14610442578063f3bb05451461045557600080fd5b8063b3ab15fb146103d3578063c1e80ca5146103e6578063c2451689146103f9578063c549176e1461040157600080fd5b806395d89b41116100e957806395d89b411461039d57806398d5fdca146103a5578063a457c2d7146103ad578063a9059cbb146103c057600080fd5b806370a082311461034657806388626eb81461036f5780638b888751146103775780639598da7f1461038a57600080fd5b80632de911ca116101925780633bcec32a116101615780633bcec32a146103045780634b751ae414610317578063570ca7351461032a5780636528b5031461033d57600080fd5b80632de911ca146102c6578063313ce567146102d957806333194c0a146102e857806339509351146102f157600080fd5b80630f38066a116101ce5780630f38066a14610281578063113317e11461029457806318160ddd146102ab57806323b872dd146102b357600080fd5b8063027554111461020057806306fdde0314610215578063079cff9414610233578063095ea7b31461025e575b600080fd5b61021361020e366004613390565b610468565b005b61021d610503565b60405161022a91906133fd565b60405180910390f35b607454610246906001600160a01b031681565b6040516001600160a01b03909116815260200161022a565b61027161026c366004613410565b610595565b604051901515815260200161022a565b61021361028f3660046135da565b6105af565b61029d60715481565b60405190815260200161022a565b60355461029d565b6102716102c13660046136a5565b61077a565b61029d6102d4366004613720565b61079e565b6040516006815260200161022a565b61029d60665481565b6102716102ff366004613410565b610b7d565b610213610312366004613769565b610b9f565b610213610325366004613796565b610cf1565b606c54610246906001600160a01b031681565b61029d60705481565b61029d610354366004613390565b6001600160a01b031660009081526033602052604090205490565b610271610d78565b61029d6103853660046137f0565b610e0b565b610213610398366004613390565b610f51565b61021d610fdc565b61029d610feb565b6102716103bb366004613410565b6110ad565b6102716103ce366004613410565b611128565b6102136103e1366004613390565b611136565b61029d6103f43660046138c2565b6111c1565b61027161152c565b61029d611536565b610213610417366004613796565b6115b8565b606e54610246906001600160a01b031681565b61021361043d36600461391e565b611635565b61029d610450366004613949565b611796565b610213610463366004613982565b6117c1565b606c546001600160a01b0316331461049b5760405162461bcd60e51b8152600401610492906139b7565b60405180910390fd5b6001600160a01b0381166104ae57600080fd5b607480546001600160a01b0319166001600160a01b0383169081179091556040519081527fddccb1cfdddc43a6b06c07aa52a70f68e9eb3465e92d5105079d1e0d7923b9fa906020015b60405180910390a150565b606060368054610512906139fb565b80601f016020809104026020016040519081016040528092919081815260200182805461053e906139fb565b801561058b5780601f106105605761010080835404028352916020019161058b565b820191906000526020600020905b81548152906001019060200180831161056e57829003601f168201915b5050505050905090565b6000336105a3818585611a56565b60019150505b92915050565b600054610100900460ff16158080156105cf5750600054600160ff909116105b806105e95750303b1580156105e9575060005460ff166001145b61064c5760405162461bcd60e51b815260206004820152602e60248201527f496e697469616c697a61626c653a20636f6e747261637420697320616c72656160448201526d191e481a5b9a5d1a585b1a5e995960921b6064820152608401610492565b6000805460ff19166001179055801561066f576000805461ff0019166101001790555b61067c8786868686611b7a565b606e80546001600160a01b0319166001600160a01b0388811691909117909155670e63882d5a9584006072556202a3006073556065546040516318e8074960e01b81526001600160401b03881660048201529116906318e8074990602401602060405180830381865afa1580156106f7573d6000803e3d6000fd5b505050506040513d601f19601f8201168201806040525081019061071b9190613a35565b6001600160a01b0316607155426070558015610771576000805461ff0019169055604051600181527f7f26b83ff96e1f2b6a682f133852f6798a09c465da95921460cefb38474024989060200160405180910390a15b50505050505050565b600033610788858285611d0f565b610793858585611d83565b506001949350505050565b60006107a8611f2e565b60006107b360355490565b6107c5670de0b6b3a764000088613a68565b6107cf9190613a95565b606554606654604051632500ed8d60e21b81529293506000926001600160a01b0390921691639403b6349161080a9160040190815260200190565b600060405180830381865afa158015610827573d6000803e3d6000fd5b505050506040513d6000823e601f3d908101601f1916820160405261084f9190810190613c2c565b6065546066546069546040805160e08101909152606085015180519596506000956001600160a01b0390951694637a2b78d694936001600160401b031692918291670de0b6b3a7640000919089906108a9576108a9613d26565b602002602001015160800151600001518a6108c390613d3c565b6108cd9190613d58565b6108d79190613d88565b8152602001670de0b6b3a764000088606001516000815181106108fc576108fc613d26565b602002602001015160a00151600001518a61091690613d3c565b6109209190613d58565b61092a9190613d88565b81526020018a6000015181526020018a6020015181526020018a604001518152602001600015158152602001604051806020016040528060008152508152506040518463ffffffff1660e01b815260040161098793929190613db6565b610100604051808303816000875af11580156109a7573d6000803e3d6000fd5b505050506040513d601f19601f820116820180604052508101906109cb9190613e28565b90506000816000015160a00151826000015160800151670de0b6b3a764000086856020015187604001516109ff9190613eb4565b610a099190613d58565b610a139190613d88565b610a1d9190613eb4565b610a279190613eb4565b9050868112158015610a3a575060008712155b610a6f5760405162461bcd60e51b8152600401610492906020808252600490820152634753533360e01b604082015260600190565b610a79338a611f87565b610a85816068546120bb565b6065549095506001600160a01b03166338bb2fc8610aa287613d3c565b6040516001600160e01b031960e084901b1681526004810191909152600060248201526044016020604051808303816000875af1158015610ae7573d6000803e3d6000fd5b505050506040513d601f19601f82011682018060405250810190610b0b9190613edc565b50606754610b23906001600160a01b031689876120db565b604080518a8152602081018790526001600160a01b038a16917f490dfb4ce52333704763aee75edba596ceaab548bccafc900f79c2b9f6381b08910160405180910390a250505050610b756001606d55565b949350505050565b6000336105a3818585610b908383611796565b610b9a9190613ef5565b611a56565b606c546001600160a01b03163314610bc95760405162461bcd60e51b8152600401610492906139b7565b6065546066546069546040805160e0810182526000808252602080830189905287518385015287810151606084015287840151608084015260a083018290528351908101845290815260c08201529051633d15bc6b60e11b81526001600160a01b0390941693637a2b78d693610c4f9390926001600160401b0390911691600401613db6565b610100604051808303816000875af1158015610c6f573d6000803e3d6000fd5b505050506040513d601f19601f82011682018060405250810190610c939190613e28565b506000610c9e6121db565b905080606a6000015411158015610cb75750606b548111155b610cec5760405162461bcd60e51b81526004016104929060208082526004908201526311d4d4cd60e21b604082015260600190565b505050565b606c546001600160a01b03163314610d1b5760405162461bcd60e51b8152600401610492906139b7565b80670de0b6b3a764000011158015610d3a5750671bc16d674ec8000081105b610d4357600080fd5b60728190556040518181527f425c0b48fb561011de4986235bf0fa5b2f5e5bdd64048817337398c204fe7914906020016104f8565b6065546069546040516318e8074960e01b81526001600160401b039091166004820152600091610e06916001600160a01b03909116906318e8074990602401602060405180830381865afa158015610dd4573d6000803e3d6000fd5b505050506040513d601f19601f82011682018060405250810190610df89190613a35565b6001600160a01b031661228d565b905090565b6065546000906001600160a01b03163314610e515760405162461bcd60e51b8152600401610492906020808252600490820152634753533560e01b604082015260600190565b60008080610e6185870187613f08565b9250925092506000806000610e798a600001516122ef565b9250925092506000610e8d848489856123fc565b9050610e9b81606854612481565b606f81905590508415610eb157610eb181612490565b606754610ec9906001600160a01b03168730846124a9565b60675460655460405163095ea7b360e01b81526001600160a01b0391821660048201526024810184905291169063095ea7b3906044016020604051808303816000875af1158015610f1e573d6000803e3d6000fd5b505050506040513d601f19601f82011682018060405250810190610f429190613f55565b509a9950505050505050505050565b606c546001600160a01b03163314610f7b5760405162461bcd60e51b8152600401610492906139b7565b6001600160a01b038116610f8e57600080fd5b606e80546001600160a01b0319166001600160a01b0383169081179091556040519081527f9b5e1beb1e6649002b63d33952d5d892fecf9ccc12defdf8800f910b5ddca5a4906020016104f8565b606060378054610512906139fb565b6065546066546040516349ebb77d60e01b815260009283926001600160a01b03909116916349ebb77d916110259160040190815260200190565b6000604051808303816000875af1158015611044573d6000803e3d6000fd5b505050506040513d6000823e601f3d908101601f1916820160405261106c9190810190613f72565b9050600081602001511361108257600091505090565b603554670de0b6b3a7640000826020015161109d9190613a68565b6110a79190613a95565b91505090565b600033816110bb8286611796565b90508381101561111b5760405162461bcd60e51b815260206004820152602560248201527f45524332303a2064656372656173656420616c6c6f77616e63652062656c6f77604482015264207a65726f60d81b6064820152608401610492565b6107938286868403611a56565b6000336105a3818585611d83565b606c546001600160a01b031633146111605760405162461bcd60e51b8152600401610492906139b7565b6001600160a01b03811661117357600080fd5b606c80546001600160a01b0319166001600160a01b0383169081179091556040519081527fb3b3f5f64ab192e4b5fefde1f51ce9733bbdcf831951543b325aebd49cc27ec4906020016104f8565b60006111cb611f2e565b60006111d660355490565b1161120c5760405162461bcd60e51b8152600401610492906020808252600490820152634753533160e01b604082015260600190565b60006112208761121b60355490565b6125b3565b606554606654604051632500ed8d60e21b81529293506000926001600160a01b0390921691639403b6349161125b9160040190815260200190565b600060405180830381865afa158015611278573d6000803e3d6000fd5b505050506040513d6000823e601f3d908101601f191682016040526112a09190810190613c2c565b905060006112d48383606001516000815181106112bf576112bf613d26565b602002602001015160800151600001516125db565b905060006113088484606001516000815181106112f3576112f3613d26565b602002602001015160a00151600001516125db565b6065546066546069546040805160e08101825287815260208082018790528c51828401528c8101516060808401919091528d840151608080850191909152600160a085015284519283018d905233838601528f1515838301528451808403909201825291909101835260c08201529051633d15bc6b60e11b81529495506001600160a01b0390931693637a2b78d6936113ae93926001600160401b031691600401613db6565b610100604051808303816000875af11580156113ce573d6000803e3d6000fd5b505050506040513d601f19601f820116820180604052508101906113f29190613e28565b50606f80546000199091559450878511156114385760405162461bcd60e51b81526004016104929060208082526004908201526323a9a99960e11b604082015260600190565b611442898b612614565b606554606954604051631d591eb760e31b81526001600160401b0390911660048201526000916001600160a01b03169063eac8f5b89060240161064060405180830381865afa158015611499573d6000803e3d6000fd5b505050506040513d601f19601f820116820180604052508101906114bd91906142e5565b90506114d08160800151600001516126d5565b50604080518b8152602081018790526001600160a01b038b16917fd999b189e070b5645f3ccf74bacda045fe621081cc1767aa51b8281dbfd87d4c910160405180910390a2505050506115236001606d55565b95945050505050565b6000610e06612798565b606e54606954606654604051632440490960e21b81526001600160401b03909216600483015260248201526000916001600160a01b031690639101242490604401602060405180830381865afa158015611594573d6000803e3d6000fd5b505050506040513d601f19601f82011682018060405250810190610e069190613edc565b606c546001600160a01b031633146115e25760405162461bcd60e51b8152600401610492906139b7565b80610e10111580156115f75750621275008111155b61160057600080fd5b60738190556040518181527f8d6cb689962988c16fd239c4d075e5f95fdb46fdaf4b847a49b752f0baa12051906020016104f8565b6074546001600160a01b0316331461168f5760405162461bcd60e51b815260206004820152601960248201527f4753533a2063616c6c6572206973206e6f7420686564676572000000000000006044820152606401610492565b611697611f2e565b6065546069546040516318e8074960e01b81526001600160401b0390911660048201526000916001600160a01b0316906318e8074990602401602060405180830381865afa1580156116ed573d6000803e3d6000fd5b505050506040513d601f19601f820116820180604052508101906117119190613a35565b6001600160a01b03169050611724612798565b8061173357506117338161228d565b6117645760405162461bcd60e51b8152602060048201526002602482015261544760f01b6044820152606401610492565b61176e83836127b1565b81670de0b6b3a764000003611787576071819055426070555b506117926001606d55565b5050565b6001600160a01b03918216600090815260346020908152604080832093909416825291909152205490565b606c546001600160a01b031633146117eb5760405162461bcd60e51b8152600401610492906139b7565b6117f3611f2e565b6035541561182c5760405162461bcd60e51b8152600401610492906020808252600490820152630475353360e41b604082015260600190565b606754611844906001600160a01b03163330876124a9565b60675460655460405163095ea7b360e01b81526001600160a01b0391821660048201526024810187905291169063095ea7b3906044016020604051808303816000875af1158015611899573d6000803e3d6000fd5b505050506040513d601f19601f820116820180604052508101906118bd9190613f55565b5060655460405163071765f960e31b815260048101869052600060248201526001600160a01b03909116906338bb2fc8906044016020604051808303816000875af1158015611910573d6000803e3d6000fd5b505050506040513d601f19601f820116820180604052508101906119349190613edc565b60668190556065546069546040805160e0810182528781526020808201889052865182840152868101516060830152868301516080830152600060a0830181905283519182018452815260c08201529051633d15bc6b60e11b81526001600160a01b0390931693637a2b78d6936119bc9391926001600160401b039092169190600401613db6565b610100604051808303816000875af11580156119dc573d6000803e3d6000fd5b505050506040513d601f19601f82011682018060405250810190611a009190613e28565b50611a0b3385612614565b604080518581526020810186905233917fd999b189e070b5645f3ccf74bacda045fe621081cc1767aa51b8281dbfd87d4c910160405180910390a2611a506001606d55565b50505050565b6001600160a01b038316611ab85760405162461bcd60e51b8152602060048201526024808201527f45524332303a20617070726f76652066726f6d20746865207a65726f206164646044820152637265737360e01b6064820152608401610492565b6001600160a01b038216611b195760405162461bcd60e51b815260206004820152602260248201527f45524332303a20617070726f766520746f20746865207a65726f206164647265604482015261737360f01b6064820152608401610492565b6001600160a01b0383811660008181526034602090815260408083209487168084529482529182902085905590518481527f8c5be1e5ebec7d5bd14f71427d1e84f3dd0314c0f7b2291e5b200ac8c7c3b925910160405180910390a3505050565b600054610100900460ff16611ba15760405162461bcd60e51b815260040161049290614386565b611bab8282612986565b606580546001600160a01b0319166001600160a01b0387169081179091556069805467ffffffffffffffff19166001600160401b0387169081179091558451606a556020850151606b55604051631d591eb760e31b815260048101919091526000919063eac8f5b89060240161064060405180830381865afa158015611c35573d6000803e3d6000fd5b505050506040513d601f19601f82011682018060405250810190611c5991906142e5565b602081015151606780546001600160a01b0319166001600160a01b039283161790556065546040805163badfd66360e01b8152905193945091169163badfd663916004808201926060929091908290030181865afa158015611cbf573d6000803e3d6000fd5b505050506040513d601f19601f82011682018060405250810190611ce391906143e2565b60400151611cf290600a61450f565b6068555050606c80546001600160a01b0319163317905550505050565b6000611d1b8484611796565b90506000198114611a505781811015611d765760405162461bcd60e51b815260206004820152601d60248201527f45524332303a20696e73756666696369656e7420616c6c6f77616e63650000006044820152606401610492565b611a508484848403611a56565b6001600160a01b038316611de75760405162461bcd60e51b815260206004820152602560248201527f45524332303a207472616e736665722066726f6d20746865207a65726f206164604482015264647265737360d81b6064820152608401610492565b6001600160a01b038216611e495760405162461bcd60e51b815260206004820152602360248201527f45524332303a207472616e7366657220746f20746865207a65726f206164647260448201526265737360e81b6064820152608401610492565b6001600160a01b03831660009081526033602052604090205481811015611ec15760405162461bcd60e51b815260206004820152602660248201527f45524332303a207472616e7366657220616d6f756e7420657863656564732062604482015265616c616e636560d01b6064820152608401610492565b6001600160a01b0380851660008181526033602052604080822086860390559286168082529083902080548601905591517fddf252ad1be2c89b69c2b068fc378daa952ba7f163c4a11628f55a4df523b3ef90611f219086815260200190565b60405180910390a3611a50565b6002606d5403611f805760405162461bcd60e51b815260206004820152601f60248201527f5265656e7472616e637947756172643a207265656e7472616e742063616c6c006044820152606401610492565b6002606d55565b6001600160a01b038216611fe75760405162461bcd60e51b815260206004820152602160248201527f45524332303a206275726e2066726f6d20746865207a65726f206164647265736044820152607360f81b6064820152608401610492565b6001600160a01b0382166000908152603360205260409020548181101561205b5760405162461bcd60e51b815260206004820152602260248201527f45524332303a206275726e20616d6f756e7420657863656564732062616c616e604482015261636560f01b6064820152608401610492565b6001600160a01b03831660008181526033602090815260408083208686039055603580548790039055518581529192917fddf252ad1be2c89b69c2b068fc378daa952ba7f163c4a11628f55a4df523b3ef910160405180910390a3505050565b6000816120ca846001856129b7565b6120d49190613a68565b9392505050565b604080516001600160a01b038481166024830152604480830185905283518084039091018152606490920183526020820180516001600160e01b031663a9059cbb60e01b1790529151600092839290871691612137919061451e565b6000604051808303816000865af19150503d8060008114612174576040519150601f19603f3d011682016040523d82523d6000602084013e612179565b606091505b50915091508180156121a35750805115806121a35750808060200190518101906121a39190613f55565b6121d45760405162461bcd60e51b815260206004820152600260248201526114d560f21b6044820152606401610492565b5050505050565b6065546066546040516349ebb77d60e01b815260009283926001600160a01b03909116916349ebb77d916122159160040190815260200190565b6000604051808303816000875af1158015612234573d6000803e3d6000fd5b505050506040513d6000823e601f3d908101601f1916820160405261225c9190810190613f72565b90506110a781602001518260800151670de0b6b3a764000061227e9190613d58565b6122889190613d88565b6129d5565b600080607254670de0b6b3a76400006071546122a99190613a68565b6122b39190613a95565b90506000670de0b6b3a76400006072546071546122d09190613a68565b6122da9190613a95565b905081841080610b7557509290921092915050565b606554606654604051632500ed8d60e21b81526000928392839283926001600160a01b031691639403b6349161232c919060040190815260200190565b600060405180830381865afa158015612349573d6000803e3d6000fd5b505050506040513d6000823e601f3d908101601f191682016040526123719190810190613c2c565b90506000816060015160008151811061238c5761238c613d26565b602002602001015190508560600151866020015187600001516123af9190613eb4565b6123b99190613eb4565b94508060a00151604001518160a00151602001518260800151602001516123e09190613eb4565b6123ea9190613eb4565b93508160400151925050509193909250565b60008061244786670de0b6b3a76400008761241687612a2b565b6124209190613eb4565b61242988612a2b565b6124339190613d58565b61243d9190613d88565b612288919061453a565b905061245b84670de0b6b3a764000061455a565b61246d670de0b6b3a764000083613a68565b6124779190613a95565b9695505050505050565b6000816120ca84600185612a95565b6020518181526000602082015260006040820152606081fd5b604080516001600160a01b0385811660248301528481166044830152606480830185905283518084039091018152608490920183526020820180516001600160e01b03166323b872dd60e01b179052915160009283929088169161250d919061451e565b6000604051808303816000865af19150503d806000811461254a576040519150601f19603f3d011682016040523d82523d6000602084013e61254f565b606091505b50915091508180156125795750805115806125795750808060200190518101906125799190613f55565b6125ab5760405162461bcd60e51b815260206004820152600360248201526229aa2360e91b6044820152606401610492565b505050505050565b60006125bf8383613ef5565b6125d1670de0b6b3a764000085613a68565b6120d49190613a95565b60006125f76125f284670de0b6b3a764000061455a565b612a2b565b61260084612a2b565b61260a9084613d58565b6120d49190613d88565b6001600160a01b03821661266a5760405162461bcd60e51b815260206004820152601f60248201527f45524332303a206d696e7420746f20746865207a65726f2061646472657373006044820152606401610492565b806035600082825461267c9190613ef5565b90915550506001600160a01b0382166000818152603360209081526040808320805486019055518481527fddf252ad1be2c89b69c2b068fc378daa952ba7f163c4a11628f55a4df523b3ef910160405180910390a35050565b60006126e082612abb565b905060006126ed83612ad0565b6001600160a01b0316905080612708613086620f4240613ef5565b61271584620f424061456d565b6001600160a01b03166127289190613a95565b111580156127625750620f424061274161308682613ef5565b612754906001600160a01b038516613a68565b61275e9190613a95565b8111155b610cec5760405162461bcd60e51b815260206004820152600760248201526614db1a5c1c195960ca1b6044820152606401610492565b6000426073546070546127ab9190613ef5565b10905090565b670de0b6b3a76400008111156127c657600080fd5b606e54606954606654604051632440490960e21b81526001600160401b0390921660048301526024820152600091670de0b6b3a76400009184916001600160a01b031690639101242490604401602060405180830381865afa158015612830573d6000803e3d6000fd5b505050506040513d601f19601f820116820180604052508101906128549190613edc565b61285e9190613d58565b6128689190613d88565b6065546066546069546040805160e081019091529394506001600160a01b0390921692637a2b78d6926001600160401b031690806128a587613d3c565b815260200160008152602001886000015181526020018860200151815260200188604001518152602001600015158152602001604051806020016040528060008152508152506040518463ffffffff1660e01b815260040161290993929190613db6565b610100604051808303816000875af1158015612929573d6000803e3d6000fd5b505050506040513d601f19601f8201168201806040525081019061294d9190613e28565b506040518181527f15305f1a00bd5019fe8d51ce959229208db3a992ed74449d793f55a67113156c9060200160405180910390a1505050565b600054610100900460ff166129ad5760405162461bcd60e51b815260040161049290614386565b6117928282612b41565b60008260001904841183021582026129ce57600080fd5b5091020490565b600080821215612a275760405162461bcd60e51b815260206004820181905260248201527f53616665436173743a2076616c7565206d75737420626520706f7369746976656044820152606401610492565b5090565b60006001600160ff1b03821115612a275760405162461bcd60e51b815260206004820152602860248201527f53616665436173743a2076616c756520646f65736e27742066697420696e2061604482015267371034b73a191a9b60c11b6064820152608401610492565b6000826000190484118302158202612aac57600080fd5b50910281810615159190040190565b6000612ac982610708612b81565b5092915050565b6000816001600160a01b0316633850c7bd6040518163ffffffff1660e01b815260040160e060405180830381865afa158015612b10573d6000803e3d6000fd5b505050506040513d601f19601f82011682018060405250810190612b3491906145b1565b5094979650505050505050565b600054610100900460ff16612b685760405162461bcd60e51b815260040161049290614386565b6036612b748382614683565b506037610cec8282614683565b6040805160028082526060820183526000928392839290916020830190803683370190505090508381600081518110612bbc57612bbc613d26565b602002602001019063ffffffff16908163ffffffff1681525050600081600181518110612beb57612beb613d26565b602002602001019063ffffffff16908163ffffffff1681525050600080866001600160a01b031663883bdbfd60e01b84604051602401612c2b9190614742565b60408051601f198184030181529181526020820180516001600160e01b03166001600160e01b0319909416939093179092529051612c69919061451e565b600060405180830381855afa9150503d8060008114612ca4576040519150601f19603f3d011682016040523d82523d6000602084013e612ca9565b606091505b509150915081612f895760405160206024820152600360448201526213d31160ea1b606482015260840160408051601f19818403018152919052602080820180516001600160e01b031662461bcd60e51b178152915190912082519183019190912014612d1957612d198161300e565b600080886001600160a01b0316633850c7bd6040518163ffffffff1660e01b815260040160e060405180830381865afa158015612d5a573d6000803e3d6000fd5b505050506040513d601f19601f82011682018060405250810190612d7e91906145b1565b5050509350935050506000808a6001600160a01b031663252c09d784866001612da7919061478c565b612db191906147a7565b6040516001600160e01b031960e084901b16815261ffff9091166004820152602401608060405180830381865afa158015612df0573d6000803e3d6000fd5b505050506040513d601f19601f82011682018060405250810190612e1491906147da565b93505050915080612e8f5760405163252c09d760e01b8152600060048201526001600160a01b038c169063252c09d790602401608060405180830381865afa158015612e64573d6000803e3d6000fd5b505050506040513d601f19601f82011682018060405250810190612e8891906147da565b5091935050505b612e9f63ffffffff83164261455a565b99508987600081518110612eb557612eb5613d26565b602002602001019063ffffffff16908163ffffffff16815250508a6001600160a01b031663883bdbfd60e01b88604051602401612ef29190614742565b60408051601f198184030181529181526020820180516001600160e01b03166001600160e01b0319909416939093179092529051612f30919061451e565b600060405180830381855afa9150503d8060008114612f6b576040519150601f19603f3d011682016040523d82523d6000602084013e612f70565b606091505b50909650945085612f8457612f848561300e565b505050505b600081806020019051810190612f9f919061483e565b905060008782600081518110612fb757612fb7613d26565b602002602001015183600181518110612fd257612fd2613d26565b6020026020010151612fe491906148d5565b612fee9190614902565b90506000612ffb82613055565b97508896505050505050505b9250929050565b80511561301d57805181602001fd5b60405162461bcd60e51b815260206004820152600d60248201526c3297b2b6b83a3c96b2b93937b960991b6044820152606401610492565b60008060008360020b1261306c578260020b613074565b8260020b6000035b9050620d89e881111561309a576040516315e4079d60e11b815260040160405180910390fd5b6000816001166000036130b157600160801b6130c3565b6ffffcb933bd6fad37aa2d162d1a5940015b70ffffffffffffffffffffffffffffffffff16905060028216156130f7576ffff97272373d413259a46990580e213a0260801c5b6004821615613116576ffff2e50f5f656932ef12357cf3c7fdcc0260801c5b6008821615613135576fffe5caca7e10e4e61c3624eaa0941cd00260801c5b6010821615613154576fffcb9843d60f6159c9db58835c9266440260801c5b6020821615613173576fff973b41fa98c081472e6896dfb254c00260801c5b6040821615613192576fff2ea16466c96a3843ec78b326b528610260801c5b60808216156131b1576ffe5dee046a99a2a811c461f1969c30530260801c5b6101008216156131d1576ffcbe86c7900a88aedcffc83b479aa3a40260801c5b6102008216156131f1576ff987a7253ac413176f2b074cf7815e540260801c5b610400821615613211576ff3392b0822b70005940c7a398e4b70f30260801c5b610800821615613231576fe7159475a2c29b7443b29c7fa6e889d90260801c5b611000821615613251576fd097f3bdfd2022b8845ad8f792aa58250260801c5b612000821615613271576fa9f746462d870fdf8a65dc1f90e061e50260801c5b614000821615613291576f70d869a156d2a1b890bb3df62baf32f70260801c5b6180008216156132b1576f31be135f97d08fd981231505542fcfa60260801c5b620100008216156132d2576f09aa508b5b7a84e1c677de54f3e99bc90260801c5b620200008216156132f2576e5d6af8dedb81196699c329225ee6040260801c5b62040000821615613311576d2216e584f5fa1ea926041bedfe980260801c5b6208000082161561332e576b048a170391f7dc42444e8fa20260801c5b60008460020b131561334f57806000198161334b5761334b613a7f565b0490505b640100000000810615613363576001613366565b60005b60ff16602082901c0192505050919050565b6001600160a01b038116811461338d57600080fd5b50565b6000602082840312156133a257600080fd5b81356120d481613378565b60005b838110156133c85781810151838201526020016133b0565b50506000910152565b600081518084526133e98160208601602086016133ad565b601f01601f19169290920160200192915050565b6020815260006120d460208301846133d1565b6000806040838503121561342357600080fd5b823561342e81613378565b946020939093013593505050565b6001600160401b038116811461338d57600080fd5b634e487b7160e01b600052604160045260246000fd5b604080519081016001600160401b038111828210171561348957613489613451565b60405290565b604051606081016001600160401b038111828210171561348957613489613451565b60405160c081016001600160401b038111828210171561348957613489613451565b60405161010081016001600160401b038111828210171561348957613489613451565b604051608081016001600160401b038111828210171561348957613489613451565b60405161022081016001600160401b038111828210171561348957613489613451565b604051601f8201601f191681016001600160401b038111828210171561356357613563613451565b604052919050565b600082601f83011261357c57600080fd5b81356001600160401b0381111561359557613595613451565b6135a8601f8201601f191660200161353b565b8181528460208386010111156135bd57600080fd5b816020850160208301376000918101602001919091529392505050565b60008060008060008086880360e08112156135f457600080fd5b87356135ff81613378565b9650602088013561360f81613378565b9550604088013561361f8161343c565b94506040605f198201121561363357600080fd5b5061363c613467565b6060880135815260808801356020820152925060a08701356001600160401b038082111561366957600080fd5b6136758a838b0161356b565b935060c089013591508082111561368b57600080fd5b5061369889828a0161356b565b9150509295509295509295565b6000806000606084860312156136ba57600080fd5b83356136c581613378565b925060208401356136d581613378565b929592945050506040919091013590565b6000606082840312156136f857600080fd5b61370061348f565b905081358152602082013560208201526040820135604082015292915050565b60008060008060c0858703121561373657600080fd5b84359350602085013561374881613378565b92506040850135915061375e86606087016136e6565b905092959194509250565b6000806080838503121561377c57600080fd5b8235915061378d84602085016136e6565b90509250929050565b6000602082840312156137a857600080fd5b5035919050565b60008083601f8401126137c157600080fd5b5081356001600160401b038111156137d857600080fd5b60208301915083602082850101111561300757600080fd5b600080600083850361012081121561380757600080fd5b6101008082121561381757600080fd5b61381f61348f565b60c083121561382d57600080fd5b6138356134b1565b87358152602080890135818301526040808a0135818401526060808b0135908401526080808b01359084015260a0808b01359084015291835260c08901359083015260e088013590820152945085013590506001600160401b0381111561389b57600080fd5b6138a7868287016137af565b9497909650939450505050565b801515811461338d57600080fd5b600080600080600060e086880312156138da57600080fd5b8535945060208601356138ec81613378565b9350604086013592506060860135613903816138b4565b915061391287608088016136e6565b90509295509295909350565b6000806080838503121561393157600080fd5b61393b84846136e6565b946060939093013593505050565b6000806040838503121561395c57600080fd5b823561396781613378565b9150602083013561397781613378565b809150509250929050565b60008060008060c0858703121561399857600080fd5b84359350602085013592506040850135915061375e86606087016136e6565b60208082526024908201527f4261736553747261746567793a2063616c6c6572206973206e6f74206f70657260408201526330ba37b960e11b606082015260800190565b600181811c90821680613a0f57607f821691505b602082108103613a2f57634e487b7160e01b600052602260045260246000fd5b50919050565b600060208284031215613a4757600080fd5b81516120d481613378565b634e487b7160e01b600052601160045260246000fd5b80820281158282048414176105a9576105a9613a52565b634e487b7160e01b600052601260045260246000fd5b600082613aa457613aa4613a7f565b500490565b8051613ab481613378565b919050565b60006001600160401b03821115613ad257613ad2613451565b5060051b60200190565b8051613ab48161343c565b8051600281900b8114613ab457600080fd5b600060408284031215613b0b57600080fd5b613b13613467565b9050815181526020820151602082015292915050565b600060c08284031215613b3b57600080fd5b613b436134b1565b9050815181526020820151602082015260408201516040820152606082015160608201526080820151608082015260a082015160a082015292915050565b60006102008284031215613b9457600080fd5b613b9c6134d3565b9050613ba782613adc565b8152613bb560208301613ae7565b6020820152613bc660408301613ae7565b6040820152613bd760608301613adc565b6060820152613be98360808401613af9565b6080820152613bfb8360c08401613b29565b60a0820152613c0e836101808401613af9565b60c0820152613c21836101c08401613af9565b60e082015292915050565b60006020808385031215613c3f57600080fd5b82516001600160401b0380821115613c5657600080fd5b9084019060808287031215613c6a57600080fd5b613c726134f6565b8251815283830151613c8381613378565b8185015260408381015190820152606083015182811115613ca357600080fd5b80840193505086601f840112613cb857600080fd5b82519150613ccd613cc883613ab9565b61353b565b82815260099290921b83018401918481019088841115613cec57600080fd5b938501935b83851015613d1657613d038986613b81565b8252858201915061020085019450613cf1565b6060830152509695505050505050565b634e487b7160e01b600052603260045260246000fd5b6000600160ff1b8201613d5157613d51613a52565b5060000390565b80820260008212600160ff1b84141615613d7457613d74613a52565b81810583148215176105a9576105a9613a52565b600082613d9757613d97613a7f565b600160ff1b821460001984141615613db157613db1613a52565b500590565b8381526001600160401b0383166020820152606060408201528151606082015260208201516080820152604082015160a0820152606082015160c0820152608082015160e082015260a08201511515610100820152600060c083015160e06101208401526124776101408401826133d1565b6000818303610100811215613e3c57600080fd5b613e4461348f565b60c0821215613e5257600080fd5b613e5a6134b1565b9150835182526020840151602083015260408401516040830152606084015160608301526080840151608083015260a084015160a083015281815260c0840151602082015260e08401516040820152809250505092915050565b8082018281126000831280158216821582161715613ed457613ed4613a52565b505092915050565b600060208284031215613eee57600080fd5b5051919050565b808201808211156105a9576105a9613a52565b600080600060608486031215613f1d57600080fd5b833592506020840135613f2f81613378565b91506040840135613f3f816138b4565b809150509250925092565b8051613ab4816138b4565b600060208284031215613f6757600080fd5b81516120d4816138b4565b60006020808385031215613f8557600080fd5b82516001600160401b0380821115613f9c57600080fd5b9084019060c08287031215613fb057600080fd5b613fb86134b1565b82518152838301518482015260408084015181830152606080850151818401526080850151608084015260a085015184811115613ff457600080fd5b80860195505088601f86011261400957600080fd5b84519350614019613cc885613ab9565b848152610260948502860187019487820191908b87111561403957600080fd5b968801965b868810156140955780888d0312156140565760008081fd5b61405e6134f6565b8851815261406e8d8b8b01613b81565b818b015261022089015186820152610240890151858201528352968701969188019161403e565b5060a0850152509198975050505050505050565b6000608082840312156140bb57600080fd5b6140c36134f6565b90508151815260208201516020820152604082015160408201526060820151606082015292915050565b600081830361018081121561410157600080fd5b6141096134f6565b9150825161411681613378565b8252602083015161412681613378565b602083015260c0603f198201121561413d57600080fd5b506141466134b1565b60408301518152606083015160208201526080830151604082015260a0830151606082015260c0830151608082015260e083015160a0820152806040830152506141948361010084016140a9565b606082015292915050565b6000606082840312156141b157600080fd5b6141b961348f565b9050815181526141cb60208301613ae7565b60208201526141dc60408301613ae7565b604082015292915050565b600061026082840312156141fa57600080fd5b614202613518565b905061420d82613aa9565b815261421b60208301613ae7565b602082015261422c60408301613ae7565b604082015261423d60608301613adc565b60608201526080828101519082015260a0808301519082015260c0808301519082015260e08083015190820152610100808301519082015261012080830151908201526101408083015190820152610160808301519082015261018080830151908201526101a06142b084828501613af9565b908201526101e06142c384848301613af9565b6101c08301526102208301519082015261024090910151610200820152919050565b600061064082840312156142f857600080fd5b6143006134d3565b8251815261431184602085016140ed565b6020820152614324846101a085016140ed565b604082015261433784610320850161419f565b606082015261434a8461038085016141e7565b608082015261435c6105e08401613f4a565b60a082015261436e6106008401613f4a565b60c0820152610620929092015160e083015250919050565b6020808252602b908201527f496e697469616c697a61626c653a20636f6e7472616374206973206e6f74206960408201526a6e697469616c697a696e6760a81b606082015260800190565b805160ff81168114613ab457600080fd5b6000606082840312156143f457600080fd5b6143fc61348f565b825161440781613378565b81526020838101519082015261441f604084016143d1565b60408201529392505050565b600181815b8085111561446657816000190482111561444c5761444c613a52565b8085161561445957918102915b93841c9390800290614430565b509250929050565b60008261447d575060016105a9565b8161448a575060006105a9565b81600181146144a057600281146144aa576144c6565b60019150506105a9565b60ff8411156144bb576144bb613a52565b50506001821b6105a9565b5060208310610133831016604e8410600b84101617156144e9575081810a6105a9565b6144f3838361442b565b806000190482111561450757614507613a52565b029392505050565b60006120d460ff84168361446e565b600082516145308184602087016133ad565b9190910192915050565b8181036000831280158383131683831282161715612ac957612ac9613a52565b818103818111156105a9576105a9613a52565b6001600160a01b0382811682821681810283169291811582850482141761459657614596613a52565b50505092915050565b805161ffff81168114613ab457600080fd5b600080600080600080600060e0888a0312156145cc57600080fd5b87516145d781613378565b96506145e560208901613ae7565b95506145f36040890161459f565b94506146016060890161459f565b935061460f6080890161459f565b925061461d60a089016143d1565b915060c088015161462d816138b4565b8091505092959891949750929550565b601f821115610cec57600081815260208120601f850160051c810160208610156146645750805b601f850160051c820191505b818110156125ab57828155600101614670565b81516001600160401b0381111561469c5761469c613451565b6146b0816146aa84546139fb565b8461463d565b602080601f8311600181146146e557600084156146cd5750858301515b600019600386901b1c1916600185901b1785556125ab565b600085815260208120601f198616915b82811015614714578886015182559484019460019091019084016146f5565b50858210156147325787850151600019600388901b60f8161c191681555b5050505050600190811b01905550565b6020808252825182820181905260009190848201906040850190845b8181101561478057835163ffffffff168352928401929184019160010161475e565b50909695505050505050565b61ffff818116838216019080821115612ac957612ac9613a52565b600061ffff808416806147bc576147bc613a7f565b92169190910692915050565b8051600681900b8114613ab457600080fd5b600080600080608085870312156147f057600080fd5b845163ffffffff8116811461480457600080fd5b9350614812602086016147c8565b9250604085015161482281613378565b6060860151909250614833816138b4565b939692955090935050565b6000602080838503121561485157600080fd5b82516001600160401b0381111561486757600080fd5b8301601f8101851361487857600080fd5b8051614886613cc882613ab9565b81815260059190911b820183019083810190878311156148a557600080fd5b928401925b828410156148ca576148bb846147c8565b825292840192908401906148aa565b979650505050505050565b600682810b9082900b03667fffffffffffff198112667fffffffffffff821317156105a9576105a9613a52565b60008160060b8360060b8061491957614919613a7f565b667fffffffffffff1982146000198214161561493757614937613a52565b9005939250505056fea264697066735822122073b6757d00c228890d279493ef4ee1172a9bffd1ce6640ab0ec7a899545cac0164736f6c63430008130033",
  "devdoc": {
    "events": {
      "Approval(address,address,uint256)": {
        "details": "Emitted when the allowance of a `spender` for an `owner` is set by a call to {approve}. `value` is the new allowance."
      },
      "Initialized(uint8)": {
        "details": "Triggered when the contract has been initialized or reinitialized."
      },
      "Transfer(address,address,uint256)": {
        "details": "Emitted when `value` tokens are moved from one account (`from`) to another (`to`). Note that `value` may be zero."
      }
    },
    "kind": "dev",
    "methods": {
      "allowance(address,address)": {
        "details": "See {IERC20-allowance}."
      },
      "approve(address,uint256)": {
        "details": "See {IERC20-approve}. NOTE: If `amount` is the maximum `uint256`, the allowance is not updated on `transferFrom`. This is semantically equivalent to an infinite approval. Requirements: - `spender` cannot be the zero address."
      },
      "balanceOf(address)": {
        "details": "See {IERC20-balanceOf}."
      },
      "decimals()": {
        "details": "Returns the number of decimals used to get its user representation. For example, if `decimals` equals `2`, a balance of `505` tokens should be displayed to a user as `5.05` (`505 / 10 ** 2`). Tokens usually opt for a value of 18, imitating the relationship between Ether and Wei. This is the value {ERC20} uses, unless this function is overridden; NOTE: This information is only used for _display_ purposes: it in no way affects any of the arithmetic of the contract, including {IERC20-balanceOf} and {IERC20-transfer}."
      },
      "decreaseAllowance(address,uint256)": {
        "details": "Atomically decreases the allowance granted to `spender` by the caller. This is an alternative to {approve} that can be used as a mitigation for problems described in {IERC20-approve}. Emits an {Approval} event indicating the updated allowance. Requirements: - `spender` cannot be the zero address. - `spender` must have allowance for the caller of at least `subtractedValue`."
      },
      "deposit(uint256,address,uint256,bool,(uint256,uint256,uint256))": {
        "params": {
          "_maxDepositAmount": "maximum USDC amount that caller deposits",
          "_recepient": "recepient address of strategy token",
          "_strategyTokenAmount": "strategy token amount to mint",
          "_tradeParams": "trade parameters",
          "isQuoteMode": "is quote mode or not"
        },
        "returns": {
          "finalDepositMargin": "USDC amount that caller actually deposits"
        }
      },
      "depositForPositionInitialization(uint256,int256,int256,(uint256,uint256,uint256))": {
        "details": "The function can be called by owner.",
        "params": {
          "_initialMarginAmount": "initial margin amount",
          "_initialPerpAmount": "initial perp amount",
          "_initialSquartAmount": "initial squart amount",
          "_tradeParams": "trade parameters"
        }
      },
      "execDeltaHedge((uint256,uint256,uint256),uint256)": {
        "params": {
          "_tradeParams": "Trade parameters for Predy contract"
        }
      },
      "getPrice()": {
        "details": "The function should not be called on chain."
      },
      "increaseAllowance(address,uint256)": {
        "details": "Atomically increases the allowance granted to `spender` by the caller. This is an alternative to {approve} that can be used as a mitigation for problems described in {IERC20-approve}. Emits an {Approval} event indicating the updated allowance. Requirements: - `spender` cannot be the zero address."
      },
      "name()": {
        "details": "Returns the name of the token."
      },
      "predyTradeCallback(((int256,int256,int256,int256,int256,int256),int256,int256),bytes)": {
        "details": "Callback for Predy Controller"
      },
      "setHedger(address)": {
        "details": "Only operator can call this function.",
        "params": {
          "_newHedger": "The address of new hedger"
        }
      },
      "setOperator(address)": {
        "details": "Only operator can call this function.",
        "params": {
          "_newOperator": "The address of new operator"
        }
      },
      "symbol()": {
        "details": "Returns the symbol of the token, usually a shorter version of the name."
      },
      "totalSupply()": {
        "details": "See {IERC20-totalSupply}."
      },
      "transfer(address,uint256)": {
        "details": "See {IERC20-transfer}. Requirements: - `to` cannot be the zero address. - the caller must have a balance of at least `amount`."
      },
      "transferFrom(address,address,uint256)": {
        "details": "See {IERC20-transferFrom}. Emits an {Approval} event indicating the updated allowance. This is not required by the EIP. See the note at the beginning of {ERC20}. NOTE: Does not update the allowance if the current allowance is the maximum `uint256`. Requirements: - `from` and `to` cannot be the zero address. - `from` must have a balance of at least `amount`. - the caller must have allowance for ``from``'s tokens of at least `amount`."
      },
      "updateGamma(int256,(uint256,uint256,uint256))": {
        "params": {
          "_squartAmount": "squart amount",
          "_tradeParams": "trade parameters"
        }
      },
      "updateHedgeInterval(uint256)": {
        "params": {
          "_hedgeInterval": "New interval"
        }
      },
      "updateHedgePriceThreshold(uint256)": {
        "params": {
          "_newSqrtPriceThreshold": "New square root price threshold"
        }
      },
      "withdraw(uint256,address,int256,(uint256,uint256,uint256))": {
        "params": {
          "_minWithdrawAmount": "minimum USDC amount that caller deposits",
          "_recepient": "recepient address of stable token",
          "_tradeParams": "trade parameters",
          "_withdrawStrategyAmount": "strategy token amount to burn"
        },
        "returns": {
          "finalWithdrawAmount": "USDC amount that caller actually withdraws"
        }
      }
    },
    "version": 1
  },
  "userdoc": {
    "kind": "user",
    "methods": {
      "deposit(uint256,address,uint256,bool,(uint256,uint256,uint256))": {
        "notice": "Deposits margin and mints strategy token."
      },
      "depositForPositionInitialization(uint256,int256,int256,(uint256,uint256,uint256))": {
        "notice": "deposit for the position initialization"
      },
      "execDeltaHedge((uint256,uint256,uint256),uint256)": {
        "notice": "Hedger can call the delta hedging function if the price has changed by a set ratio from the last price at the hedging or time has elapsed by a set interval since the last hedge time."
      },
      "getPrice()": {
        "notice": "Gets price of strategy token by USDC."
      },
      "setHedger(address)": {
        "notice": "Sets new hedger address"
      },
      "setOperator(address)": {
        "notice": "Sets new operator"
      },
      "updateGamma(int256,(uint256,uint256,uint256))": {
        "notice": "Changes gamma size per share."
      },
      "updateHedgeInterval(uint256)": {
        "notice": "Updates interval for delta hedging."
      },
      "updateHedgePriceThreshold(uint256)": {
        "notice": "Updates price threshold for delta hedging."
      },
      "withdraw(uint256,address,int256,(uint256,uint256,uint256))": {
        "notice": "Withdraws margin and burns strategy token."
      }
    },
    "notice": "Error Codes GSS0: already initialized GSS1: not initialized GSS2: required margin amount must be less than maximum GSS3: withdrawn margin amount must be greater than minimum GSS4: invalid leverage GSS5: caller must be Controller",
    "version": 1
  },
  "storageLayout": {
    "storage": [
      {
        "astId": 6,
        "contract": "src/strategy/GammaShortStrategy.sol:GammaShortStrategy",
        "label": "_initialized",
        "offset": 0,
        "slot": "0",
        "type": "t_uint8"
      },
      {
        "astId": 9,
        "contract": "src/strategy/GammaShortStrategy.sol:GammaShortStrategy",
        "label": "_initializing",
        "offset": 1,
        "slot": "0",
        "type": "t_bool"
      },
      {
        "astId": 1208,
        "contract": "src/strategy/GammaShortStrategy.sol:GammaShortStrategy",
        "label": "__gap",
        "offset": 0,
        "slot": "1",
        "type": "t_array(t_uint256)50_storage"
      },
      {
        "astId": 187,
        "contract": "src/strategy/GammaShortStrategy.sol:GammaShortStrategy",
        "label": "_balances",
        "offset": 0,
        "slot": "51",
        "type": "t_mapping(t_address,t_uint256)"
      },
      {
        "astId": 193,
        "contract": "src/strategy/GammaShortStrategy.sol:GammaShortStrategy",
        "label": "_allowances",
        "offset": 0,
        "slot": "52",
        "type": "t_mapping(t_address,t_mapping(t_address,t_uint256))"
      },
      {
        "astId": 195,
        "contract": "src/strategy/GammaShortStrategy.sol:GammaShortStrategy",
        "label": "_totalSupply",
        "offset": 0,
        "slot": "53",
        "type": "t_uint256"
      },
      {
        "astId": 197,
        "contract": "src/strategy/GammaShortStrategy.sol:GammaShortStrategy",
        "label": "_name",
        "offset": 0,
        "slot": "54",
        "type": "t_string_storage"
      },
      {
        "astId": 199,
        "contract": "src/strategy/GammaShortStrategy.sol:GammaShortStrategy",
        "label": "_symbol",
        "offset": 0,
        "slot": "55",
        "type": "t_string_storage"
      },
      {
        "astId": 779,
        "contract": "src/strategy/GammaShortStrategy.sol:GammaShortStrategy",
        "label": "__gap",
        "offset": 0,
        "slot": "56",
        "type": "t_array(t_uint256)45_storage"
      },
      {
        "astId": 18931,
        "contract": "src/strategy/GammaShortStrategy.sol:GammaShortStrategy",
        "label": "controller",
        "offset": 0,
        "slot": "101",
        "type": "t_contract(IController)7564"
      },
      {
        "astId": 18933,
        "contract": "src/strategy/GammaShortStrategy.sol:GammaShortStrategy",
        "label": "vaultId",
        "offset": 0,
        "slot": "102",
        "type": "t_uint256"
      },
      {
        "astId": 18935,
        "contract": "src/strategy/GammaShortStrategy.sol:GammaShortStrategy",
        "label": "usdc",
        "offset": 0,
        "slot": "103",
        "type": "t_address"
      },
      {
        "astId": 18937,
        "contract": "src/strategy/GammaShortStrategy.sol:GammaShortStrategy",
        "label": "marginRoundedScaler",
        "offset": 0,
        "slot": "104",
        "type": "t_uint256"
      },
      {
        "astId": 18939,
        "contract": "src/strategy/GammaShortStrategy.sol:GammaShortStrategy",
        "label": "pairId",
        "offset": 0,
        "slot": "105",
        "type": "t_uint64"
      },
      {
        "astId": 18942,
        "contract": "src/strategy/GammaShortStrategy.sol:GammaShortStrategy",
        "label": "minPerValueLimit",
        "offset": 0,
        "slot": "106",
        "type": "t_struct(MinPerValueLimit)18928_storage"
      },
      {
        "astId": 18944,
        "contract": "src/strategy/GammaShortStrategy.sol:GammaShortStrategy",
        "label": "operator",
        "offset": 0,
        "slot": "108",
        "type": "t_address"
      },
      {
        "astId": 1389,
        "contract": "src/strategy/GammaShortStrategy.sol:GammaShortStrategy",
        "label": "_status",
        "offset": 0,
        "slot": "109",
        "type": "t_uint256"
      },
      {
        "astId": 17531,
        "contract": "src/strategy/GammaShortStrategy.sol:GammaShortStrategy",
        "label": "reader",
        "offset": 0,
        "slot": "110",
        "type": "t_contract(Reader)7500"
      },
      {
        "astId": 17543,
        "contract": "src/strategy/GammaShortStrategy.sol:GammaShortStrategy",
        "label": "finalDepositAmountCached",
        "offset": 0,
        "slot": "111",
        "type": "t_uint256"
      },
      {
        "astId": 17545,
        "contract": "src/strategy/GammaShortStrategy.sol:GammaShortStrategy",
        "label": "lastHedgeTimestamp",
        "offset": 0,
        "slot": "112",
        "type": "t_uint256"
      },
      {
        "astId": 17547,
        "contract": "src/strategy/GammaShortStrategy.sol:GammaShortStrategy",
        "label": "lastHedgePrice",
        "offset": 0,
        "slot": "113",
        "type": "t_uint256"
      },
      {
        "astId": 17549,
        "contract": "src/strategy/GammaShortStrategy.sol:GammaShortStrategy",
        "label": "hedgeSqrtPriceThreshold",
        "offset": 0,
        "slot": "114",
        "type": "t_uint256"
      },
      {
        "astId": 17551,
        "contract": "src/strategy/GammaShortStrategy.sol:GammaShortStrategy",
        "label": "hedgeInterval",
        "offset": 0,
        "slot": "115",
        "type": "t_uint256"
      },
      {
        "astId": 17553,
        "contract": "src/strategy/GammaShortStrategy.sol:GammaShortStrategy",
        "label": "hedger",
        "offset": 0,
        "slot": "116",
        "type": "t_address"
      }
    ],
    "types": {
      "t_address": {
        "encoding": "inplace",
        "label": "address",
        "numberOfBytes": "20"
      },
      "t_array(t_uint256)45_storage": {
        "base": "t_uint256",
        "encoding": "inplace",
        "label": "uint256[45]",
        "numberOfBytes": "1440"
      },
      "t_array(t_uint256)50_storage": {
        "base": "t_uint256",
        "encoding": "inplace",
        "label": "uint256[50]",
        "numberOfBytes": "1600"
      },
      "t_bool": {
        "encoding": "inplace",
        "label": "bool",
        "numberOfBytes": "1"
      },
      "t_contract(IController)7564": {
        "encoding": "inplace",
        "label": "contract IController",
        "numberOfBytes": "20"
      },
      "t_contract(Reader)7500": {
        "encoding": "inplace",
        "label": "contract Reader",
        "numberOfBytes": "20"
      },
      "t_mapping(t_address,t_mapping(t_address,t_uint256))": {
        "encoding": "mapping",
        "key": "t_address",
        "label": "mapping(address => mapping(address => uint256))",
        "numberOfBytes": "32",
        "value": "t_mapping(t_address,t_uint256)"
      },
      "t_mapping(t_address,t_uint256)": {
        "encoding": "mapping",
        "key": "t_address",
        "label": "mapping(address => uint256)",
        "numberOfBytes": "32",
        "value": "t_uint256"
      },
      "t_string_storage": {
        "encoding": "bytes",
        "label": "string",
        "numberOfBytes": "32"
      },
      "t_struct(MinPerValueLimit)18928_storage": {
        "encoding": "inplace",
        "label": "struct BaseStrategy.MinPerValueLimit",
        "members": [
          {
            "astId": 18925,
            "contract": "src/strategy/GammaShortStrategy.sol:GammaShortStrategy",
            "label": "lower",
            "offset": 0,
            "slot": "0",
            "type": "t_uint256"
          },
          {
            "astId": 18927,
            "contract": "src/strategy/GammaShortStrategy.sol:GammaShortStrategy",
            "label": "upper",
            "offset": 0,
            "slot": "1",
            "type": "t_uint256"
          }
        ],
        "numberOfBytes": "64"
      },
      "t_uint256": {
        "encoding": "inplace",
        "label": "uint256",
        "numberOfBytes": "32"
      },
      "t_uint64": {
        "encoding": "inplace",
        "label": "uint64",
        "numberOfBytes": "8"
      },
      "t_uint8": {
        "encoding": "inplace",
        "label": "uint8",
        "numberOfBytes": "1"
      }
    }
  }
}