{
  "address": "0x1a041774bcC357D58881A333EC4e85d0936E86aC",
  "abi": [
    {
      "inputs": [],
      "stateMutability": "nonpayable",
      "type": "constructor"
    },
    {
      "inputs": [],
      "name": "T",
      "type": "error"
    },
    {
      "anonymous": false,
      "inputs": [
        {
          "indexed": false,
          "internalType": "uint256",
          "name": "stableAssetId",
          "type": "uint256"
        },
        {
          "indexed": false,
          "internalType": "uint256[]",
          "name": "assetIds",
          "type": "uint256[]"
        }
      ],
      "name": "AssetGroupInitialized",
      "type": "event"
    },
    {
      "anonymous": false,
      "inputs": [
        {
          "indexed": false,
          "internalType": "uint256",
          "name": "assetId",
          "type": "uint256"
        },
        {
          "components": [
            {
              "internalType": "uint256",
              "name": "riskRatio",
              "type": "uint256"
            },
            {
              "internalType": "int24",
              "name": "rangeSize",
              "type": "int24"
            },
            {
              "internalType": "int24",
              "name": "rebalanceThreshold",
              "type": "int24"
            }
          ],
          "indexed": false,
          "internalType": "struct DataType.AssetRiskParams",
          "name": "riskParams",
          "type": "tuple"
        }
      ],
      "name": "AssetRiskParamsUpdated",
      "type": "event"
    },
    {
      "anonymous": false,
      "inputs": [
        {
          "indexed": false,
          "internalType": "uint256",
          "name": "assetId",
          "type": "uint256"
        },
        {
          "components": [
            {
              "internalType": "uint256",
              "name": "baseRate",
              "type": "uint256"
            },
            {
              "internalType": "uint256",
              "name": "kinkRate",
              "type": "uint256"
            },
            {
              "internalType": "uint256",
              "name": "slope1",
              "type": "uint256"
            },
            {
              "internalType": "uint256",
              "name": "slope2",
              "type": "uint256"
            }
          ],
          "indexed": false,
          "internalType": "struct InterestRateModel.IRMParams",
          "name": "irmParams",
          "type": "tuple"
        },
        {
          "components": [
            {
              "internalType": "uint256",
              "name": "baseRate",
              "type": "uint256"
            },
            {
              "internalType": "uint256",
              "name": "kinkRate",
              "type": "uint256"
            },
            {
              "internalType": "uint256",
              "name": "slope1",
              "type": "uint256"
            },
            {
              "internalType": "uint256",
              "name": "slope2",
              "type": "uint256"
            }
          ],
          "indexed": false,
          "internalType": "struct InterestRateModel.IRMParams",
          "name": "squartIRMParams",
          "type": "tuple"
        }
      ],
      "name": "IRMParamsUpdated",
      "type": "event"
    },
    {
      "anonymous": false,
      "inputs": [
        {
          "indexed": false,
          "internalType": "uint8",
          "name": "version",
          "type": "uint8"
        }
      ],
      "name": "Initialized",
      "type": "event"
    },
    {
      "anonymous": false,
      "inputs": [
        {
          "indexed": false,
          "internalType": "address",
          "name": "operator",
          "type": "address"
        }
      ],
      "name": "OperatorUpdated",
      "type": "event"
    },
    {
      "anonymous": false,
      "inputs": [
        {
          "indexed": false,
          "internalType": "uint256",
          "name": "assetId",
          "type": "uint256"
        },
        {
          "indexed": false,
          "internalType": "address",
          "name": "_uniswapPool",
          "type": "address"
        }
      ],
      "name": "PairAdded",
      "type": "event"
    },
    {
      "anonymous": false,
      "inputs": [
        {
          "indexed": false,
          "internalType": "uint256",
          "name": "assetId",
          "type": "uint256"
        },
        {
          "indexed": false,
          "internalType": "uint256",
          "name": "withdrawnProtocolFee",
          "type": "uint256"
        }
      ],
      "name": "ProtocolRevenueWithdrawn",
      "type": "event"
    },
    {
      "anonymous": false,
      "inputs": [
        {
          "indexed": false,
          "internalType": "uint256",
          "name": "vaultId",
          "type": "uint256"
        },
        {
          "indexed": false,
          "internalType": "address",
          "name": "owner",
          "type": "address"
        },
        {
          "indexed": false,
          "internalType": "bool",
          "name": "isMainVault",
          "type": "bool"
        }
      ],
      "name": "VaultCreated",
      "type": "event"
    },
    {
      "inputs": [
        {
          "internalType": "address",
          "name": "",
          "type": "address"
        }
      ],
      "name": "allowedUniswapPools",
      "outputs": [
        {
          "internalType": "bool",
          "name": "",
          "type": "bool"
        }
      ],
      "stateMutability": "view",
      "type": "function"
    },
    {
      "inputs": [
        {
          "internalType": "uint256",
          "name": "_isolatedVaultId",
          "type": "uint256"
        },
        {
          "internalType": "uint256",
          "name": "_assetId",
          "type": "uint256"
        },
        {
          "components": [
            {
              "internalType": "uint256",
              "name": "lowerSqrtPrice",
              "type": "uint256"
            },
            {
              "internalType": "uint256",
              "name": "upperSqrtPrice",
              "type": "uint256"
            },
            {
              "internalType": "uint256",
              "name": "deadline",
              "type": "uint256"
            }
          ],
          "internalType": "struct IsolatedVaultLogic.CloseParams",
          "name": "_closeParams",
          "type": "tuple"
        }
      ],
      "name": "closeIsolatedVault",
      "outputs": [
        {
          "components": [
            {
              "components": [
                {
                  "internalType": "int256",
                  "name": "perpEntryUpdate",
                  "type": "int256"
                },
                {
                  "internalType": "int256",
                  "name": "sqrtEntryUpdate",
                  "type": "int256"
                },
                {
                  "internalType": "int256",
                  "name": "sqrtRebalanceEntryUpdateUnderlying",
                  "type": "int256"
                },
                {
                  "internalType": "int256",
                  "name": "sqrtRebalanceEntryUpdateStable",
                  "type": "int256"
                },
                {
                  "internalType": "int256",
                  "name": "perpPayoff",
                  "type": "int256"
                },
                {
                  "internalType": "int256",
                  "name": "sqrtPayoff",
                  "type": "int256"
                }
              ],
              "internalType": "struct Perp.Payoff",
              "name": "payoff",
              "type": "tuple"
            },
            {
              "internalType": "int256",
              "name": "fee",
              "type": "int256"
            },
            {
              "internalType": "int256",
              "name": "minDeposit",
              "type": "int256"
            }
          ],
          "internalType": "struct DataType.TradeResult",
          "name": "tradeResult",
          "type": "tuple"
        }
      ],
      "stateMutability": "nonpayable",
      "type": "function"
    },
    {
      "inputs": [
        {
          "internalType": "uint256",
          "name": "_id",
          "type": "uint256"
        }
      ],
      "name": "getAsset",
      "outputs": [
        {
          "components": [
            {
              "internalType": "uint256",
              "name": "id",
              "type": "uint256"
            },
            {
              "internalType": "address",
              "name": "token",
              "type": "address"
            },
            {
              "internalType": "address",
              "name": "supplyTokenAddress",
              "type": "address"
            },
            {
              "components": [
                {
                  "internalType": "uint256",
                  "name": "riskRatio",
                  "type": "uint256"
                },
                {
                  "internalType": "int24",
                  "name": "rangeSize",
                  "type": "int24"
                },
                {
                  "internalType": "int24",
                  "name": "rebalanceThreshold",
                  "type": "int24"
                }
              ],
              "internalType": "struct DataType.AssetRiskParams",
              "name": "riskParams",
              "type": "tuple"
            },
            {
              "components": [
                {
                  "internalType": "uint256",
                  "name": "totalCompoundDeposited",
                  "type": "uint256"
                },
                {
                  "internalType": "uint256",
                  "name": "totalCompoundBorrowed",
                  "type": "uint256"
                },
                {
                  "internalType": "uint256",
                  "name": "totalNormalDeposited",
                  "type": "uint256"
                },
                {
                  "internalType": "uint256",
                  "name": "totalNormalBorrowed",
                  "type": "uint256"
                },
                {
                  "internalType": "uint256",
                  "name": "assetScaler",
                  "type": "uint256"
                },
                {
                  "internalType": "uint256",
                  "name": "debtScaler",
                  "type": "uint256"
                },
                {
                  "internalType": "uint256",
                  "name": "assetGrowth",
                  "type": "uint256"
                },
                {
                  "internalType": "uint256",
                  "name": "debtGrowth",
                  "type": "uint256"
                }
              ],
              "internalType": "struct ScaledAsset.TokenStatus",
              "name": "tokenStatus",
              "type": "tuple"
            },
            {
              "components": [
                {
                  "internalType": "address",
                  "name": "uniswapPool",
                  "type": "address"
                },
                {
                  "internalType": "int24",
                  "name": "tickLower",
                  "type": "int24"
                },
                {
                  "internalType": "int24",
                  "name": "tickUpper",
                  "type": "int24"
                },
                {
                  "internalType": "uint256",
                  "name": "totalAmount",
                  "type": "uint256"
                },
                {
                  "internalType": "uint256",
                  "name": "borrowedAmount",
                  "type": "uint256"
                },
                {
                  "internalType": "uint256",
                  "name": "supplyPremiumGrowth",
                  "type": "uint256"
                },
                {
                  "internalType": "uint256",
                  "name": "borrowPremiumGrowth",
                  "type": "uint256"
                },
                {
                  "internalType": "uint256",
                  "name": "fee0Growth",
                  "type": "uint256"
                },
                {
                  "internalType": "uint256",
                  "name": "fee1Growth",
                  "type": "uint256"
                },
                {
                  "components": [
                    {
                      "internalType": "int256",
                      "name": "positionAmount",
                      "type": "int256"
                    },
                    {
                      "internalType": "uint256",
                      "name": "lastFeeGrowth",
                      "type": "uint256"
                    }
                  ],
                  "internalType": "struct ScaledAsset.UserStatus",
                  "name": "rebalancePositionUnderlying",
                  "type": "tuple"
                },
                {
                  "components": [
                    {
                      "internalType": "int256",
                      "name": "positionAmount",
                      "type": "int256"
                    },
                    {
                      "internalType": "uint256",
                      "name": "lastFeeGrowth",
                      "type": "uint256"
                    }
                  ],
                  "internalType": "struct ScaledAsset.UserStatus",
                  "name": "rebalancePositionStable",
                  "type": "tuple"
                },
                {
                  "internalType": "int256",
                  "name": "rebalanceFeeGrowthUnderlying",
                  "type": "int256"
                },
                {
                  "internalType": "int256",
                  "name": "rebalanceFeeGrowthStable",
                  "type": "int256"
                }
              ],
              "internalType": "struct Perp.SqrtPerpAssetStatus",
              "name": "sqrtAssetStatus",
              "type": "tuple"
            },
            {
              "internalType": "bool",
              "name": "isMarginZero",
              "type": "bool"
            },
            {
              "components": [
                {
                  "internalType": "uint256",
                  "name": "baseRate",
                  "type": "uint256"
                },
                {
                  "internalType": "uint256",
                  "name": "kinkRate",
                  "type": "uint256"
                },
                {
                  "internalType": "uint256",
                  "name": "slope1",
                  "type": "uint256"
                },
                {
                  "internalType": "uint256",
                  "name": "slope2",
                  "type": "uint256"
                }
              ],
              "internalType": "struct InterestRateModel.IRMParams",
              "name": "irmParams",
              "type": "tuple"
            },
            {
              "components": [
                {
                  "internalType": "uint256",
                  "name": "baseRate",
                  "type": "uint256"
                },
                {
                  "internalType": "uint256",
                  "name": "kinkRate",
                  "type": "uint256"
                },
                {
                  "internalType": "uint256",
                  "name": "slope1",
                  "type": "uint256"
                },
                {
                  "internalType": "uint256",
                  "name": "slope2",
                  "type": "uint256"
                }
              ],
              "internalType": "struct InterestRateModel.IRMParams",
              "name": "squartIRMParams",
              "type": "tuple"
            },
            {
              "internalType": "uint256",
              "name": "lastUpdateTimestamp",
              "type": "uint256"
            },
            {
              "internalType": "uint256",
              "name": "accumulatedProtocolRevenue",
              "type": "uint256"
            }
          ],
          "internalType": "struct DataType.AssetStatus",
          "name": "",
          "type": "tuple"
        }
      ],
      "stateMutability": "view",
      "type": "function"
    },
    {
      "inputs": [],
      "name": "getAssetGroup",
      "outputs": [
        {
          "components": [
            {
              "internalType": "uint256",
              "name": "stableAssetId",
              "type": "uint256"
            },
            {
              "internalType": "uint256[]",
              "name": "assetIds",
              "type": "uint256[]"
            }
          ],
          "internalType": "struct DataType.AssetGroup",
          "name": "",
          "type": "tuple"
        }
      ],
      "stateMutability": "view",
      "type": "function"
    },
    {
      "inputs": [
        {
          "internalType": "uint256",
          "name": "_tokenId",
          "type": "uint256"
        }
      ],
      "name": "getSqrtIndexPrice",
      "outputs": [
        {
          "internalType": "uint160",
          "name": "",
          "type": "uint160"
        }
      ],
      "stateMutability": "view",
      "type": "function"
    },
    {
      "inputs": [
        {
          "internalType": "uint256",
          "name": "_tokenId",
          "type": "uint256"
        }
      ],
      "name": "getSqrtPrice",
      "outputs": [
        {
          "internalType": "uint160",
          "name": "",
          "type": "uint160"
        }
      ],
      "stateMutability": "view",
      "type": "function"
    },
    {
      "inputs": [
        {
          "internalType": "uint256",
          "name": "_tokenId",
          "type": "uint256"
        }
      ],
      "name": "getUtilizationRatio",
      "outputs": [
        {
          "internalType": "uint256",
          "name": "",
          "type": "uint256"
        },
        {
          "internalType": "uint256",
          "name": "",
          "type": "uint256"
        }
      ],
      "stateMutability": "view",
      "type": "function"
    },
    {
      "inputs": [
        {
          "internalType": "uint256",
          "name": "_id",
          "type": "uint256"
        }
      ],
      "name": "getVault",
      "outputs": [
        {
          "components": [
            {
              "internalType": "uint256",
              "name": "id",
              "type": "uint256"
            },
            {
              "internalType": "address",
              "name": "owner",
              "type": "address"
            },
            {
              "internalType": "int256",
              "name": "margin",
              "type": "int256"
            },
            {
              "components": [
                {
                  "internalType": "uint256",
                  "name": "assetId",
                  "type": "uint256"
                },
                {
                  "components": [
                    {
                      "components": [
                        {
                          "internalType": "int256",
                          "name": "amount",
                          "type": "int256"
                        },
                        {
                          "internalType": "int256",
                          "name": "entryValue",
                          "type": "int256"
                        }
                      ],
                      "internalType": "struct Perp.PositionStatus",
                      "name": "perp",
                      "type": "tuple"
                    },
                    {
                      "components": [
                        {
                          "internalType": "int256",
                          "name": "amount",
                          "type": "int256"
                        },
                        {
                          "internalType": "int256",
                          "name": "entryValue",
                          "type": "int256"
                        },
                        {
                          "internalType": "int256",
                          "name": "stableRebalanceEntryValue",
                          "type": "int256"
                        },
                        {
                          "internalType": "int256",
                          "name": "underlyingRebalanceEntryValue",
                          "type": "int256"
                        },
                        {
                          "internalType": "uint256",
                          "name": "entryTradeFee0",
                          "type": "uint256"
                        },
                        {
                          "internalType": "uint256",
                          "name": "entryTradeFee1",
                          "type": "uint256"
                        },
                        {
                          "internalType": "uint256",
                          "name": "entryPremium",
                          "type": "uint256"
                        }
                      ],
                      "internalType": "struct Perp.SqrtPositionStatus",
                      "name": "sqrtPerp",
                      "type": "tuple"
                    },
                    {
                      "components": [
                        {
                          "internalType": "int256",
                          "name": "positionAmount",
                          "type": "int256"
                        },
                        {
                          "internalType": "uint256",
                          "name": "lastFeeGrowth",
                          "type": "uint256"
                        }
                      ],
                      "internalType": "struct ScaledAsset.UserStatus",
                      "name": "underlying",
                      "type": "tuple"
                    },
                    {
                      "components": [
                        {
                          "internalType": "int256",
                          "name": "positionAmount",
                          "type": "int256"
                        },
                        {
                          "internalType": "uint256",
                          "name": "lastFeeGrowth",
                          "type": "uint256"
                        }
                      ],
                      "internalType": "struct ScaledAsset.UserStatus",
                      "name": "stable",
                      "type": "tuple"
                    },
                    {
                      "internalType": "int24",
                      "name": "rebalanceLastTickLower",
                      "type": "int24"
                    },
                    {
                      "internalType": "int24",
                      "name": "rebalanceLastTickUpper",
                      "type": "int24"
                    },
                    {
                      "internalType": "int256",
                      "name": "rebalanceEntryFeeUnderlying",
                      "type": "int256"
                    },
                    {
                      "internalType": "int256",
                      "name": "rebalanceEntryFeeStable",
                      "type": "int256"
                    }
                  ],
                  "internalType": "struct Perp.UserStatus",
                  "name": "perpTrade",
                  "type": "tuple"
                }
              ],
              "internalType": "struct DataType.UserStatus[]",
              "name": "openPositions",
              "type": "tuple[]"
            }
          ],
          "internalType": "struct DataType.Vault",
          "name": "",
          "type": "tuple"
        }
      ],
      "stateMutability": "view",
      "type": "function"
    },
    {
      "inputs": [
        {
          "internalType": "uint256",
          "name": "_vaultId",
          "type": "uint256"
        }
      ],
      "name": "getVaultStatus",
      "outputs": [
        {
          "components": [
            {
              "internalType": "uint256",
              "name": "vaultId",
              "type": "uint256"
            },
            {
              "internalType": "bool",
              "name": "isMainVault",
              "type": "bool"
            },
            {
              "internalType": "int256",
              "name": "vaultValue",
              "type": "int256"
            },
            {
              "internalType": "int256",
              "name": "margin",
              "type": "int256"
            },
            {
              "internalType": "int256",
              "name": "positionValue",
              "type": "int256"
            },
            {
              "internalType": "int256",
              "name": "minDeposit",
              "type": "int256"
            },
            {
              "components": [
                {
                  "internalType": "uint256",
                  "name": "assetId",
                  "type": "uint256"
                },
                {
                  "components": [
                    {
                      "components": [
                        {
                          "internalType": "int256",
                          "name": "amount",
                          "type": "int256"
                        },
                        {
                          "internalType": "int256",
                          "name": "entryValue",
                          "type": "int256"
                        }
                      ],
                      "internalType": "struct Perp.PositionStatus",
                      "name": "perp",
                      "type": "tuple"
                    },
                    {
                      "components": [
                        {
                          "internalType": "int256",
                          "name": "amount",
                          "type": "int256"
                        },
                        {
                          "internalType": "int256",
                          "name": "entryValue",
                          "type": "int256"
                        },
                        {
                          "internalType": "int256",
                          "name": "stableRebalanceEntryValue",
                          "type": "int256"
                        },
                        {
                          "internalType": "int256",
                          "name": "underlyingRebalanceEntryValue",
                          "type": "int256"
                        },
                        {
                          "internalType": "uint256",
                          "name": "entryTradeFee0",
                          "type": "uint256"
                        },
                        {
                          "internalType": "uint256",
                          "name": "entryTradeFee1",
                          "type": "uint256"
                        },
                        {
                          "internalType": "uint256",
                          "name": "entryPremium",
                          "type": "uint256"
                        }
                      ],
                      "internalType": "struct Perp.SqrtPositionStatus",
                      "name": "sqrtPerp",
                      "type": "tuple"
                    },
                    {
                      "components": [
                        {
                          "internalType": "int256",
                          "name": "positionAmount",
                          "type": "int256"
                        },
                        {
                          "internalType": "uint256",
                          "name": "lastFeeGrowth",
                          "type": "uint256"
                        }
                      ],
                      "internalType": "struct ScaledAsset.UserStatus",
                      "name": "underlying",
                      "type": "tuple"
                    },
                    {
                      "components": [
                        {
                          "internalType": "int256",
                          "name": "positionAmount",
                          "type": "int256"
                        },
                        {
                          "internalType": "uint256",
                          "name": "lastFeeGrowth",
                          "type": "uint256"
                        }
                      ],
                      "internalType": "struct ScaledAsset.UserStatus",
                      "name": "stable",
                      "type": "tuple"
                    },
                    {
                      "internalType": "int24",
                      "name": "rebalanceLastTickLower",
                      "type": "int24"
                    },
                    {
                      "internalType": "int24",
                      "name": "rebalanceLastTickUpper",
                      "type": "int24"
                    },
                    {
                      "internalType": "int256",
                      "name": "rebalanceEntryFeeUnderlying",
                      "type": "int256"
                    },
                    {
                      "internalType": "int256",
                      "name": "rebalanceEntryFeeStable",
                      "type": "int256"
                    }
                  ],
                  "internalType": "struct Perp.UserStatus",
                  "name": "position",
                  "type": "tuple"
                },
                {
                  "internalType": "int256",
                  "name": "delta",
                  "type": "int256"
                },
                {
                  "internalType": "int256",
                  "name": "unrealizedFee",
                  "type": "int256"
                }
              ],
              "internalType": "struct DataType.SubVaultStatusResult[]",
              "name": "subVaults",
              "type": "tuple[]"
            }
          ],
          "internalType": "struct DataType.VaultStatusResult",
          "name": "",
          "type": "tuple"
        }
      ],
      "stateMutability": "nonpayable",
      "type": "function"
    },
    {
      "inputs": [],
      "name": "getVaultStatusWithAddress",
      "outputs": [
        {
          "components": [
            {
              "internalType": "uint256",
              "name": "vaultId",
              "type": "uint256"
            },
            {
              "internalType": "bool",
              "name": "isMainVault",
              "type": "bool"
            },
            {
              "internalType": "int256",
              "name": "vaultValue",
              "type": "int256"
            },
            {
              "internalType": "int256",
              "name": "margin",
              "type": "int256"
            },
            {
              "internalType": "int256",
              "name": "positionValue",
              "type": "int256"
            },
            {
              "internalType": "int256",
              "name": "minDeposit",
              "type": "int256"
            },
            {
              "components": [
                {
                  "internalType": "uint256",
                  "name": "assetId",
                  "type": "uint256"
                },
                {
                  "components": [
                    {
                      "components": [
                        {
                          "internalType": "int256",
                          "name": "amount",
                          "type": "int256"
                        },
                        {
                          "internalType": "int256",
                          "name": "entryValue",
                          "type": "int256"
                        }
                      ],
                      "internalType": "struct Perp.PositionStatus",
                      "name": "perp",
                      "type": "tuple"
                    },
                    {
                      "components": [
                        {
                          "internalType": "int256",
                          "name": "amount",
                          "type": "int256"
                        },
                        {
                          "internalType": "int256",
                          "name": "entryValue",
                          "type": "int256"
                        },
                        {
                          "internalType": "int256",
                          "name": "stableRebalanceEntryValue",
                          "type": "int256"
                        },
                        {
                          "internalType": "int256",
                          "name": "underlyingRebalanceEntryValue",
                          "type": "int256"
                        },
                        {
                          "internalType": "uint256",
                          "name": "entryTradeFee0",
                          "type": "uint256"
                        },
                        {
                          "internalType": "uint256",
                          "name": "entryTradeFee1",
                          "type": "uint256"
                        },
                        {
                          "internalType": "uint256",
                          "name": "entryPremium",
                          "type": "uint256"
                        }
                      ],
                      "internalType": "struct Perp.SqrtPositionStatus",
                      "name": "sqrtPerp",
                      "type": "tuple"
                    },
                    {
                      "components": [
                        {
                          "internalType": "int256",
                          "name": "positionAmount",
                          "type": "int256"
                        },
                        {
                          "internalType": "uint256",
                          "name": "lastFeeGrowth",
                          "type": "uint256"
                        }
                      ],
                      "internalType": "struct ScaledAsset.UserStatus",
                      "name": "underlying",
                      "type": "tuple"
                    },
                    {
                      "components": [
                        {
                          "internalType": "int256",
                          "name": "positionAmount",
                          "type": "int256"
                        },
                        {
                          "internalType": "uint256",
                          "name": "lastFeeGrowth",
                          "type": "uint256"
                        }
                      ],
                      "internalType": "struct ScaledAsset.UserStatus",
                      "name": "stable",
                      "type": "tuple"
                    },
                    {
                      "internalType": "int24",
                      "name": "rebalanceLastTickLower",
                      "type": "int24"
                    },
                    {
                      "internalType": "int24",
                      "name": "rebalanceLastTickUpper",
                      "type": "int24"
                    },
                    {
                      "internalType": "int256",
                      "name": "rebalanceEntryFeeUnderlying",
                      "type": "int256"
                    },
                    {
                      "internalType": "int256",
                      "name": "rebalanceEntryFeeStable",
                      "type": "int256"
                    }
                  ],
                  "internalType": "struct Perp.UserStatus",
                  "name": "position",
                  "type": "tuple"
                },
                {
                  "internalType": "int256",
                  "name": "delta",
                  "type": "int256"
                },
                {
                  "internalType": "int256",
                  "name": "unrealizedFee",
                  "type": "int256"
                }
              ],
              "internalType": "struct DataType.SubVaultStatusResult[]",
              "name": "subVaults",
              "type": "tuple[]"
            }
          ],
          "internalType": "struct DataType.VaultStatusResult",
          "name": "",
          "type": "tuple"
        },
        {
          "components": [
            {
              "internalType": "uint256",
              "name": "vaultId",
              "type": "uint256"
            },
            {
              "internalType": "bool",
              "name": "isMainVault",
              "type": "bool"
            },
            {
              "internalType": "int256",
              "name": "vaultValue",
              "type": "int256"
            },
            {
              "internalType": "int256",
              "name": "margin",
              "type": "int256"
            },
            {
              "internalType": "int256",
              "name": "positionValue",
              "type": "int256"
            },
            {
              "internalType": "int256",
              "name": "minDeposit",
              "type": "int256"
            },
            {
              "components": [
                {
                  "internalType": "uint256",
                  "name": "assetId",
                  "type": "uint256"
                },
                {
                  "components": [
                    {
                      "components": [
                        {
                          "internalType": "int256",
                          "name": "amount",
                          "type": "int256"
                        },
                        {
                          "internalType": "int256",
                          "name": "entryValue",
                          "type": "int256"
                        }
                      ],
                      "internalType": "struct Perp.PositionStatus",
                      "name": "perp",
                      "type": "tuple"
                    },
                    {
                      "components": [
                        {
                          "internalType": "int256",
                          "name": "amount",
                          "type": "int256"
                        },
                        {
                          "internalType": "int256",
                          "name": "entryValue",
                          "type": "int256"
                        },
                        {
                          "internalType": "int256",
                          "name": "stableRebalanceEntryValue",
                          "type": "int256"
                        },
                        {
                          "internalType": "int256",
                          "name": "underlyingRebalanceEntryValue",
                          "type": "int256"
                        },
                        {
                          "internalType": "uint256",
                          "name": "entryTradeFee0",
                          "type": "uint256"
                        },
                        {
                          "internalType": "uint256",
                          "name": "entryTradeFee1",
                          "type": "uint256"
                        },
                        {
                          "internalType": "uint256",
                          "name": "entryPremium",
                          "type": "uint256"
                        }
                      ],
                      "internalType": "struct Perp.SqrtPositionStatus",
                      "name": "sqrtPerp",
                      "type": "tuple"
                    },
                    {
                      "components": [
                        {
                          "internalType": "int256",
                          "name": "positionAmount",
                          "type": "int256"
                        },
                        {
                          "internalType": "uint256",
                          "name": "lastFeeGrowth",
                          "type": "uint256"
                        }
                      ],
                      "internalType": "struct ScaledAsset.UserStatus",
                      "name": "underlying",
                      "type": "tuple"
                    },
                    {
                      "components": [
                        {
                          "internalType": "int256",
                          "name": "positionAmount",
                          "type": "int256"
                        },
                        {
                          "internalType": "uint256",
                          "name": "lastFeeGrowth",
                          "type": "uint256"
                        }
                      ],
                      "internalType": "struct ScaledAsset.UserStatus",
                      "name": "stable",
                      "type": "tuple"
                    },
                    {
                      "internalType": "int24",
                      "name": "rebalanceLastTickLower",
                      "type": "int24"
                    },
                    {
                      "internalType": "int24",
                      "name": "rebalanceLastTickUpper",
                      "type": "int24"
                    },
                    {
                      "internalType": "int256",
                      "name": "rebalanceEntryFeeUnderlying",
                      "type": "int256"
                    },
                    {
                      "internalType": "int256",
                      "name": "rebalanceEntryFeeStable",
                      "type": "int256"
                    }
                  ],
                  "internalType": "struct Perp.UserStatus",
                  "name": "position",
                  "type": "tuple"
                },
                {
                  "internalType": "int256",
                  "name": "delta",
                  "type": "int256"
                },
                {
                  "internalType": "int256",
                  "name": "unrealizedFee",
                  "type": "int256"
                }
              ],
              "internalType": "struct DataType.SubVaultStatusResult[]",
              "name": "subVaults",
              "type": "tuple[]"
            }
          ],
          "internalType": "struct DataType.VaultStatusResult[]",
          "name": "",
          "type": "tuple[]"
        }
      ],
      "stateMutability": "nonpayable",
      "type": "function"
    },
    {
      "inputs": [
        {
          "internalType": "address",
          "name": "_stableAssetAddress",
          "type": "address"
        },
        {
          "components": [
            {
              "internalType": "uint256",
              "name": "baseRate",
              "type": "uint256"
            },
            {
              "internalType": "uint256",
              "name": "kinkRate",
              "type": "uint256"
            },
            {
              "internalType": "uint256",
              "name": "slope1",
              "type": "uint256"
            },
            {
              "internalType": "uint256",
              "name": "slope2",
              "type": "uint256"
            }
          ],
          "internalType": "struct InterestRateModel.IRMParams",
          "name": "_irmParams",
          "type": "tuple"
        },
        {
          "components": [
            {
              "internalType": "address",
              "name": "uniswapPool",
              "type": "address"
            },
            {
              "components": [
                {
                  "internalType": "uint256",
                  "name": "riskRatio",
                  "type": "uint256"
                },
                {
                  "internalType": "int24",
                  "name": "rangeSize",
                  "type": "int24"
                },
                {
                  "internalType": "int24",
                  "name": "rebalanceThreshold",
                  "type": "int24"
                }
              ],
              "internalType": "struct DataType.AssetRiskParams",
              "name": "assetRiskParams",
              "type": "tuple"
            },
            {
              "components": [
                {
                  "internalType": "uint256",
                  "name": "baseRate",
                  "type": "uint256"
                },
                {
                  "internalType": "uint256",
                  "name": "kinkRate",
                  "type": "uint256"
                },
                {
                  "internalType": "uint256",
                  "name": "slope1",
                  "type": "uint256"
                },
                {
                  "internalType": "uint256",
                  "name": "slope2",
                  "type": "uint256"
                }
              ],
              "internalType": "struct InterestRateModel.IRMParams",
              "name": "irmParams",
              "type": "tuple"
            },
            {
              "components": [
                {
                  "internalType": "uint256",
                  "name": "baseRate",
                  "type": "uint256"
                },
                {
                  "internalType": "uint256",
                  "name": "kinkRate",
                  "type": "uint256"
                },
                {
                  "internalType": "uint256",
                  "name": "slope1",
                  "type": "uint256"
                },
                {
                  "internalType": "uint256",
                  "name": "slope2",
                  "type": "uint256"
                }
              ],
              "internalType": "struct InterestRateModel.IRMParams",
              "name": "squartIRMParams",
              "type": "tuple"
            }
          ],
          "internalType": "struct DataType.AddAssetParams[]",
          "name": "_addAssetParams",
          "type": "tuple[]"
        }
      ],
      "name": "initialize",
      "outputs": [],
      "stateMutability": "nonpayable",
      "type": "function"
    },
    {
      "inputs": [
        {
          "internalType": "uint256",
          "name": "_vaultId",
          "type": "uint256"
        },
        {
          "internalType": "uint256",
          "name": "_closeRatio",
          "type": "uint256"
        }
      ],
      "name": "liquidationCall",
      "outputs": [],
      "stateMutability": "nonpayable",
      "type": "function"
    },
    {
      "inputs": [
        {
          "internalType": "uint256",
          "name": "_depositAmount",
          "type": "uint256"
        },
        {
          "internalType": "uint256",
          "name": "_assetId",
          "type": "uint256"
        },
        {
          "components": [
            {
              "internalType": "int256",
              "name": "tradeAmount",
              "type": "int256"
            },
            {
              "internalType": "int256",
              "name": "tradeAmountSqrt",
              "type": "int256"
            },
            {
              "internalType": "uint256",
              "name": "lowerSqrtPrice",
              "type": "uint256"
            },
            {
              "internalType": "uint256",
              "name": "upperSqrtPrice",
              "type": "uint256"
            },
            {
              "internalType": "uint256",
              "name": "deadline",
              "type": "uint256"
            },
            {
              "internalType": "bool",
              "name": "enableCallback",
              "type": "bool"
            },
            {
              "internalType": "bytes",
              "name": "data",
              "type": "bytes"
            }
          ],
          "internalType": "struct TradeLogic.TradeParams",
          "name": "_tradeParams",
          "type": "tuple"
        }
      ],
      "name": "openIsolatedVault",
      "outputs": [
        {
          "internalType": "uint256",
          "name": "isolatedVaultId",
          "type": "uint256"
        },
        {
          "components": [
            {
              "components": [
                {
                  "internalType": "int256",
                  "name": "perpEntryUpdate",
                  "type": "int256"
                },
                {
                  "internalType": "int256",
                  "name": "sqrtEntryUpdate",
                  "type": "int256"
                },
                {
                  "internalType": "int256",
                  "name": "sqrtRebalanceEntryUpdateUnderlying",
                  "type": "int256"
                },
                {
                  "internalType": "int256",
                  "name": "sqrtRebalanceEntryUpdateStable",
                  "type": "int256"
                },
                {
                  "internalType": "int256",
                  "name": "perpPayoff",
                  "type": "int256"
                },
                {
                  "internalType": "int256",
                  "name": "sqrtPayoff",
                  "type": "int256"
                }
              ],
              "internalType": "struct Perp.Payoff",
              "name": "payoff",
              "type": "tuple"
            },
            {
              "internalType": "int256",
              "name": "fee",
              "type": "int256"
            },
            {
              "internalType": "int256",
              "name": "minDeposit",
              "type": "int256"
            }
          ],
          "internalType": "struct DataType.TradeResult",
          "name": "tradeResult",
          "type": "tuple"
        }
      ],
      "stateMutability": "nonpayable",
      "type": "function"
    },
    {
      "inputs": [],
      "name": "operator",
      "outputs": [
        {
          "internalType": "address",
          "name": "",
          "type": "address"
        }
      ],
      "stateMutability": "view",
      "type": "function"
    },
    {
      "inputs": [
        {
          "internalType": "uint256",
          "name": "_assetId",
          "type": "uint256"
        }
      ],
      "name": "reallocate",
      "outputs": [
        {
          "internalType": "bool",
          "name": "",
          "type": "bool"
        },
        {
          "internalType": "int256",
          "name": "",
          "type": "int256"
        }
      ],
      "stateMutability": "nonpayable",
      "type": "function"
    },
    {
      "inputs": [
        {
          "internalType": "address",
          "name": "_newOperator",
          "type": "address"
        }
      ],
      "name": "setOperator",
      "outputs": [],
      "stateMutability": "nonpayable",
      "type": "function"
    },
    {
      "inputs": [
        {
          "internalType": "uint256",
          "name": "_vaultId",
          "type": "uint256"
        }
      ],
      "name": "settleUserBalance",
      "outputs": [],
      "stateMutability": "nonpayable",
      "type": "function"
    },
    {
      "inputs": [
        {
          "internalType": "uint256",
          "name": "_assetId",
          "type": "uint256"
        },
        {
          "internalType": "uint256",
          "name": "_amount",
          "type": "uint256"
        }
      ],
      "name": "supplyToken",
      "outputs": [
        {
          "internalType": "uint256",
          "name": "finalMintAmount",
          "type": "uint256"
        }
      ],
      "stateMutability": "nonpayable",
      "type": "function"
    },
    {
      "inputs": [
        {
          "internalType": "uint256",
          "name": "_vaultId",
          "type": "uint256"
        },
        {
          "internalType": "uint256",
          "name": "_assetId",
          "type": "uint256"
        },
        {
          "components": [
            {
              "internalType": "int256",
              "name": "tradeAmount",
              "type": "int256"
            },
            {
              "internalType": "int256",
              "name": "tradeAmountSqrt",
              "type": "int256"
            },
            {
              "internalType": "uint256",
              "name": "lowerSqrtPrice",
              "type": "uint256"
            },
            {
              "internalType": "uint256",
              "name": "upperSqrtPrice",
              "type": "uint256"
            },
            {
              "internalType": "uint256",
              "name": "deadline",
              "type": "uint256"
            },
            {
              "internalType": "bool",
              "name": "enableCallback",
              "type": "bool"
            },
            {
              "internalType": "bytes",
              "name": "data",
              "type": "bytes"
            }
          ],
          "internalType": "struct TradeLogic.TradeParams",
          "name": "_tradeParams",
          "type": "tuple"
        }
      ],
      "name": "tradePerp",
      "outputs": [
        {
          "components": [
            {
              "components": [
                {
                  "internalType": "int256",
                  "name": "perpEntryUpdate",
                  "type": "int256"
                },
                {
                  "internalType": "int256",
                  "name": "sqrtEntryUpdate",
                  "type": "int256"
                },
                {
                  "internalType": "int256",
                  "name": "sqrtRebalanceEntryUpdateUnderlying",
                  "type": "int256"
                },
                {
                  "internalType": "int256",
                  "name": "sqrtRebalanceEntryUpdateStable",
                  "type": "int256"
                },
                {
                  "internalType": "int256",
                  "name": "perpPayoff",
                  "type": "int256"
                },
                {
                  "internalType": "int256",
                  "name": "sqrtPayoff",
                  "type": "int256"
                }
              ],
              "internalType": "struct Perp.Payoff",
              "name": "payoff",
              "type": "tuple"
            },
            {
              "internalType": "int256",
              "name": "fee",
              "type": "int256"
            },
            {
              "internalType": "int256",
              "name": "minDeposit",
              "type": "int256"
            }
          ],
          "internalType": "struct DataType.TradeResult",
          "name": "",
          "type": "tuple"
        }
      ],
      "stateMutability": "nonpayable",
      "type": "function"
    },
    {
      "inputs": [
        {
          "internalType": "uint256",
          "name": "amount0",
          "type": "uint256"
        },
        {
          "internalType": "uint256",
          "name": "amount1",
          "type": "uint256"
        },
        {
          "internalType": "bytes",
          "name": "",
          "type": "bytes"
        }
      ],
      "name": "uniswapV3MintCallback",
      "outputs": [],
      "stateMutability": "nonpayable",
      "type": "function"
    },
    {
      "inputs": [
        {
          "internalType": "int256",
          "name": "amount0Delta",
          "type": "int256"
        },
        {
          "internalType": "int256",
          "name": "amount1Delta",
          "type": "int256"
        },
        {
          "internalType": "bytes",
          "name": "",
          "type": "bytes"
        }
      ],
      "name": "uniswapV3SwapCallback",
      "outputs": [],
      "stateMutability": "nonpayable",
      "type": "function"
    },
    {
      "inputs": [
        {
          "internalType": "uint256",
          "name": "_assetId",
          "type": "uint256"
        },
        {
          "components": [
            {
              "internalType": "uint256",
              "name": "riskRatio",
              "type": "uint256"
            },
            {
              "internalType": "int24",
              "name": "rangeSize",
              "type": "int24"
            },
            {
              "internalType": "int24",
              "name": "rebalanceThreshold",
              "type": "int24"
            }
          ],
          "internalType": "struct DataType.AssetRiskParams",
          "name": "_riskParams",
          "type": "tuple"
        }
      ],
      "name": "updateAssetRiskParams",
      "outputs": [],
      "stateMutability": "nonpayable",
      "type": "function"
    },
    {
      "inputs": [
        {
          "internalType": "uint256",
          "name": "_assetId",
          "type": "uint256"
        },
        {
          "components": [
            {
              "internalType": "uint256",
              "name": "baseRate",
              "type": "uint256"
            },
            {
              "internalType": "uint256",
              "name": "kinkRate",
              "type": "uint256"
            },
            {
              "internalType": "uint256",
              "name": "slope1",
              "type": "uint256"
            },
            {
              "internalType": "uint256",
              "name": "slope2",
              "type": "uint256"
            }
          ],
          "internalType": "struct InterestRateModel.IRMParams",
          "name": "_irmParams",
          "type": "tuple"
        },
        {
          "components": [
            {
              "internalType": "uint256",
              "name": "baseRate",
              "type": "uint256"
            },
            {
              "internalType": "uint256",
              "name": "kinkRate",
              "type": "uint256"
            },
            {
              "internalType": "uint256",
              "name": "slope1",
              "type": "uint256"
            },
            {
              "internalType": "uint256",
              "name": "slope2",
              "type": "uint256"
            }
          ],
          "internalType": "struct InterestRateModel.IRMParams",
          "name": "_squartIRMParams",
          "type": "tuple"
        }
      ],
      "name": "updateIRMParams",
      "outputs": [],
      "stateMutability": "nonpayable",
      "type": "function"
    },
    {
      "inputs": [
        {
          "internalType": "int256",
          "name": "_marginAmount",
          "type": "int256"
        }
      ],
      "name": "updateMargin",
      "outputs": [
        {
          "internalType": "uint256",
          "name": "vaultId",
          "type": "uint256"
        }
      ],
      "stateMutability": "nonpayable",
      "type": "function"
    },
    {
      "inputs": [],
      "name": "vaultCount",
      "outputs": [
        {
          "internalType": "uint256",
          "name": "",
          "type": "uint256"
        }
      ],
      "stateMutability": "view",
      "type": "function"
    },
    {
      "inputs": [
        {
          "internalType": "uint256",
          "name": "_assetId",
          "type": "uint256"
        },
        {
          "internalType": "uint256",
          "name": "_amount",
          "type": "uint256"
        }
      ],
      "name": "withdrawProtocolRevenue",
      "outputs": [],
      "stateMutability": "nonpayable",
      "type": "function"
    },
    {
      "inputs": [
        {
          "internalType": "uint256",
          "name": "_assetId",
          "type": "uint256"
        },
        {
          "internalType": "uint256",
          "name": "_amount",
          "type": "uint256"
        }
      ],
      "name": "withdrawToken",
      "outputs": [
        {
          "internalType": "uint256",
          "name": "finalBurnAmount",
          "type": "uint256"
        },
        {
          "internalType": "uint256",
          "name": "finalWithdrawAmount",
          "type": "uint256"
        }
      ],
      "stateMutability": "nonpayable",
      "type": "function"
    }
  ],
  "transactionHash": "0x5f0ca7c4954ab1abbefcf8ea59d32fce6e14c064e60e223e5e7684d739ee2574",
  "args": [],
  "numDeployments": 5,
  "solcInputHash": "087deba163b34fff9c25bff3693254f9",
  "bytecode": "0x608060405234801561001057600080fd5b50600180556158ae80620000256000396000f3fe608060405234801561001057600080fd5b50600436106101a95760003560e01c80636354c081116100f9578063b3ab15fb11610097578063eac8f5b811610071578063eac8f5b8146103ec578063f3eb8cd81461040c578063fa461e331461043f578063fdb483c71461045257600080fd5b8063b3ab15fb146103b3578063b48477dc146103c6578063d3487997146103d957600080fd5b80639403b634116100d35780639403b6341461036457806395be76a214610384578063a7c6a10014610397578063acfcd9fd146103a057600080fd5b80636354c0811461032b57806377db569a1461033e5780638f1f63291461035157600080fd5b8063286c31c01161016657806349ebb77d1161014057806349ebb77d146102d2578063570ca735146102f257806358c4ff2b14610305578063617c425f1461031857600080fd5b8063286c31c0146102745780632da848b21461028957806335c8a407146102b157600080fd5b80630fe433db146101ae578063113528a8146101dd57806313c732ba146101fd578063165604561461021257806318e80749146102285780632556efd214610253575b600080fd5b6101c16101bc3660046140d6565b610465565b6040805192151583526020830191909152015b60405180910390f35b6101f06101eb36600461426e565b6104f2565b6040516101d49190614383565b6102056105e2565b6040516101d49190614392565b61021a61066b565b6040516101d4929190614564565b61023b6102363660046140d6565b6108f8565b6040516001600160a01b0390911681526020016101d4565b6102666102613660046140d6565b610940565b6040519081526020016101d4565b6102876102823660046140d6565b6109fb565b005b61029c6102973660046140d6565b610a83565b604080519283526020830191909152016101d4565b6102c46102bf36600461426e565b610b08565b6040516101d49291906145d6565b6102e56102e03660046140d6565b610d99565b6040516101d491906145eb565b60085461023b906001600160a01b031681565b6101f06103133660046145fe565b610e5a565b610266610326366004614660565b6110f7565b610287610339366004614759565b611201565b61028761034c366004614660565b611332565b61028761035f36600461486e565b61143d565b6103776103723660046140d6565b6114f9565b6040516101d4919061489b565b61028761039236600461491e565b6116cf565b61026660075481565b61023b6103ae3660046140d6565b611798565b6102876103c136600461495d565b6117c0565b6102876103d4366004614660565b611851565b6102876103e73660046149bb565b6119c6565b6103ff6103fa3660046140d6565b611ace565b6040516101d49190614ad8565b61042f61041a36600461495d565b60096020526000908152604090205460ff1681565b60405190151581526020016101d4565b61028761044d3660046149bb565b611d05565b61029c610460366004614660565b611db6565b600080610470611ec9565b60405163dca9a13960e01b81526004808201526024810184905273A43382fe436AFdAADf07E25a25736C9D536d83199063dca9a139906044016040805180830381865af41580156104c5573d6000803e3d6000fd5b505050506040513d601f19601f820116820180604052508101906104e99190614c47565b91509150915091565b6104fa613db5565b610502611f31565b600084815260056020526040812061051d9060029086611f8a565b9050610527611ec9565b600085815260056020526040902061053f90856121de565b505060008581526005602052604090819020905163d811f13d60e01b8152737ACC24C9122B5Ed7F9a3C1eb8945c3B234e4f0D69163d811f13d9161058d91600491899087908a908501614d11565b61010060405180830381865af41580156105ab573d6000803e3d6000fd5b505050506040513d601f19601f820116820180604052508101906105cf9190614d47565b9150506105db60018055565b9392505050565b6040805180820190915260008152606060208201526002604051806040016040529081600082015481526020016001820180548060200260200160405190810160405280929190818152602001828054801561065d57602002820191906000526020600020905b815481526020019060010190808311610649575b505050505081525050905090565b610673613e0d565b606061067d611ec9565b336000908152600660209081526040808320815180830183528154815260018201805484518187028101870190955280855291949293858401939092908301828280156106e957602002820191906000526020600020905b8154815260200190600101908083116106d5575b505050505081525050905060008160200151516001600160401b03811115610713576107136140ef565b60405190808252806020026020018201604052801561074c57816020015b610739613e0d565b8152602001906001900390816107315790505b50905060005b8260200151518110156108545773626889015cf4C5F87f0D5d2F4ADD3Dd0df91D3f5633cda4fcb6004600560008760200151868151811061079557610795614dd3565b6020026020010151815260200190815260200160002086600001516040518463ffffffff1660e01b81526004016107df939291909283526020830191909152604082015260600190565b600060405180830381865af41580156107fc573d6000803e3d6000fd5b505050506040513d6000823e601f3d908101601f191682016040526108249190810190614fe5565b82828151811061083657610836614dd3565b6020026020010181905250808061084c906150aa565b915050610752565b5081516000908152600560205260409081902083519151633cda4fcb60e01b81526004808201526024810191909152604481019190915273626889015cf4C5F87f0D5d2F4ADD3Dd0df91D3f590633cda4fcb90606401600060405180830381865af41580156108c7573d6000803e3d6000fd5b505050506040513d6000823e601f3d908101601f191682016040526108ef9190810190614fe5565b94909350915050565b6000818152600460205260408120600d015461093a90610920906001600160a01b0316612274565b6000848152600460205260409020601a015460ff166122e5565b92915050565b600061094a611f31565b5033600081815260066020526040902054906109699082906001612312565b600081815260056020526040908190209051630a4ff89760e01b81526004808201526024810182905260448101859052919250907352beAbaFB5497fD5e533505288f0C2865C5820Fe90630a4ff8979060640160006040518083038186803b1580156109d457600080fd5b505af41580156109e8573d6000803e3d6000fd5b50505050506109f660018055565b919050565b610a03611f31565b806000108015610a14575060075481105b610a1d57600080fd5b610a25611ec9565b6000818152600560205260408120610a3c90612435565b91505080610a765760405162461bcd60e51b8152602060048201526002602482015261219b60f11b60448201526064015b60405180910390fd5b50610a8060018055565b50565b60008181526004602081905260408083209051630f219e2160e01b8152839273626889015cf4C5F87f0D5d2F4ADD3Dd0df91D3f592630f219e2192610ac892016150c3565b6040805180830381865af4158015610ae4573d6000803e3d6000fd5b505050506040513d601f19601f820116820180604052508101906104e9919061529f565b6000610b12613db5565b610b1a611f31565b336000908152600660209081526040808320548084526005835281842082516080810184528154815260018201546001600160a01b03168186015260028201548185015260038201805485518188028101880190965280865293969295610ccd95929487946060870194939284015b82821015610cbf57600084815260209081902060408051808201825260118602909201805483528151610140810183526001808301546101008301908152600280850154610120850152908352845160e08082018752600386015482526004860154828a015260058601548288015260068601546060808401919091526007870154608080850191909152600888015460a080860191909152600989015460c080870191909152888d01959095528951808b018b52600a8a01548152600b8a0154818e0152888b01528951808b01909a52600c8901548a52600d8901548a8d015291870198909852600e87015480850b98870198909852630100000090970490920b95840195909552600f8401549483019490945260109092015492810192909252828401919091529083529092019101610b89565b505050508152505033612444565b610cd5611ec9565b610cde81612435565b5050610ced6000336000612312565b60008181526005602052604090819020905163d17a2fd760e01b815291955073a5A2dCEA8E22007E3D78313A786a39C210520E689163d17a2fd791610d42916002916004918791908e908e908e9086016152c3565b61010060405180830381865af4158015610d60573d6000803e3d6000fd5b505050506040513d601f19601f82011682018060405250810190610d849190614d47565b92505050610d9160018055565b935093915050565b610da1613e0d565b610da9611ec9565b600082815260056020908152604080832060018101546001600160a01b03168452600690925291829020549151633cda4fcb60e01b81526004808201526024810182905260448101929092529073626889015cf4C5F87f0D5d2F4ADD3Dd0df91D3f590633cda4fcb90606401600060405180830381865af4158015610e32573d6000803e3d6000fd5b505050506040513d6000823e601f3d908101601f191682016040526105db9190810190614fe5565b610e62613db5565b610e6a611f31565b336000908152600660209081526040808320548084526005835281842088855282852083516080810185528254815260018301546001600160a01b03168187015260028301548186015260038301805486518189028101890190975280875294979396929561101795929488946060870194929392919084018215610cbf57600084815260209081902060408051808201825260118602909201805483528151610140810183526001808301546101008301908152600280850154610120850152908352845160e08082018752600386015482526004860154828a015260058601548288015260068601546060808401919091526007870154608080850191909152600888015460a080860191909152600989015460c080870191909152888d01959095528951808b018b52600a8a01548152600b8a0154818e0152888b01528951808b01909a52600c8901548a52600d8901548a8d015291870198909852600e87015480850b98870198909852630100000090970490920b95840195909552600f8401549483019490945260109092015492810192909252828401919091529083529092019101610b89565b61101f611ec9565b604080516312d11e9f60e11b815260026004808301919091526024820152604481018490526064810183905260848101889052865160a4820152602087015160c48201529086015160e482015273a5A2dCEA8E22007E3D78313A786a39C210520E68906325a23d3e906101040161010060405180830381865af41580156110aa573d6000803e3d6000fd5b505050506040513d601f19601f820116820180604052508101906110ce9190614d47565b33600090815260066020526040902082549195506110eb916124ac565b5050506105db60018055565b6000611101611f31565b604051630b89429960e41b81526004808201526024810184905273A43382fe436AFdAADf07E25a25736C9D536d83199063b89429909060440160006040518083038186803b15801561115257600080fd5b505af4158015611166573d6000803e3d6000fd5b5050506000848152600460208190526040918290209151636f4a9f2560e11b81529081019190915260248101849052734e5205cBd5e607cEFD21c1F8583182E5d036aa68915063de953e4a90604401602060405180830381865af41580156111d2573d6000803e3d6000fd5b505050506040513d601f19601f820116820180604052508101906111f69190615307565b905061093a60018055565b600054610100900460ff16158080156112215750600054600160ff909116105b8061123b5750303b15801561123b575060005460ff166001145b61129e5760405162461bcd60e51b815260206004820152602e60248201527f496e697469616c697a61626c653a20636f6e747261637420697320616c72656160448201526d191e481a5b9a5d1a585b1a5e995960921b6064820152608401610a6d565b6000805460ff1916600117905580156112c1576000805461ff0019166101001790555b6001600755600880546001600160a01b031916331790556112e3848484612563565b5050801561132c576000805461ff0019169055604051600181527f7f26b83ff96e1f2b6a682f133852f6798a09c465da95921460cefb3847402498906020015b60405180910390a15b50505050565b6008546001600160a01b0316331461135c5760405162461bcd60e51b8152600401610a6d90615320565b60008111801561137d57506000828152600460205260409020602401548111155b6113ae5760405162461bcd60e51b8152602060048201526002602482015261086760f31b6044820152606401610a6d565b600082815260046020526040812060240180548392906113cf90849061533c565b9091555050801561140057600082815260046020526040902060010154611400906001600160a01b031633836126eb565b60408051838152602081018390527f5a6209ab9405f06c2021fba7427042ac316e7d24950bcd298a3648a478106720910160405180910390a15050565b6008546001600160a01b031633146114675760405162461bcd60e51b8152600401610a6d90615320565b611470816127e4565b600082815260046020818152604092839020845160038201559084015191810180548585015162ffffff90811663010000000265ffffffffffff199092169416939093179290921790915590517f92ed2b5ec0745b7234f6ab040b7f173361ca415308f4c5f82bf30472e3b72864906114ec908590859061534f565b60405180910390a1505050565b61152d60405180608001604052806000815260200160006001600160a01b0316815260200160008152602001606081525090565b600082815260056020908152604080832081516080810183528154815260018201546001600160a01b031681850152600282015481840152600382018054845181870281018701909552808552919592946060870194939192919084015b828210156116c157600084815260209081902060408051808201825260118602909201805483528151610140810183526001808301546101008301908152600280850154610120850152908352845160e08082018752600386015482526004860154828a015260058601548288015260068601546060808401919091526007870154608080850191909152600888015460a080860191909152600989015460c080870191909152888d01959095528951808b018b52600a8a01548152600b8a0154818e0152888b01528951808b01909a52600c8901548a52600d8901548a8d015291870198909852600e87015480850b98870198909852630100000090970490920b95840195909552600f840154948301949094526010909201549281019290925282840191909152908352909201910161158b565b505050915250909392505050565b6008546001600160a01b031633146116f95760405162461bcd60e51b8152600401610a6d90615320565b6117028261287d565b61170b8161287d565b6000838152600460209081526040918290208451601b82015584820151601c82015584830151601d820155606080860151601e8301558451601f830155848301519282019290925583830151602182015590830151602282015590517f1c30ef2fd5ebfa8ce15b3911c201569545d1887fb5822d48843b2f458cdaac3b9061132390869086908690615380565b6000818152600460205260408120600d015461093a90610920906001600160a01b0316612903565b6008546001600160a01b031633146117ea5760405162461bcd60e51b8152600401610a6d90615320565b6001600160a01b0381166117fd57600080fd5b600880546001600160a01b0319166001600160a01b0383169081179091556040519081527fb3b3f5f64ab192e4b5fefde1f51ce9733bbdcf831951543b325aebd49cc27ec49060200160405180910390a150565b611859611f31565b600082815260056020526040902060018101546001600160a01b031661187e57600080fd5b611886611ec9565b60018101546001600160a01b031660009081526006602090815260408083205480845260059092528083209051634509d2df60e11b8152600480820152602481018590526044810191909152606481018590529091908190733b0EB2b394BB889Ab38edBA76e8Dba10AdB488d990638a13a5be906084016040805180830381865af4158015611919573d6000803e3d6000fd5b505050506040513d601f19601f8201168201806040525081019061193d91906153e1565b91509150801561196f5760018401546001600160a01b03166000908152600660205260409020845461196f91906124ac565b81156119b557600160005260046020527fabd6e7cb50984ff9c2f3e18a2660c3353dadf4e3291deeb275dae2cd1e44fe06546119b5906001600160a01b031633846126eb565b505050506119c260018055565b5050565b3360009081526009602052604090205460ff166119e257600080fd5b338415611a5557611a55816001600160a01b0316630dfe16816040518163ffffffff1660e01b8152600401602060405180830381865afa158015611a2a573d6000803e3d6000fd5b505050506040513d601f19601f82011682018060405250810190611a4e9190615411565b33876126eb565b8315611ac757611ac7816001600160a01b031663d21220a76040518163ffffffff1660e01b8152600401602060405180830381865afa158015611a9c573d6000803e3d6000fd5b505050506040513d601f19601f82011682018060405250810190611ac09190615411565b33866126eb565b5050505050565b611ad6613e4c565b50600090815260046020818152604092839020835161016080820186528254825260018301546001600160a01b0390811683860152600280850154821684890152875160608181018a52600387015482529786015480830b8289015263010000009004820b818a01528785015287516101008181018a52600587015482526006870154828901526007870154828b01526008870154828a01526009870154608083810191909152600a88015460a080850191909152600b89015460c080860191909152600c8a015460e080870191909152838a01959095528c516101a081018e52600d8b01549788168152600160a01b8804870b818d0152600160b81b90970490950b868d0152600e890154868c0152600f890154868301526010890154868201526011890154868601526012890154868501526013890154868401528b51808d018d5260148a0154815260158a0154818c0152610120808801919091528c51808e018e5260168b0154815260178b0154818d01526101408089019190915260188b01549888019890985260198a015461018088015290880195909552601a88015460ff1615159387019390935289518084018b52601b8801548152601c880154818a0152601d880154818c0152601e880154818b01529186019190915288519182018952601f86015482528587015496820196909652602185015497810197909752602284015495870195909552928101949094526023810154928401929092526024909101549082015290565b3360009081526009602052604090205460ff16611d2157600080fd5b336000851315611d6c57611d6c816001600160a01b0316630dfe16816040518163ffffffff1660e01b8152600401602060405180830381865afa158015611a2a573d6000803e3d6000fd5b6000841315611ac757611ac7816001600160a01b031663d21220a76040518163ffffffff1660e01b8152600401602060405180830381865afa158015611a9c573d6000803e3d6000fd5b600080611dc1611f31565b604051630b89429960e41b81526004808201526024810185905273A43382fe436AFdAADf07E25a25736C9D536d83199063b89429909060440160006040518083038186803b158015611e1257600080fd5b505af4158015611e26573d6000803e3d6000fd5b5050506000858152600460208190526040918290209151631342351560e31b81529081019190915260248101859052734e5205cBd5e607cEFD21c1F8583182E5d036aa689150639a11a8a8906044016040805180830381865af4158015611e91573d6000803e3d6000fd5b505050506040513d601f19601f82011682018060405250810190611eb5919061529f565b91509150611ec260018055565b9250929050565b60405163064524cf60e31b81526002600480830191909152602482015273A43382fe436AFdAADf07E25a25736C9D536d83199063322926789060440160006040518083038186803b158015611f1d57600080fd5b505af415801561132c573d6000803e3d6000fd5b600260015403611f835760405162461bcd60e51b815260206004820152601f60248201527f5265656e7472616e637947756172643a207265656e7472616e742063616c6c006044820152606401610a6d565b6002600155565b604080516080810182528354815260018401546001600160a01b03166020808301919091526002850154828401526003850180548451818402810184019095528085526000946121169493889360608601939091889084018215610cbf57600084815260209081902060408051808201825260118602909201805483528151610140810183526001808301546101008301908152600280850154610120850152908352845160e08082018752600386015482526004860154828a015260058601548288015260068601546060808401919091526007870154608080850191909152600888015460a080860191909152600989015460c080870191909152888d01959095528951808b018b52600a8a01548152600b8a0154818e0152888b01528951808b01909a52600c8901548a52600d8901548a8d015291870198909852600e87015480850b98870198909852630100000090970490920b95840195909552600f8401549483019490945260109092015492810192909252828401919091529083529092019101610b89565b6121968285604051806040016040529081600082015481526020016001820180548060200260200160405190810160405280929190818152602001828054801561217f57602002820191906000526020600020905b81548152602001906001019080831161216b575b50505050508152505061291890919063ffffffff16565b6121cc5760405162461bcd60e51b81526020600482015260076024820152661054d4d155125160ca1b6044820152606401610a6d565b6121d68383612973565b949350505050565b60405163c906a0dd60e01b8152600481810152602481018390526044810182905260609060009073844e89C2D6267451b53d179aD3DE2F0b4E550aAB9063c906a0dd90606401600060405180830381865af4158015612241573d6000803e3d6000fd5b505050506040513d6000823e601f3d908101601f19168201604052612269919081019061542e565b915091509250929050565b6000816001600160a01b0316633850c7bd6040518163ffffffff1660e01b815260040160e060405180830381865afa1580156122b4573d6000803e3d6000fd5b505050506040513d601f19601f820116820180604052508101906122d891906154e2565b5094979650505050505050565b6000811561230b576123046001600160a01b038416600160c01b615590565b905061093a565b508161093a565b60008360000361242e576007805490600061232c836150aa565b9091555090506001600160a01b03831661236d5760405162461bcd60e51b8152602060048201526002602482015261433560f01b6044820152606401610a6d565b600081815260056020526040902081815560010180546001600160a01b0319166001600160a01b03851617905581156123c7576001600160a01b03831660009081526006602052604090206123c29082612b31565b6123e9565b6001600160a01b03831660009081526006602052604090206123e99082612b69565b604080518281523360208201528315158183015290517f2426281c09515ec0a53173de7284551c54a4c6fc61de7d2ccb225a44eee0c98b9181900360600190a16105db565b50826105db565b606060006104e98360006121de565b81516124625760405162461bcd60e51b8152600401610a6d906155a4565b806001600160a01b031682602001516001600160a01b0316146119c25760405162461bcd60e51b81526020600482015260026024820152612b1960f11b6044820152606401610a6d565b600081116124cc5760405162461bcd60e51b8152600401610a6d906155a4565b81548190036124d9575050565b600061255283604051806040016040529081600082015481526020016001820180548060200260200160405190810160405280929190818152602001828054801561254357602002820191906000526020600020905b81548152602001906001019080831161252f575b50505050508152505083612bda565b905061255e8382612c63565b505050565b60006060600191506125c28286600080604051806060016040528060008152602001600060020b8152602001600060020b8152508960405180608001604052806000815260200160008152602001600081526020016000815250612cde565b6002829055600380546001810182556000919091527fc2575a0e9e593c00f959f8c92f12db2869c3395a3b0502d05e2516446f71f85b0182905582516001600160401b03811115612615576126156140ef565b60405190808252806020026020018201604052801561263e578160200160208202803683370190505b50905060005b83518110156126a95761267a61265b8260026155c0565b85838151811061266d5761266d614dd3565b6020026020010151613062565b82828151811061268c5761268c614dd3565b6020908102919091010152806126a1816150aa565b915050612644565b507f26c7b90c1b486b10d84500b5c9d96e3ddb40f753b44ff5d96bef531d8455b7c682826040516126db9291906155d3565b60405180910390a1935093915050565b604080516001600160a01b038481166024830152604480830185905283518084039091018152606490920183526020820180516001600160e01b031663a9059cbb60e01b17905291516000928392908716916127479190615614565b6000604051808303816000865af19150503d8060008114612784576040519150601f19603f3d011682016040523d82523d6000602084013e612789565b606091505b50915091508180156127b35750805115806127b35750808060200190518101906127b39190615630565b611ac75760405162461bcd60e51b815260206004820152600260248201526114d560f21b6044820152606401610a6d565b80516305f5e1001080156127fd57508051633b9aca0010155b61282e5760405162461bcd60e51b8152602060048201526002602482015261043360f41b6044820152606401610a6d565b6000816020015160020b13801561284c57506000816040015160020b135b610a805760405162461bcd60e51b8152602060048201526002602482015261043360f41b6044820152606401610a6d565b8051670de0b6b3a7640000108015906128a25750670de0b6b3a7640000816020015111155b80156128ba5750670de0b6b3a7640000816040015111155b80156128d25750678ac7230489e80000816060015111155b610a805760405162461bcd60e51b815260206004820152600260248201526110cd60f21b6044820152606401610a6d565b6000612911826107086133a4565b5092915050565b6000805b83602001515181101561296957828460200151828151811061294057612940614dd3565b60200260200101510361295757600191505061093a565b80612961816150aa565b91505061291c565b5060009392505050565b6000805b60038401548110156129ed578284600301828154811061299957612999614dd3565b906000526020600020906011020160000154036129db578360030181815481106129c5576129c5614dd3565b906000526020600020906011020191505061093a565b806129e5816150aa565b915050612977565b50826003016040518060400160405280848152602001612a0b61382c565b905281546001818101845560009384526020938490208351601190930201918255918301518051805183850155840151600283015580840151805160038085019190915581860151600485015560408083015160058601556060808401516006870155608080850151600788015560a080860151600889015560c0958601516009890155928601518051600a890155890151600b880155908501518051600c88015590970151600d86015595830151600e850180549785015162ffffff90811663010000000265ffffffffffff1990991692169190911796909617909555810151600f83015560e0015160109091015590840180549091612b0b9161533c565b81548110612b1b57612b1b614dd3565b9060005260206000209060110201905092915050565b815415612b655760405162461bcd60e51b8152602060048201526002602482015261158d60f21b6044820152606401610a6d565b9055565b60008111612b895760405162461bcd60e51b8152600401610a6d906155a4565b60018083018054918201815560008181526020902090910182905554606410156119c25760405162461bcd60e51b8152602060048201526002602482015261563360f01b6044820152606401610a6d565b6000600019815b846020015151811015612c2c578385602001518281518110612c0557612c05614dd3565b602002602001015103612c1a57809150612c2c565b80612c24816150aa565b915050612be1565b5060648111156105db5760405162461bcd60e51b8152602060048201526002602482015261563360f01b6044820152606401610a6d565b600180830180549091612c759161533c565b81548110612c8557612c85614dd3565b9060005260206000200154826001018281548110612ca557612ca5614dd3565b60009182526020909120015560018201805480612cc457612cc461564d565b600190038181906000526020600020016000905590555050565b6001600160a01b03841615612cf657612cf6836127e4565b60008781526004602052604090205415612d0f57600080fd5b60408051610160810182528881526001600160a01b0388166020820181905282516351c71be960e11b815260048101919091529091820190734e5205cBd5e607cEFD21c1F8583182E5d036aa689063a38e37d290602401602060405180830381865af4158015612d83573d6000803e3d6000fd5b505050506040513d601f19601f82011682018060405250810190612da79190615411565b6001600160a01b03168152602001848152602001612dc361391a565b8152602001612de4868660200151612dda90615663565b8760200151613977565b81528615156020808301919091526040808301869052606080840186905242608080860191909152600060a09586018190528d815260048086529084902087518155878601516001820180546001600160a01b039283166001600160a01b031991821617909155898701516002840180549184169190921617905588850151805160038401558088015193830180549188015162ffffff90811663010000000265ffffffffffff1990931695811695909517919091179055888401518051600584015580880151600684015580870151600784015580860151600884015580850151600984015580890151600a84015560c080820151600b85015560e091820151600c8501558a8a01518051600d86018054838d0151848d01518a16600160b81b0262ffffff60b81b1991909a16600160a01b026001600160b81b03199092169388169390931717919091169690961790955584870151600e85015594840151600f8401559783015160108301558284015160118301558288015160128301556101008381015160138401556101208085015180516014860155890151601585015561014080860151805160168701558a015160178601556101608601516018860155610180909501516019850155948a0151601a8401805491151560ff19909216919091179055978901518051601b84015580880151601c84015580870151601d840155850151601e830155968801518051601f8301558087015196820196909655938501516021850155939091015160228301558401516023820155920151602490920191909155841615613059576001600160a01b0384166000908152600960205260409020805460ff191660011790555b50505050505050565b805160016000908152600460208181527fabd6e7cb50984ff9c2f3e18a2660c3353dadf4e3291deeb275dae2cd1e44fe065460408051630dfe168160e01b815290519495946001600160a01b0392831694859493871693630dfe168193808301939192908290030181865afa1580156130df573d6000803e3d6000fd5b505050506040513d601f19601f820116820180604052508101906131039190615411565b6001600160a01b0316148061318a5750806001600160a01b0316826001600160a01b031663d21220a76040518163ffffffff1660e01b8152600401602060405180830381865afa15801561315b573d6000803e3d6000fd5b505050506040513d601f19601f8201168201806040525081019061317f9190615411565b6001600160a01b0316145b6131bb5760405162461bcd60e51b8152602060048201526002602482015261433360f01b6044820152606401610a6d565b6000816001600160a01b0316836001600160a01b0316630dfe16816040518163ffffffff1660e01b8152600401602060405180830381865afa158015613205573d6000803e3d6000fd5b505050506040513d601f19601f820116820180604052508101906132299190615411565b6001600160a01b031614905061332186826132a557846001600160a01b0316630dfe16816040518163ffffffff1660e01b8152600401602060405180830381865afa15801561327c573d6000803e3d6000fd5b505050506040513d601f19601f820116820180604052508101906132a09190615411565b613307565b846001600160a01b031663d21220a76040518163ffffffff1660e01b8152600401602060405180830381865afa1580156132e3573d6000803e3d6000fd5b505050506040513d601f19601f820116820180604052508101906133079190615411565b83886000015189602001518a604001518b60600151612cde565b600380546001810182556000919091527fc2575a0e9e593c00f959f8c92f12db2869c3395a3b0502d05e2516446f71f85b018690558451604080518881526001600160a01b0390921660208301527f7542208db6aa6ef6792bdfe7e7e9b59d32521a551b7c007f0bf9b1afbe257c39910160405180910390a15093949350505050565b60408051600280825260608201835260009283928392909160208301908036833701905050905083816000815181106133df576133df614dd3565b602002602001019063ffffffff16908163ffffffff168152505060008160018151811061340e5761340e614dd3565b602002602001019063ffffffff16908163ffffffff1681525050600080866001600160a01b031663883bdbfd60e01b8460405160240161344e9190615685565b60408051601f198184030181529181526020820180516001600160e01b03166001600160e01b031990941693909317909252905161348c9190615614565b600060405180830381855afa9150503d80600081146134c7576040519150601f19603f3d011682016040523d82523d6000602084013e6134cc565b606091505b5091509150816137ac5760405160206024820152600360448201526213d31160ea1b606482015260840160408051601f19818403018152919052602080820180516001600160e01b031662461bcd60e51b17815291519091208251918301919091201461353c5761353c81613a4b565b600080886001600160a01b0316633850c7bd6040518163ffffffff1660e01b815260040160e060405180830381865afa15801561357d573d6000803e3d6000fd5b505050506040513d601f19601f820116820180604052508101906135a191906154e2565b5050509350935050506000808a6001600160a01b031663252c09d7848660016135ca91906156cf565b6135d491906156ea565b6040516001600160e01b031960e084901b16815261ffff9091166004820152602401608060405180830381865afa158015613613573d6000803e3d6000fd5b505050506040513d601f19601f82011682018060405250810190613637919061571d565b935050509150806136b25760405163252c09d760e01b8152600060048201526001600160a01b038c169063252c09d790602401608060405180830381865afa158015613687573d6000803e3d6000fd5b505050506040513d601f19601f820116820180604052508101906136ab919061571d565b5091935050505b6136c263ffffffff83164261533c565b995089876000815181106136d8576136d8614dd3565b602002602001019063ffffffff16908163ffffffff16815250508a6001600160a01b031663883bdbfd60e01b886040516024016137159190615685565b60408051601f198184030181529181526020820180516001600160e01b03166001600160e01b03199094169390931790925290516137539190615614565b600060405180830381855afa9150503d806000811461378e576040519150601f19603f3d011682016040523d82523d6000602084013e613793565b606091505b509096509450856137a7576137a785613a4b565b505050505b6000818060200190518101906137c29190615781565b9050600087826000815181106137da576137da614dd3565b6020026020010151836001815181106137f5576137f5614dd3565b6020026020010151613807919061580d565b613811919061583a565b9050600061381e82613a92565b9a9899505050505050505050565b613834613f2c565b604051806101000160405280604051806040016040528060008152602001600081525081526020016040518060e00160405280600081526020016000815260200160008152602001600081526020016000815260200160008152602001600081525081526020016138c66040805180820182526000808252602091820181905282518084019093528083529082015290565b81526020016138f66040805180820182526000808252602091820181905282518084019093528083529082015290565b81526000602082018190526040820181905260608201819052608090910152919050565b613922613ff8565b60405180610100016040528060008152602001600081526020016000815260200160008152602001670de0b6b3a76400008152602001670de0b6b3a76400008152602001600081526020016000815250905090565b61397f61403d565b604051806101a00160405280856001600160a01b031681526020018460020b81526020018360020b8152602001600081526020016000815260200160008152602001600081526020016000815260200160008152602001613a016040805180820182526000808252602091820181905282518084019093528083529082015290565b8152602001613a316040805180820182526000808252602091820181905282518084019093528083529082015290565b815260200160008152602001600081525090509392505050565b805115613a5a57805181602001fd5b60405162461bcd60e51b815260206004820152600d60248201526c3297b2b6b83a3c96b2b93937b960991b6044820152606401610a6d565b60008060008360020b12613aa9578260020b613ab1565b8260020b6000035b9050620d89e8811115613ad7576040516315e4079d60e11b815260040160405180910390fd5b600081600116600003613aee57600160801b613b00565b6ffffcb933bd6fad37aa2d162d1a5940015b70ffffffffffffffffffffffffffffffffff1690506002821615613b34576ffff97272373d413259a46990580e213a0260801c5b6004821615613b53576ffff2e50f5f656932ef12357cf3c7fdcc0260801c5b6008821615613b72576fffe5caca7e10e4e61c3624eaa0941cd00260801c5b6010821615613b91576fffcb9843d60f6159c9db58835c9266440260801c5b6020821615613bb0576fff973b41fa98c081472e6896dfb254c00260801c5b6040821615613bcf576fff2ea16466c96a3843ec78b326b528610260801c5b6080821615613bee576ffe5dee046a99a2a811c461f1969c30530260801c5b610100821615613c0e576ffcbe86c7900a88aedcffc83b479aa3a40260801c5b610200821615613c2e576ff987a7253ac413176f2b074cf7815e540260801c5b610400821615613c4e576ff3392b0822b70005940c7a398e4b70f30260801c5b610800821615613c6e576fe7159475a2c29b7443b29c7fa6e889d90260801c5b611000821615613c8e576fd097f3bdfd2022b8845ad8f792aa58250260801c5b612000821615613cae576fa9f746462d870fdf8a65dc1f90e061e50260801c5b614000821615613cce576f70d869a156d2a1b890bb3df62baf32f70260801c5b618000821615613cee576f31be135f97d08fd981231505542fcfa60260801c5b62010000821615613d0f576f09aa508b5b7a84e1c677de54f3e99bc90260801c5b62020000821615613d2f576e5d6af8dedb81196699c329225ee6040260801c5b62040000821615613d4e576d2216e584f5fa1ea926041bedfe980260801c5b62080000821615613d6b576b048a170391f7dc42444e8fa20260801c5b60008460020b1315613d8c578060001981613d8857613d8861557a565b0490505b640100000000810615613da0576001613da3565b60005b60ff16602082901c0192505050919050565b6040518060600160405280613df96040518060c001604052806000815260200160008152602001600081526020016000815260200160008152602001600081525090565b815260200160008152602001600081525090565b6040518060e001604052806000815260200160001515815260200160008152602001600081526020016000815260200160008152602001606081525090565b6040518061016001604052806000815260200160006001600160a01b0316815260200160006001600160a01b03168152602001613ea9604051806060016040528060008152602001600060020b8152602001600060020b81525090565b8152602001613eb6613ff8565b8152602001613ec361403d565b8152602001600015158152602001613efc6040518060800160405280600081526020016000815260200160008152602001600081525090565b8152602001613df96040518060800160405280600081526020016000815260200160008152602001600081525090565b6040805161014081019091526000610100820181815261012083019190915281908152602001613f926040518060e00160405280600081526020016000815260200160008152602001600081526020016000815260200160008152602001600081525090565b8152602001613fb4604051806040016040528060008152602001600081525090565b8152602001613fd6604051806040016040528060008152602001600081525090565b8152600060208201819052604082018190526060820181905260809091015290565b60405180610100016040528060008152602001600081526020016000815260200160008152602001600081526020016000815260200160008152602001600081525090565b604051806101a0016040528060006001600160a01b03168152602001600060020b8152602001600060020b81526020016000815260200160008152602001600081526020016000815260200160008152602001600081526020016140b4604051806040016040528060008152602001600081525090565b8152602001613df9604051806040016040528060008152602001600081525090565b6000602082840312156140e857600080fd5b5035919050565b634e487b7160e01b600052604160045260246000fd5b60405160e081016001600160401b0381118282101715614127576141276140ef565b60405290565b604051606081016001600160401b0381118282101715614127576141276140ef565b604051608081016001600160401b0381118282101715614127576141276140ef565b60405160c081016001600160401b0381118282101715614127576141276140ef565b60405161010081016001600160401b0381118282101715614127576141276140ef565b604051601f8201601f191681016001600160401b03811182821017156141de576141de6140ef565b604052919050565b8015158114610a8057600080fd5b80356109f6816141e6565b600082601f83011261421057600080fd5b81356001600160401b03811115614229576142296140ef565b61423c601f8201601f19166020016141b6565b81815284602083860101111561425157600080fd5b816020850160208301376000918101602001919091529392505050565b60008060006060848603121561428357600080fd5b833592506020840135915060408401356001600160401b03808211156142a857600080fd5b9085019060e082880312156142bc57600080fd5b6142c4614105565b82358152602083013560208201526040830135604082015260608301356060820152608083013560808201526142fc60a084016141f4565b60a082015260c08301358281111561431357600080fd5b61431f898286016141ff565b60c0830152508093505050509250925092565b8051805183526020810151602084015260408101516040840152606081015160608401526080810151608084015260a081015160a084015250602081015160c0830152604081015160e08301525050565b610100810161093a8284614332565b60208082528251828201528281015160408084015280516060840181905260009291820190839060808601905b808310156143df57835182529284019260019290920191908401906143bf565b509695505050505050565b805180518352602090810151818401528101516144496040840182805182526020810151602083015260408101516040830152606081015160608301526080810151608083015260a081015160a083015260c081015160c08301525050565b50604081015180516101208401526020908101516101408401526060820151805161016085015201516101808301526080810151600290810b6101a084015260a0820151900b6101c083015260c08101516101e083015260e0015161020090910152565b600060e083018251845260208084015115158186015260408085015181870152606080860151818801526080860151608088015260a086015160a088015260c086015160e060c08901528481518087526101008a0191508583019650600092505b80831015614557578651805183528681015161452c888501826143ea565b508086015161024084015284015161026083015295850195600192909201916102809091019061450e565b5098975050505050505050565b60408152600061457760408301856144ad565b6020838203818501528185518084528284019150828160051b85010183880160005b838110156145c757601f198784030185526145b58383516144ad565b94860194925090850190600101614599565b50909998505050505050505050565b82815261012081016105db6020830184614332565b6020815260006105db60208301846144ad565b600080600083850360a081121561461457600080fd5b84359350602085013592506060603f198201121561463157600080fd5b5061463a61412d565b604085013581526060850135602082015260808501356040820152809150509250925092565b6000806040838503121561467357600080fd5b50508035926020909101359150565b6001600160a01b0381168114610a8057600080fd5b6000608082840312156146a957600080fd5b6146b161414f565b90508135815260208201356020820152604082013560408201526060820135606082015292915050565b60006001600160401b038211156146f4576146f46140ef565b5060051b60200190565b8060020b8114610a8057600080fd5b60006060828403121561471f57600080fd5b61472761412d565b905081358152602082013561473b816146fe565b6020820152604082013561474e816146fe565b604082015292915050565b600080600060c0848603121561476e57600080fd5b833561477981614682565b9250602061478986868301614697565b925060a08501356001600160401b038111156147a457600080fd5b8501601f810187136147b557600080fd5b80356147c86147c3826146db565b6141b6565b818152610180918202830184019184820191908a8411156147e857600080fd5b938501935b8385101561485e5780858c0312156148055760008081fd5b61480d61414f565b853561481881614682565b81526148268c87890161470d565b878201526148378c60808801614697565b604082015261484a8c6101008801614697565b6060820152835293840193918501916147ed565b5080955050505050509250925092565b6000806080838503121561488157600080fd5b82359150614892846020850161470d565b90509250929050565b6020808252825182820152828101516001600160a01b0316604080840191909152830151606080840191909152830151608080840152805160a0840181905260009291820190839060c08601905b808310156143df57835180518352850151614906868401826143ea565b506102408201915084840193506001830192506148e9565b6000806000610120848603121561493457600080fd5b833592506149458560208601614697565b91506149548560a08601614697565b90509250925092565b60006020828403121561496f57600080fd5b81356105db81614682565b60008083601f84011261498c57600080fd5b5081356001600160401b038111156149a357600080fd5b602083019150836020828501011115611ec257600080fd5b600080600080606085870312156149d157600080fd5b843593506020850135925060408501356001600160401b038111156149f557600080fd5b614a018782880161497a565b95989497509550505050565b80516001600160a01b031682526020810151614a2e602084018260020b9052565b506040810151614a43604084018260020b9052565b50606081015160608301526080810151608083015260a081015160a083015260c081015160c083015260e081015160e083015261010080820151818401525061012080820151614a9f8285018280518252602090810151910152565b5050610140810151610160614ac08185018380518252602090810151910152565b8201516101a08401525061018001516101c090910152565b81518152602080830151610500830191614afc908401826001600160a01b03169052565b506040830151614b1760408401826001600160a01b03169052565b506060830151614b47606084018280518252602081015160020b6020830152604081015160020b60408301525050565b506080830151614ba360c0840182805182526020810151602083015260408101516040830152606081015160608301526080810151608083015260a081015160a083015260c081015160c083015260e081015160e08301525050565b5060a0830151614bb76101c0840182614a0d565b5060c083015115156103a083015260e083015180516103c08401526020808201516103e085015260408083015161040086015260609283015161042086015261010086015180516104408701529182015161046086015281015161048085015201516104a08301526101208301516104c0830152610140909201516104e09091015290565b80516109f6816141e6565b60008060408385031215614c5a57600080fd5b8251614c65816141e6565b6020939093015192949293505050565b60005b83811015614c90578181015183820152602001614c78565b50506000910152565b805182526020810151602083015260408101516040830152606081015160608301526080810151608083015260a0810151151560a0830152600060c082015160e060c085015280518060e0860152610100614cfa8282880160208601614c75565b80601f19601f840116870101935050505092915050565b85815284602082015283604082015282606082015260a060808201526000614d3c60a0830184614c99565b979650505050505050565b6000818303610100811215614d5b57600080fd5b614d6361412d565b60c0821215614d7157600080fd5b614d79614171565b9150835182526020840151602083015260408401516040830152606084015160608301526080840151608083015260a084015160a083015281815260c0840151602082015260e08401516040820152809250505092915050565b634e487b7160e01b600052603260045260246000fd5b600060408284031215614dfb57600080fd5b604051604081018181106001600160401b0382111715614e1d57614e1d6140ef565b604052825181526020928301519281019290925250919050565b600060e08284031215614e4957600080fd5b614e51614105565b9050815181526020820151602082015260408201516040820152606082015160608201526080820151608082015260a082015160a082015260c082015160c082015292915050565b80516109f6816146fe565b600082601f830112614eb557600080fd5b81516020614ec56147c3836146db565b8281526102809283028501820192828201919087851115614ee557600080fd5b8387015b85811015614fd85780890382811215614f025760008081fd5b614f0a61414f565b8251815261022080601f1984011215614f235760008081fd5b614f2b614193565b9250614f398c898601614de9565b83526060614f498d828701614e37565b89850152614f5b8d6101408701614de9565b60408181870152614f708f6101808901614de9565b83870152614f816101c08801614e99565b6080870152614f936101e08801614e99565b60a087015261020087015160c08701529286015160e0860152508289019390935261024084015190820152610260830151918101919091528452928401928101614ee9565b5090979650505050505050565b600060208284031215614ff757600080fd5b81516001600160401b038082111561500e57600080fd5b9083019060e0828603121561502257600080fd5b61502a614105565b8251815261503a60208401614c3c565b602082015260408301516040820152606083015160608201526080830151608082015260a083015160a082015260c08301518281111561507957600080fd5b61508587828601614ea4565b60c08301525095945050505050565b634e487b7160e01b600052601160045260246000fd5b6000600182016150bc576150bc615094565b5060010190565b8154815260018201546001600160a01b039081166020830152600280840154909116604083015260038301546060830152600483015480820b608084015260181c900b60a0820152600582015460c0820152600682015460e0820152600782015461010082015260088201546101208201526009820154610140820152600a820154610160820152600b820154610180820152600c8201546101a0820152610500810161521c6101c08301600d850180546001600160a01b038116835260a081901c60020b602084015260b881901c60020b6040840152506001810154606083015260028101546080830152600381015460a0830152600481015460c0830152600581015460e08301526006810154610100830152600781015461012083015260088101546101408301526009810154610160830152600a810154610180830152600b8101546101a0830152600c01546101c090910152565b601a83015460ff1615156103a0830152601b8301546103c0830152601c8301546103e0830152601d830154610400830152601e830154610420830152601f8301546104408301526020830154610460830152602183015461048083015260228301546104a083015260238301546104c08301526024909201546104e09091015290565b600080604083850312156152b257600080fd5b505080516020909101519092909150565b8781528660208201528560408201528460608201528360808201528260a082015260e060c082015260006152fa60e0830184614c99565b9998505050505050505050565b60006020828403121561531957600080fd5b5051919050565b602080825260029082015261433160f01b604082015260600190565b8181038181111561093a5761093a615094565b828152608081016105db602083018480518252602081015160020b6020830152604081015160020b60408301525050565b83815261012081016153b66020830185805182526020810151602083015260408101516040830152606081015160608301525050565b825160a0830152602083015160c0830152604083015160e083015260608301516101008301526121d6565b600080604083850312156153f457600080fd5b825191506020830151615406816141e6565b809150509250929050565b60006020828403121561542357600080fd5b81516105db81614682565b6000806040838503121561544157600080fd5b82516001600160401b0381111561545757600080fd5b8301601f8101851361546857600080fd5b805160206154786147c3836146db565b82815260059290921b8301810191818101908884111561549757600080fd5b938201935b838510156154b55784518252938201939082019061549c565b95506154c49050868201614c3c565b93505050509250929050565b805161ffff811681146109f657600080fd5b600080600080600080600060e0888a0312156154fd57600080fd5b875161550881614682565b6020890151909750615519816146fe565b9550615527604089016154d0565b9450615535606089016154d0565b9350615543608089016154d0565b925060a088015160ff8116811461555957600080fd5b60c089015190925061556a816141e6565b8091505092959891949750929550565b634e487b7160e01b600052601260045260246000fd5b60008261559f5761559f61557a565b500490565b602080825260029082015261563160f01b604082015260600190565b8082018082111561093a5761093a615094565b6000604082018483526020604081850152818551808452606086019150828701935060005b81811015614fd8578451835293830193918301916001016155f8565b60008251615626818460208701614c75565b9190910192915050565b60006020828403121561564257600080fd5b81516105db816141e6565b634e487b7160e01b600052603160045260246000fd5b60008160020b627fffff19810361567c5761567c615094565b60000392915050565b6020808252825182820181905260009190848201906040850190845b818110156156c357835163ffffffff16835292840192918401916001016156a1565b50909695505050505050565b61ffff81811683821601908082111561291157612911615094565b600061ffff808416806156ff576156ff61557a565b92169190910692915050565b8051600681900b81146109f657600080fd5b6000806000806080858703121561573357600080fd5b845163ffffffff8116811461574757600080fd5b93506157556020860161570b565b9250604085015161576581614682565b6060860151909250615776816141e6565b939692955090935050565b6000602080838503121561579457600080fd5b82516001600160401b038111156157aa57600080fd5b8301601f810185136157bb57600080fd5b80516157c96147c3826146db565b81815260059190911b820183019083810190878311156157e857600080fd5b928401925b82841015614d3c576157fe8461570b565b825292840192908401906157ed565b600682810b9082900b03667fffffffffffff198112667fffffffffffff8213171561093a5761093a615094565b60008160060b8360060b806158515761585161557a565b667fffffffffffff1982146000198214161561586f5761586f615094565b9005939250505056fea2646970667358221220bfa8e624eaa56ae777ec12ece4cb278a1ed7344cc0a0094d8012b7d68d03274f64736f6c63430008130033",
  "deployedBytecode": "0x608060405234801561001057600080fd5b50600436106101a95760003560e01c80636354c081116100f9578063b3ab15fb11610097578063eac8f5b811610071578063eac8f5b8146103ec578063f3eb8cd81461040c578063fa461e331461043f578063fdb483c71461045257600080fd5b8063b3ab15fb146103b3578063b48477dc146103c6578063d3487997146103d957600080fd5b80639403b634116100d35780639403b6341461036457806395be76a214610384578063a7c6a10014610397578063acfcd9fd146103a057600080fd5b80636354c0811461032b57806377db569a1461033e5780638f1f63291461035157600080fd5b8063286c31c01161016657806349ebb77d1161014057806349ebb77d146102d2578063570ca735146102f257806358c4ff2b14610305578063617c425f1461031857600080fd5b8063286c31c0146102745780632da848b21461028957806335c8a407146102b157600080fd5b80630fe433db146101ae578063113528a8146101dd57806313c732ba146101fd578063165604561461021257806318e80749146102285780632556efd214610253575b600080fd5b6101c16101bc3660046140d6565b610465565b6040805192151583526020830191909152015b60405180910390f35b6101f06101eb36600461426e565b6104f2565b6040516101d49190614383565b6102056105e2565b6040516101d49190614392565b61021a61066b565b6040516101d4929190614564565b61023b6102363660046140d6565b6108f8565b6040516001600160a01b0390911681526020016101d4565b6102666102613660046140d6565b610940565b6040519081526020016101d4565b6102876102823660046140d6565b6109fb565b005b61029c6102973660046140d6565b610a83565b604080519283526020830191909152016101d4565b6102c46102bf36600461426e565b610b08565b6040516101d49291906145d6565b6102e56102e03660046140d6565b610d99565b6040516101d491906145eb565b60085461023b906001600160a01b031681565b6101f06103133660046145fe565b610e5a565b610266610326366004614660565b6110f7565b610287610339366004614759565b611201565b61028761034c366004614660565b611332565b61028761035f36600461486e565b61143d565b6103776103723660046140d6565b6114f9565b6040516101d4919061489b565b61028761039236600461491e565b6116cf565b61026660075481565b61023b6103ae3660046140d6565b611798565b6102876103c136600461495d565b6117c0565b6102876103d4366004614660565b611851565b6102876103e73660046149bb565b6119c6565b6103ff6103fa3660046140d6565b611ace565b6040516101d49190614ad8565b61042f61041a36600461495d565b60096020526000908152604090205460ff1681565b60405190151581526020016101d4565b61028761044d3660046149bb565b611d05565b61029c610460366004614660565b611db6565b600080610470611ec9565b60405163dca9a13960e01b81526004808201526024810184905273__$7a0b87ce898fe502b2df3b643e5d7fb9ba$__9063dca9a139906044016040805180830381865af41580156104c5573d6000803e3d6000fd5b505050506040513d601f19601f820116820180604052508101906104e99190614c47565b91509150915091565b6104fa613db5565b610502611f31565b600084815260056020526040812061051d9060029086611f8a565b9050610527611ec9565b600085815260056020526040902061053f90856121de565b505060008581526005602052604090819020905163d811f13d60e01b815273__$bc9f384c073b2381249378965b2d698cf3$__9163d811f13d9161058d91600491899087908a908501614d11565b61010060405180830381865af41580156105ab573d6000803e3d6000fd5b505050506040513d601f19601f820116820180604052508101906105cf9190614d47565b9150506105db60018055565b9392505050565b6040805180820190915260008152606060208201526002604051806040016040529081600082015481526020016001820180548060200260200160405190810160405280929190818152602001828054801561065d57602002820191906000526020600020905b815481526020019060010190808311610649575b505050505081525050905090565b610673613e0d565b606061067d611ec9565b336000908152600660209081526040808320815180830183528154815260018201805484518187028101870190955280855291949293858401939092908301828280156106e957602002820191906000526020600020905b8154815260200190600101908083116106d5575b505050505081525050905060008160200151516001600160401b03811115610713576107136140ef565b60405190808252806020026020018201604052801561074c57816020015b610739613e0d565b8152602001906001900390816107315790505b50905060005b8260200151518110156108545773__$4278c074fd6acd31e7e5f642d169fef5d3$__633cda4fcb6004600560008760200151868151811061079557610795614dd3565b6020026020010151815260200190815260200160002086600001516040518463ffffffff1660e01b81526004016107df939291909283526020830191909152604082015260600190565b600060405180830381865af41580156107fc573d6000803e3d6000fd5b505050506040513d6000823e601f3d908101601f191682016040526108249190810190614fe5565b82828151811061083657610836614dd3565b6020026020010181905250808061084c906150aa565b915050610752565b5081516000908152600560205260409081902083519151633cda4fcb60e01b81526004808201526024810191909152604481019190915273__$4278c074fd6acd31e7e5f642d169fef5d3$__90633cda4fcb90606401600060405180830381865af41580156108c7573d6000803e3d6000fd5b505050506040513d6000823e601f3d908101601f191682016040526108ef9190810190614fe5565b94909350915050565b6000818152600460205260408120600d015461093a90610920906001600160a01b0316612274565b6000848152600460205260409020601a015460ff166122e5565b92915050565b600061094a611f31565b5033600081815260066020526040902054906109699082906001612312565b600081815260056020526040908190209051630a4ff89760e01b815260048082015260248101829052604481018590529192509073__$1f4d3c4bb88e02f5b45caa05c79da92b33$__90630a4ff8979060640160006040518083038186803b1580156109d457600080fd5b505af41580156109e8573d6000803e3d6000fd5b50505050506109f660018055565b919050565b610a03611f31565b806000108015610a14575060075481105b610a1d57600080fd5b610a25611ec9565b6000818152600560205260408120610a3c90612435565b91505080610a765760405162461bcd60e51b8152602060048201526002602482015261219b60f11b60448201526064015b60405180910390fd5b50610a8060018055565b50565b60008181526004602081905260408083209051630f219e2160e01b8152839273__$4278c074fd6acd31e7e5f642d169fef5d3$__92630f219e2192610ac892016150c3565b6040805180830381865af4158015610ae4573d6000803e3d6000fd5b505050506040513d601f19601f820116820180604052508101906104e9919061529f565b6000610b12613db5565b610b1a611f31565b336000908152600660209081526040808320548084526005835281842082516080810184528154815260018201546001600160a01b03168186015260028201548185015260038201805485518188028101880190965280865293969295610ccd95929487946060870194939284015b82821015610cbf57600084815260209081902060408051808201825260118602909201805483528151610140810183526001808301546101008301908152600280850154610120850152908352845160e08082018752600386015482526004860154828a015260058601548288015260068601546060808401919091526007870154608080850191909152600888015460a080860191909152600989015460c080870191909152888d01959095528951808b018b52600a8a01548152600b8a0154818e0152888b01528951808b01909a52600c8901548a52600d8901548a8d015291870198909852600e87015480850b98870198909852630100000090970490920b95840195909552600f8401549483019490945260109092015492810192909252828401919091529083529092019101610b89565b505050508152505033612444565b610cd5611ec9565b610cde81612435565b5050610ced6000336000612312565b60008181526005602052604090819020905163d17a2fd760e01b815291955073__$e2217eb696a5c09092bdef553420bd7ff4$__9163d17a2fd791610d42916002916004918791908e908e908e9086016152c3565b61010060405180830381865af4158015610d60573d6000803e3d6000fd5b505050506040513d601f19601f82011682018060405250810190610d849190614d47565b92505050610d9160018055565b935093915050565b610da1613e0d565b610da9611ec9565b600082815260056020908152604080832060018101546001600160a01b03168452600690925291829020549151633cda4fcb60e01b81526004808201526024810182905260448101929092529073__$4278c074fd6acd31e7e5f642d169fef5d3$__90633cda4fcb90606401600060405180830381865af4158015610e32573d6000803e3d6000fd5b505050506040513d6000823e601f3d908101601f191682016040526105db9190810190614fe5565b610e62613db5565b610e6a611f31565b336000908152600660209081526040808320548084526005835281842088855282852083516080810185528254815260018301546001600160a01b03168187015260028301548186015260038301805486518189028101890190975280875294979396929561101795929488946060870194929392919084018215610cbf57600084815260209081902060408051808201825260118602909201805483528151610140810183526001808301546101008301908152600280850154610120850152908352845160e08082018752600386015482526004860154828a015260058601548288015260068601546060808401919091526007870154608080850191909152600888015460a080860191909152600989015460c080870191909152888d01959095528951808b018b52600a8a01548152600b8a0154818e0152888b01528951808b01909a52600c8901548a52600d8901548a8d015291870198909852600e87015480850b98870198909852630100000090970490920b95840195909552600f8401549483019490945260109092015492810192909252828401919091529083529092019101610b89565b61101f611ec9565b604080516312d11e9f60e11b815260026004808301919091526024820152604481018490526064810183905260848101889052865160a4820152602087015160c48201529086015160e482015273__$e2217eb696a5c09092bdef553420bd7ff4$__906325a23d3e906101040161010060405180830381865af41580156110aa573d6000803e3d6000fd5b505050506040513d601f19601f820116820180604052508101906110ce9190614d47565b33600090815260066020526040902082549195506110eb916124ac565b5050506105db60018055565b6000611101611f31565b604051630b89429960e41b81526004808201526024810184905273__$7a0b87ce898fe502b2df3b643e5d7fb9ba$__9063b89429909060440160006040518083038186803b15801561115257600080fd5b505af4158015611166573d6000803e3d6000fd5b5050506000848152600460208190526040918290209151636f4a9f2560e11b8152908101919091526024810184905273__$22e71cc2a9e9de4b2967c224ed91c7d01e$__915063de953e4a90604401602060405180830381865af41580156111d2573d6000803e3d6000fd5b505050506040513d601f19601f820116820180604052508101906111f69190615307565b905061093a60018055565b600054610100900460ff16158080156112215750600054600160ff909116105b8061123b5750303b15801561123b575060005460ff166001145b61129e5760405162461bcd60e51b815260206004820152602e60248201527f496e697469616c697a61626c653a20636f6e747261637420697320616c72656160448201526d191e481a5b9a5d1a585b1a5e995960921b6064820152608401610a6d565b6000805460ff1916600117905580156112c1576000805461ff0019166101001790555b6001600755600880546001600160a01b031916331790556112e3848484612563565b5050801561132c576000805461ff0019169055604051600181527f7f26b83ff96e1f2b6a682f133852f6798a09c465da95921460cefb3847402498906020015b60405180910390a15b50505050565b6008546001600160a01b0316331461135c5760405162461bcd60e51b8152600401610a6d90615320565b60008111801561137d57506000828152600460205260409020602401548111155b6113ae5760405162461bcd60e51b8152602060048201526002602482015261086760f31b6044820152606401610a6d565b600082815260046020526040812060240180548392906113cf90849061533c565b9091555050801561140057600082815260046020526040902060010154611400906001600160a01b031633836126eb565b60408051838152602081018390527f5a6209ab9405f06c2021fba7427042ac316e7d24950bcd298a3648a478106720910160405180910390a15050565b6008546001600160a01b031633146114675760405162461bcd60e51b8152600401610a6d90615320565b611470816127e4565b600082815260046020818152604092839020845160038201559084015191810180548585015162ffffff90811663010000000265ffffffffffff199092169416939093179290921790915590517f92ed2b5ec0745b7234f6ab040b7f173361ca415308f4c5f82bf30472e3b72864906114ec908590859061534f565b60405180910390a1505050565b61152d60405180608001604052806000815260200160006001600160a01b0316815260200160008152602001606081525090565b600082815260056020908152604080832081516080810183528154815260018201546001600160a01b031681850152600282015481840152600382018054845181870281018701909552808552919592946060870194939192919084015b828210156116c157600084815260209081902060408051808201825260118602909201805483528151610140810183526001808301546101008301908152600280850154610120850152908352845160e08082018752600386015482526004860154828a015260058601548288015260068601546060808401919091526007870154608080850191909152600888015460a080860191909152600989015460c080870191909152888d01959095528951808b018b52600a8a01548152600b8a0154818e0152888b01528951808b01909a52600c8901548a52600d8901548a8d015291870198909852600e87015480850b98870198909852630100000090970490920b95840195909552600f840154948301949094526010909201549281019290925282840191909152908352909201910161158b565b505050915250909392505050565b6008546001600160a01b031633146116f95760405162461bcd60e51b8152600401610a6d90615320565b6117028261287d565b61170b8161287d565b6000838152600460209081526040918290208451601b82015584820151601c82015584830151601d820155606080860151601e8301558451601f830155848301519282019290925583830151602182015590830151602282015590517f1c30ef2fd5ebfa8ce15b3911c201569545d1887fb5822d48843b2f458cdaac3b9061132390869086908690615380565b6000818152600460205260408120600d015461093a90610920906001600160a01b0316612903565b6008546001600160a01b031633146117ea5760405162461bcd60e51b8152600401610a6d90615320565b6001600160a01b0381166117fd57600080fd5b600880546001600160a01b0319166001600160a01b0383169081179091556040519081527fb3b3f5f64ab192e4b5fefde1f51ce9733bbdcf831951543b325aebd49cc27ec49060200160405180910390a150565b611859611f31565b600082815260056020526040902060018101546001600160a01b031661187e57600080fd5b611886611ec9565b60018101546001600160a01b031660009081526006602090815260408083205480845260059092528083209051634509d2df60e11b815260048082015260248101859052604481019190915260648101859052909190819073__$a1fa80d38d689cae49e54718da49b6432c$__90638a13a5be906084016040805180830381865af4158015611919573d6000803e3d6000fd5b505050506040513d601f19601f8201168201806040525081019061193d91906153e1565b91509150801561196f5760018401546001600160a01b03166000908152600660205260409020845461196f91906124ac565b81156119b557600160005260046020527fabd6e7cb50984ff9c2f3e18a2660c3353dadf4e3291deeb275dae2cd1e44fe06546119b5906001600160a01b031633846126eb565b505050506119c260018055565b5050565b3360009081526009602052604090205460ff166119e257600080fd5b338415611a5557611a55816001600160a01b0316630dfe16816040518163ffffffff1660e01b8152600401602060405180830381865afa158015611a2a573d6000803e3d6000fd5b505050506040513d601f19601f82011682018060405250810190611a4e9190615411565b33876126eb565b8315611ac757611ac7816001600160a01b031663d21220a76040518163ffffffff1660e01b8152600401602060405180830381865afa158015611a9c573d6000803e3d6000fd5b505050506040513d601f19601f82011682018060405250810190611ac09190615411565b33866126eb565b5050505050565b611ad6613e4c565b50600090815260046020818152604092839020835161016080820186528254825260018301546001600160a01b0390811683860152600280850154821684890152875160608181018a52600387015482529786015480830b8289015263010000009004820b818a01528785015287516101008181018a52600587015482526006870154828901526007870154828b01526008870154828a01526009870154608083810191909152600a88015460a080850191909152600b89015460c080860191909152600c8a015460e080870191909152838a01959095528c516101a081018e52600d8b01549788168152600160a01b8804870b818d0152600160b81b90970490950b868d0152600e890154868c0152600f890154868301526010890154868201526011890154868601526012890154868501526013890154868401528b51808d018d5260148a0154815260158a0154818c0152610120808801919091528c51808e018e5260168b0154815260178b0154818d01526101408089019190915260188b01549888019890985260198a015461018088015290880195909552601a88015460ff1615159387019390935289518084018b52601b8801548152601c880154818a0152601d880154818c0152601e880154818b01529186019190915288519182018952601f86015482528587015496820196909652602185015497810197909752602284015495870195909552928101949094526023810154928401929092526024909101549082015290565b3360009081526009602052604090205460ff16611d2157600080fd5b336000851315611d6c57611d6c816001600160a01b0316630dfe16816040518163ffffffff1660e01b8152600401602060405180830381865afa158015611a2a573d6000803e3d6000fd5b6000841315611ac757611ac7816001600160a01b031663d21220a76040518163ffffffff1660e01b8152600401602060405180830381865afa158015611a9c573d6000803e3d6000fd5b600080611dc1611f31565b604051630b89429960e41b81526004808201526024810185905273__$7a0b87ce898fe502b2df3b643e5d7fb9ba$__9063b89429909060440160006040518083038186803b158015611e1257600080fd5b505af4158015611e26573d6000803e3d6000fd5b5050506000858152600460208190526040918290209151631342351560e31b8152908101919091526024810185905273__$22e71cc2a9e9de4b2967c224ed91c7d01e$__9150639a11a8a8906044016040805180830381865af4158015611e91573d6000803e3d6000fd5b505050506040513d601f19601f82011682018060405250810190611eb5919061529f565b91509150611ec260018055565b9250929050565b60405163064524cf60e31b81526002600480830191909152602482015273__$7a0b87ce898fe502b2df3b643e5d7fb9ba$__9063322926789060440160006040518083038186803b158015611f1d57600080fd5b505af415801561132c573d6000803e3d6000fd5b600260015403611f835760405162461bcd60e51b815260206004820152601f60248201527f5265656e7472616e637947756172643a207265656e7472616e742063616c6c006044820152606401610a6d565b6002600155565b604080516080810182528354815260018401546001600160a01b03166020808301919091526002850154828401526003850180548451818402810184019095528085526000946121169493889360608601939091889084018215610cbf57600084815260209081902060408051808201825260118602909201805483528151610140810183526001808301546101008301908152600280850154610120850152908352845160e08082018752600386015482526004860154828a015260058601548288015260068601546060808401919091526007870154608080850191909152600888015460a080860191909152600989015460c080870191909152888d01959095528951808b018b52600a8a01548152600b8a0154818e0152888b01528951808b01909a52600c8901548a52600d8901548a8d015291870198909852600e87015480850b98870198909852630100000090970490920b95840195909552600f8401549483019490945260109092015492810192909252828401919091529083529092019101610b89565b6121968285604051806040016040529081600082015481526020016001820180548060200260200160405190810160405280929190818152602001828054801561217f57602002820191906000526020600020905b81548152602001906001019080831161216b575b50505050508152505061291890919063ffffffff16565b6121cc5760405162461bcd60e51b81526020600482015260076024820152661054d4d155125160ca1b6044820152606401610a6d565b6121d68383612973565b949350505050565b60405163c906a0dd60e01b8152600481810152602481018390526044810182905260609060009073__$7046bc99c44940d8afdd1f5826a68a8b5f$__9063c906a0dd90606401600060405180830381865af4158015612241573d6000803e3d6000fd5b505050506040513d6000823e601f3d908101601f19168201604052612269919081019061542e565b915091509250929050565b6000816001600160a01b0316633850c7bd6040518163ffffffff1660e01b815260040160e060405180830381865afa1580156122b4573d6000803e3d6000fd5b505050506040513d601f19601f820116820180604052508101906122d891906154e2565b5094979650505050505050565b6000811561230b576123046001600160a01b038416600160c01b615590565b905061093a565b508161093a565b60008360000361242e576007805490600061232c836150aa565b9091555090506001600160a01b03831661236d5760405162461bcd60e51b8152602060048201526002602482015261433560f01b6044820152606401610a6d565b600081815260056020526040902081815560010180546001600160a01b0319166001600160a01b03851617905581156123c7576001600160a01b03831660009081526006602052604090206123c29082612b31565b6123e9565b6001600160a01b03831660009081526006602052604090206123e99082612b69565b604080518281523360208201528315158183015290517f2426281c09515ec0a53173de7284551c54a4c6fc61de7d2ccb225a44eee0c98b9181900360600190a16105db565b50826105db565b606060006104e98360006121de565b81516124625760405162461bcd60e51b8152600401610a6d906155a4565b806001600160a01b031682602001516001600160a01b0316146119c25760405162461bcd60e51b81526020600482015260026024820152612b1960f11b6044820152606401610a6d565b600081116124cc5760405162461bcd60e51b8152600401610a6d906155a4565b81548190036124d9575050565b600061255283604051806040016040529081600082015481526020016001820180548060200260200160405190810160405280929190818152602001828054801561254357602002820191906000526020600020905b81548152602001906001019080831161252f575b50505050508152505083612bda565b905061255e8382612c63565b505050565b60006060600191506125c28286600080604051806060016040528060008152602001600060020b8152602001600060020b8152508960405180608001604052806000815260200160008152602001600081526020016000815250612cde565b6002829055600380546001810182556000919091527fc2575a0e9e593c00f959f8c92f12db2869c3395a3b0502d05e2516446f71f85b0182905582516001600160401b03811115612615576126156140ef565b60405190808252806020026020018201604052801561263e578160200160208202803683370190505b50905060005b83518110156126a95761267a61265b8260026155c0565b85838151811061266d5761266d614dd3565b6020026020010151613062565b82828151811061268c5761268c614dd3565b6020908102919091010152806126a1816150aa565b915050612644565b507f26c7b90c1b486b10d84500b5c9d96e3ddb40f753b44ff5d96bef531d8455b7c682826040516126db9291906155d3565b60405180910390a1935093915050565b604080516001600160a01b038481166024830152604480830185905283518084039091018152606490920183526020820180516001600160e01b031663a9059cbb60e01b17905291516000928392908716916127479190615614565b6000604051808303816000865af19150503d8060008114612784576040519150601f19603f3d011682016040523d82523d6000602084013e612789565b606091505b50915091508180156127b35750805115806127b35750808060200190518101906127b39190615630565b611ac75760405162461bcd60e51b815260206004820152600260248201526114d560f21b6044820152606401610a6d565b80516305f5e1001080156127fd57508051633b9aca0010155b61282e5760405162461bcd60e51b8152602060048201526002602482015261043360f41b6044820152606401610a6d565b6000816020015160020b13801561284c57506000816040015160020b135b610a805760405162461bcd60e51b8152602060048201526002602482015261043360f41b6044820152606401610a6d565b8051670de0b6b3a7640000108015906128a25750670de0b6b3a7640000816020015111155b80156128ba5750670de0b6b3a7640000816040015111155b80156128d25750678ac7230489e80000816060015111155b610a805760405162461bcd60e51b815260206004820152600260248201526110cd60f21b6044820152606401610a6d565b6000612911826107086133a4565b5092915050565b6000805b83602001515181101561296957828460200151828151811061294057612940614dd3565b60200260200101510361295757600191505061093a565b80612961816150aa565b91505061291c565b5060009392505050565b6000805b60038401548110156129ed578284600301828154811061299957612999614dd3565b906000526020600020906011020160000154036129db578360030181815481106129c5576129c5614dd3565b906000526020600020906011020191505061093a565b806129e5816150aa565b915050612977565b50826003016040518060400160405280848152602001612a0b61382c565b905281546001818101845560009384526020938490208351601190930201918255918301518051805183850155840151600283015580840151805160038085019190915581860151600485015560408083015160058601556060808401516006870155608080850151600788015560a080860151600889015560c0958601516009890155928601518051600a890155890151600b880155908501518051600c88015590970151600d86015595830151600e850180549785015162ffffff90811663010000000265ffffffffffff1990991692169190911796909617909555810151600f83015560e0015160109091015590840180549091612b0b9161533c565b81548110612b1b57612b1b614dd3565b9060005260206000209060110201905092915050565b815415612b655760405162461bcd60e51b8152602060048201526002602482015261158d60f21b6044820152606401610a6d565b9055565b60008111612b895760405162461bcd60e51b8152600401610a6d906155a4565b60018083018054918201815560008181526020902090910182905554606410156119c25760405162461bcd60e51b8152602060048201526002602482015261563360f01b6044820152606401610a6d565b6000600019815b846020015151811015612c2c578385602001518281518110612c0557612c05614dd3565b602002602001015103612c1a57809150612c2c565b80612c24816150aa565b915050612be1565b5060648111156105db5760405162461bcd60e51b8152602060048201526002602482015261563360f01b6044820152606401610a6d565b600180830180549091612c759161533c565b81548110612c8557612c85614dd3565b9060005260206000200154826001018281548110612ca557612ca5614dd3565b60009182526020909120015560018201805480612cc457612cc461564d565b600190038181906000526020600020016000905590555050565b6001600160a01b03841615612cf657612cf6836127e4565b60008781526004602052604090205415612d0f57600080fd5b60408051610160810182528881526001600160a01b0388166020820181905282516351c71be960e11b81526004810191909152909182019073__$22e71cc2a9e9de4b2967c224ed91c7d01e$__9063a38e37d290602401602060405180830381865af4158015612d83573d6000803e3d6000fd5b505050506040513d601f19601f82011682018060405250810190612da79190615411565b6001600160a01b03168152602001848152602001612dc361391a565b8152602001612de4868660200151612dda90615663565b8760200151613977565b81528615156020808301919091526040808301869052606080840186905242608080860191909152600060a09586018190528d815260048086529084902087518155878601516001820180546001600160a01b039283166001600160a01b031991821617909155898701516002840180549184169190921617905588850151805160038401558088015193830180549188015162ffffff90811663010000000265ffffffffffff1990931695811695909517919091179055888401518051600584015580880151600684015580870151600784015580860151600884015580850151600984015580890151600a84015560c080820151600b85015560e091820151600c8501558a8a01518051600d86018054838d0151848d01518a16600160b81b0262ffffff60b81b1991909a16600160a01b026001600160b81b03199092169388169390931717919091169690961790955584870151600e85015594840151600f8401559783015160108301558284015160118301558288015160128301556101008381015160138401556101208085015180516014860155890151601585015561014080860151805160168701558a015160178601556101608601516018860155610180909501516019850155948a0151601a8401805491151560ff19909216919091179055978901518051601b84015580880151601c84015580870151601d840155850151601e830155968801518051601f8301558087015196820196909655938501516021850155939091015160228301558401516023820155920151602490920191909155841615613059576001600160a01b0384166000908152600960205260409020805460ff191660011790555b50505050505050565b805160016000908152600460208181527fabd6e7cb50984ff9c2f3e18a2660c3353dadf4e3291deeb275dae2cd1e44fe065460408051630dfe168160e01b815290519495946001600160a01b0392831694859493871693630dfe168193808301939192908290030181865afa1580156130df573d6000803e3d6000fd5b505050506040513d601f19601f820116820180604052508101906131039190615411565b6001600160a01b0316148061318a5750806001600160a01b0316826001600160a01b031663d21220a76040518163ffffffff1660e01b8152600401602060405180830381865afa15801561315b573d6000803e3d6000fd5b505050506040513d601f19601f8201168201806040525081019061317f9190615411565b6001600160a01b0316145b6131bb5760405162461bcd60e51b8152602060048201526002602482015261433360f01b6044820152606401610a6d565b6000816001600160a01b0316836001600160a01b0316630dfe16816040518163ffffffff1660e01b8152600401602060405180830381865afa158015613205573d6000803e3d6000fd5b505050506040513d601f19601f820116820180604052508101906132299190615411565b6001600160a01b031614905061332186826132a557846001600160a01b0316630dfe16816040518163ffffffff1660e01b8152600401602060405180830381865afa15801561327c573d6000803e3d6000fd5b505050506040513d601f19601f820116820180604052508101906132a09190615411565b613307565b846001600160a01b031663d21220a76040518163ffffffff1660e01b8152600401602060405180830381865afa1580156132e3573d6000803e3d6000fd5b505050506040513d601f19601f820116820180604052508101906133079190615411565b83886000015189602001518a604001518b60600151612cde565b600380546001810182556000919091527fc2575a0e9e593c00f959f8c92f12db2869c3395a3b0502d05e2516446f71f85b018690558451604080518881526001600160a01b0390921660208301527f7542208db6aa6ef6792bdfe7e7e9b59d32521a551b7c007f0bf9b1afbe257c39910160405180910390a15093949350505050565b60408051600280825260608201835260009283928392909160208301908036833701905050905083816000815181106133df576133df614dd3565b602002602001019063ffffffff16908163ffffffff168152505060008160018151811061340e5761340e614dd3565b602002602001019063ffffffff16908163ffffffff1681525050600080866001600160a01b031663883bdbfd60e01b8460405160240161344e9190615685565b60408051601f198184030181529181526020820180516001600160e01b03166001600160e01b031990941693909317909252905161348c9190615614565b600060405180830381855afa9150503d80600081146134c7576040519150601f19603f3d011682016040523d82523d6000602084013e6134cc565b606091505b5091509150816137ac5760405160206024820152600360448201526213d31160ea1b606482015260840160408051601f19818403018152919052602080820180516001600160e01b031662461bcd60e51b17815291519091208251918301919091201461353c5761353c81613a4b565b600080886001600160a01b0316633850c7bd6040518163ffffffff1660e01b815260040160e060405180830381865afa15801561357d573d6000803e3d6000fd5b505050506040513d601f19601f820116820180604052508101906135a191906154e2565b5050509350935050506000808a6001600160a01b031663252c09d7848660016135ca91906156cf565b6135d491906156ea565b6040516001600160e01b031960e084901b16815261ffff9091166004820152602401608060405180830381865afa158015613613573d6000803e3d6000fd5b505050506040513d601f19601f82011682018060405250810190613637919061571d565b935050509150806136b25760405163252c09d760e01b8152600060048201526001600160a01b038c169063252c09d790602401608060405180830381865afa158015613687573d6000803e3d6000fd5b505050506040513d601f19601f820116820180604052508101906136ab919061571d565b5091935050505b6136c263ffffffff83164261533c565b995089876000815181106136d8576136d8614dd3565b602002602001019063ffffffff16908163ffffffff16815250508a6001600160a01b031663883bdbfd60e01b886040516024016137159190615685565b60408051601f198184030181529181526020820180516001600160e01b03166001600160e01b03199094169390931790925290516137539190615614565b600060405180830381855afa9150503d806000811461378e576040519150601f19603f3d011682016040523d82523d6000602084013e613793565b606091505b509096509450856137a7576137a785613a4b565b505050505b6000818060200190518101906137c29190615781565b9050600087826000815181106137da576137da614dd3565b6020026020010151836001815181106137f5576137f5614dd3565b6020026020010151613807919061580d565b613811919061583a565b9050600061381e82613a92565b9a9899505050505050505050565b613834613f2c565b604051806101000160405280604051806040016040528060008152602001600081525081526020016040518060e00160405280600081526020016000815260200160008152602001600081526020016000815260200160008152602001600081525081526020016138c66040805180820182526000808252602091820181905282518084019093528083529082015290565b81526020016138f66040805180820182526000808252602091820181905282518084019093528083529082015290565b81526000602082018190526040820181905260608201819052608090910152919050565b613922613ff8565b60405180610100016040528060008152602001600081526020016000815260200160008152602001670de0b6b3a76400008152602001670de0b6b3a76400008152602001600081526020016000815250905090565b61397f61403d565b604051806101a00160405280856001600160a01b031681526020018460020b81526020018360020b8152602001600081526020016000815260200160008152602001600081526020016000815260200160008152602001613a016040805180820182526000808252602091820181905282518084019093528083529082015290565b8152602001613a316040805180820182526000808252602091820181905282518084019093528083529082015290565b815260200160008152602001600081525090509392505050565b805115613a5a57805181602001fd5b60405162461bcd60e51b815260206004820152600d60248201526c3297b2b6b83a3c96b2b93937b960991b6044820152606401610a6d565b60008060008360020b12613aa9578260020b613ab1565b8260020b6000035b9050620d89e8811115613ad7576040516315e4079d60e11b815260040160405180910390fd5b600081600116600003613aee57600160801b613b00565b6ffffcb933bd6fad37aa2d162d1a5940015b70ffffffffffffffffffffffffffffffffff1690506002821615613b34576ffff97272373d413259a46990580e213a0260801c5b6004821615613b53576ffff2e50f5f656932ef12357cf3c7fdcc0260801c5b6008821615613b72576fffe5caca7e10e4e61c3624eaa0941cd00260801c5b6010821615613b91576fffcb9843d60f6159c9db58835c9266440260801c5b6020821615613bb0576fff973b41fa98c081472e6896dfb254c00260801c5b6040821615613bcf576fff2ea16466c96a3843ec78b326b528610260801c5b6080821615613bee576ffe5dee046a99a2a811c461f1969c30530260801c5b610100821615613c0e576ffcbe86c7900a88aedcffc83b479aa3a40260801c5b610200821615613c2e576ff987a7253ac413176f2b074cf7815e540260801c5b610400821615613c4e576ff3392b0822b70005940c7a398e4b70f30260801c5b610800821615613c6e576fe7159475a2c29b7443b29c7fa6e889d90260801c5b611000821615613c8e576fd097f3bdfd2022b8845ad8f792aa58250260801c5b612000821615613cae576fa9f746462d870fdf8a65dc1f90e061e50260801c5b614000821615613cce576f70d869a156d2a1b890bb3df62baf32f70260801c5b618000821615613cee576f31be135f97d08fd981231505542fcfa60260801c5b62010000821615613d0f576f09aa508b5b7a84e1c677de54f3e99bc90260801c5b62020000821615613d2f576e5d6af8dedb81196699c329225ee6040260801c5b62040000821615613d4e576d2216e584f5fa1ea926041bedfe980260801c5b62080000821615613d6b576b048a170391f7dc42444e8fa20260801c5b60008460020b1315613d8c578060001981613d8857613d8861557a565b0490505b640100000000810615613da0576001613da3565b60005b60ff16602082901c0192505050919050565b6040518060600160405280613df96040518060c001604052806000815260200160008152602001600081526020016000815260200160008152602001600081525090565b815260200160008152602001600081525090565b6040518060e001604052806000815260200160001515815260200160008152602001600081526020016000815260200160008152602001606081525090565b6040518061016001604052806000815260200160006001600160a01b0316815260200160006001600160a01b03168152602001613ea9604051806060016040528060008152602001600060020b8152602001600060020b81525090565b8152602001613eb6613ff8565b8152602001613ec361403d565b8152602001600015158152602001613efc6040518060800160405280600081526020016000815260200160008152602001600081525090565b8152602001613df96040518060800160405280600081526020016000815260200160008152602001600081525090565b6040805161014081019091526000610100820181815261012083019190915281908152602001613f926040518060e00160405280600081526020016000815260200160008152602001600081526020016000815260200160008152602001600081525090565b8152602001613fb4604051806040016040528060008152602001600081525090565b8152602001613fd6604051806040016040528060008152602001600081525090565b8152600060208201819052604082018190526060820181905260809091015290565b60405180610100016040528060008152602001600081526020016000815260200160008152602001600081526020016000815260200160008152602001600081525090565b604051806101a0016040528060006001600160a01b03168152602001600060020b8152602001600060020b81526020016000815260200160008152602001600081526020016000815260200160008152602001600081526020016140b4604051806040016040528060008152602001600081525090565b8152602001613df9604051806040016040528060008152602001600081525090565b6000602082840312156140e857600080fd5b5035919050565b634e487b7160e01b600052604160045260246000fd5b60405160e081016001600160401b0381118282101715614127576141276140ef565b60405290565b604051606081016001600160401b0381118282101715614127576141276140ef565b604051608081016001600160401b0381118282101715614127576141276140ef565b60405160c081016001600160401b0381118282101715614127576141276140ef565b60405161010081016001600160401b0381118282101715614127576141276140ef565b604051601f8201601f191681016001600160401b03811182821017156141de576141de6140ef565b604052919050565b8015158114610a8057600080fd5b80356109f6816141e6565b600082601f83011261421057600080fd5b81356001600160401b03811115614229576142296140ef565b61423c601f8201601f19166020016141b6565b81815284602083860101111561425157600080fd5b816020850160208301376000918101602001919091529392505050565b60008060006060848603121561428357600080fd5b833592506020840135915060408401356001600160401b03808211156142a857600080fd5b9085019060e082880312156142bc57600080fd5b6142c4614105565b82358152602083013560208201526040830135604082015260608301356060820152608083013560808201526142fc60a084016141f4565b60a082015260c08301358281111561431357600080fd5b61431f898286016141ff565b60c0830152508093505050509250925092565b8051805183526020810151602084015260408101516040840152606081015160608401526080810151608084015260a081015160a084015250602081015160c0830152604081015160e08301525050565b610100810161093a8284614332565b60208082528251828201528281015160408084015280516060840181905260009291820190839060808601905b808310156143df57835182529284019260019290920191908401906143bf565b509695505050505050565b805180518352602090810151818401528101516144496040840182805182526020810151602083015260408101516040830152606081015160608301526080810151608083015260a081015160a083015260c081015160c08301525050565b50604081015180516101208401526020908101516101408401526060820151805161016085015201516101808301526080810151600290810b6101a084015260a0820151900b6101c083015260c08101516101e083015260e0015161020090910152565b600060e083018251845260208084015115158186015260408085015181870152606080860151818801526080860151608088015260a086015160a088015260c086015160e060c08901528481518087526101008a0191508583019650600092505b80831015614557578651805183528681015161452c888501826143ea565b508086015161024084015284015161026083015295850195600192909201916102809091019061450e565b5098975050505050505050565b60408152600061457760408301856144ad565b6020838203818501528185518084528284019150828160051b85010183880160005b838110156145c757601f198784030185526145b58383516144ad565b94860194925090850190600101614599565b50909998505050505050505050565b82815261012081016105db6020830184614332565b6020815260006105db60208301846144ad565b600080600083850360a081121561461457600080fd5b84359350602085013592506060603f198201121561463157600080fd5b5061463a61412d565b604085013581526060850135602082015260808501356040820152809150509250925092565b6000806040838503121561467357600080fd5b50508035926020909101359150565b6001600160a01b0381168114610a8057600080fd5b6000608082840312156146a957600080fd5b6146b161414f565b90508135815260208201356020820152604082013560408201526060820135606082015292915050565b60006001600160401b038211156146f4576146f46140ef565b5060051b60200190565b8060020b8114610a8057600080fd5b60006060828403121561471f57600080fd5b61472761412d565b905081358152602082013561473b816146fe565b6020820152604082013561474e816146fe565b604082015292915050565b600080600060c0848603121561476e57600080fd5b833561477981614682565b9250602061478986868301614697565b925060a08501356001600160401b038111156147a457600080fd5b8501601f810187136147b557600080fd5b80356147c86147c3826146db565b6141b6565b818152610180918202830184019184820191908a8411156147e857600080fd5b938501935b8385101561485e5780858c0312156148055760008081fd5b61480d61414f565b853561481881614682565b81526148268c87890161470d565b878201526148378c60808801614697565b604082015261484a8c6101008801614697565b6060820152835293840193918501916147ed565b5080955050505050509250925092565b6000806080838503121561488157600080fd5b82359150614892846020850161470d565b90509250929050565b6020808252825182820152828101516001600160a01b0316604080840191909152830151606080840191909152830151608080840152805160a0840181905260009291820190839060c08601905b808310156143df57835180518352850151614906868401826143ea565b506102408201915084840193506001830192506148e9565b6000806000610120848603121561493457600080fd5b833592506149458560208601614697565b91506149548560a08601614697565b90509250925092565b60006020828403121561496f57600080fd5b81356105db81614682565b60008083601f84011261498c57600080fd5b5081356001600160401b038111156149a357600080fd5b602083019150836020828501011115611ec257600080fd5b600080600080606085870312156149d157600080fd5b843593506020850135925060408501356001600160401b038111156149f557600080fd5b614a018782880161497a565b95989497509550505050565b80516001600160a01b031682526020810151614a2e602084018260020b9052565b506040810151614a43604084018260020b9052565b50606081015160608301526080810151608083015260a081015160a083015260c081015160c083015260e081015160e083015261010080820151818401525061012080820151614a9f8285018280518252602090810151910152565b5050610140810151610160614ac08185018380518252602090810151910152565b8201516101a08401525061018001516101c090910152565b81518152602080830151610500830191614afc908401826001600160a01b03169052565b506040830151614b1760408401826001600160a01b03169052565b506060830151614b47606084018280518252602081015160020b6020830152604081015160020b60408301525050565b506080830151614ba360c0840182805182526020810151602083015260408101516040830152606081015160608301526080810151608083015260a081015160a083015260c081015160c083015260e081015160e08301525050565b5060a0830151614bb76101c0840182614a0d565b5060c083015115156103a083015260e083015180516103c08401526020808201516103e085015260408083015161040086015260609283015161042086015261010086015180516104408701529182015161046086015281015161048085015201516104a08301526101208301516104c0830152610140909201516104e09091015290565b80516109f6816141e6565b60008060408385031215614c5a57600080fd5b8251614c65816141e6565b6020939093015192949293505050565b60005b83811015614c90578181015183820152602001614c78565b50506000910152565b805182526020810151602083015260408101516040830152606081015160608301526080810151608083015260a0810151151560a0830152600060c082015160e060c085015280518060e0860152610100614cfa8282880160208601614c75565b80601f19601f840116870101935050505092915050565b85815284602082015283604082015282606082015260a060808201526000614d3c60a0830184614c99565b979650505050505050565b6000818303610100811215614d5b57600080fd5b614d6361412d565b60c0821215614d7157600080fd5b614d79614171565b9150835182526020840151602083015260408401516040830152606084015160608301526080840151608083015260a084015160a083015281815260c0840151602082015260e08401516040820152809250505092915050565b634e487b7160e01b600052603260045260246000fd5b600060408284031215614dfb57600080fd5b604051604081018181106001600160401b0382111715614e1d57614e1d6140ef565b604052825181526020928301519281019290925250919050565b600060e08284031215614e4957600080fd5b614e51614105565b9050815181526020820151602082015260408201516040820152606082015160608201526080820151608082015260a082015160a082015260c082015160c082015292915050565b80516109f6816146fe565b600082601f830112614eb557600080fd5b81516020614ec56147c3836146db565b8281526102809283028501820192828201919087851115614ee557600080fd5b8387015b85811015614fd85780890382811215614f025760008081fd5b614f0a61414f565b8251815261022080601f1984011215614f235760008081fd5b614f2b614193565b9250614f398c898601614de9565b83526060614f498d828701614e37565b89850152614f5b8d6101408701614de9565b60408181870152614f708f6101808901614de9565b83870152614f816101c08801614e99565b6080870152614f936101e08801614e99565b60a087015261020087015160c08701529286015160e0860152508289019390935261024084015190820152610260830151918101919091528452928401928101614ee9565b5090979650505050505050565b600060208284031215614ff757600080fd5b81516001600160401b038082111561500e57600080fd5b9083019060e0828603121561502257600080fd5b61502a614105565b8251815261503a60208401614c3c565b602082015260408301516040820152606083015160608201526080830151608082015260a083015160a082015260c08301518281111561507957600080fd5b61508587828601614ea4565b60c08301525095945050505050565b634e487b7160e01b600052601160045260246000fd5b6000600182016150bc576150bc615094565b5060010190565b8154815260018201546001600160a01b039081166020830152600280840154909116604083015260038301546060830152600483015480820b608084015260181c900b60a0820152600582015460c0820152600682015460e0820152600782015461010082015260088201546101208201526009820154610140820152600a820154610160820152600b820154610180820152600c8201546101a0820152610500810161521c6101c08301600d850180546001600160a01b038116835260a081901c60020b602084015260b881901c60020b6040840152506001810154606083015260028101546080830152600381015460a0830152600481015460c0830152600581015460e08301526006810154610100830152600781015461012083015260088101546101408301526009810154610160830152600a810154610180830152600b8101546101a0830152600c01546101c090910152565b601a83015460ff1615156103a0830152601b8301546103c0830152601c8301546103e0830152601d830154610400830152601e830154610420830152601f8301546104408301526020830154610460830152602183015461048083015260228301546104a083015260238301546104c08301526024909201546104e09091015290565b600080604083850312156152b257600080fd5b505080516020909101519092909150565b8781528660208201528560408201528460608201528360808201528260a082015260e060c082015260006152fa60e0830184614c99565b9998505050505050505050565b60006020828403121561531957600080fd5b5051919050565b602080825260029082015261433160f01b604082015260600190565b8181038181111561093a5761093a615094565b828152608081016105db602083018480518252602081015160020b6020830152604081015160020b60408301525050565b83815261012081016153b66020830185805182526020810151602083015260408101516040830152606081015160608301525050565b825160a0830152602083015160c0830152604083015160e083015260608301516101008301526121d6565b600080604083850312156153f457600080fd5b825191506020830151615406816141e6565b809150509250929050565b60006020828403121561542357600080fd5b81516105db81614682565b6000806040838503121561544157600080fd5b82516001600160401b0381111561545757600080fd5b8301601f8101851361546857600080fd5b805160206154786147c3836146db565b82815260059290921b8301810191818101908884111561549757600080fd5b938201935b838510156154b55784518252938201939082019061549c565b95506154c49050868201614c3c565b93505050509250929050565b805161ffff811681146109f657600080fd5b600080600080600080600060e0888a0312156154fd57600080fd5b875161550881614682565b6020890151909750615519816146fe565b9550615527604089016154d0565b9450615535606089016154d0565b9350615543608089016154d0565b925060a088015160ff8116811461555957600080fd5b60c089015190925061556a816141e6565b8091505092959891949750929550565b634e487b7160e01b600052601260045260246000fd5b60008261559f5761559f61557a565b500490565b602080825260029082015261563160f01b604082015260600190565b8082018082111561093a5761093a615094565b6000604082018483526020604081850152818551808452606086019150828701935060005b81811015614fd8578451835293830193918301916001016155f8565b60008251615626818460208701614c75565b9190910192915050565b60006020828403121561564257600080fd5b81516105db816141e6565b634e487b7160e01b600052603160045260246000fd5b60008160020b627fffff19810361567c5761567c615094565b60000392915050565b6020808252825182820181905260009190848201906040850190845b818110156156c357835163ffffffff16835292840192918401916001016156a1565b50909695505050505050565b61ffff81811683821601908082111561291157612911615094565b600061ffff808416806156ff576156ff61557a565b92169190910692915050565b8051600681900b81146109f657600080fd5b6000806000806080858703121561573357600080fd5b845163ffffffff8116811461574757600080fd5b93506157556020860161570b565b9250604085015161576581614682565b6060860151909250615776816141e6565b939692955090935050565b6000602080838503121561579457600080fd5b82516001600160401b038111156157aa57600080fd5b8301601f810185136157bb57600080fd5b80516157c96147c3826146db565b81815260059190911b820183019083810190878311156157e857600080fd5b928401925b82841015614d3c576157fe8461570b565b825292840192908401906157ed565b600682810b9082900b03667fffffffffffff198112667fffffffffffff8213171561093a5761093a615094565b60008160060b8360060b806158515761585161557a565b667fffffffffffff1982146000198214161561586f5761586f615094565b9005939250505056fea2646970667358221220bfa8e624eaa56ae777ec12ece4cb278a1ed7344cc0a0094d8012b7d68d03274f64736f6c63430008130033",
  "libraries": {
    "ApplyInterestLogic": "0xA43382fe436AFdAADf07E25a25736C9D536d8319",
    "LiquidationLogic": "0x3b0EB2b394BB889Ab38edBA76e8Dba10AdB488d9",
    "ReaderLogic": "0x626889015cf4C5F87f0D5d2F4ADD3Dd0df91D3f5",
    "SettleUserFeeLogic": "0x844e89C2D6267451b53d179aD3DE2F0b4E550aAB",
    "SupplyLogic": "0x4e5205cBd5e607cEFD21c1F8583182E5d036aa68",
    "TradeLogic": "0x7ACC24C9122B5Ed7F9a3C1eb8945c3B234e4f0D6",
    "UpdateMarginLogic": "0x52beAbaFB5497fD5e533505288f0C2865C5820Fe",
    "IsolatedVaultLogic": "0xa5A2dCEA8E22007E3D78313A786a39C210520E68"
  },
  "devdoc": {
    "events": {
      "Initialized(uint8)": {
        "details": "Triggered when the contract has been initialized or reinitialized."
      }
    },
    "kind": "dev",
    "methods": {
      "closeIsolatedVault(uint256,uint256,(uint256,uint256,uint256))": {
        "params": {
          "_assetId": "Asset id of the asset",
          "_closeParams": "The close parameters",
          "_isolatedVaultId": "The id of isolated vault"
        },
        "returns": {
          "tradeResult": "The result of perp trade"
        }
      },
      "getVaultStatus(uint256)": {
        "details": "This function should not be called on chain.",
        "params": {
          "_vaultId": "The id of the vault"
        }
      },
      "getVaultStatusWithAddress()": {
        "details": "This function should not be called on chain."
      },
      "liquidationCall(uint256,uint256)": {
        "params": {
          "_closeRatio": "If you'll close all position, set 1e18.",
          "_vaultId": "The id of vault"
        }
      },
      "openIsolatedVault(uint256,uint256,(int256,int256,uint256,uint256,uint256,bool,bytes))": {
        "params": {
          "_assetId": "Asset id of the asset",
          "_depositAmount": "The amount of margin to deposit from main vault.",
          "_tradeParams": "The trade parameters"
        },
        "returns": {
          "isolatedVaultId": "The id of isolated vault",
          "tradeResult": "The result of perp trade"
        }
      },
      "reallocate(uint256)": {
        "params": {
          "_assetId": "The id of asset to reallocate."
        }
      },
      "setOperator(address)": {
        "details": "Only operator can call this function.",
        "params": {
          "_newOperator": "The address of new operator"
        }
      },
      "settleUserBalance(uint256)": {
        "params": {
          "_vaultId": "The id of vault"
        }
      },
      "supplyToken(uint256,uint256)": {
        "params": {
          "_amount": "The amount of asset being supplied",
          "_assetId": "Asset id of the asset being supplied to the pool"
        },
        "returns": {
          "finalMintAmount": "The amount of claim token being minted"
        }
      },
      "tradePerp(uint256,uint256,(int256,int256,uint256,uint256,uint256,bool,bytes))": {
        "params": {
          "_assetId": "Asset id of the asset",
          "_tradeParams": "The trade parameters",
          "_vaultId": "The id of vault"
        },
        "returns": {
          "_0": "TradeResult The result of perp trade"
        }
      },
      "uniswapV3MintCallback(uint256,uint256,bytes)": {
        "details": "Callback for Uniswap V3 pool."
      },
      "uniswapV3SwapCallback(int256,int256,bytes)": {
        "details": "Callback for Uniswap V3 pool."
      },
      "updateAssetRiskParams(uint256,(uint256,int24,int24))": {
        "details": "The function can be called by operator.",
        "params": {
          "_assetId": "The id of asset to update params.",
          "_riskParams": "Asset risk parameters."
        }
      },
      "updateIRMParams(uint256,(uint256,uint256,uint256,uint256),(uint256,uint256,uint256,uint256))": {
        "details": "The function can be called by operator.",
        "params": {
          "_assetId": "The id of asset to update params.",
          "_irmParams": "Asset interest-rate parameters.",
          "_squartIRMParams": "Squart interest-rate parameters."
        }
      },
      "updateMargin(int256)": {
        "params": {
          "_marginAmount": "The amount of margin. Positive means deposit and negative means withdraw."
        },
        "returns": {
          "vaultId": "The id of vault created"
        }
      },
      "withdrawProtocolRevenue(uint256,uint256)": {
        "details": "Only operator can call this function.",
        "params": {
          "_amount": "amount of stable token to withdraw"
        }
      },
      "withdrawToken(uint256,uint256)": {
        "params": {
          "_amount": "The amount of asset being withdrawn",
          "_assetId": "Asset id of the asset being withdrawn from the pool"
        },
        "returns": {
          "finalBurnAmount": "The amount of claim token being burned",
          "finalWithdrawAmount": "The amount of token being withdrawn"
        }
      }
    },
    "stateVariables": {
      "ownVaultsMap": {
        "details": "account -> vaultId"
      }
    },
    "version": 1
  },
  "userdoc": {
    "kind": "user",
    "methods": {
      "closeIsolatedVault(uint256,uint256,(uint256,uint256,uint256))": {
        "notice": "Close positions in the isolated vault and move margin to main vault."
      },
      "getSqrtPrice(uint256)": {
        "notice": "Gets square root of current underlying token price by quote token."
      },
      "getVaultStatus(uint256)": {
        "notice": "Gets latest vault status."
      },
      "getVaultStatusWithAddress()": {
        "notice": "Gets latest main vault status that the caller has."
      },
      "liquidationCall(uint256,uint256)": {
        "notice": "Executes liquidation call and gets reward. Anyone can call this function."
      },
      "openIsolatedVault(uint256,uint256,(int256,int256,uint256,uint256,uint256,bool,bytes))": {
        "notice": "Creates new isolated vault and open perp positions."
      },
      "reallocate(uint256)": {
        "notice": "Reallocates range of Uniswap LP position."
      },
      "setOperator(address)": {
        "notice": "Sets new operator"
      },
      "settleUserBalance(uint256)": {
        "notice": "Settle user balance if the vault has rebalance position Anyone can call this function."
      },
      "supplyToken(uint256,uint256)": {
        "notice": "Supplys token and mints claim token"
      },
      "tradePerp(uint256,uint256,(int256,int256,uint256,uint256,uint256,bool,bytes))": {
        "notice": "Trades perps of x and sqrt(x)"
      },
      "updateAssetRiskParams(uint256,(uint256,int24,int24))": {
        "notice": "Updates asset risk parameters."
      },
      "updateIRMParams(uint256,(uint256,uint256,uint256,uint256),(uint256,uint256,uint256,uint256))": {
        "notice": "Updates interest rate model parameters."
      },
      "updateMargin(int256)": {
        "notice": "Deposit or withdraw margin"
      },
      "withdrawProtocolRevenue(uint256,uint256)": {
        "notice": "Withdraws accumulated protocol revenue."
      },
      "withdrawToken(uint256,uint256)": {
        "notice": "Withdraws token and burns claim token"
      }
    },
    "notice": "Error Codes C0: invalid asset rist parameters C1: caller must be operator C2: caller must be vault owner C3: token0 or token1 must be registered stable token C4: invalid interest rate model parameters C5: invalid vault creation",
    "version": 1
  },
  "storageLayout": {
    "storage": [
      {
        "astId": 1216,
        "contract": "src/Controller.sol:Controller",
        "label": "_initialized",
        "offset": 0,
        "slot": "0",
        "type": "t_uint8"
      },
      {
        "astId": 1219,
        "contract": "src/Controller.sol:Controller",
        "label": "_initializing",
        "offset": 1,
        "slot": "0",
        "type": "t_bool"
      },
      {
        "astId": 1389,
        "contract": "src/Controller.sol:Controller",
        "label": "_status",
        "offset": 0,
        "slot": "1",
        "type": "t_uint256"
      },
      {
        "astId": 6289,
        "contract": "src/Controller.sol:Controller",
        "label": "assetGroup",
        "offset": 0,
        "slot": "2",
        "type": "t_struct(AssetGroup)8218_storage"
      },
      {
        "astId": 6294,
        "contract": "src/Controller.sol:Controller",
        "label": "assets",
        "offset": 0,
        "slot": "4",
        "type": "t_mapping(t_uint256,t_struct(AssetStatus)8271_storage)"
      },
      {
        "astId": 6299,
        "contract": "src/Controller.sol:Controller",
        "label": "vaults",
        "offset": 0,
        "slot": "5",
        "type": "t_mapping(t_uint256,t_struct(Vault)8282_storage)"
      },
      {
        "astId": 6305,
        "contract": "src/Controller.sol:Controller",
        "label": "ownVaultsMap",
        "offset": 0,
        "slot": "6",
        "type": "t_mapping(t_address,t_struct(OwnVaults)8224_storage)"
      },
      {
        "astId": 6307,
        "contract": "src/Controller.sol:Controller",
        "label": "vaultCount",
        "offset": 0,
        "slot": "7",
        "type": "t_uint256"
      },
      {
        "astId": 6309,
        "contract": "src/Controller.sol:Controller",
        "label": "operator",
        "offset": 0,
        "slot": "8",
        "type": "t_address"
      },
      {
        "astId": 6313,
        "contract": "src/Controller.sol:Controller",
        "label": "allowedUniswapPools",
        "offset": 0,
        "slot": "9",
        "type": "t_mapping(t_address,t_bool)"
      }
    ],
    "types": {
      "t_address": {
        "encoding": "inplace",
        "label": "address",
        "numberOfBytes": "20"
      },
      "t_array(t_struct(UserStatus)8288_storage)dyn_storage": {
        "base": "t_struct(UserStatus)8288_storage",
        "encoding": "dynamic_array",
        "label": "struct DataType.UserStatus[]",
        "numberOfBytes": "32"
      },
      "t_array(t_uint256)dyn_storage": {
        "base": "t_uint256",
        "encoding": "dynamic_array",
        "label": "uint256[]",
        "numberOfBytes": "32"
      },
      "t_bool": {
        "encoding": "inplace",
        "label": "bool",
        "numberOfBytes": "1"
      },
      "t_int24": {
        "encoding": "inplace",
        "label": "int24",
        "numberOfBytes": "3"
      },
      "t_int256": {
        "encoding": "inplace",
        "label": "int256",
        "numberOfBytes": "32"
      },
      "t_mapping(t_address,t_bool)": {
        "encoding": "mapping",
        "key": "t_address",
        "label": "mapping(address => bool)",
        "numberOfBytes": "32",
        "value": "t_bool"
      },
      "t_mapping(t_address,t_struct(OwnVaults)8224_storage)": {
        "encoding": "mapping",
        "key": "t_address",
        "label": "mapping(address => struct DataType.OwnVaults)",
        "numberOfBytes": "32",
        "value": "t_struct(OwnVaults)8224_storage"
      },
      "t_mapping(t_uint256,t_struct(AssetStatus)8271_storage)": {
        "encoding": "mapping",
        "key": "t_uint256",
        "label": "mapping(uint256 => struct DataType.AssetStatus)",
        "numberOfBytes": "32",
        "value": "t_struct(AssetStatus)8271_storage"
      },
      "t_mapping(t_uint256,t_struct(Vault)8282_storage)": {
        "encoding": "mapping",
        "key": "t_uint256",
        "label": "mapping(uint256 => struct DataType.Vault)",
        "numberOfBytes": "32",
        "value": "t_struct(Vault)8282_storage"
      },
      "t_struct(AssetGroup)8218_storage": {
        "encoding": "inplace",
        "label": "struct DataType.AssetGroup",
        "members": [
          {
            "astId": 8214,
            "contract": "src/Controller.sol:Controller",
            "label": "stableAssetId",
            "offset": 0,
            "slot": "0",
            "type": "t_uint256"
          },
          {
            "astId": 8217,
            "contract": "src/Controller.sol:Controller",
            "label": "assetIds",
            "offset": 0,
            "slot": "1",
            "type": "t_array(t_uint256)dyn_storage"
          }
        ],
        "numberOfBytes": "64"
      },
      "t_struct(AssetRiskParams)8243_storage": {
        "encoding": "inplace",
        "label": "struct DataType.AssetRiskParams",
        "members": [
          {
            "astId": 8238,
            "contract": "src/Controller.sol:Controller",
            "label": "riskRatio",
            "offset": 0,
            "slot": "0",
            "type": "t_uint256"
          },
          {
            "astId": 8240,
            "contract": "src/Controller.sol:Controller",
            "label": "rangeSize",
            "offset": 0,
            "slot": "1",
            "type": "t_int24"
          },
          {
            "astId": 8242,
            "contract": "src/Controller.sol:Controller",
            "label": "rebalanceThreshold",
            "offset": 3,
            "slot": "1",
            "type": "t_int24"
          }
        ],
        "numberOfBytes": "64"
      },
      "t_struct(AssetStatus)8271_storage": {
        "encoding": "inplace",
        "label": "struct DataType.AssetStatus",
        "members": [
          {
            "astId": 8245,
            "contract": "src/Controller.sol:Controller",
            "label": "id",
            "offset": 0,
            "slot": "0",
            "type": "t_uint256"
          },
          {
            "astId": 8247,
            "contract": "src/Controller.sol:Controller",
            "label": "token",
            "offset": 0,
            "slot": "1",
            "type": "t_address"
          },
          {
            "astId": 8249,
            "contract": "src/Controller.sol:Controller",
            "label": "supplyTokenAddress",
            "offset": 0,
            "slot": "2",
            "type": "t_address"
          },
          {
            "astId": 8252,
            "contract": "src/Controller.sol:Controller",
            "label": "riskParams",
            "offset": 0,
            "slot": "3",
            "type": "t_struct(AssetRiskParams)8243_storage"
          },
          {
            "astId": 8255,
            "contract": "src/Controller.sol:Controller",
            "label": "tokenStatus",
            "offset": 0,
            "slot": "5",
            "type": "t_struct(TokenStatus)12583_storage"
          },
          {
            "astId": 8258,
            "contract": "src/Controller.sol:Controller",
            "label": "sqrtAssetStatus",
            "offset": 0,
            "slot": "13",
            "type": "t_struct(SqrtPerpAssetStatus)8577_storage"
          },
          {
            "astId": 8260,
            "contract": "src/Controller.sol:Controller",
            "label": "isMarginZero",
            "offset": 0,
            "slot": "26",
            "type": "t_bool"
          },
          {
            "astId": 8263,
            "contract": "src/Controller.sol:Controller",
            "label": "irmParams",
            "offset": 0,
            "slot": "27",
            "type": "t_struct(IRMParams)8413_storage"
          },
          {
            "astId": 8266,
            "contract": "src/Controller.sol:Controller",
            "label": "squartIRMParams",
            "offset": 0,
            "slot": "31",
            "type": "t_struct(IRMParams)8413_storage"
          },
          {
            "astId": 8268,
            "contract": "src/Controller.sol:Controller",
            "label": "lastUpdateTimestamp",
            "offset": 0,
            "slot": "35",
            "type": "t_uint256"
          },
          {
            "astId": 8270,
            "contract": "src/Controller.sol:Controller",
            "label": "accumulatedProtocolRevenue",
            "offset": 0,
            "slot": "36",
            "type": "t_uint256"
          }
        ],
        "numberOfBytes": "1184"
      },
      "t_struct(IRMParams)8413_storage": {
        "encoding": "inplace",
        "label": "struct InterestRateModel.IRMParams",
        "members": [
          {
            "astId": 8406,
            "contract": "src/Controller.sol:Controller",
            "label": "baseRate",
            "offset": 0,
            "slot": "0",
            "type": "t_uint256"
          },
          {
            "astId": 8408,
            "contract": "src/Controller.sol:Controller",
            "label": "kinkRate",
            "offset": 0,
            "slot": "1",
            "type": "t_uint256"
          },
          {
            "astId": 8410,
            "contract": "src/Controller.sol:Controller",
            "label": "slope1",
            "offset": 0,
            "slot": "2",
            "type": "t_uint256"
          },
          {
            "astId": 8412,
            "contract": "src/Controller.sol:Controller",
            "label": "slope2",
            "offset": 0,
            "slot": "3",
            "type": "t_uint256"
          }
        ],
        "numberOfBytes": "128"
      },
      "t_struct(OwnVaults)8224_storage": {
        "encoding": "inplace",
        "label": "struct DataType.OwnVaults",
        "members": [
          {
            "astId": 8220,
            "contract": "src/Controller.sol:Controller",
            "label": "mainVaultId",
            "offset": 0,
            "slot": "0",
            "type": "t_uint256"
          },
          {
            "astId": 8223,
            "contract": "src/Controller.sol:Controller",
            "label": "isolatedVaultIds",
            "offset": 0,
            "slot": "1",
            "type": "t_array(t_uint256)dyn_storage"
          }
        ],
        "numberOfBytes": "64"
      },
      "t_struct(PositionStatus)8510_storage": {
        "encoding": "inplace",
        "label": "struct Perp.PositionStatus",
        "members": [
          {
            "astId": 8507,
            "contract": "src/Controller.sol:Controller",
            "label": "amount",
            "offset": 0,
            "slot": "0",
            "type": "t_int256"
          },
          {
            "astId": 8509,
            "contract": "src/Controller.sol:Controller",
            "label": "entryValue",
            "offset": 0,
            "slot": "1",
            "type": "t_int256"
          }
        ],
        "numberOfBytes": "64"
      },
      "t_struct(SqrtPerpAssetStatus)8577_storage": {
        "encoding": "inplace",
        "label": "struct Perp.SqrtPerpAssetStatus",
        "members": [
          {
            "astId": 8550,
            "contract": "src/Controller.sol:Controller",
            "label": "uniswapPool",
            "offset": 0,
            "slot": "0",
            "type": "t_address"
          },
          {
            "astId": 8552,
            "contract": "src/Controller.sol:Controller",
            "label": "tickLower",
            "offset": 20,
            "slot": "0",
            "type": "t_int24"
          },
          {
            "astId": 8554,
            "contract": "src/Controller.sol:Controller",
            "label": "tickUpper",
            "offset": 23,
            "slot": "0",
            "type": "t_int24"
          },
          {
            "astId": 8556,
            "contract": "src/Controller.sol:Controller",
            "label": "totalAmount",
            "offset": 0,
            "slot": "1",
            "type": "t_uint256"
          },
          {
            "astId": 8558,
            "contract": "src/Controller.sol:Controller",
            "label": "borrowedAmount",
            "offset": 0,
            "slot": "2",
            "type": "t_uint256"
          },
          {
            "astId": 8560,
            "contract": "src/Controller.sol:Controller",
            "label": "supplyPremiumGrowth",
            "offset": 0,
            "slot": "3",
            "type": "t_uint256"
          },
          {
            "astId": 8562,
            "contract": "src/Controller.sol:Controller",
            "label": "borrowPremiumGrowth",
            "offset": 0,
            "slot": "4",
            "type": "t_uint256"
          },
          {
            "astId": 8564,
            "contract": "src/Controller.sol:Controller",
            "label": "fee0Growth",
            "offset": 0,
            "slot": "5",
            "type": "t_uint256"
          },
          {
            "astId": 8566,
            "contract": "src/Controller.sol:Controller",
            "label": "fee1Growth",
            "offset": 0,
            "slot": "6",
            "type": "t_uint256"
          },
          {
            "astId": 8569,
            "contract": "src/Controller.sol:Controller",
            "label": "rebalancePositionUnderlying",
            "offset": 0,
            "slot": "7",
            "type": "t_struct(UserStatus)12588_storage"
          },
          {
            "astId": 8572,
            "contract": "src/Controller.sol:Controller",
            "label": "rebalancePositionStable",
            "offset": 0,
            "slot": "9",
            "type": "t_struct(UserStatus)12588_storage"
          },
          {
            "astId": 8574,
            "contract": "src/Controller.sol:Controller",
            "label": "rebalanceFeeGrowthUnderlying",
            "offset": 0,
            "slot": "11",
            "type": "t_int256"
          },
          {
            "astId": 8576,
            "contract": "src/Controller.sol:Controller",
            "label": "rebalanceFeeGrowthStable",
            "offset": 0,
            "slot": "12",
            "type": "t_int256"
          }
        ],
        "numberOfBytes": "416"
      },
      "t_struct(SqrtPositionStatus)8525_storage": {
        "encoding": "inplace",
        "label": "struct Perp.SqrtPositionStatus",
        "members": [
          {
            "astId": 8512,
            "contract": "src/Controller.sol:Controller",
            "label": "amount",
            "offset": 0,
            "slot": "0",
            "type": "t_int256"
          },
          {
            "astId": 8514,
            "contract": "src/Controller.sol:Controller",
            "label": "entryValue",
            "offset": 0,
            "slot": "1",
            "type": "t_int256"
          },
          {
            "astId": 8516,
            "contract": "src/Controller.sol:Controller",
            "label": "stableRebalanceEntryValue",
            "offset": 0,
            "slot": "2",
            "type": "t_int256"
          },
          {
            "astId": 8518,
            "contract": "src/Controller.sol:Controller",
            "label": "underlyingRebalanceEntryValue",
            "offset": 0,
            "slot": "3",
            "type": "t_int256"
          },
          {
            "astId": 8520,
            "contract": "src/Controller.sol:Controller",
            "label": "entryTradeFee0",
            "offset": 0,
            "slot": "4",
            "type": "t_uint256"
          },
          {
            "astId": 8522,
            "contract": "src/Controller.sol:Controller",
            "label": "entryTradeFee1",
            "offset": 0,
            "slot": "5",
            "type": "t_uint256"
          },
          {
            "astId": 8524,
            "contract": "src/Controller.sol:Controller",
            "label": "entryPremium",
            "offset": 0,
            "slot": "6",
            "type": "t_uint256"
          }
        ],
        "numberOfBytes": "224"
      },
      "t_struct(TokenStatus)12583_storage": {
        "encoding": "inplace",
        "label": "struct ScaledAsset.TokenStatus",
        "members": [
          {
            "astId": 12568,
            "contract": "src/Controller.sol:Controller",
            "label": "totalCompoundDeposited",
            "offset": 0,
            "slot": "0",
            "type": "t_uint256"
          },
          {
            "astId": 12570,
            "contract": "src/Controller.sol:Controller",
            "label": "totalCompoundBorrowed",
            "offset": 0,
            "slot": "1",
            "type": "t_uint256"
          },
          {
            "astId": 12572,
            "contract": "src/Controller.sol:Controller",
            "label": "totalNormalDeposited",
            "offset": 0,
            "slot": "2",
            "type": "t_uint256"
          },
          {
            "astId": 12574,
            "contract": "src/Controller.sol:Controller",
            "label": "totalNormalBorrowed",
            "offset": 0,
            "slot": "3",
            "type": "t_uint256"
          },
          {
            "astId": 12576,
            "contract": "src/Controller.sol:Controller",
            "label": "assetScaler",
            "offset": 0,
            "slot": "4",
            "type": "t_uint256"
          },
          {
            "astId": 12578,
            "contract": "src/Controller.sol:Controller",
            "label": "debtScaler",
            "offset": 0,
            "slot": "5",
            "type": "t_uint256"
          },
          {
            "astId": 12580,
            "contract": "src/Controller.sol:Controller",
            "label": "assetGrowth",
            "offset": 0,
            "slot": "6",
            "type": "t_uint256"
          },
          {
            "astId": 12582,
            "contract": "src/Controller.sol:Controller",
            "label": "debtGrowth",
            "offset": 0,
            "slot": "7",
            "type": "t_uint256"
          }
        ],
        "numberOfBytes": "256"
      },
      "t_struct(UserStatus)12588_storage": {
        "encoding": "inplace",
        "label": "struct ScaledAsset.UserStatus",
        "members": [
          {
            "astId": 12585,
            "contract": "src/Controller.sol:Controller",
            "label": "positionAmount",
            "offset": 0,
            "slot": "0",
            "type": "t_int256"
          },
          {
            "astId": 12587,
            "contract": "src/Controller.sol:Controller",
            "label": "lastFeeGrowth",
            "offset": 0,
            "slot": "1",
            "type": "t_uint256"
          }
        ],
        "numberOfBytes": "64"
      },
      "t_struct(UserStatus)8288_storage": {
        "encoding": "inplace",
        "label": "struct DataType.UserStatus",
        "members": [
          {
            "astId": 8284,
            "contract": "src/Controller.sol:Controller",
            "label": "assetId",
            "offset": 0,
            "slot": "0",
            "type": "t_uint256"
          },
          {
            "astId": 8287,
            "contract": "src/Controller.sol:Controller",
            "label": "perpTrade",
            "offset": 0,
            "slot": "1",
            "type": "t_struct(UserStatus)8598_storage"
          }
        ],
        "numberOfBytes": "544"
      },
      "t_struct(UserStatus)8598_storage": {
        "encoding": "inplace",
        "label": "struct Perp.UserStatus",
        "members": [
          {
            "astId": 8580,
            "contract": "src/Controller.sol:Controller",
            "label": "perp",
            "offset": 0,
            "slot": "0",
            "type": "t_struct(PositionStatus)8510_storage"
          },
          {
            "astId": 8583,
            "contract": "src/Controller.sol:Controller",
            "label": "sqrtPerp",
            "offset": 0,
            "slot": "2",
            "type": "t_struct(SqrtPositionStatus)8525_storage"
          },
          {
            "astId": 8586,
            "contract": "src/Controller.sol:Controller",
            "label": "underlying",
            "offset": 0,
            "slot": "9",
            "type": "t_struct(UserStatus)12588_storage"
          },
          {
            "astId": 8589,
            "contract": "src/Controller.sol:Controller",
            "label": "stable",
            "offset": 0,
            "slot": "11",
            "type": "t_struct(UserStatus)12588_storage"
          },
          {
            "astId": 8591,
            "contract": "src/Controller.sol:Controller",
            "label": "rebalanceLastTickLower",
            "offset": 0,
            "slot": "13",
            "type": "t_int24"
          },
          {
            "astId": 8593,
            "contract": "src/Controller.sol:Controller",
            "label": "rebalanceLastTickUpper",
            "offset": 3,
            "slot": "13",
            "type": "t_int24"
          },
          {
            "astId": 8595,
            "contract": "src/Controller.sol:Controller",
            "label": "rebalanceEntryFeeUnderlying",
            "offset": 0,
            "slot": "14",
            "type": "t_int256"
          },
          {
            "astId": 8597,
            "contract": "src/Controller.sol:Controller",
            "label": "rebalanceEntryFeeStable",
            "offset": 0,
            "slot": "15",
            "type": "t_int256"
          }
        ],
        "numberOfBytes": "512"
      },
      "t_struct(Vault)8282_storage": {
        "encoding": "inplace",
        "label": "struct DataType.Vault",
        "members": [
          {
            "astId": 8273,
            "contract": "src/Controller.sol:Controller",
            "label": "id",
            "offset": 0,
            "slot": "0",
            "type": "t_uint256"
          },
          {
            "astId": 8275,
            "contract": "src/Controller.sol:Controller",
            "label": "owner",
            "offset": 0,
            "slot": "1",
            "type": "t_address"
          },
          {
            "astId": 8277,
            "contract": "src/Controller.sol:Controller",
            "label": "margin",
            "offset": 0,
            "slot": "2",
            "type": "t_int256"
          },
          {
            "astId": 8281,
            "contract": "src/Controller.sol:Controller",
            "label": "openPositions",
            "offset": 0,
            "slot": "3",
            "type": "t_array(t_struct(UserStatus)8288_storage)dyn_storage"
          }
        ],
        "numberOfBytes": "128"
      },
      "t_uint256": {
        "encoding": "inplace",
        "label": "uint256",
        "numberOfBytes": "32"
      },
      "t_uint8": {
        "encoding": "inplace",
        "label": "uint8",
        "numberOfBytes": "1"
      }
    }
  }
}