{
  "address": "0x86B94B3ECb2dc13EA0dC300428bAb5300c766dbC",
  "abi": [
    {
      "inputs": [],
      "stateMutability": "nonpayable",
      "type": "constructor"
    },
    {
      "inputs": [],
      "name": "T",
      "type": "error"
    },
    {
      "anonymous": false,
      "inputs": [
        {
          "indexed": true,
          "internalType": "address",
          "name": "owner",
          "type": "address"
        },
        {
          "indexed": true,
          "internalType": "address",
          "name": "spender",
          "type": "address"
        },
        {
          "indexed": false,
          "internalType": "uint256",
          "name": "value",
          "type": "uint256"
        }
      ],
      "name": "Approval",
      "type": "event"
    },
    {
      "anonymous": false,
      "inputs": [
        {
          "indexed": false,
          "internalType": "int256",
          "name": "delta",
          "type": "int256"
        }
      ],
      "name": "DeltaHedged",
      "type": "event"
    },
    {
      "anonymous": false,
      "inputs": [
        {
          "indexed": true,
          "internalType": "address",
          "name": "account",
          "type": "address"
        },
        {
          "indexed": false,
          "internalType": "uint256",
          "name": "strategyTokenAmount",
          "type": "uint256"
        },
        {
          "indexed": false,
          "internalType": "uint256",
          "name": "depositedAmount",
          "type": "uint256"
        }
      ],
      "name": "DepositedToStrategy",
      "type": "event"
    },
    {
      "anonymous": false,
      "inputs": [
        {
          "indexed": false,
          "internalType": "uint256",
          "name": "hedgeInterval",
          "type": "uint256"
        }
      ],
      "name": "HedgeIntervalUpdated",
      "type": "event"
    },
    {
      "anonymous": false,
      "inputs": [
        {
          "indexed": false,
          "internalType": "uint256",
          "name": "hedgeSqrtPriceThreshold",
          "type": "uint256"
        }
      ],
      "name": "HedgePriceThresholdUpdated",
      "type": "event"
    },
    {
      "anonymous": false,
      "inputs": [
        {
          "indexed": false,
          "internalType": "address",
          "name": "newHedgerAddress",
          "type": "address"
        }
      ],
      "name": "HedgerUpdated",
      "type": "event"
    },
    {
      "anonymous": false,
      "inputs": [
        {
          "indexed": false,
          "internalType": "uint8",
          "name": "version",
          "type": "uint8"
        }
      ],
      "name": "Initialized",
      "type": "event"
    },
    {
      "anonymous": false,
      "inputs": [
        {
          "indexed": false,
          "internalType": "address",
          "name": "operator",
          "type": "address"
        }
      ],
      "name": "OperatorUpdated",
      "type": "event"
    },
    {
      "anonymous": false,
      "inputs": [
        {
          "indexed": true,
          "internalType": "address",
          "name": "from",
          "type": "address"
        },
        {
          "indexed": true,
          "internalType": "address",
          "name": "to",
          "type": "address"
        },
        {
          "indexed": false,
          "internalType": "uint256",
          "name": "value",
          "type": "uint256"
        }
      ],
      "name": "Transfer",
      "type": "event"
    },
    {
      "anonymous": false,
      "inputs": [
        {
          "indexed": true,
          "internalType": "address",
          "name": "account",
          "type": "address"
        },
        {
          "indexed": false,
          "internalType": "uint256",
          "name": "strategyTokenAmount",
          "type": "uint256"
        },
        {
          "indexed": false,
          "internalType": "uint256",
          "name": "withdrawnAmount",
          "type": "uint256"
        }
      ],
      "name": "WithdrawnFromStrategy",
      "type": "event"
    },
    {
      "inputs": [
        {
          "internalType": "address",
          "name": "owner",
          "type": "address"
        },
        {
          "internalType": "address",
          "name": "spender",
          "type": "address"
        }
      ],
      "name": "allowance",
      "outputs": [
        {
          "internalType": "uint256",
          "name": "",
          "type": "uint256"
        }
      ],
      "stateMutability": "view",
      "type": "function"
    },
    {
      "inputs": [
        {
          "internalType": "address",
          "name": "spender",
          "type": "address"
        },
        {
          "internalType": "uint256",
          "name": "amount",
          "type": "uint256"
        }
      ],
      "name": "approve",
      "outputs": [
        {
          "internalType": "bool",
          "name": "",
          "type": "bool"
        }
      ],
      "stateMutability": "nonpayable",
      "type": "function"
    },
    {
      "inputs": [
        {
          "internalType": "address",
          "name": "account",
          "type": "address"
        }
      ],
      "name": "balanceOf",
      "outputs": [
        {
          "internalType": "uint256",
          "name": "",
          "type": "uint256"
        }
      ],
      "stateMutability": "view",
      "type": "function"
    },
    {
      "inputs": [],
      "name": "checkPriceHedge",
      "outputs": [
        {
          "internalType": "bool",
          "name": "",
          "type": "bool"
        }
      ],
      "stateMutability": "view",
      "type": "function"
    },
    {
      "inputs": [],
      "name": "checkTimeHedge",
      "outputs": [
        {
          "internalType": "bool",
          "name": "",
          "type": "bool"
        }
      ],
      "stateMutability": "view",
      "type": "function"
    },
    {
      "inputs": [],
      "name": "decimals",
      "outputs": [
        {
          "internalType": "uint8",
          "name": "",
          "type": "uint8"
        }
      ],
      "stateMutability": "view",
      "type": "function"
    },
    {
      "inputs": [
        {
          "internalType": "address",
          "name": "spender",
          "type": "address"
        },
        {
          "internalType": "uint256",
          "name": "subtractedValue",
          "type": "uint256"
        }
      ],
      "name": "decreaseAllowance",
      "outputs": [
        {
          "internalType": "bool",
          "name": "",
          "type": "bool"
        }
      ],
      "stateMutability": "nonpayable",
      "type": "function"
    },
    {
      "inputs": [
        {
          "internalType": "uint256",
          "name": "_strategyTokenAmount",
          "type": "uint256"
        },
        {
          "internalType": "address",
          "name": "_recepient",
          "type": "address"
        },
        {
          "internalType": "uint256",
          "name": "_maxDepositAmount",
          "type": "uint256"
        },
        {
          "internalType": "bool",
          "name": "isQuoteMode",
          "type": "bool"
        },
        {
          "components": [
            {
              "internalType": "uint256",
              "name": "lowerSqrtPrice",
              "type": "uint256"
            },
            {
              "internalType": "uint256",
              "name": "upperSqrtPrice",
              "type": "uint256"
            },
            {
              "internalType": "uint256",
              "name": "deadline",
              "type": "uint256"
            }
          ],
          "internalType": "struct IStrategyVault.StrategyTradeParams",
          "name": "_tradeParams",
          "type": "tuple"
        }
      ],
      "name": "deposit",
      "outputs": [
        {
          "internalType": "uint256",
          "name": "finalDepositMargin",
          "type": "uint256"
        }
      ],
      "stateMutability": "nonpayable",
      "type": "function"
    },
    {
      "inputs": [
        {
          "internalType": "uint256",
          "name": "_initialMarginAmount",
          "type": "uint256"
        },
        {
          "internalType": "int256",
          "name": "_initialPerpAmount",
          "type": "int256"
        },
        {
          "internalType": "int256",
          "name": "_initialSquartAmount",
          "type": "int256"
        },
        {
          "components": [
            {
              "internalType": "uint256",
              "name": "lowerSqrtPrice",
              "type": "uint256"
            },
            {
              "internalType": "uint256",
              "name": "upperSqrtPrice",
              "type": "uint256"
            },
            {
              "internalType": "uint256",
              "name": "deadline",
              "type": "uint256"
            }
          ],
          "internalType": "struct IStrategyVault.StrategyTradeParams",
          "name": "_tradeParams",
          "type": "tuple"
        }
      ],
      "name": "depositForPositionInitialization",
      "outputs": [],
      "stateMutability": "nonpayable",
      "type": "function"
    },
    {
      "inputs": [
        {
          "components": [
            {
              "internalType": "uint256",
              "name": "lowerSqrtPrice",
              "type": "uint256"
            },
            {
              "internalType": "uint256",
              "name": "upperSqrtPrice",
              "type": "uint256"
            },
            {
              "internalType": "uint256",
              "name": "deadline",
              "type": "uint256"
            }
          ],
          "internalType": "struct IStrategyVault.StrategyTradeParams",
          "name": "_tradeParams",
          "type": "tuple"
        },
        {
          "internalType": "uint256",
          "name": "_deltaRatio",
          "type": "uint256"
        }
      ],
      "name": "execDeltaHedge",
      "outputs": [],
      "stateMutability": "nonpayable",
      "type": "function"
    },
    {
      "inputs": [],
      "name": "getDelta",
      "outputs": [
        {
          "internalType": "int256",
          "name": "",
          "type": "int256"
        }
      ],
      "stateMutability": "view",
      "type": "function"
    },
    {
      "inputs": [],
      "name": "getPrice",
      "outputs": [
        {
          "internalType": "uint256",
          "name": "",
          "type": "uint256"
        }
      ],
      "stateMutability": "nonpayable",
      "type": "function"
    },
    {
      "inputs": [],
      "name": "hedger",
      "outputs": [
        {
          "internalType": "address",
          "name": "",
          "type": "address"
        }
      ],
      "stateMutability": "view",
      "type": "function"
    },
    {
      "inputs": [
        {
          "internalType": "address",
          "name": "spender",
          "type": "address"
        },
        {
          "internalType": "uint256",
          "name": "addedValue",
          "type": "uint256"
        }
      ],
      "name": "increaseAllowance",
      "outputs": [
        {
          "internalType": "bool",
          "name": "",
          "type": "bool"
        }
      ],
      "stateMutability": "nonpayable",
      "type": "function"
    },
    {
      "inputs": [
        {
          "internalType": "address",
          "name": "_controller",
          "type": "address"
        },
        {
          "internalType": "address",
          "name": "_reader",
          "type": "address"
        },
        {
          "internalType": "uint256",
          "name": "_assetId",
          "type": "uint256"
        },
        {
          "components": [
            {
              "internalType": "uint256",
              "name": "lower",
              "type": "uint256"
            },
            {
              "internalType": "uint256",
              "name": "upper",
              "type": "uint256"
            }
          ],
          "internalType": "struct BaseStrategy.MinPerValueLimit",
          "name": "_minPerValueLimit",
          "type": "tuple"
        },
        {
          "internalType": "string",
          "name": "_name",
          "type": "string"
        },
        {
          "internalType": "string",
          "name": "_symbol",
          "type": "string"
        }
      ],
      "name": "initialize",
      "outputs": [],
      "stateMutability": "nonpayable",
      "type": "function"
    },
    {
      "inputs": [],
      "name": "lastHedgePrice",
      "outputs": [
        {
          "internalType": "uint256",
          "name": "",
          "type": "uint256"
        }
      ],
      "stateMutability": "view",
      "type": "function"
    },
    {
      "inputs": [],
      "name": "lastHedgeTimestamp",
      "outputs": [
        {
          "internalType": "uint256",
          "name": "",
          "type": "uint256"
        }
      ],
      "stateMutability": "view",
      "type": "function"
    },
    {
      "inputs": [],
      "name": "name",
      "outputs": [
        {
          "internalType": "string",
          "name": "",
          "type": "string"
        }
      ],
      "stateMutability": "view",
      "type": "function"
    },
    {
      "inputs": [],
      "name": "operator",
      "outputs": [
        {
          "internalType": "address",
          "name": "",
          "type": "address"
        }
      ],
      "stateMutability": "view",
      "type": "function"
    },
    {
      "inputs": [
        {
          "components": [
            {
              "components": [
                {
                  "internalType": "int256",
                  "name": "perpEntryUpdate",
                  "type": "int256"
                },
                {
                  "internalType": "int256",
                  "name": "sqrtEntryUpdate",
                  "type": "int256"
                },
                {
                  "internalType": "int256",
                  "name": "sqrtRebalanceEntryUpdateUnderlying",
                  "type": "int256"
                },
                {
                  "internalType": "int256",
                  "name": "sqrtRebalanceEntryUpdateStable",
                  "type": "int256"
                },
                {
                  "internalType": "int256",
                  "name": "perpPayoff",
                  "type": "int256"
                },
                {
                  "internalType": "int256",
                  "name": "sqrtPayoff",
                  "type": "int256"
                }
              ],
              "internalType": "struct Perp.Payoff",
              "name": "payoff",
              "type": "tuple"
            },
            {
              "internalType": "int256",
              "name": "fee",
              "type": "int256"
            },
            {
              "internalType": "int256",
              "name": "minDeposit",
              "type": "int256"
            }
          ],
          "internalType": "struct DataType.TradeResult",
          "name": "_tradeResult",
          "type": "tuple"
        },
        {
          "internalType": "bytes",
          "name": "_data",
          "type": "bytes"
        }
      ],
      "name": "predyTradeCallback",
      "outputs": [
        {
          "internalType": "int256",
          "name": "",
          "type": "int256"
        }
      ],
      "stateMutability": "nonpayable",
      "type": "function"
    },
    {
      "inputs": [
        {
          "internalType": "address",
          "name": "_newHedger",
          "type": "address"
        }
      ],
      "name": "setHedger",
      "outputs": [],
      "stateMutability": "nonpayable",
      "type": "function"
    },
    {
      "inputs": [
        {
          "internalType": "address",
          "name": "_newOperator",
          "type": "address"
        }
      ],
      "name": "setOperator",
      "outputs": [],
      "stateMutability": "nonpayable",
      "type": "function"
    },
    {
      "inputs": [],
      "name": "symbol",
      "outputs": [
        {
          "internalType": "string",
          "name": "",
          "type": "string"
        }
      ],
      "stateMutability": "view",
      "type": "function"
    },
    {
      "inputs": [],
      "name": "totalSupply",
      "outputs": [
        {
          "internalType": "uint256",
          "name": "",
          "type": "uint256"
        }
      ],
      "stateMutability": "view",
      "type": "function"
    },
    {
      "inputs": [
        {
          "internalType": "address",
          "name": "to",
          "type": "address"
        },
        {
          "internalType": "uint256",
          "name": "amount",
          "type": "uint256"
        }
      ],
      "name": "transfer",
      "outputs": [
        {
          "internalType": "bool",
          "name": "",
          "type": "bool"
        }
      ],
      "stateMutability": "nonpayable",
      "type": "function"
    },
    {
      "inputs": [
        {
          "internalType": "address",
          "name": "from",
          "type": "address"
        },
        {
          "internalType": "address",
          "name": "to",
          "type": "address"
        },
        {
          "internalType": "uint256",
          "name": "amount",
          "type": "uint256"
        }
      ],
      "name": "transferFrom",
      "outputs": [
        {
          "internalType": "bool",
          "name": "",
          "type": "bool"
        }
      ],
      "stateMutability": "nonpayable",
      "type": "function"
    },
    {
      "inputs": [
        {
          "internalType": "int256",
          "name": "_squartAmount",
          "type": "int256"
        },
        {
          "components": [
            {
              "internalType": "uint256",
              "name": "lowerSqrtPrice",
              "type": "uint256"
            },
            {
              "internalType": "uint256",
              "name": "upperSqrtPrice",
              "type": "uint256"
            },
            {
              "internalType": "uint256",
              "name": "deadline",
              "type": "uint256"
            }
          ],
          "internalType": "struct IStrategyVault.StrategyTradeParams",
          "name": "_tradeParams",
          "type": "tuple"
        }
      ],
      "name": "updateGamma",
      "outputs": [],
      "stateMutability": "nonpayable",
      "type": "function"
    },
    {
      "inputs": [
        {
          "internalType": "uint256",
          "name": "_hedgeInterval",
          "type": "uint256"
        }
      ],
      "name": "updateHedgeInterval",
      "outputs": [],
      "stateMutability": "nonpayable",
      "type": "function"
    },
    {
      "inputs": [
        {
          "internalType": "uint256",
          "name": "_newSqrtPriceThreshold",
          "type": "uint256"
        }
      ],
      "name": "updateHedgePriceThreshold",
      "outputs": [],
      "stateMutability": "nonpayable",
      "type": "function"
    },
    {
      "inputs": [],
      "name": "vaultId",
      "outputs": [
        {
          "internalType": "uint256",
          "name": "",
          "type": "uint256"
        }
      ],
      "stateMutability": "view",
      "type": "function"
    },
    {
      "inputs": [
        {
          "internalType": "uint256",
          "name": "_withdrawStrategyAmount",
          "type": "uint256"
        },
        {
          "internalType": "address",
          "name": "_recepient",
          "type": "address"
        },
        {
          "internalType": "int256",
          "name": "_minWithdrawAmount",
          "type": "int256"
        },
        {
          "components": [
            {
              "internalType": "uint256",
              "name": "lowerSqrtPrice",
              "type": "uint256"
            },
            {
              "internalType": "uint256",
              "name": "upperSqrtPrice",
              "type": "uint256"
            },
            {
              "internalType": "uint256",
              "name": "deadline",
              "type": "uint256"
            }
          ],
          "internalType": "struct IStrategyVault.StrategyTradeParams",
          "name": "_tradeParams",
          "type": "tuple"
        }
      ],
      "name": "withdraw",
      "outputs": [
        {
          "internalType": "uint256",
          "name": "finalWithdrawAmount",
          "type": "uint256"
        }
      ],
      "stateMutability": "nonpayable",
      "type": "function"
    }
  ],
  "transactionHash": "0x295cdd318482ad1a3b4b9352fd11e1a57eb4ad309068f57b89e7cba9646dd7b4",
  "args": [],
  "numDeployments": 4,
  "solcInputHash": "d773890f59fd53f1a9443ce46495b7dd",
  "bytecode": "0x608060405234801561001057600080fd5b506001606c55614688806100256000396000f3fe608060405234801561001057600080fd5b50600436106101e55760003560e01c80636528b5031161010f578063b3ab15fb116100a2578063d3f0b8c111610071578063d3f0b8c1146103e0578063d5610841146103f3578063dd62ed3e14610406578063f3bb05451461041957600080fd5b8063b3ab15fb146103aa578063c1e80ca5146103bd578063c2451689146103d0578063c549176e146103d857600080fd5b806395d89b41116100de57806395d89b411461037457806398d5fdca1461037c578063a457c2d714610384578063a9059cbb1461039757600080fd5b80636528b5031461032757806370a082311461033057806388626eb8146103595780638b8887511461036157600080fd5b806323b872dd11610187578063395093511161015657806339509351146102db5780633bcec32a146102ee5780634b751ae414610301578063570ca7351461031457600080fd5b806323b872dd1461029d5780632de911ca146102b0578063313ce567146102c357806333194c0a146102d257600080fd5b8063095ea7b3116101c3578063095ea7b314610248578063113317e11461026b57806318160ddd14610282578063196c523c1461028a57600080fd5b806302755411146101ea57806306fdde03146101ff578063079cff941461021d575b600080fd5b6101fd6101f83660046131db565b61042c565b005b6102076104c7565b6040516102149190613248565b60405180910390f35b607354610230906001600160a01b031681565b6040516001600160a01b039091168152602001610214565b61025b61025636600461325b565b610559565b6040519015158152602001610214565b61027460705481565b604051908152602001610214565b603554610274565b6101fd610298366004613455565b610573565b61025b6102ab366004613516565b610736565b6102746102be366004613591565b61075a565b60405160068152602001610214565b61027460665481565b61025b6102e936600461325b565b610b33565b6101fd6102fc3660046135da565b610b55565b6101fd61030f366004613607565b610c9d565b606b54610230906001600160a01b031681565b610274606f5481565b61027461033e3660046131db565b6001600160a01b031660009081526033602052604090205490565b61025b610d24565b61027461036f366004613661565b610db4565b610207610efa565b610274610f09565b61025b61039236600461325b565b610fcb565b61025b6103a536600461325b565b611046565b6101fd6103b83660046131db565b611054565b6102746103cb366004613733565b6110df565b61025b611441565b61027461144b565b6101fd6103ee366004613607565b6114ca565b6101fd61040136600461378f565b611547565b6102746104143660046137ba565b6116a0565b6101fd6104273660046137f3565b6116cb565b606b546001600160a01b0316331461045f5760405162461bcd60e51b815260040161045690613828565b60405180910390fd5b6001600160a01b03811661047257600080fd5b607380546001600160a01b0319166001600160a01b0383169081179091556040519081527fddccb1cfdddc43a6b06c07aa52a70f68e9eb3465e92d5105079d1e0d7923b9fa906020015b60405180910390a150565b6060603680546104d69061386c565b80601f01602080910402602001604051908101604052809291908181526020018280546105029061386c565b801561054f5780601f106105245761010080835404028352916020019161054f565b820191906000526020600020905b81548152906001019060200180831161053257829003601f168201915b5050505050905090565b60003361056781858561194d565b60019150505b92915050565b600054610100900460ff16158080156105935750600054600160ff909116105b806105ad5750303b1580156105ad575060005460ff166001145b6106105760405162461bcd60e51b815260206004820152602e60248201527f496e697469616c697a61626c653a20636f6e747261637420697320616c72656160448201526d191e481a5b9a5d1a585b1a5e995960921b6064820152608401610456565b6000805460ff191660011790558015610633576000805461ff0019166101001790555b6106408786868686611a71565b606d80546001600160a01b0319166001600160a01b0388811691909117909155670e63882d5a9584006071556202a3006072556065546040516318e8074960e01b8152600481018890529116906318e8074990602401602060405180830381865afa1580156106b3573d6000803e3d6000fd5b505050506040513d601f19601f820116820180604052508101906106d791906138a6565b6001600160a01b031660705542606f55801561072d576000805461ff0019169055604051600181527f7f26b83ff96e1f2b6a682f133852f6798a09c465da95921460cefb38474024989060200160405180910390a15b50505050505050565b600033610744858285611b6a565b61074f858585611bde565b506001949350505050565b6000610764611d89565b600061076f60355490565b610781670de0b6b3a7640000886138d9565b61078b9190613906565b606554606654604051632500ed8d60e21b81529293506000926001600160a01b0390921691639403b634916107c69160040190815260200190565b600060405180830381865afa1580156107e3573d6000803e3d6000fd5b505050506040513d6000823e601f3d908101601f1916820160405261080b9190810190613a92565b90506000606560009054906101000a90046001600160a01b03166001600160a01b031663113528a86066546068546040518060e00160405280670de0b6b3a7640000886060015160008151811061086457610864613bac565b6020908102919091018101510151515161087d8b613bc2565b6108879190613bde565b6108919190613c0e565b8152602001670de0b6b3a764000088606001516000815181106108b6576108b6613bac565b60200260200101516020015160200151600001518a6108d490613bc2565b6108de9190613bde565b6108e89190613c0e565b81526020018a6000015181526020018a6020015181526020018a604001518152602001600015158152602001604051806020016040528060008152508152506040518463ffffffff1660e01b815260040161094593929190613c3c565b610100604051808303816000875af1158015610965573d6000803e3d6000fd5b505050506040513d601f19601f820116820180604052508101906109899190613ca5565b90506000816000015160a00151826000015160800151670de0b6b3a764000086856020015187604001516109bd9190613d31565b6109c79190613bde565b6109d19190613c0e565b6109db9190613d31565b6109e59190613d31565b90508681121580156109f8575060008712155b610a2d5760405162461bcd60e51b8152600401610456906020808252600490820152634753533360e01b604082015260600190565b610a37338a611de2565b610a4381612710611f16565b6065549095506001600160a01b0316632556efd2610a6087613bc2565b6040518263ffffffff1660e01b8152600401610a7e91815260200190565b6020604051808303816000875af1158015610a9d573d6000803e3d6000fd5b505050506040513d601f19601f82011682018060405250810190610ac19190613d59565b50606754610ad9906001600160a01b03168987611f36565b604080518a8152602081018790526001600160a01b038a16917f490dfb4ce52333704763aee75edba596ceaab548bccafc900f79c2b9f6381b08910160405180910390a250505050610b2b6001606c55565b949350505050565b600033610567818585610b4683836116a0565b610b509190613d72565b61194d565b606b546001600160a01b03163314610b7f5760405162461bcd60e51b815260040161045690613828565b6065546066546068546040805160e0810182526000808252602080830189905287518385015287810151606084015287840151608084015260a083018290528351908101845290815260c08201529051630226a51560e31b81526001600160a01b039094169363113528a893610bfb9390929091600401613c3c565b610100604051808303816000875af1158015610c1b573d6000803e3d6000fd5b505050506040513d601f19601f82011682018060405250810190610c3f9190613ca5565b506000610c4a612036565b90508060696000015411158015610c635750606a548111155b610c985760405162461bcd60e51b81526004016104569060208082526004908201526311d4d4cd60e21b604082015260600190565b505050565b606b546001600160a01b03163314610cc75760405162461bcd60e51b815260040161045690613828565b80670de0b6b3a764000011158015610ce65750671bc16d674ec8000081105b610cef57600080fd5b60718190556040518181527f425c0b48fb561011de4986235bf0fa5b2f5e5bdd64048817337398c204fe7914906020016104bc565b6065546068546040516318e8074960e01b8152600092610daf926001600160a01b03909116916318e8074991610d609160040190815260200190565b602060405180830381865afa158015610d7d573d6000803e3d6000fd5b505050506040513d601f19601f82011682018060405250810190610da191906138a6565b6001600160a01b03166120e8565b905090565b6065546000906001600160a01b03163314610dfa5760405162461bcd60e51b8152600401610456906020808252600490820152634753533560e01b604082015260600190565b60008080610e0a85870187613d85565b9250925092506000806000610e228a6000015161214a565b9250925092506000610e3684848985612258565b9050610e44816127106122dd565b606e81905590508415610e5a57610e5a816122ec565b606754610e72906001600160a01b0316873084612305565b60675460655460405163095ea7b360e01b81526001600160a01b0391821660048201526024810184905291169063095ea7b3906044016020604051808303816000875af1158015610ec7573d6000803e3d6000fd5b505050506040513d601f19601f82011682018060405250810190610eeb9190613dd2565b509a9950505050505050505050565b6060603780546104d69061386c565b6065546066546040516349ebb77d60e01b815260009283926001600160a01b03909116916349ebb77d91610f439160040190815260200190565b6000604051808303816000875af1158015610f62573d6000803e3d6000fd5b505050506040513d6000823e601f3d908101601f19168201604052610f8a9190810190613e98565b90506000816040015113610fa057600091505090565b603554670de0b6b3a76400008260400151610fbb91906138d9565b610fc59190613906565b91505090565b60003381610fd982866116a0565b9050838110156110395760405162461bcd60e51b815260206004820152602560248201527f45524332303a2064656372656173656420616c6c6f77616e63652062656c6f77604482015264207a65726f60d81b6064820152608401610456565b61074f828686840361194d565b600033610567818585611bde565b606b546001600160a01b0316331461107e5760405162461bcd60e51b815260040161045690613828565b6001600160a01b03811661109157600080fd5b606b80546001600160a01b0319166001600160a01b0383169081179091556040519081527fb3b3f5f64ab192e4b5fefde1f51ce9733bbdcf831951543b325aebd49cc27ec4906020016104bc565b60006110e9611d89565b60006110f460355490565b1161112a5760405162461bcd60e51b8152600401610456906020808252600490820152634753533160e01b604082015260600190565b600061113e8761113960355490565b61240f565b606554606654604051632500ed8d60e21b81529293506000926001600160a01b0390921691639403b634916111799160040190815260200190565b600060405180830381865afa158015611196573d6000803e3d6000fd5b505050506040513d6000823e601f3d908101601f191682016040526111be9190810190613a92565b905060006111f68383606001516000815181106111dd576111dd613bac565b6020026020010151602001516000015160000151612437565b9050600061122e84846060015160008151811061121557611215613bac565b6020026020010151602001516020015160000151612437565b6065546066546068546040805160e08101825287815260208082018790528c51828401528c8101516060808401919091528d840151608080850191909152600160a085015284519283018d905233838601528f1515838301528451808403909201825291909101835260c08201529051630226a51560e31b81529495506001600160a01b039093169363113528a8936112cb939291600401613c3c565b610100604051808303816000875af11580156112eb573d6000803e3d6000fd5b505050506040513d601f19601f8201168201806040525081019061130f9190613ca5565b50606e80546000199091559450878511156113555760405162461bcd60e51b81526004016104569060208082526004908201526323a9a99960e11b604082015260600190565b61135f898b612470565b606554606854604051631d591eb760e31b815260048101919091526000916001600160a01b03169063eac8f5b89060240161050060405180830381865afa1580156113ae573d6000803e3d6000fd5b505050506040513d601f19601f820116820180604052508101906113d2919061410c565b90506113e58160a0015160000151612531565b50604080518b8152602081018790526001600160a01b038b16917fd999b189e070b5645f3ccf74bacda045fe621081cc1767aa51b8281dbfd87d4c910160405180910390a2505050506114386001606c55565b95945050505050565b6000610daf6125f4565b606d54606854606654604051632440490960e21b81526000936001600160a01b03169263910124249261148992600401918252602082015260400190565b602060405180830381865afa1580156114a6573d6000803e3d6000fd5b505050506040513d601f19601f82011682018060405250810190610daf9190613d59565b606b546001600160a01b031633146114f45760405162461bcd60e51b815260040161045690613828565b80610e10111580156115095750621275008111155b61151257600080fd5b60728190556040518181527f8d6cb689962988c16fd239c4d075e5f95fdb46fdaf4b847a49b752f0baa12051906020016104bc565b6073546001600160a01b031633146115a15760405162461bcd60e51b815260206004820152601960248201527f4753533a2063616c6c6572206973206e6f7420686564676572000000000000006044820152606401610456565b6115a9611d89565b6065546068546040516318e8074960e01b815260048101919091526000916001600160a01b0316906318e8074990602401602060405180830381865afa1580156115f7573d6000803e3d6000fd5b505050506040513d601f19601f8201168201806040525081019061161b91906138a6565b6001600160a01b0316905061162e6125f4565b8061163d575061163d816120e8565b61166e5760405162461bcd60e51b8152602060048201526002602482015261544760f01b6044820152606401610456565b611678838361260d565b81670de0b6b3a76400000361169157607081905542606f555b5061169c6001606c55565b5050565b6001600160a01b03918216600090815260346020908152604080832093909416825291909152205490565b606b546001600160a01b031633146116f55760405162461bcd60e51b815260040161045690613828565b6116fd611d89565b603554156117365760405162461bcd60e51b8152600401610456906020808252600490820152630475353360e41b604082015260600190565b60675461174e906001600160a01b0316333087612305565b60675460655460405163095ea7b360e01b81526001600160a01b0391821660048201526024810187905291169063095ea7b3906044016020604051808303816000875af11580156117a3573d6000803e3d6000fd5b505050506040513d601f19601f820116820180604052508101906117c79190613dd2565b506065546040516312ab77e960e11b8152600481018690526001600160a01b0390911690632556efd2906024016020604051808303816000875af1158015611813573d6000803e3d6000fd5b505050506040513d601f19601f820116820180604052508101906118379190613d59565b60668190556065546068546040805160e0810182528781526020808201889052865182840152868101516060830152868301516080830152600060a0830181905283519182018452815260c08201529051630226a51560e31b81526001600160a01b039093169363113528a8936118b393919290600401613c3c565b610100604051808303816000875af11580156118d3573d6000803e3d6000fd5b505050506040513d601f19601f820116820180604052508101906118f79190613ca5565b506119023385612470565b604080518581526020810186905233917fd999b189e070b5645f3ccf74bacda045fe621081cc1767aa51b8281dbfd87d4c910160405180910390a26119476001606c55565b50505050565b6001600160a01b0383166119af5760405162461bcd60e51b8152602060048201526024808201527f45524332303a20617070726f76652066726f6d20746865207a65726f206164646044820152637265737360e01b6064820152608401610456565b6001600160a01b038216611a105760405162461bcd60e51b815260206004820152602260248201527f45524332303a20617070726f766520746f20746865207a65726f206164647265604482015261737360f01b6064820152608401610456565b6001600160a01b0383811660008181526034602090815260408083209487168084529482529182902085905590518481527f8c5be1e5ebec7d5bd14f71427d1e84f3dd0314c0f7b2291e5b200ac8c7c3b925910160405180910390a3505050565b600054610100900460ff16611a985760405162461bcd60e51b8152600401610456906141dc565b611aa282826127d1565b606580546001600160a01b0319166001600160a01b038716908117909155606885905583516069556020840151606a55604051631d591eb760e31b8152600160048201526000919063eac8f5b89060240161050060405180830381865afa158015611b11573d6000803e3d6000fd5b505050506040513d601f19601f82011682018060405250810190611b35919061410c565b60200151606780546001600160a01b039092166001600160a01b0319928316179055606b805490911633179055505050505050565b6000611b7684846116a0565b905060001981146119475781811015611bd15760405162461bcd60e51b815260206004820152601d60248201527f45524332303a20696e73756666696369656e7420616c6c6f77616e63650000006044820152606401610456565b611947848484840361194d565b6001600160a01b038316611c425760405162461bcd60e51b815260206004820152602560248201527f45524332303a207472616e736665722066726f6d20746865207a65726f206164604482015264647265737360d81b6064820152608401610456565b6001600160a01b038216611ca45760405162461bcd60e51b815260206004820152602360248201527f45524332303a207472616e7366657220746f20746865207a65726f206164647260448201526265737360e81b6064820152608401610456565b6001600160a01b03831660009081526033602052604090205481811015611d1c5760405162461bcd60e51b815260206004820152602660248201527f45524332303a207472616e7366657220616d6f756e7420657863656564732062604482015265616c616e636560d01b6064820152608401610456565b6001600160a01b0380851660008181526033602052604080822086860390559286168082529083902080548601905591517fddf252ad1be2c89b69c2b068fc378daa952ba7f163c4a11628f55a4df523b3ef90611d7c9086815260200190565b60405180910390a3611947565b6002606c5403611ddb5760405162461bcd60e51b815260206004820152601f60248201527f5265656e7472616e637947756172643a207265656e7472616e742063616c6c006044820152606401610456565b6002606c55565b6001600160a01b038216611e425760405162461bcd60e51b815260206004820152602160248201527f45524332303a206275726e2066726f6d20746865207a65726f206164647265736044820152607360f81b6064820152608401610456565b6001600160a01b03821660009081526033602052604090205481811015611eb65760405162461bcd60e51b815260206004820152602260248201527f45524332303a206275726e20616d6f756e7420657863656564732062616c616e604482015261636560f01b6064820152608401610456565b6001600160a01b03831660008181526033602090815260408083208686039055603580548790039055518581529192917fddf252ad1be2c89b69c2b068fc378daa952ba7f163c4a11628f55a4df523b3ef910160405180910390a3505050565b600081611f2584600185612802565b611f2f91906138d9565b9392505050565b604080516001600160a01b038481166024830152604480830185905283518084039091018152606490920183526020820180516001600160e01b031663a9059cbb60e01b1790529151600092839290871691611f929190614227565b6000604051808303816000865af19150503d8060008114611fcf576040519150601f19603f3d011682016040523d82523d6000602084013e611fd4565b606091505b5091509150818015611ffe575080511580611ffe575080806020019051810190611ffe9190613dd2565b61202f5760405162461bcd60e51b815260206004820152600260248201526114d560f21b6044820152606401610456565b5050505050565b6065546066546040516349ebb77d60e01b815260009283926001600160a01b03909116916349ebb77d916120709160040190815260200190565b6000604051808303816000875af115801561208f573d6000803e3d6000fd5b505050506040513d6000823e601f3d908101601f191682016040526120b79190810190613e98565b9050610fc581604001518260a00151670de0b6b3a76400006120d99190613bde565b6120e39190613c0e565b612820565b600080607154670de0b6b3a764000060705461210491906138d9565b61210e9190613906565b90506000670de0b6b3a764000060715460705461212b91906138d9565b6121359190613906565b905081841080610b2b57509290921092915050565b606554606654604051632500ed8d60e21b81526000928392839283926001600160a01b031691639403b63491612187919060040190815260200190565b600060405180830381865afa1580156121a4573d6000803e3d6000fd5b505050506040513d6000823e601f3d908101601f191682016040526121cc9190810190613a92565b9050600081606001516000815181106121e7576121e7613bac565b6020026020010151905085606001518660200151876000015161220a9190613d31565b6122149190613d31565b60208083015180820151604081015190830151915190920151929750909161223c9190613d31565b6122469190613d31565b93508160400151925050509193909250565b6000806122a386670de0b6b3a76400008761227287612876565b61227c9190613d31565b61228588612876565b61228f9190613bde565b6122999190613c0e565b6120e39190614243565b90506122b784670de0b6b3a7640000614263565b6122c9670de0b6b3a7640000836138d9565b6122d39190613906565b9695505050505050565b600081611f25846001856128e0565b6020518181526000602082015260006040820152606081fd5b604080516001600160a01b0385811660248301528481166044830152606480830185905283518084039091018152608490920183526020820180516001600160e01b03166323b872dd60e01b17905291516000928392908816916123699190614227565b6000604051808303816000865af19150503d80600081146123a6576040519150601f19603f3d011682016040523d82523d6000602084013e6123ab565b606091505b50915091508180156123d55750805115806123d55750808060200190518101906123d59190613dd2565b6124075760405162461bcd60e51b815260206004820152600360248201526229aa2360e91b6044820152606401610456565b505050505050565b600061241b8383613d72565b61242d670de0b6b3a7640000856138d9565b611f2f9190613906565b600061245361244e84670de0b6b3a7640000614263565b612876565b61245c84612876565b6124669084613bde565b611f2f9190613c0e565b6001600160a01b0382166124c65760405162461bcd60e51b815260206004820152601f60248201527f45524332303a206d696e7420746f20746865207a65726f2061646472657373006044820152606401610456565b80603560008282546124d89190613d72565b90915550506001600160a01b0382166000818152603360209081526040808320805486019055518481527fddf252ad1be2c89b69c2b068fc378daa952ba7f163c4a11628f55a4df523b3ef910160405180910390a35050565b600061253c82612906565b905060006125498361291b565b6001600160a01b0316905080612564613c83620f4240613d72565b61257184620f4240614276565b6001600160a01b03166125849190613906565b111580156125be5750620f424061259d613c8382613d72565b6125b0906001600160a01b0385166138d9565b6125ba9190613906565b8111155b610c985760405162461bcd60e51b815260206004820152600760248201526614db1a5c1c195960ca1b6044820152606401610456565b600042607254606f546126079190613d72565b10905090565b670de0b6b3a764000081111561262257600080fd5b606d54606854606654604051632440490960e21b815260048101929092526024820152600091670de0b6b3a76400009184916001600160a01b031690639101242490604401602060405180830381865afa158015612684573d6000803e3d6000fd5b505050506040513d601f19601f820116820180604052508101906126a89190613d59565b6126b29190613bde565b6126bc9190613c0e565b6065546066546068546040805160e081019091529394506001600160a01b039092169263113528a89290806126f087613bc2565b815260200160008152602001886000015181526020018860200151815260200188604001518152602001600015158152602001604051806020016040528060008152508152506040518463ffffffff1660e01b815260040161275493929190613c3c565b610100604051808303816000875af1158015612774573d6000803e3d6000fd5b505050506040513d601f19601f820116820180604052508101906127989190613ca5565b506040518181527f15305f1a00bd5019fe8d51ce959229208db3a992ed74449d793f55a67113156c9060200160405180910390a1505050565b600054610100900460ff166127f85760405162461bcd60e51b8152600401610456906141dc565b61169c828261298c565b600082600019048411830215820261281957600080fd5b5091020490565b6000808212156128725760405162461bcd60e51b815260206004820181905260248201527f53616665436173743a2076616c7565206d75737420626520706f7369746976656044820152606401610456565b5090565b60006001600160ff1b038211156128725760405162461bcd60e51b815260206004820152602860248201527f53616665436173743a2076616c756520646f65736e27742066697420696e2061604482015267371034b73a191a9b60c11b6064820152608401610456565b60008260001904841183021582026128f757600080fd5b50910281810615159190040190565b6000612914826107086129cc565b5092915050565b6000816001600160a01b0316633850c7bd6040518163ffffffff1660e01b815260040160e060405180830381865afa15801561295b573d6000803e3d6000fd5b505050506040513d601f19601f8201168201806040525081019061297f91906142ba565b5094979650505050505050565b600054610100900460ff166129b35760405162461bcd60e51b8152600401610456906141dc565b60366129bf8382614395565b506037610c988282614395565b6040805160028082526060820183526000928392839290916020830190803683370190505090508381600081518110612a0757612a07613bac565b602002602001019063ffffffff16908163ffffffff1681525050600081600181518110612a3657612a36613bac565b602002602001019063ffffffff16908163ffffffff1681525050600080866001600160a01b031663883bdbfd60e01b84604051602401612a769190614454565b60408051601f198184030181529181526020820180516001600160e01b03166001600160e01b0319909416939093179092529051612ab49190614227565b600060405180830381855afa9150503d8060008114612aef576040519150601f19603f3d011682016040523d82523d6000602084013e612af4565b606091505b509150915081612dd45760405160206024820152600360448201526213d31160ea1b606482015260840160408051601f19818403018152919052602080820180516001600160e01b031662461bcd60e51b178152915190912082519183019190912014612b6457612b6481612e59565b600080886001600160a01b0316633850c7bd6040518163ffffffff1660e01b815260040160e060405180830381865afa158015612ba5573d6000803e3d6000fd5b505050506040513d601f19601f82011682018060405250810190612bc991906142ba565b5050509350935050506000808a6001600160a01b031663252c09d784866001612bf2919061449e565b612bfc91906144b9565b6040516001600160e01b031960e084901b16815261ffff9091166004820152602401608060405180830381865afa158015612c3b573d6000803e3d6000fd5b505050506040513d601f19601f82011682018060405250810190612c5f91906144ec565b93505050915080612cda5760405163252c09d760e01b8152600060048201526001600160a01b038c169063252c09d790602401608060405180830381865afa158015612caf573d6000803e3d6000fd5b505050506040513d601f19601f82011682018060405250810190612cd391906144ec565b5091935050505b612cea63ffffffff831642614263565b99508987600081518110612d0057612d00613bac565b602002602001019063ffffffff16908163ffffffff16815250508a6001600160a01b031663883bdbfd60e01b88604051602401612d3d9190614454565b60408051601f198184030181529181526020820180516001600160e01b03166001600160e01b0319909416939093179092529051612d7b9190614227565b600060405180830381855afa9150503d8060008114612db6576040519150601f19603f3d011682016040523d82523d6000602084013e612dbb565b606091505b50909650945085612dcf57612dcf85612e59565b505050505b600081806020019051810190612dea9190614550565b905060008782600081518110612e0257612e02613bac565b602002602001015183600181518110612e1d57612e1d613bac565b6020026020010151612e2f91906145e7565b612e399190614614565b90506000612e4682612ea0565b97508896505050505050505b9250929050565b805115612e6857805181602001fd5b60405162461bcd60e51b815260206004820152600d60248201526c3297b2b6b83a3c96b2b93937b960991b6044820152606401610456565b60008060008360020b12612eb7578260020b612ebf565b8260020b6000035b9050620d89e8811115612ee5576040516315e4079d60e11b815260040160405180910390fd5b600081600116600003612efc57600160801b612f0e565b6ffffcb933bd6fad37aa2d162d1a5940015b70ffffffffffffffffffffffffffffffffff1690506002821615612f42576ffff97272373d413259a46990580e213a0260801c5b6004821615612f61576ffff2e50f5f656932ef12357cf3c7fdcc0260801c5b6008821615612f80576fffe5caca7e10e4e61c3624eaa0941cd00260801c5b6010821615612f9f576fffcb9843d60f6159c9db58835c9266440260801c5b6020821615612fbe576fff973b41fa98c081472e6896dfb254c00260801c5b6040821615612fdd576fff2ea16466c96a3843ec78b326b528610260801c5b6080821615612ffc576ffe5dee046a99a2a811c461f1969c30530260801c5b61010082161561301c576ffcbe86c7900a88aedcffc83b479aa3a40260801c5b61020082161561303c576ff987a7253ac413176f2b074cf7815e540260801c5b61040082161561305c576ff3392b0822b70005940c7a398e4b70f30260801c5b61080082161561307c576fe7159475a2c29b7443b29c7fa6e889d90260801c5b61100082161561309c576fd097f3bdfd2022b8845ad8f792aa58250260801c5b6120008216156130bc576fa9f746462d870fdf8a65dc1f90e061e50260801c5b6140008216156130dc576f70d869a156d2a1b890bb3df62baf32f70260801c5b6180008216156130fc576f31be135f97d08fd981231505542fcfa60260801c5b6201000082161561311d576f09aa508b5b7a84e1c677de54f3e99bc90260801c5b6202000082161561313d576e5d6af8dedb81196699c329225ee6040260801c5b6204000082161561315c576d2216e584f5fa1ea926041bedfe980260801c5b62080000821615613179576b048a170391f7dc42444e8fa20260801c5b60008460020b131561319a578060001981613196576131966138f0565b0490505b6401000000008106156131ae5760016131b1565b60005b60ff16602082901c0192505050919050565b6001600160a01b03811681146131d857600080fd5b50565b6000602082840312156131ed57600080fd5b8135611f2f816131c3565b60005b838110156132135781810151838201526020016131fb565b50506000910152565b600081518084526132348160208601602086016131f8565b601f01601f19169290920160200192915050565b602081526000611f2f602083018461321c565b6000806040838503121561326e57600080fd5b8235613279816131c3565b946020939093013593505050565b634e487b7160e01b600052604160045260246000fd5b604080519081016001600160401b03811182821017156132bf576132bf613287565b60405290565b604051606081016001600160401b03811182821017156132bf576132bf613287565b60405160c081016001600160401b03811182821017156132bf576132bf613287565b60405160e081016001600160401b03811182821017156132bf576132bf613287565b60405161010081016001600160401b03811182821017156132bf576132bf613287565b604051608081016001600160401b03811182821017156132bf576132bf613287565b6040516101a081016001600160401b03811182821017156132bf576132bf613287565b60405161016081016001600160401b03811182821017156132bf576132bf613287565b604051601f8201601f191681016001600160401b03811182821017156133de576133de613287565b604052919050565b600082601f8301126133f757600080fd5b81356001600160401b0381111561341057613410613287565b613423601f8201601f19166020016133b6565b81815284602083860101111561343857600080fd5b816020850160208301376000918101602001919091529392505050565b60008060008060008086880360e081121561346f57600080fd5b873561347a816131c3565b9650602088013561348a816131c3565b95506040888101359550605f19820112156134a457600080fd5b506134ad61329d565b6060880135815260808801356020820152925060a08701356001600160401b03808211156134da57600080fd5b6134e68a838b016133e6565b935060c08901359150808211156134fc57600080fd5b5061350989828a016133e6565b9150509295509295509295565b60008060006060848603121561352b57600080fd5b8335613536816131c3565b92506020840135613546816131c3565b929592945050506040919091013590565b60006060828403121561356957600080fd5b6135716132c5565b905081358152602082013560208201526040820135604082015292915050565b60008060008060c085870312156135a757600080fd5b8435935060208501356135b9816131c3565b9250604085013591506135cf8660608701613557565b905092959194509250565b600080608083850312156135ed57600080fd5b823591506135fe8460208501613557565b90509250929050565b60006020828403121561361957600080fd5b5035919050565b60008083601f84011261363257600080fd5b5081356001600160401b0381111561364957600080fd5b602083019150836020828501011115612e5257600080fd5b600080600083850361012081121561367857600080fd5b6101008082121561368857600080fd5b6136906132c5565b60c083121561369e57600080fd5b6136a66132e7565b87358152602080890135818301526040808a0135818401526060808b0135908401526080808b01359084015260a0808b01359084015291835260c08901359083015260e088013590820152945085013590506001600160401b0381111561370c57600080fd5b61371886828701613620565b9497909650939450505050565b80151581146131d857600080fd5b600080600080600060e0868803121561374b57600080fd5b85359450602086013561375d816131c3565b935060408601359250606086013561377481613725565b91506137838760808801613557565b90509295509295909350565b600080608083850312156137a257600080fd5b6137ac8484613557565b946060939093013593505050565b600080604083850312156137cd57600080fd5b82356137d8816131c3565b915060208301356137e8816131c3565b809150509250929050565b60008060008060c0858703121561380957600080fd5b8435935060208501359250604085013591506135cf8660608701613557565b60208082526024908201527f4261736553747261746567793a2063616c6c6572206973206e6f74206f70657260408201526330ba37b960e11b606082015260800190565b600181811c9082168061388057607f821691505b6020821081036138a057634e487b7160e01b600052602260045260246000fd5b50919050565b6000602082840312156138b857600080fd5b8151611f2f816131c3565b634e487b7160e01b600052601160045260246000fd5b808202811582820484141761056d5761056d6138c3565b634e487b7160e01b600052601260045260246000fd5b600082613915576139156138f0565b500490565b8051613925816131c3565b919050565b60006001600160401b0382111561394357613943613287565b5060051b60200190565b60006040828403121561395f57600080fd5b61396761329d565b9050815181526020820151602082015292915050565b600060e0828403121561398f57600080fd5b613997613309565b9050815181526020820151602082015260408201516040820152606082015160608201526080820151608082015260a082015160a082015260c082015160c082015292915050565b8051600281900b811461392557600080fd5b60006102208284031215613a0457600080fd5b613a0c61332b565b9050613a18838361394d565b8152613a27836040840161397d565b6020820152613a3a83610120840161394d565b6040820152613a4d83610160840161394d565b6060820152613a5f6101a083016139df565b6080820152613a716101c083016139df565b60a08201526101e082015160c082015261020082015160e082015292915050565b60006020808385031215613aa557600080fd5b82516001600160401b0380821115613abc57600080fd5b9084019060808287031215613ad057600080fd5b613ad861334e565b8251815283830151613ae9816131c3565b8185015260408381015190820152606083015182811115613b0957600080fd5b80840193505086601f840112613b1e57600080fd5b82519150613b33613b2e8361392a565b6133b6565b8281526102409283028401850192858201919089851115613b5357600080fd5b948601945b84861015613b9b5780868b031215613b705760008081fd5b613b7861329d565b86518152613b888b8989016139f1565b8189015283529485019491860191613b58565b506060830152509695505050505050565b634e487b7160e01b600052603260045260246000fd5b6000600160ff1b8201613bd757613bd76138c3565b5060000390565b80820260008212600160ff1b84141615613bfa57613bfa6138c3565b818105831482151761056d5761056d6138c3565b600082613c1d57613c1d6138f0565b600160ff1b821460001984141615613c3757613c376138c3565b500590565b838152826020820152606060408201528151606082015260208201516080820152604082015160a0820152606082015160c0820152608082015160e082015260a08201511515610100820152600060c083015160e06101208401526122d361014084018261321c565b6000818303610100811215613cb957600080fd5b613cc16132c5565b60c0821215613ccf57600080fd5b613cd76132e7565b9150835182526020840151602083015260408401516040830152606084015160608301526080840151608083015260a084015160a083015281815260c0840151602082015260e08401516040820152809250505092915050565b8082018281126000831280158216821582161715613d5157613d516138c3565b505092915050565b600060208284031215613d6b57600080fd5b5051919050565b8082018082111561056d5761056d6138c3565b600080600060608486031215613d9a57600080fd5b833592506020840135613dac816131c3565b91506040840135613dbc81613725565b809150509250925092565b805161392581613725565b600060208284031215613de457600080fd5b8151611f2f81613725565b600082601f830112613e0057600080fd5b81516020613e10613b2e8361392a565b8281526102809283028501820192828201919087851115613e3057600080fd5b8387015b85811015613e8b5781818a031215613e4c5760008081fd5b613e5461334e565b81518152613e648a8784016139f1565b81870152610240820151604082015261026082015160608201528452928401928101613e34565b5090979650505050505050565b600060208284031215613eaa57600080fd5b81516001600160401b0380821115613ec157600080fd5b9083019060e08286031215613ed557600080fd5b613edd613309565b82518152613eed60208401613dc7565b602082015260408301516040820152606083015160608201526080830151608082015260a083015160a082015260c083015182811115613f2c57600080fd5b613f3887828601613def565b60c08301525095945050505050565b600060608284031215613f5957600080fd5b613f616132c5565b905081518152613f73602083016139df565b6020820152613f84604083016139df565b604082015292915050565b60006101008284031215613fa257600080fd5b613faa61332b565b9050815181526020820151602082015260408201516040820152606082015160608201526080820151608082015260a082015160a082015260c082015160c082015260e082015160e082015292915050565b60006101e0828403121561400f57600080fd5b614017613370565b90506140228261391a565b8152614030602083016139df565b6020820152614041604083016139df565b6040820152606082015160608201526080820151608082015260a082015160a082015260c082015160c082015260e082015160e08201526101008083015181830152506101206140938482850161394d565b908201526101606140a68484830161394d565b6101408301526101a0830151908201526101c090910151610180820152919050565b6000608082840312156140da57600080fd5b6140e261334e565b90508151815260208201516020820152604082015160408201526060820151606082015292915050565b6000610500828403121561411f57600080fd5b614127613393565b825181526141376020840161391a565b60208201526141486040840161391a565b604082015261415a8460608501613f47565b606082015261416c8460c08501613f8f565b608082015261417f846101c08501613ffc565b60a08201526141916103a08401613dc7565b60c08201526141a4846103c085016140c8565b60e08201526141b78461044085016140c8565b6101008201526104c08301516101208201526104e09092015161014083015250919050565b6020808252602b908201527f496e697469616c697a61626c653a20636f6e7472616374206973206e6f74206960408201526a6e697469616c697a696e6760a81b606082015260800190565b600082516142398184602087016131f8565b9190910192915050565b8181036000831280158383131683831282161715612914576129146138c3565b8181038181111561056d5761056d6138c3565b6001600160a01b0382811682821681810283169291811582850482141761429f5761429f6138c3565b50505092915050565b805161ffff8116811461392557600080fd5b600080600080600080600060e0888a0312156142d557600080fd5b87516142e0816131c3565b96506142ee602089016139df565b95506142fc604089016142a8565b945061430a606089016142a8565b9350614318608089016142a8565b925060a088015160ff8116811461432e57600080fd5b60c089015190925061433f81613725565b8091505092959891949750929550565b601f821115610c9857600081815260208120601f850160051c810160208610156143765750805b601f850160051c820191505b8181101561240757828155600101614382565b81516001600160401b038111156143ae576143ae613287565b6143c2816143bc845461386c565b8461434f565b602080601f8311600181146143f757600084156143df5750858301515b600019600386901b1c1916600185901b178555612407565b600085815260208120601f198616915b8281101561442657888601518255948401946001909101908401614407565b50858210156144445787850151600019600388901b60f8161c191681555b5050505050600190811b01905550565b6020808252825182820181905260009190848201906040850190845b8181101561449257835163ffffffff1683529284019291840191600101614470565b50909695505050505050565b61ffff818116838216019080821115612914576129146138c3565b600061ffff808416806144ce576144ce6138f0565b92169190910692915050565b8051600681900b811461392557600080fd5b6000806000806080858703121561450257600080fd5b845163ffffffff8116811461451657600080fd5b9350614524602086016144da565b92506040850151614534816131c3565b606086015190925061454581613725565b939692955090935050565b6000602080838503121561456357600080fd5b82516001600160401b0381111561457957600080fd5b8301601f8101851361458a57600080fd5b8051614598613b2e8261392a565b81815260059190911b820183019083810190878311156145b757600080fd5b928401925b828410156145dc576145cd846144da565b825292840192908401906145bc565b979650505050505050565b600682810b9082900b03667fffffffffffff198112667fffffffffffff8213171561056d5761056d6138c3565b60008160060b8360060b8061462b5761462b6138f0565b667fffffffffffff19821460001982141615614649576146496138c3565b9005939250505056fea2646970667358221220305c194f99cec1101677cd19100174f6b2ab8b7af2dc932422b48254ffbe279564736f6c63430008130033",
  "devdoc": {
    "events": {
      "Approval(address,address,uint256)": {
        "details": "Emitted when the allowance of a `spender` for an `owner` is set by a call to {approve}. `value` is the new allowance."
      },
      "Initialized(uint8)": {
        "details": "Triggered when the contract has been initialized or reinitialized."
      },
      "Transfer(address,address,uint256)": {
        "details": "Emitted when `value` tokens are moved from one account (`from`) to another (`to`). Note that `value` may be zero."
      }
    },
    "kind": "dev",
    "methods": {
      "allowance(address,address)": {
        "details": "See {IERC20-allowance}."
      },
      "approve(address,uint256)": {
        "details": "See {IERC20-approve}. NOTE: If `amount` is the maximum `uint256`, the allowance is not updated on `transferFrom`. This is semantically equivalent to an infinite approval. Requirements: - `spender` cannot be the zero address."
      },
      "balanceOf(address)": {
        "details": "See {IERC20-balanceOf}."
      },
      "decimals()": {
        "details": "Returns the number of decimals used to get its user representation. For example, if `decimals` equals `2`, a balance of `505` tokens should be displayed to a user as `5.05` (`505 / 10 ** 2`). Tokens usually opt for a value of 18, imitating the relationship between Ether and Wei. This is the value {ERC20} uses, unless this function is overridden; NOTE: This information is only used for _display_ purposes: it in no way affects any of the arithmetic of the contract, including {IERC20-balanceOf} and {IERC20-transfer}."
      },
      "decreaseAllowance(address,uint256)": {
        "details": "Atomically decreases the allowance granted to `spender` by the caller. This is an alternative to {approve} that can be used as a mitigation for problems described in {IERC20-approve}. Emits an {Approval} event indicating the updated allowance. Requirements: - `spender` cannot be the zero address. - `spender` must have allowance for the caller of at least `subtractedValue`."
      },
      "deposit(uint256,address,uint256,bool,(uint256,uint256,uint256))": {
        "params": {
          "_maxDepositAmount": "maximum USDC amount that caller deposits",
          "_recepient": "recepient address of strategy token",
          "_strategyTokenAmount": "strategy token amount to mint",
          "_tradeParams": "trade parameters",
          "isQuoteMode": "is quote mode or not"
        },
        "returns": {
          "finalDepositMargin": "USDC amount that caller actually deposits"
        }
      },
      "depositForPositionInitialization(uint256,int256,int256,(uint256,uint256,uint256))": {
        "details": "The function can be called by owner.",
        "params": {
          "_initialMarginAmount": "initial margin amount",
          "_initialPerpAmount": "initial perp amount",
          "_initialSquartAmount": "initial squart amount",
          "_tradeParams": "trade parameters"
        }
      },
      "execDeltaHedge((uint256,uint256,uint256),uint256)": {
        "params": {
          "_tradeParams": "Trade parameters for Predy contract"
        }
      },
      "getPrice()": {
        "details": "The function should not be called on chain."
      },
      "increaseAllowance(address,uint256)": {
        "details": "Atomically increases the allowance granted to `spender` by the caller. This is an alternative to {approve} that can be used as a mitigation for problems described in {IERC20-approve}. Emits an {Approval} event indicating the updated allowance. Requirements: - `spender` cannot be the zero address."
      },
      "name()": {
        "details": "Returns the name of the token."
      },
      "predyTradeCallback(((int256,int256,int256,int256,int256,int256),int256,int256),bytes)": {
        "details": "Callback for Predy Controller"
      },
      "setHedger(address)": {
        "details": "Only operator can call this function.",
        "params": {
          "_newHedger": "The address of new hedger"
        }
      },
      "setOperator(address)": {
        "details": "Only operator can call this function.",
        "params": {
          "_newOperator": "The address of new operator"
        }
      },
      "symbol()": {
        "details": "Returns the symbol of the token, usually a shorter version of the name."
      },
      "totalSupply()": {
        "details": "See {IERC20-totalSupply}."
      },
      "transfer(address,uint256)": {
        "details": "See {IERC20-transfer}. Requirements: - `to` cannot be the zero address. - the caller must have a balance of at least `amount`."
      },
      "transferFrom(address,address,uint256)": {
        "details": "See {IERC20-transferFrom}. Emits an {Approval} event indicating the updated allowance. This is not required by the EIP. See the note at the beginning of {ERC20}. NOTE: Does not update the allowance if the current allowance is the maximum `uint256`. Requirements: - `from` and `to` cannot be the zero address. - `from` must have a balance of at least `amount`. - the caller must have allowance for ``from``'s tokens of at least `amount`."
      },
      "updateGamma(int256,(uint256,uint256,uint256))": {
        "params": {
          "_squartAmount": "squart amount",
          "_tradeParams": "trade parameters"
        }
      },
      "updateHedgeInterval(uint256)": {
        "params": {
          "_hedgeInterval": "New interval"
        }
      },
      "updateHedgePriceThreshold(uint256)": {
        "params": {
          "_newSqrtPriceThreshold": "New square root price threshold"
        }
      },
      "withdraw(uint256,address,int256,(uint256,uint256,uint256))": {
        "params": {
          "_minWithdrawAmount": "minimum USDC amount that caller deposits",
          "_recepient": "recepient address of stable token",
          "_tradeParams": "trade parameters",
          "_withdrawStrategyAmount": "strategy token amount to burn"
        },
        "returns": {
          "finalWithdrawAmount": "USDC amount that caller actually withdraws"
        }
      }
    },
    "version": 1
  },
  "userdoc": {
    "kind": "user",
    "methods": {
      "deposit(uint256,address,uint256,bool,(uint256,uint256,uint256))": {
        "notice": "Deposits margin and mints strategy token."
      },
      "depositForPositionInitialization(uint256,int256,int256,(uint256,uint256,uint256))": {
        "notice": "deposit for the position initialization"
      },
      "execDeltaHedge((uint256,uint256,uint256),uint256)": {
        "notice": "Hedger can call the delta hedging function if the price has changed by a set ratio from the last price at the hedging or time has elapsed by a set interval since the last hedge time."
      },
      "getPrice()": {
        "notice": "Gets price of strategy token by USDC."
      },
      "setHedger(address)": {
        "notice": "Sets new hedger address"
      },
      "setOperator(address)": {
        "notice": "Sets new operator"
      },
      "updateGamma(int256,(uint256,uint256,uint256))": {
        "notice": "Changes gamma size per share."
      },
      "updateHedgeInterval(uint256)": {
        "notice": "Updates interval for delta hedging."
      },
      "updateHedgePriceThreshold(uint256)": {
        "notice": "Updates price threshold for delta hedging."
      },
      "withdraw(uint256,address,int256,(uint256,uint256,uint256))": {
        "notice": "Withdraws margin and burns strategy token."
      }
    },
    "notice": "Error Codes GSS0: already initialized GSS1: not initialized GSS2: required margin amount must be less than maximum GSS3: withdrawn margin amount must be greater than minimum GSS4: invalid leverage GSS5: caller must be Controller",
    "version": 1
  },
  "storageLayout": {
    "storage": [
      {
        "astId": 6,
        "contract": "src/strategy/GammaShortStrategy.sol:GammaShortStrategy",
        "label": "_initialized",
        "offset": 0,
        "slot": "0",
        "type": "t_uint8"
      },
      {
        "astId": 9,
        "contract": "src/strategy/GammaShortStrategy.sol:GammaShortStrategy",
        "label": "_initializing",
        "offset": 1,
        "slot": "0",
        "type": "t_bool"
      },
      {
        "astId": 1208,
        "contract": "src/strategy/GammaShortStrategy.sol:GammaShortStrategy",
        "label": "__gap",
        "offset": 0,
        "slot": "1",
        "type": "t_array(t_uint256)50_storage"
      },
      {
        "astId": 187,
        "contract": "src/strategy/GammaShortStrategy.sol:GammaShortStrategy",
        "label": "_balances",
        "offset": 0,
        "slot": "51",
        "type": "t_mapping(t_address,t_uint256)"
      },
      {
        "astId": 193,
        "contract": "src/strategy/GammaShortStrategy.sol:GammaShortStrategy",
        "label": "_allowances",
        "offset": 0,
        "slot": "52",
        "type": "t_mapping(t_address,t_mapping(t_address,t_uint256))"
      },
      {
        "astId": 195,
        "contract": "src/strategy/GammaShortStrategy.sol:GammaShortStrategy",
        "label": "_totalSupply",
        "offset": 0,
        "slot": "53",
        "type": "t_uint256"
      },
      {
        "astId": 197,
        "contract": "src/strategy/GammaShortStrategy.sol:GammaShortStrategy",
        "label": "_name",
        "offset": 0,
        "slot": "54",
        "type": "t_string_storage"
      },
      {
        "astId": 199,
        "contract": "src/strategy/GammaShortStrategy.sol:GammaShortStrategy",
        "label": "_symbol",
        "offset": 0,
        "slot": "55",
        "type": "t_string_storage"
      },
      {
        "astId": 779,
        "contract": "src/strategy/GammaShortStrategy.sol:GammaShortStrategy",
        "label": "__gap",
        "offset": 0,
        "slot": "56",
        "type": "t_array(t_uint256)45_storage"
      },
      {
        "astId": 18631,
        "contract": "src/strategy/GammaShortStrategy.sol:GammaShortStrategy",
        "label": "controller",
        "offset": 0,
        "slot": "101",
        "type": "t_contract(IController)7979"
      },
      {
        "astId": 18633,
        "contract": "src/strategy/GammaShortStrategy.sol:GammaShortStrategy",
        "label": "vaultId",
        "offset": 0,
        "slot": "102",
        "type": "t_uint256"
      },
      {
        "astId": 18635,
        "contract": "src/strategy/GammaShortStrategy.sol:GammaShortStrategy",
        "label": "usdc",
        "offset": 0,
        "slot": "103",
        "type": "t_address"
      },
      {
        "astId": 18637,
        "contract": "src/strategy/GammaShortStrategy.sol:GammaShortStrategy",
        "label": "assetId",
        "offset": 0,
        "slot": "104",
        "type": "t_uint256"
      },
      {
        "astId": 18640,
        "contract": "src/strategy/GammaShortStrategy.sol:GammaShortStrategy",
        "label": "minPerValueLimit",
        "offset": 0,
        "slot": "105",
        "type": "t_struct(MinPerValueLimit)18628_storage"
      },
      {
        "astId": 18642,
        "contract": "src/strategy/GammaShortStrategy.sol:GammaShortStrategy",
        "label": "operator",
        "offset": 0,
        "slot": "107",
        "type": "t_address"
      },
      {
        "astId": 1389,
        "contract": "src/strategy/GammaShortStrategy.sol:GammaShortStrategy",
        "label": "_status",
        "offset": 0,
        "slot": "108",
        "type": "t_uint256"
      },
      {
        "astId": 17255,
        "contract": "src/strategy/GammaShortStrategy.sol:GammaShortStrategy",
        "label": "reader",
        "offset": 0,
        "slot": "109",
        "type": "t_contract(Reader)7917"
      },
      {
        "astId": 17267,
        "contract": "src/strategy/GammaShortStrategy.sol:GammaShortStrategy",
        "label": "finalDepositAmountCached",
        "offset": 0,
        "slot": "110",
        "type": "t_uint256"
      },
      {
        "astId": 17269,
        "contract": "src/strategy/GammaShortStrategy.sol:GammaShortStrategy",
        "label": "lastHedgeTimestamp",
        "offset": 0,
        "slot": "111",
        "type": "t_uint256"
      },
      {
        "astId": 17271,
        "contract": "src/strategy/GammaShortStrategy.sol:GammaShortStrategy",
        "label": "lastHedgePrice",
        "offset": 0,
        "slot": "112",
        "type": "t_uint256"
      },
      {
        "astId": 17273,
        "contract": "src/strategy/GammaShortStrategy.sol:GammaShortStrategy",
        "label": "hedgeSqrtPriceThreshold",
        "offset": 0,
        "slot": "113",
        "type": "t_uint256"
      },
      {
        "astId": 17275,
        "contract": "src/strategy/GammaShortStrategy.sol:GammaShortStrategy",
        "label": "hedgeInterval",
        "offset": 0,
        "slot": "114",
        "type": "t_uint256"
      },
      {
        "astId": 17277,
        "contract": "src/strategy/GammaShortStrategy.sol:GammaShortStrategy",
        "label": "hedger",
        "offset": 0,
        "slot": "115",
        "type": "t_address"
      }
    ],
    "types": {
      "t_address": {
        "encoding": "inplace",
        "label": "address",
        "numberOfBytes": "20"
      },
      "t_array(t_uint256)45_storage": {
        "base": "t_uint256",
        "encoding": "inplace",
        "label": "uint256[45]",
        "numberOfBytes": "1440"
      },
      "t_array(t_uint256)50_storage": {
        "base": "t_uint256",
        "encoding": "inplace",
        "label": "uint256[50]",
        "numberOfBytes": "1600"
      },
      "t_bool": {
        "encoding": "inplace",
        "label": "bool",
        "numberOfBytes": "1"
      },
      "t_contract(IController)7979": {
        "encoding": "inplace",
        "label": "contract IController",
        "numberOfBytes": "20"
      },
      "t_contract(Reader)7917": {
        "encoding": "inplace",
        "label": "contract Reader",
        "numberOfBytes": "20"
      },
      "t_mapping(t_address,t_mapping(t_address,t_uint256))": {
        "encoding": "mapping",
        "key": "t_address",
        "label": "mapping(address => mapping(address => uint256))",
        "numberOfBytes": "32",
        "value": "t_mapping(t_address,t_uint256)"
      },
      "t_mapping(t_address,t_uint256)": {
        "encoding": "mapping",
        "key": "t_address",
        "label": "mapping(address => uint256)",
        "numberOfBytes": "32",
        "value": "t_uint256"
      },
      "t_string_storage": {
        "encoding": "bytes",
        "label": "string",
        "numberOfBytes": "32"
      },
      "t_struct(MinPerValueLimit)18628_storage": {
        "encoding": "inplace",
        "label": "struct BaseStrategy.MinPerValueLimit",
        "members": [
          {
            "astId": 18625,
            "contract": "src/strategy/GammaShortStrategy.sol:GammaShortStrategy",
            "label": "lower",
            "offset": 0,
            "slot": "0",
            "type": "t_uint256"
          },
          {
            "astId": 18627,
            "contract": "src/strategy/GammaShortStrategy.sol:GammaShortStrategy",
            "label": "upper",
            "offset": 0,
            "slot": "1",
            "type": "t_uint256"
          }
        ],
        "numberOfBytes": "64"
      },
      "t_uint256": {
        "encoding": "inplace",
        "label": "uint256",
        "numberOfBytes": "32"
      },
      "t_uint8": {
        "encoding": "inplace",
        "label": "uint8",
        "numberOfBytes": "1"
      }
    }
  }
}