{
  "address": "0xB46971F720C91eBF8c47484d1C3ebE2572612e9a",
  "abi": [
    {
      "inputs": [],
      "stateMutability": "nonpayable",
      "type": "constructor"
    },
    {
      "anonymous": false,
      "inputs": [
        {
          "indexed": true,
          "internalType": "address",
          "name": "owner",
          "type": "address"
        },
        {
          "indexed": true,
          "internalType": "address",
          "name": "spender",
          "type": "address"
        },
        {
          "indexed": false,
          "internalType": "uint256",
          "name": "value",
          "type": "uint256"
        }
      ],
      "name": "Approval",
      "type": "event"
    },
    {
      "anonymous": false,
      "inputs": [
        {
          "indexed": false,
          "internalType": "int256",
          "name": "delta",
          "type": "int256"
        }
      ],
      "name": "DeltaHedged",
      "type": "event"
    },
    {
      "anonymous": false,
      "inputs": [
        {
          "indexed": true,
          "internalType": "address",
          "name": "account",
          "type": "address"
        },
        {
          "indexed": false,
          "internalType": "uint256",
          "name": "strategyTokenAmount",
          "type": "uint256"
        },
        {
          "indexed": false,
          "internalType": "uint256",
          "name": "depositedAmount",
          "type": "uint256"
        }
      ],
      "name": "DepositedToStrategy",
      "type": "event"
    },
    {
      "anonymous": false,
      "inputs": [
        {
          "indexed": false,
          "internalType": "uint256",
          "name": "hedgeInterval",
          "type": "uint256"
        }
      ],
      "name": "HedgeIntervalUpdated",
      "type": "event"
    },
    {
      "anonymous": false,
      "inputs": [
        {
          "indexed": false,
          "internalType": "uint256",
          "name": "hedgeSqrtPriceThreshold",
          "type": "uint256"
        }
      ],
      "name": "HedgePriceThresholdUpdated",
      "type": "event"
    },
    {
      "anonymous": false,
      "inputs": [
        {
          "indexed": false,
          "internalType": "uint8",
          "name": "version",
          "type": "uint8"
        }
      ],
      "name": "Initialized",
      "type": "event"
    },
    {
      "anonymous": false,
      "inputs": [
        {
          "indexed": false,
          "internalType": "address",
          "name": "operator",
          "type": "address"
        }
      ],
      "name": "OperatorUpdated",
      "type": "event"
    },
    {
      "anonymous": false,
      "inputs": [
        {
          "indexed": true,
          "internalType": "address",
          "name": "from",
          "type": "address"
        },
        {
          "indexed": true,
          "internalType": "address",
          "name": "to",
          "type": "address"
        },
        {
          "indexed": false,
          "internalType": "uint256",
          "name": "value",
          "type": "uint256"
        }
      ],
      "name": "Transfer",
      "type": "event"
    },
    {
      "anonymous": false,
      "inputs": [
        {
          "indexed": true,
          "internalType": "address",
          "name": "account",
          "type": "address"
        },
        {
          "indexed": false,
          "internalType": "uint256",
          "name": "strategyTokenAmount",
          "type": "uint256"
        },
        {
          "indexed": false,
          "internalType": "uint256",
          "name": "withdrawnAmount",
          "type": "uint256"
        }
      ],
      "name": "WithdrawnFromStrategy",
      "type": "event"
    },
    {
      "inputs": [
        {
          "internalType": "address",
          "name": "owner",
          "type": "address"
        },
        {
          "internalType": "address",
          "name": "spender",
          "type": "address"
        }
      ],
      "name": "allowance",
      "outputs": [
        {
          "internalType": "uint256",
          "name": "",
          "type": "uint256"
        }
      ],
      "stateMutability": "view",
      "type": "function"
    },
    {
      "inputs": [
        {
          "internalType": "address",
          "name": "spender",
          "type": "address"
        },
        {
          "internalType": "uint256",
          "name": "amount",
          "type": "uint256"
        }
      ],
      "name": "approve",
      "outputs": [
        {
          "internalType": "bool",
          "name": "",
          "type": "bool"
        }
      ],
      "stateMutability": "nonpayable",
      "type": "function"
    },
    {
      "inputs": [
        {
          "internalType": "address",
          "name": "account",
          "type": "address"
        }
      ],
      "name": "balanceOf",
      "outputs": [
        {
          "internalType": "uint256",
          "name": "",
          "type": "uint256"
        }
      ],
      "stateMutability": "view",
      "type": "function"
    },
    {
      "inputs": [],
      "name": "checkPriceHedge",
      "outputs": [
        {
          "internalType": "bool",
          "name": "",
          "type": "bool"
        }
      ],
      "stateMutability": "view",
      "type": "function"
    },
    {
      "inputs": [],
      "name": "checkTimeHedge",
      "outputs": [
        {
          "internalType": "bool",
          "name": "",
          "type": "bool"
        }
      ],
      "stateMutability": "view",
      "type": "function"
    },
    {
      "inputs": [],
      "name": "decimals",
      "outputs": [
        {
          "internalType": "uint8",
          "name": "",
          "type": "uint8"
        }
      ],
      "stateMutability": "view",
      "type": "function"
    },
    {
      "inputs": [
        {
          "internalType": "address",
          "name": "spender",
          "type": "address"
        },
        {
          "internalType": "uint256",
          "name": "subtractedValue",
          "type": "uint256"
        }
      ],
      "name": "decreaseAllowance",
      "outputs": [
        {
          "internalType": "bool",
          "name": "",
          "type": "bool"
        }
      ],
      "stateMutability": "nonpayable",
      "type": "function"
    },
    {
      "inputs": [
        {
          "internalType": "uint256",
          "name": "_strategyTokenAmount",
          "type": "uint256"
        },
        {
          "internalType": "address",
          "name": "_recepient",
          "type": "address"
        },
        {
          "internalType": "uint256",
          "name": "_maxDepositAmount",
          "type": "uint256"
        },
        {
          "internalType": "bool",
          "name": "isQuoteMode",
          "type": "bool"
        },
        {
          "components": [
            {
              "internalType": "uint256",
              "name": "lowerSqrtPrice",
              "type": "uint256"
            },
            {
              "internalType": "uint256",
              "name": "upperSqrtPrice",
              "type": "uint256"
            },
            {
              "internalType": "uint256",
              "name": "deadline",
              "type": "uint256"
            }
          ],
          "internalType": "struct IStrategyVault.StrategyTradeParams",
          "name": "_tradeParams",
          "type": "tuple"
        }
      ],
      "name": "deposit",
      "outputs": [
        {
          "internalType": "uint256",
          "name": "finalDepositMargin",
          "type": "uint256"
        }
      ],
      "stateMutability": "nonpayable",
      "type": "function"
    },
    {
      "inputs": [
        {
          "internalType": "uint256",
          "name": "_initialMarginAmount",
          "type": "uint256"
        },
        {
          "internalType": "int256",
          "name": "_initialPerpAmount",
          "type": "int256"
        },
        {
          "internalType": "int256",
          "name": "_initialSquartAmount",
          "type": "int256"
        },
        {
          "components": [
            {
              "internalType": "uint256",
              "name": "lowerSqrtPrice",
              "type": "uint256"
            },
            {
              "internalType": "uint256",
              "name": "upperSqrtPrice",
              "type": "uint256"
            },
            {
              "internalType": "uint256",
              "name": "deadline",
              "type": "uint256"
            }
          ],
          "internalType": "struct IStrategyVault.StrategyTradeParams",
          "name": "_tradeParams",
          "type": "tuple"
        }
      ],
      "name": "depositForPositionInitialization",
      "outputs": [],
      "stateMutability": "nonpayable",
      "type": "function"
    },
    {
      "inputs": [
        {
          "components": [
            {
              "internalType": "uint256",
              "name": "lowerSqrtPrice",
              "type": "uint256"
            },
            {
              "internalType": "uint256",
              "name": "upperSqrtPrice",
              "type": "uint256"
            },
            {
              "internalType": "uint256",
              "name": "deadline",
              "type": "uint256"
            }
          ],
          "internalType": "struct IStrategyVault.StrategyTradeParams",
          "name": "_tradeParams",
          "type": "tuple"
        },
        {
          "internalType": "uint256",
          "name": "_deltaRatio",
          "type": "uint256"
        }
      ],
      "name": "execDeltaHedge",
      "outputs": [],
      "stateMutability": "nonpayable",
      "type": "function"
    },
    {
      "inputs": [],
      "name": "getDelta",
      "outputs": [
        {
          "internalType": "int256",
          "name": "",
          "type": "int256"
        }
      ],
      "stateMutability": "view",
      "type": "function"
    },
    {
      "inputs": [],
      "name": "getPrice",
      "outputs": [
        {
          "internalType": "uint256",
          "name": "",
          "type": "uint256"
        }
      ],
      "stateMutability": "nonpayable",
      "type": "function"
    },
    {
      "inputs": [
        {
          "internalType": "address",
          "name": "spender",
          "type": "address"
        },
        {
          "internalType": "uint256",
          "name": "addedValue",
          "type": "uint256"
        }
      ],
      "name": "increaseAllowance",
      "outputs": [
        {
          "internalType": "bool",
          "name": "",
          "type": "bool"
        }
      ],
      "stateMutability": "nonpayable",
      "type": "function"
    },
    {
      "inputs": [
        {
          "internalType": "address",
          "name": "_controller",
          "type": "address"
        },
        {
          "internalType": "address",
          "name": "_reader",
          "type": "address"
        },
        {
          "internalType": "uint256",
          "name": "_assetId",
          "type": "uint256"
        },
        {
          "components": [
            {
              "internalType": "uint256",
              "name": "lower",
              "type": "uint256"
            },
            {
              "internalType": "uint256",
              "name": "upper",
              "type": "uint256"
            }
          ],
          "internalType": "struct BaseStrategy.MinPerValueLimit",
          "name": "_minPerValueLimit",
          "type": "tuple"
        },
        {
          "internalType": "string",
          "name": "_name",
          "type": "string"
        },
        {
          "internalType": "string",
          "name": "_symbol",
          "type": "string"
        }
      ],
      "name": "initialize",
      "outputs": [],
      "stateMutability": "nonpayable",
      "type": "function"
    },
    {
      "inputs": [],
      "name": "lastHedgePrice",
      "outputs": [
        {
          "internalType": "uint256",
          "name": "",
          "type": "uint256"
        }
      ],
      "stateMutability": "view",
      "type": "function"
    },
    {
      "inputs": [],
      "name": "lastHedgeTimestamp",
      "outputs": [
        {
          "internalType": "uint256",
          "name": "",
          "type": "uint256"
        }
      ],
      "stateMutability": "view",
      "type": "function"
    },
    {
      "inputs": [],
      "name": "name",
      "outputs": [
        {
          "internalType": "string",
          "name": "",
          "type": "string"
        }
      ],
      "stateMutability": "view",
      "type": "function"
    },
    {
      "inputs": [],
      "name": "operator",
      "outputs": [
        {
          "internalType": "address",
          "name": "",
          "type": "address"
        }
      ],
      "stateMutability": "view",
      "type": "function"
    },
    {
      "inputs": [
        {
          "components": [
            {
              "components": [
                {
                  "internalType": "int256",
                  "name": "perpEntryUpdate",
                  "type": "int256"
                },
                {
                  "internalType": "int256",
                  "name": "sqrtEntryUpdate",
                  "type": "int256"
                },
                {
                  "internalType": "int256",
                  "name": "sqrtRebalanceEntryUpdateUnderlying",
                  "type": "int256"
                },
                {
                  "internalType": "int256",
                  "name": "sqrtRebalanceEntryUpdateStable",
                  "type": "int256"
                },
                {
                  "internalType": "int256",
                  "name": "perpPayoff",
                  "type": "int256"
                },
                {
                  "internalType": "int256",
                  "name": "sqrtPayoff",
                  "type": "int256"
                }
              ],
              "internalType": "struct Perp.Payoff",
              "name": "payoff",
              "type": "tuple"
            },
            {
              "internalType": "int256",
              "name": "fee",
              "type": "int256"
            },
            {
              "internalType": "int256",
              "name": "minDeposit",
              "type": "int256"
            }
          ],
          "internalType": "struct DataType.TradeResult",
          "name": "_tradeResult",
          "type": "tuple"
        },
        {
          "internalType": "bytes",
          "name": "_data",
          "type": "bytes"
        }
      ],
      "name": "predyTradeCallback",
      "outputs": [
        {
          "internalType": "int256",
          "name": "",
          "type": "int256"
        }
      ],
      "stateMutability": "nonpayable",
      "type": "function"
    },
    {
      "inputs": [
        {
          "internalType": "address",
          "name": "_newOperator",
          "type": "address"
        }
      ],
      "name": "setOperator",
      "outputs": [],
      "stateMutability": "nonpayable",
      "type": "function"
    },
    {
      "inputs": [],
      "name": "symbol",
      "outputs": [
        {
          "internalType": "string",
          "name": "",
          "type": "string"
        }
      ],
      "stateMutability": "view",
      "type": "function"
    },
    {
      "inputs": [],
      "name": "totalSupply",
      "outputs": [
        {
          "internalType": "uint256",
          "name": "",
          "type": "uint256"
        }
      ],
      "stateMutability": "view",
      "type": "function"
    },
    {
      "inputs": [
        {
          "internalType": "address",
          "name": "to",
          "type": "address"
        },
        {
          "internalType": "uint256",
          "name": "amount",
          "type": "uint256"
        }
      ],
      "name": "transfer",
      "outputs": [
        {
          "internalType": "bool",
          "name": "",
          "type": "bool"
        }
      ],
      "stateMutability": "nonpayable",
      "type": "function"
    },
    {
      "inputs": [
        {
          "internalType": "address",
          "name": "from",
          "type": "address"
        },
        {
          "internalType": "address",
          "name": "to",
          "type": "address"
        },
        {
          "internalType": "uint256",
          "name": "amount",
          "type": "uint256"
        }
      ],
      "name": "transferFrom",
      "outputs": [
        {
          "internalType": "bool",
          "name": "",
          "type": "bool"
        }
      ],
      "stateMutability": "nonpayable",
      "type": "function"
    },
    {
      "inputs": [
        {
          "internalType": "int256",
          "name": "_squartAmount",
          "type": "int256"
        },
        {
          "components": [
            {
              "internalType": "uint256",
              "name": "lowerSqrtPrice",
              "type": "uint256"
            },
            {
              "internalType": "uint256",
              "name": "upperSqrtPrice",
              "type": "uint256"
            },
            {
              "internalType": "uint256",
              "name": "deadline",
              "type": "uint256"
            }
          ],
          "internalType": "struct IStrategyVault.StrategyTradeParams",
          "name": "_tradeParams",
          "type": "tuple"
        }
      ],
      "name": "updateGamma",
      "outputs": [],
      "stateMutability": "nonpayable",
      "type": "function"
    },
    {
      "inputs": [
        {
          "internalType": "uint256",
          "name": "_hedgeInterval",
          "type": "uint256"
        }
      ],
      "name": "updateHedgeInterval",
      "outputs": [],
      "stateMutability": "nonpayable",
      "type": "function"
    },
    {
      "inputs": [
        {
          "internalType": "uint256",
          "name": "_newSqrtPriceThreshold",
          "type": "uint256"
        }
      ],
      "name": "updateHedgePriceThreshold",
      "outputs": [],
      "stateMutability": "nonpayable",
      "type": "function"
    },
    {
      "inputs": [],
      "name": "vaultId",
      "outputs": [
        {
          "internalType": "uint256",
          "name": "",
          "type": "uint256"
        }
      ],
      "stateMutability": "view",
      "type": "function"
    },
    {
      "inputs": [
        {
          "internalType": "uint256",
          "name": "_withdrawStrategyAmount",
          "type": "uint256"
        },
        {
          "internalType": "address",
          "name": "_recepient",
          "type": "address"
        },
        {
          "internalType": "int256",
          "name": "_minWithdrawAmount",
          "type": "int256"
        },
        {
          "components": [
            {
              "internalType": "uint256",
              "name": "lowerSqrtPrice",
              "type": "uint256"
            },
            {
              "internalType": "uint256",
              "name": "upperSqrtPrice",
              "type": "uint256"
            },
            {
              "internalType": "uint256",
              "name": "deadline",
              "type": "uint256"
            }
          ],
          "internalType": "struct IStrategyVault.StrategyTradeParams",
          "name": "_tradeParams",
          "type": "tuple"
        }
      ],
      "name": "withdraw",
      "outputs": [
        {
          "internalType": "uint256",
          "name": "finalWithdrawAmount",
          "type": "uint256"
        }
      ],
      "stateMutability": "nonpayable",
      "type": "function"
    }
  ],
  "transactionHash": "0x351a70b9f86b47dd29135395f22b20af2c1dbee5cfb5b36bf092d6257d1424d1",
  "args": [],
  "numDeployments": 2,
  "solcInputHash": "55392a70bb9ff0fc36c8d43a4aaeaf05",
  "bytecode": "0x608060405234801561001057600080fd5b506001606c556138fd806100256000396000f3fe608060405234801561001057600080fd5b50600436106101cf5760003560e01c806370a0823111610104578063b3ab15fb116100a2578063d3f0b8c111610071578063d3f0b8c1146103a4578063d5610841146103b7578063dd62ed3e146103ca578063f3bb0545146103dd57600080fd5b8063b3ab15fb1461036e578063c1e80ca514610381578063c245168914610394578063c549176e1461039c57600080fd5b806395d89b41116100de57806395d89b411461033857806398d5fdca14610340578063a457c2d714610348578063a9059cbb1461035b57600080fd5b806370a08231146102f457806388626eb81461031d5780638b8887511461032557600080fd5b8063313ce567116101715780633bcec32a1161014b5780633bcec32a1461029a5780634b751ae4146102ad578063570ca735146102c05780636528b503146102eb57600080fd5b8063313ce5671461026f57806333194c0a1461027e578063395093511461028757600080fd5b806318160ddd116101ad57806318160ddd1461022c578063196c523c1461023457806323b872dd146102495780632de911ca1461025c57600080fd5b806306fdde03146101d4578063095ea7b3146101f2578063113317e114610215575b600080fd5b6101dc6103f0565b6040516101e99190612751565b60405180910390f35b61020561020036600461277c565b610482565b60405190151581526020016101e9565b61021e60705481565b6040519081526020016101e9565b60355461021e565b610247610242366004612976565b61049c565b005b610205610257366004612a37565b610664565b61021e61026a366004612ab2565b610688565b604051600681526020016101e9565b61021e60665481565b61020561029536600461277c565b610a61565b6102476102a8366004612afb565b610a83565b6102476102bb366004612b28565b610bcb565b606b546102d3906001600160a01b031681565b6040516001600160a01b0390911681526020016101e9565b61021e606f5481565b61021e610302366004612b41565b6001600160a01b031660009081526033602052604090205490565b610205610c59565b61021e610333366004612ba6565b610ce9565b6101dc610e2f565b61021e610e3e565b61020561035636600461277c565b610f00565b61020561036936600461277c565b610f7b565b61024761037c366004612b41565b610f89565b61021e61038f366004612c78565b611014565b6102056112ef565b61021e6112f9565b6102476103b2366004612b28565b611378565b6102476103c5366004612cd4565b6113f5565b61021e6103d8366004612cff565b61151e565b6102476103eb366004612d38565b611549565b6060603680546103ff90612d6d565b80601f016020809104026020016040519081016040528092919081815260200182805461042b90612d6d565b80156104785780601f1061044d57610100808354040283529160200191610478565b820191906000526020600020905b81548152906001019060200180831161045b57829003601f168201915b5050505050905090565b6000336104908185856117cb565b60019150505b92915050565b600054610100900460ff16158080156104bc5750600054600160ff909116105b806104d65750303b1580156104d6575060005460ff166001145b61053e5760405162461bcd60e51b815260206004820152602e60248201527f496e697469616c697a61626c653a20636f6e747261637420697320616c72656160448201526d191e481a5b9a5d1a585b1a5e995960921b60648201526084015b60405180910390fd5b6000805460ff191660011790558015610561576000805461ff0019166101001790555b61056e87868686866118ef565b606d80546001600160a01b0319166001600160a01b0388811691909117909155670e63882d5a9584006071556202a3006072556065546040516318e8074960e01b8152600481018890529116906318e8074990602401602060405180830381865afa1580156105e1573d6000803e3d6000fd5b505050506040513d601f19601f820116820180604052508101906106059190612da7565b6001600160a01b031660705542606f55801561065b576000805461ff0019169055604051600181527f7f26b83ff96e1f2b6a682f133852f6798a09c465da95921460cefb38474024989060200160405180910390a15b50505050505050565b6000336106728582856119e8565b61067d858585611a5c565b506001949350505050565b6000610692611c07565b600061069d60355490565b6106af670de0b6b3a764000088612dda565b6106b99190612e07565b606554606654604051632500ed8d60e21b81529293506000926001600160a01b0390921691639403b634916106f49160040190815260200190565b600060405180830381865afa158015610711573d6000803e3d6000fd5b505050506040513d6000823e601f3d908101601f191682016040526107399190810190612f93565b90506000606560009054906101000a90046001600160a01b03166001600160a01b031663113528a86066546068546040518060e00160405280670de0b6b3a76400008860600151600081518110610792576107926130ad565b602090810291909101810151015151516107ab8b6130c3565b6107b591906130df565b6107bf919061310f565b8152602001670de0b6b3a764000088606001516000815181106107e4576107e46130ad565b60200260200101516020015160200151600001518a610802906130c3565b61080c91906130df565b610816919061310f565b81526020018a6000015181526020018a6020015181526020018a604001518152602001600015158152602001604051806020016040528060008152508152506040518463ffffffff1660e01b81526004016108739392919061313d565b610100604051808303816000875af1158015610893573d6000803e3d6000fd5b505050506040513d601f19601f820116820180604052508101906108b791906131a6565b90506000816000015160a00151826000015160800151670de0b6b3a764000086856020015187604001516108eb9190613232565b6108f591906130df565b6108ff919061310f565b6109099190613232565b6109139190613232565b9050868112158015610926575060008712155b61095b5760405162461bcd60e51b8152600401610535906020808252600490820152634753533360e01b604082015260600190565b610965338a611c60565b61097181612710611d94565b6065549095506001600160a01b0316632556efd261098e876130c3565b6040518263ffffffff1660e01b81526004016109ac91815260200190565b6020604051808303816000875af11580156109cb573d6000803e3d6000fd5b505050506040513d601f19601f820116820180604052508101906109ef919061325a565b50606754610a07906001600160a01b03168987611db4565b604080518a8152602081018790526001600160a01b038a16917f490dfb4ce52333704763aee75edba596ceaab548bccafc900f79c2b9f6381b08910160405180910390a250505050610a596001606c55565b949350505050565b600033610490818585610a74838361151e565b610a7e9190613273565b6117cb565b606b546001600160a01b03163314610aad5760405162461bcd60e51b815260040161053590613286565b6065546066546068546040805160e0810182526000808252602080830189905287518385015287810151606084015287840151608084015260a083018290528351908101845290815260c08201529051630226a51560e31b81526001600160a01b039094169363113528a893610b29939092909160040161313d565b610100604051808303816000875af1158015610b49573d6000803e3d6000fd5b505050506040513d601f19601f82011682018060405250810190610b6d91906131a6565b506000610b78611eb4565b90508060696000015411158015610b915750606a548111155b610bc65760405162461bcd60e51b81526004016105359060208082526004908201526311d4d4cd60e21b604082015260600190565b505050565b606b546001600160a01b03163314610bf55760405162461bcd60e51b815260040161053590613286565b80670de0b6b3a764000011158015610c145750671bc16d674ec8000081105b610c1d57600080fd5b60718190556040518181527f425c0b48fb561011de4986235bf0fa5b2f5e5bdd64048817337398c204fe7914906020015b60405180910390a150565b6065546068546040516318e8074960e01b8152600092610ce4926001600160a01b03909116916318e8074991610c959160040190815260200190565b602060405180830381865afa158015610cb2573d6000803e3d6000fd5b505050506040513d601f19601f82011682018060405250810190610cd69190612da7565b6001600160a01b0316611f66565b905090565b6065546000906001600160a01b03163314610d2f5760405162461bcd60e51b8152600401610535906020808252600490820152634753533560e01b604082015260600190565b60008080610d3f858701876132ca565b9250925092506000806000610d578a60000151611fc8565b9250925092506000610d6b848489856120d6565b9050610d798161271061215b565b606e81905590508415610d8f57610d8f8161216a565b606754610da7906001600160a01b0316873084612183565b60675460655460405163095ea7b360e01b81526001600160a01b0391821660048201526024810184905291169063095ea7b3906044016020604051808303816000875af1158015610dfc573d6000803e3d6000fd5b505050506040513d601f19601f82011682018060405250810190610e209190613317565b509a9950505050505050505050565b6060603780546103ff90612d6d565b6065546066546040516349ebb77d60e01b815260009283926001600160a01b03909116916349ebb77d91610e789160040190815260200190565b6000604051808303816000875af1158015610e97573d6000803e3d6000fd5b505050506040513d6000823e601f3d908101601f19168201604052610ebf91908101906133dd565b90506000816040015113610ed557600091505090565b603554670de0b6b3a76400008260400151610ef09190612dda565b610efa9190612e07565b91505090565b60003381610f0e828661151e565b905083811015610f6e5760405162461bcd60e51b815260206004820152602560248201527f45524332303a2064656372656173656420616c6c6f77616e63652062656c6f77604482015264207a65726f60d81b6064820152608401610535565b61067d82868684036117cb565b600033610490818585611a5c565b606b546001600160a01b03163314610fb35760405162461bcd60e51b815260040161053590613286565b6001600160a01b038116610fc657600080fd5b606b80546001600160a01b0319166001600160a01b0383169081179091556040519081527fb3b3f5f64ab192e4b5fefde1f51ce9733bbdcf831951543b325aebd49cc27ec490602001610c4e565b600061101e611c07565b600061102960355490565b1161105f5760405162461bcd60e51b8152600401610535906020808252600490820152634753533160e01b604082015260600190565b60006110738761106e60355490565b61228d565b606554606654604051632500ed8d60e21b81529293506000926001600160a01b0390921691639403b634916110ae9160040190815260200190565b600060405180830381865afa1580156110cb573d6000803e3d6000fd5b505050506040513d6000823e601f3d908101601f191682016040526110f39190810190612f93565b9050600061112b838360600151600081518110611112576111126130ad565b60200260200101516020015160000151600001516122b5565b9050600061116384846060015160008151811061114a5761114a6130ad565b60200260200101516020015160200151600001516122b5565b6065546066546068546040805160e08101825287815260208082018790528c51828401528c8101516060808401919091528d840151608080850191909152600160a085015284519283018d905233838601528f1515838301528451808403909201825291909101835260c08201529051630226a51560e31b81529495506001600160a01b039093169363113528a89361120093929160040161313d565b610100604051808303816000875af1158015611220573d6000803e3d6000fd5b505050506040513d601f19601f8201168201806040525081019061124491906131a6565b50606e805460001990915594508785111561128a5760405162461bcd60e51b81526004016105359060208082526004908201526323a9a99960e11b604082015260600190565b611294898b6122ee565b604080518b8152602081018790526001600160a01b038b16917fd999b189e070b5645f3ccf74bacda045fe621081cc1767aa51b8281dbfd87d4c910160405180910390a2505050506112e66001606c55565b95945050505050565b6000610ce46123af565b606d54606854606654604051632440490960e21b81526000936001600160a01b03169263910124249261133792600401918252602082015260400190565b602060405180830381865afa158015611354573d6000803e3d6000fd5b505050506040513d601f19601f82011682018060405250810190610ce4919061325a565b606b546001600160a01b031633146113a25760405162461bcd60e51b815260040161053590613286565b80610e10111580156113b75750621275008111155b6113c057600080fd5b60728190556040518181527f8d6cb689962988c16fd239c4d075e5f95fdb46fdaf4b847a49b752f0baa1205190602001610c4e565b606b546001600160a01b0316331461141f5760405162461bcd60e51b815260040161053590613286565b611427611c07565b6065546068546040516318e8074960e01b815260048101919091526000916001600160a01b0316906318e8074990602401602060405180830381865afa158015611475573d6000803e3d6000fd5b505050506040513d601f19601f820116820180604052508101906114999190612da7565b6001600160a01b031690506114ac6123af565b806114bb57506114bb81611f66565b6114ec5760405162461bcd60e51b8152602060048201526002602482015261544760f01b6044820152606401610535565b6114f683836123c8565b81670de0b6b3a76400000361150f57607081905542606f555b5061151a6001606c55565b5050565b6001600160a01b03918216600090815260346020908152604080832093909416825291909152205490565b606b546001600160a01b031633146115735760405162461bcd60e51b815260040161053590613286565b61157b611c07565b603554156115b45760405162461bcd60e51b8152600401610535906020808252600490820152630475353360e41b604082015260600190565b6067546115cc906001600160a01b0316333087612183565b60675460655460405163095ea7b360e01b81526001600160a01b0391821660048201526024810187905291169063095ea7b3906044016020604051808303816000875af1158015611621573d6000803e3d6000fd5b505050506040513d601f19601f820116820180604052508101906116459190613317565b506065546040516312ab77e960e11b8152600481018690526001600160a01b0390911690632556efd2906024016020604051808303816000875af1158015611691573d6000803e3d6000fd5b505050506040513d601f19601f820116820180604052508101906116b5919061325a565b60668190556065546068546040805160e0810182528781526020808201889052865182840152868101516060830152868301516080830152600060a0830181905283519182018452815260c08201529051630226a51560e31b81526001600160a01b039093169363113528a8936117319391929060040161313d565b610100604051808303816000875af1158015611751573d6000803e3d6000fd5b505050506040513d601f19601f8201168201806040525081019061177591906131a6565b5061178033856122ee565b604080518581526020810186905233917fd999b189e070b5645f3ccf74bacda045fe621081cc1767aa51b8281dbfd87d4c910160405180910390a26117c56001606c55565b50505050565b6001600160a01b03831661182d5760405162461bcd60e51b8152602060048201526024808201527f45524332303a20617070726f76652066726f6d20746865207a65726f206164646044820152637265737360e01b6064820152608401610535565b6001600160a01b03821661188e5760405162461bcd60e51b815260206004820152602260248201527f45524332303a20617070726f766520746f20746865207a65726f206164647265604482015261737360f01b6064820152608401610535565b6001600160a01b0383811660008181526034602090815260408083209487168084529482529182902085905590518481527f8c5be1e5ebec7d5bd14f71427d1e84f3dd0314c0f7b2291e5b200ac8c7c3b925910160405180910390a3505050565b600054610100900460ff166119165760405162461bcd60e51b81526004016105359061348c565b611920828261258c565b606580546001600160a01b0319166001600160a01b038716908117909155606885905583516069556020840151606a55604051631d591eb760e31b8152600160048201526000919063eac8f5b89060240161050060405180830381865afa15801561198f573d6000803e3d6000fd5b505050506040513d601f19601f820116820180604052508101906119b3919061369c565b60200151606780546001600160a01b039092166001600160a01b0319928316179055606b805490911633179055505050505050565b60006119f4848461151e565b905060001981146117c55781811015611a4f5760405162461bcd60e51b815260206004820152601d60248201527f45524332303a20696e73756666696369656e7420616c6c6f77616e63650000006044820152606401610535565b6117c584848484036117cb565b6001600160a01b038316611ac05760405162461bcd60e51b815260206004820152602560248201527f45524332303a207472616e736665722066726f6d20746865207a65726f206164604482015264647265737360d81b6064820152608401610535565b6001600160a01b038216611b225760405162461bcd60e51b815260206004820152602360248201527f45524332303a207472616e7366657220746f20746865207a65726f206164647260448201526265737360e81b6064820152608401610535565b6001600160a01b03831660009081526033602052604090205481811015611b9a5760405162461bcd60e51b815260206004820152602660248201527f45524332303a207472616e7366657220616d6f756e7420657863656564732062604482015265616c616e636560d01b6064820152608401610535565b6001600160a01b0380851660008181526033602052604080822086860390559286168082529083902080548601905591517fddf252ad1be2c89b69c2b068fc378daa952ba7f163c4a11628f55a4df523b3ef90611bfa9086815260200190565b60405180910390a36117c5565b6002606c5403611c595760405162461bcd60e51b815260206004820152601f60248201527f5265656e7472616e637947756172643a207265656e7472616e742063616c6c006044820152606401610535565b6002606c55565b6001600160a01b038216611cc05760405162461bcd60e51b815260206004820152602160248201527f45524332303a206275726e2066726f6d20746865207a65726f206164647265736044820152607360f81b6064820152608401610535565b6001600160a01b03821660009081526033602052604090205481811015611d345760405162461bcd60e51b815260206004820152602260248201527f45524332303a206275726e20616d6f756e7420657863656564732062616c616e604482015261636560f01b6064820152608401610535565b6001600160a01b03831660008181526033602090815260408083208686039055603580548790039055518581529192917fddf252ad1be2c89b69c2b068fc378daa952ba7f163c4a11628f55a4df523b3ef910160405180910390a3505050565b600081611da3846001856125bd565b611dad9190612dda565b9392505050565b604080516001600160a01b038481166024830152604480830185905283518084039091018152606490920183526020820180516001600160e01b031663a9059cbb60e01b1790529151600092839290871691611e10919061376c565b6000604051808303816000865af19150503d8060008114611e4d576040519150601f19603f3d011682016040523d82523d6000602084013e611e52565b606091505b5091509150818015611e7c575080511580611e7c575080806020019051810190611e7c9190613317565b611ead5760405162461bcd60e51b815260206004820152600260248201526114d560f21b6044820152606401610535565b5050505050565b6065546066546040516349ebb77d60e01b815260009283926001600160a01b03909116916349ebb77d91611eee9160040190815260200190565b6000604051808303816000875af1158015611f0d573d6000803e3d6000fd5b505050506040513d6000823e601f3d908101601f19168201604052611f3591908101906133dd565b9050610efa81604001518260a00151670de0b6b3a7640000611f5791906130df565b611f61919061310f565b6125db565b600080607154670de0b6b3a7640000607054611f829190612dda565b611f8c9190612e07565b90506000670de0b6b3a7640000607154607054611fa99190612dda565b611fb39190612e07565b905081841080610a5957509290921092915050565b606554606654604051632500ed8d60e21b81526000928392839283926001600160a01b031691639403b63491612005919060040190815260200190565b600060405180830381865afa158015612022573d6000803e3d6000fd5b505050506040513d6000823e601f3d908101601f1916820160405261204a9190810190612f93565b905060008160600151600081518110612065576120656130ad565b602002602001015190508560600151866020015187600001516120889190613232565b6120929190613232565b6020808301518082015160408101519083015191519092015192975090916120ba9190613232565b6120c49190613232565b93508160400151925050509193909250565b60008061212186670de0b6b3a7640000876120f087612631565b6120fa9190613232565b61210388612631565b61210d91906130df565b612117919061310f565b611f619190613788565b905061213584670de0b6b3a76400006137af565b612147670de0b6b3a764000083612dda565b6121519190612e07565b9695505050505050565b600081611da38460018561269b565b6020518181526000602082015260006040820152606081fd5b604080516001600160a01b0385811660248301528481166044830152606480830185905283518084039091018152608490920183526020820180516001600160e01b03166323b872dd60e01b17905291516000928392908816916121e7919061376c565b6000604051808303816000865af19150503d8060008114612224576040519150601f19603f3d011682016040523d82523d6000602084013e612229565b606091505b50915091508180156122535750805115806122535750808060200190518101906122539190613317565b6122855760405162461bcd60e51b815260206004820152600360248201526229aa2360e91b6044820152606401610535565b505050505050565b60006122998383613273565b6122ab670de0b6b3a764000085612dda565b611dad9190612e07565b60006122d16122cc84670de0b6b3a76400006137af565b612631565b6122da84612631565b6122e490846130df565b611dad919061310f565b6001600160a01b0382166123445760405162461bcd60e51b815260206004820152601f60248201527f45524332303a206d696e7420746f20746865207a65726f2061646472657373006044820152606401610535565b80603560008282546123569190613273565b90915550506001600160a01b0382166000818152603360209081526040808320805486019055518481527fddf252ad1be2c89b69c2b068fc378daa952ba7f163c4a11628f55a4df523b3ef910160405180910390a35050565b600042607254606f546123c29190613273565b10905090565b670de0b6b3a76400008111156123dd57600080fd5b606d54606854606654604051632440490960e21b815260048101929092526024820152600091670de0b6b3a76400009184916001600160a01b031690639101242490604401602060405180830381865afa15801561243f573d6000803e3d6000fd5b505050506040513d601f19601f82011682018060405250810190612463919061325a565b61246d91906130df565b612477919061310f565b6065546066546068546040805160e081019091529394506001600160a01b039092169263113528a89290806124ab876130c3565b815260200160008152602001886000015181526020018860200151815260200188604001518152602001600015158152602001604051806020016040528060008152508152506040518463ffffffff1660e01b815260040161250f9392919061313d565b610100604051808303816000875af115801561252f573d6000803e3d6000fd5b505050506040513d601f19601f8201168201806040525081019061255391906131a6565b506040518181527f15305f1a00bd5019fe8d51ce959229208db3a992ed74449d793f55a67113156c9060200160405180910390a1505050565b600054610100900460ff166125b35760405162461bcd60e51b81526004016105359061348c565b61151a82826126c1565b60008260001904841183021582026125d457600080fd5b5091020490565b60008082121561262d5760405162461bcd60e51b815260206004820181905260248201527f53616665436173743a2076616c7565206d75737420626520706f7369746976656044820152606401610535565b5090565b60006001600160ff1b0382111561262d5760405162461bcd60e51b815260206004820152602860248201527f53616665436173743a2076616c756520646f65736e27742066697420696e2061604482015267371034b73a191a9b60c11b6064820152608401610535565b60008260001904841183021582026126b257600080fd5b50910281810615159190040190565b600054610100900460ff166126e85760405162461bcd60e51b81526004016105359061348c565b60366126f48382613808565b506037610bc68282613808565b60005b8381101561271c578181015183820152602001612704565b50506000910152565b6000815180845261273d816020860160208601612701565b601f01601f19169290920160200192915050565b602081526000611dad6020830184612725565b6001600160a01b038116811461277957600080fd5b50565b6000806040838503121561278f57600080fd5b823561279a81612764565b946020939093013593505050565b634e487b7160e01b600052604160045260246000fd5b604080519081016001600160401b03811182821017156127e0576127e06127a8565b60405290565b604051606081016001600160401b03811182821017156127e0576127e06127a8565b60405160c081016001600160401b03811182821017156127e0576127e06127a8565b60405160e081016001600160401b03811182821017156127e0576127e06127a8565b60405161010081016001600160401b03811182821017156127e0576127e06127a8565b604051608081016001600160401b03811182821017156127e0576127e06127a8565b6040516101a081016001600160401b03811182821017156127e0576127e06127a8565b60405161016081016001600160401b03811182821017156127e0576127e06127a8565b604051601f8201601f191681016001600160401b03811182821017156128ff576128ff6127a8565b604052919050565b600082601f83011261291857600080fd5b81356001600160401b03811115612931576129316127a8565b612944601f8201601f19166020016128d7565b81815284602083860101111561295957600080fd5b816020850160208301376000918101602001919091529392505050565b60008060008060008086880360e081121561299057600080fd5b873561299b81612764565b965060208801356129ab81612764565b95506040888101359550605f19820112156129c557600080fd5b506129ce6127be565b6060880135815260808801356020820152925060a08701356001600160401b03808211156129fb57600080fd5b612a078a838b01612907565b935060c0890135915080821115612a1d57600080fd5b50612a2a89828a01612907565b9150509295509295509295565b600080600060608486031215612a4c57600080fd5b8335612a5781612764565b92506020840135612a6781612764565b929592945050506040919091013590565b600060608284031215612a8a57600080fd5b612a926127e6565b905081358152602082013560208201526040820135604082015292915050565b60008060008060c08587031215612ac857600080fd5b843593506020850135612ada81612764565b925060408501359150612af08660608701612a78565b905092959194509250565b60008060808385031215612b0e57600080fd5b82359150612b1f8460208501612a78565b90509250929050565b600060208284031215612b3a57600080fd5b5035919050565b600060208284031215612b5357600080fd5b8135611dad81612764565b60008083601f840112612b7057600080fd5b5081356001600160401b03811115612b8757600080fd5b602083019150836020828501011115612b9f57600080fd5b9250929050565b6000806000838503610120811215612bbd57600080fd5b61010080821215612bcd57600080fd5b612bd56127e6565b60c0831215612be357600080fd5b612beb612808565b87358152602080890135818301526040808a0135818401526060808b0135908401526080808b01359084015260a0808b01359084015291835260c08901359083015260e088013590820152945085013590506001600160401b03811115612c5157600080fd5b612c5d86828701612b5e565b9497909650939450505050565b801515811461277957600080fd5b600080600080600060e08688031215612c9057600080fd5b853594506020860135612ca281612764565b9350604086013592506060860135612cb981612c6a565b9150612cc88760808801612a78565b90509295509295909350565b60008060808385031215612ce757600080fd5b612cf18484612a78565b946060939093013593505050565b60008060408385031215612d1257600080fd5b8235612d1d81612764565b91506020830135612d2d81612764565b809150509250929050565b60008060008060c08587031215612d4e57600080fd5b843593506020850135925060408501359150612af08660608701612a78565b600181811c90821680612d8157607f821691505b602082108103612da157634e487b7160e01b600052602260045260246000fd5b50919050565b600060208284031215612db957600080fd5b8151611dad81612764565b634e487b7160e01b600052601160045260246000fd5b808202811582820484141761049657610496612dc4565b634e487b7160e01b600052601260045260246000fd5b600082612e1657612e16612df1565b500490565b8051612e2681612764565b919050565b60006001600160401b03821115612e4457612e446127a8565b5060051b60200190565b600060408284031215612e6057600080fd5b612e686127be565b9050815181526020820151602082015292915050565b600060e08284031215612e9057600080fd5b612e9861282a565b9050815181526020820151602082015260408201516040820152606082015160608201526080820151608082015260a082015160a082015260c082015160c082015292915050565b8051600281900b8114612e2657600080fd5b60006102208284031215612f0557600080fd5b612f0d61284c565b9050612f198383612e4e565b8152612f288360408401612e7e565b6020820152612f3b836101208401612e4e565b6040820152612f4e836101608401612e4e565b6060820152612f606101a08301612ee0565b6080820152612f726101c08301612ee0565b60a08201526101e082015160c082015261020082015160e082015292915050565b60006020808385031215612fa657600080fd5b82516001600160401b0380821115612fbd57600080fd5b9084019060808287031215612fd157600080fd5b612fd961286f565b8251815283830151612fea81612764565b818501526040838101519082015260608301518281111561300a57600080fd5b80840193505086601f84011261301f57600080fd5b8251915061303461302f83612e2b565b6128d7565b828152610240928302840185019285820191908985111561305457600080fd5b948601945b8486101561309c5780868b0312156130715760008081fd5b6130796127be565b865181526130898b898901612ef2565b8189015283529485019491860191613059565b506060830152509695505050505050565b634e487b7160e01b600052603260045260246000fd5b6000600160ff1b82016130d8576130d8612dc4565b5060000390565b80820260008212600160ff1b841416156130fb576130fb612dc4565b818105831482151761049657610496612dc4565b60008261311e5761311e612df1565b600160ff1b82146000198414161561313857613138612dc4565b500590565b838152826020820152606060408201528151606082015260208201516080820152604082015160a0820152606082015160c0820152608082015160e082015260a08201511515610100820152600060c083015160e0610120840152612151610140840182612725565b60008183036101008112156131ba57600080fd5b6131c26127e6565b60c08212156131d057600080fd5b6131d8612808565b9150835182526020840151602083015260408401516040830152606084015160608301526080840151608083015260a084015160a083015281815260c0840151602082015260e08401516040820152809250505092915050565b808201828112600083128015821682158216171561325257613252612dc4565b505092915050565b60006020828403121561326c57600080fd5b5051919050565b8082018082111561049657610496612dc4565b60208082526024908201527f4261736553747261746567793a2063616c6c6572206973206e6f74206f70657260408201526330ba37b960e11b606082015260800190565b6000806000606084860312156132df57600080fd5b8335925060208401356132f181612764565b9150604084013561330181612c6a565b809150509250925092565b8051612e2681612c6a565b60006020828403121561332957600080fd5b8151611dad81612c6a565b600082601f83011261334557600080fd5b8151602061335561302f83612e2b565b828152610280928302850182019282820191908785111561337557600080fd5b8387015b858110156133d05781818a0312156133915760008081fd5b61339961286f565b815181526133a98a878401612ef2565b81870152610240820151604082015261026082015160608201528452928401928101613379565b5090979650505050505050565b6000602082840312156133ef57600080fd5b81516001600160401b038082111561340657600080fd5b9083019060e0828603121561341a57600080fd5b61342261282a565b825181526134326020840161330c565b602082015260408301516040820152606083015160608201526080830151608082015260a083015160a082015260c08301518281111561347157600080fd5b61347d87828601613334565b60c08301525095945050505050565b6020808252602b908201527f496e697469616c697a61626c653a20636f6e7472616374206973206e6f74206960408201526a6e697469616c697a696e6760a81b606082015260800190565b6000606082840312156134e957600080fd5b6134f16127e6565b90508151815261350360208301612ee0565b602082015261351460408301612ee0565b604082015292915050565b6000610100828403121561353257600080fd5b61353a61284c565b9050815181526020820151602082015260408201516040820152606082015160608201526080820151608082015260a082015160a082015260c082015160c082015260e082015160e082015292915050565b60006101e0828403121561359f57600080fd5b6135a7612891565b90506135b282612e1b565b81526135c060208301612ee0565b60208201526135d160408301612ee0565b6040820152606082015160608201526080820151608082015260a082015160a082015260c082015160c082015260e082015160e082015261010080830151818301525061012061362384828501612e4e565b9082015261016061363684848301612e4e565b6101408301526101a0830151908201526101c090910151610180820152919050565b60006080828403121561366a57600080fd5b61367261286f565b90508151815260208201516020820152604082015160408201526060820151606082015292915050565b600061050082840312156136af57600080fd5b6136b76128b4565b825181526136c760208401612e1b565b60208201526136d860408401612e1b565b60408201526136ea84606085016134d7565b60608201526136fc8460c0850161351f565b608082015261370f846101c0850161358c565b60a08201526137216103a0840161330c565b60c0820152613734846103c08501613658565b60e0820152613747846104408501613658565b6101008201526104c08301516101208201526104e09092015161014083015250919050565b6000825161377e818460208701612701565b9190910192915050565b81810360008312801583831316838312821617156137a8576137a8612dc4565b5092915050565b8181038181111561049657610496612dc4565b601f821115610bc657600081815260208120601f850160051c810160208610156137e95750805b601f850160051c820191505b81811015612285578281556001016137f5565b81516001600160401b03811115613821576138216127a8565b6138358161382f8454612d6d565b846137c2565b602080601f83116001811461386a57600084156138525750858301515b600019600386901b1c1916600185901b178555612285565b600085815260208120601f198616915b828110156138995788860151825594840194600190910190840161387a565b50858210156138b75787850151600019600388901b60f8161c191681555b5050505050600190811b0190555056fea2646970667358221220776c31d1571b0106b7c9848ef041076f68d80e8d14a145500d3b7d0562c62dfe64736f6c63430008130033",
  "devdoc": {
    "events": {
      "Approval(address,address,uint256)": {
        "details": "Emitted when the allowance of a `spender` for an `owner` is set by a call to {approve}. `value` is the new allowance."
      },
      "Initialized(uint8)": {
        "details": "Triggered when the contract has been initialized or reinitialized."
      },
      "Transfer(address,address,uint256)": {
        "details": "Emitted when `value` tokens are moved from one account (`from`) to another (`to`). Note that `value` may be zero."
      }
    },
    "kind": "dev",
    "methods": {
      "allowance(address,address)": {
        "details": "See {IERC20-allowance}."
      },
      "approve(address,uint256)": {
        "details": "See {IERC20-approve}. NOTE: If `amount` is the maximum `uint256`, the allowance is not updated on `transferFrom`. This is semantically equivalent to an infinite approval. Requirements: - `spender` cannot be the zero address."
      },
      "balanceOf(address)": {
        "details": "See {IERC20-balanceOf}."
      },
      "decimals()": {
        "details": "Returns the number of decimals used to get its user representation. For example, if `decimals` equals `2`, a balance of `505` tokens should be displayed to a user as `5.05` (`505 / 10 ** 2`). Tokens usually opt for a value of 18, imitating the relationship between Ether and Wei. This is the value {ERC20} uses, unless this function is overridden; NOTE: This information is only used for _display_ purposes: it in no way affects any of the arithmetic of the contract, including {IERC20-balanceOf} and {IERC20-transfer}."
      },
      "decreaseAllowance(address,uint256)": {
        "details": "Atomically decreases the allowance granted to `spender` by the caller. This is an alternative to {approve} that can be used as a mitigation for problems described in {IERC20-approve}. Emits an {Approval} event indicating the updated allowance. Requirements: - `spender` cannot be the zero address. - `spender` must have allowance for the caller of at least `subtractedValue`."
      },
      "deposit(uint256,address,uint256,bool,(uint256,uint256,uint256))": {
        "params": {
          "_maxDepositAmount": "maximum USDC amount that caller deposits",
          "_recepient": "recepient address of strategy token",
          "_strategyTokenAmount": "strategy token amount to mint",
          "_tradeParams": "trade parameters",
          "isQuoteMode": "is quote mode or not"
        },
        "returns": {
          "finalDepositMargin": "USDC amount that caller actually deposits"
        }
      },
      "depositForPositionInitialization(uint256,int256,int256,(uint256,uint256,uint256))": {
        "details": "The function can be called by owner.",
        "params": {
          "_initialMarginAmount": "initial margin amount",
          "_initialPerpAmount": "initial perp amount",
          "_initialSquartAmount": "initial squart amount",
          "_tradeParams": "trade parameters"
        }
      },
      "execDeltaHedge((uint256,uint256,uint256),uint256)": {
        "params": {
          "_tradeParams": "Trade parameters for Predy contract"
        }
      },
      "getPrice()": {
        "details": "The function should not be called on chain."
      },
      "increaseAllowance(address,uint256)": {
        "details": "Atomically increases the allowance granted to `spender` by the caller. This is an alternative to {approve} that can be used as a mitigation for problems described in {IERC20-approve}. Emits an {Approval} event indicating the updated allowance. Requirements: - `spender` cannot be the zero address."
      },
      "name()": {
        "details": "Returns the name of the token."
      },
      "predyTradeCallback(((int256,int256,int256,int256,int256,int256),int256,int256),bytes)": {
        "details": "Callback for Predy Controller"
      },
      "setOperator(address)": {
        "details": "Only operator can call this function.",
        "params": {
          "_newOperator": "The address of new operator"
        }
      },
      "symbol()": {
        "details": "Returns the symbol of the token, usually a shorter version of the name."
      },
      "totalSupply()": {
        "details": "See {IERC20-totalSupply}."
      },
      "transfer(address,uint256)": {
        "details": "See {IERC20-transfer}. Requirements: - `to` cannot be the zero address. - the caller must have a balance of at least `amount`."
      },
      "transferFrom(address,address,uint256)": {
        "details": "See {IERC20-transferFrom}. Emits an {Approval} event indicating the updated allowance. This is not required by the EIP. See the note at the beginning of {ERC20}. NOTE: Does not update the allowance if the current allowance is the maximum `uint256`. Requirements: - `from` and `to` cannot be the zero address. - `from` must have a balance of at least `amount`. - the caller must have allowance for ``from``'s tokens of at least `amount`."
      },
      "updateGamma(int256,(uint256,uint256,uint256))": {
        "params": {
          "_squartAmount": "squart amount",
          "_tradeParams": "trade parameters"
        }
      },
      "updateHedgeInterval(uint256)": {
        "params": {
          "_hedgeInterval": "New interval"
        }
      },
      "updateHedgePriceThreshold(uint256)": {
        "params": {
          "_newSqrtPriceThreshold": "New square root price threshold"
        }
      },
      "withdraw(uint256,address,int256,(uint256,uint256,uint256))": {
        "params": {
          "_minWithdrawAmount": "minimum USDC amount that caller deposits",
          "_recepient": "recepient address of stable token",
          "_tradeParams": "trade parameters",
          "_withdrawStrategyAmount": "strategy token amount to burn"
        },
        "returns": {
          "finalWithdrawAmount": "USDC amount that caller actually withdraws"
        }
      }
    },
    "version": 1
  },
  "userdoc": {
    "kind": "user",
    "methods": {
      "deposit(uint256,address,uint256,bool,(uint256,uint256,uint256))": {
        "notice": "Deposits margin and mints strategy token."
      },
      "depositForPositionInitialization(uint256,int256,int256,(uint256,uint256,uint256))": {
        "notice": "deposit for the position initialization"
      },
      "execDeltaHedge((uint256,uint256,uint256),uint256)": {
        "notice": "Operator can call the delta hedging function if the price has changed by a set ratio from the last price at the hedging or time has elapsed by a set interval since the last hedge time."
      },
      "getPrice()": {
        "notice": "Gets price of strategy token by USDC."
      },
      "setOperator(address)": {
        "notice": "Sets new operator"
      },
      "updateGamma(int256,(uint256,uint256,uint256))": {
        "notice": "Changes gamma size per share."
      },
      "updateHedgeInterval(uint256)": {
        "notice": "Updates interval for delta hedging."
      },
      "updateHedgePriceThreshold(uint256)": {
        "notice": "Updates price threshold for delta hedging."
      },
      "withdraw(uint256,address,int256,(uint256,uint256,uint256))": {
        "notice": "Withdraws margin and burns strategy token."
      }
    },
    "notice": "Error Codes GSS0: already initialized GSS1: not initialized GSS2: required margin amount must be less than maximum GSS3: withdrawn margin amount must be greater than minimum GSS4: invalid leverage GSS5: caller must be Controller",
    "version": 1
  },
  "storageLayout": {
    "storage": [
      {
        "astId": 6,
        "contract": "src/strategy/GammaShortStrategy.sol:GammaShortStrategy",
        "label": "_initialized",
        "offset": 0,
        "slot": "0",
        "type": "t_uint8"
      },
      {
        "astId": 9,
        "contract": "src/strategy/GammaShortStrategy.sol:GammaShortStrategy",
        "label": "_initializing",
        "offset": 1,
        "slot": "0",
        "type": "t_bool"
      },
      {
        "astId": 1208,
        "contract": "src/strategy/GammaShortStrategy.sol:GammaShortStrategy",
        "label": "__gap",
        "offset": 0,
        "slot": "1",
        "type": "t_array(t_uint256)50_storage"
      },
      {
        "astId": 187,
        "contract": "src/strategy/GammaShortStrategy.sol:GammaShortStrategy",
        "label": "_balances",
        "offset": 0,
        "slot": "51",
        "type": "t_mapping(t_address,t_uint256)"
      },
      {
        "astId": 193,
        "contract": "src/strategy/GammaShortStrategy.sol:GammaShortStrategy",
        "label": "_allowances",
        "offset": 0,
        "slot": "52",
        "type": "t_mapping(t_address,t_mapping(t_address,t_uint256))"
      },
      {
        "astId": 195,
        "contract": "src/strategy/GammaShortStrategy.sol:GammaShortStrategy",
        "label": "_totalSupply",
        "offset": 0,
        "slot": "53",
        "type": "t_uint256"
      },
      {
        "astId": 197,
        "contract": "src/strategy/GammaShortStrategy.sol:GammaShortStrategy",
        "label": "_name",
        "offset": 0,
        "slot": "54",
        "type": "t_string_storage"
      },
      {
        "astId": 199,
        "contract": "src/strategy/GammaShortStrategy.sol:GammaShortStrategy",
        "label": "_symbol",
        "offset": 0,
        "slot": "55",
        "type": "t_string_storage"
      },
      {
        "astId": 779,
        "contract": "src/strategy/GammaShortStrategy.sol:GammaShortStrategy",
        "label": "__gap",
        "offset": 0,
        "slot": "56",
        "type": "t_array(t_uint256)45_storage"
      },
      {
        "astId": 17921,
        "contract": "src/strategy/GammaShortStrategy.sol:GammaShortStrategy",
        "label": "controller",
        "offset": 0,
        "slot": "101",
        "type": "t_contract(IController)7940"
      },
      {
        "astId": 17923,
        "contract": "src/strategy/GammaShortStrategy.sol:GammaShortStrategy",
        "label": "vaultId",
        "offset": 0,
        "slot": "102",
        "type": "t_uint256"
      },
      {
        "astId": 17925,
        "contract": "src/strategy/GammaShortStrategy.sol:GammaShortStrategy",
        "label": "usdc",
        "offset": 0,
        "slot": "103",
        "type": "t_address"
      },
      {
        "astId": 17927,
        "contract": "src/strategy/GammaShortStrategy.sol:GammaShortStrategy",
        "label": "assetId",
        "offset": 0,
        "slot": "104",
        "type": "t_uint256"
      },
      {
        "astId": 17930,
        "contract": "src/strategy/GammaShortStrategy.sol:GammaShortStrategy",
        "label": "minPerValueLimit",
        "offset": 0,
        "slot": "105",
        "type": "t_struct(MinPerValueLimit)17918_storage"
      },
      {
        "astId": 17932,
        "contract": "src/strategy/GammaShortStrategy.sol:GammaShortStrategy",
        "label": "operator",
        "offset": 0,
        "slot": "107",
        "type": "t_address"
      },
      {
        "astId": 1389,
        "contract": "src/strategy/GammaShortStrategy.sol:GammaShortStrategy",
        "label": "_status",
        "offset": 0,
        "slot": "108",
        "type": "t_uint256"
      },
      {
        "astId": 16608,
        "contract": "src/strategy/GammaShortStrategy.sol:GammaShortStrategy",
        "label": "reader",
        "offset": 0,
        "slot": "109",
        "type": "t_contract(Reader)7878"
      },
      {
        "astId": 16620,
        "contract": "src/strategy/GammaShortStrategy.sol:GammaShortStrategy",
        "label": "finalDepositAmountCached",
        "offset": 0,
        "slot": "110",
        "type": "t_uint256"
      },
      {
        "astId": 16622,
        "contract": "src/strategy/GammaShortStrategy.sol:GammaShortStrategy",
        "label": "lastHedgeTimestamp",
        "offset": 0,
        "slot": "111",
        "type": "t_uint256"
      },
      {
        "astId": 16624,
        "contract": "src/strategy/GammaShortStrategy.sol:GammaShortStrategy",
        "label": "lastHedgePrice",
        "offset": 0,
        "slot": "112",
        "type": "t_uint256"
      },
      {
        "astId": 16626,
        "contract": "src/strategy/GammaShortStrategy.sol:GammaShortStrategy",
        "label": "hedgeSqrtPriceThreshold",
        "offset": 0,
        "slot": "113",
        "type": "t_uint256"
      },
      {
        "astId": 16628,
        "contract": "src/strategy/GammaShortStrategy.sol:GammaShortStrategy",
        "label": "hedgeInterval",
        "offset": 0,
        "slot": "114",
        "type": "t_uint256"
      }
    ],
    "types": {
      "t_address": {
        "encoding": "inplace",
        "label": "address",
        "numberOfBytes": "20"
      },
      "t_array(t_uint256)45_storage": {
        "base": "t_uint256",
        "encoding": "inplace",
        "label": "uint256[45]",
        "numberOfBytes": "1440"
      },
      "t_array(t_uint256)50_storage": {
        "base": "t_uint256",
        "encoding": "inplace",
        "label": "uint256[50]",
        "numberOfBytes": "1600"
      },
      "t_bool": {
        "encoding": "inplace",
        "label": "bool",
        "numberOfBytes": "1"
      },
      "t_contract(IController)7940": {
        "encoding": "inplace",
        "label": "contract IController",
        "numberOfBytes": "20"
      },
      "t_contract(Reader)7878": {
        "encoding": "inplace",
        "label": "contract Reader",
        "numberOfBytes": "20"
      },
      "t_mapping(t_address,t_mapping(t_address,t_uint256))": {
        "encoding": "mapping",
        "key": "t_address",
        "label": "mapping(address => mapping(address => uint256))",
        "numberOfBytes": "32",
        "value": "t_mapping(t_address,t_uint256)"
      },
      "t_mapping(t_address,t_uint256)": {
        "encoding": "mapping",
        "key": "t_address",
        "label": "mapping(address => uint256)",
        "numberOfBytes": "32",
        "value": "t_uint256"
      },
      "t_string_storage": {
        "encoding": "bytes",
        "label": "string",
        "numberOfBytes": "32"
      },
      "t_struct(MinPerValueLimit)17918_storage": {
        "encoding": "inplace",
        "label": "struct BaseStrategy.MinPerValueLimit",
        "members": [
          {
            "astId": 17915,
            "contract": "src/strategy/GammaShortStrategy.sol:GammaShortStrategy",
            "label": "lower",
            "offset": 0,
            "slot": "0",
            "type": "t_uint256"
          },
          {
            "astId": 17917,
            "contract": "src/strategy/GammaShortStrategy.sol:GammaShortStrategy",
            "label": "upper",
            "offset": 0,
            "slot": "1",
            "type": "t_uint256"
          }
        ],
        "numberOfBytes": "64"
      },
      "t_uint256": {
        "encoding": "inplace",
        "label": "uint256",
        "numberOfBytes": "32"
      },
      "t_uint8": {
        "encoding": "inplace",
        "label": "uint8",
        "numberOfBytes": "1"
      }
    }
  }
}