{
  "address": "0x631C2360a88839783859f0eeEE9b234ed6845b46",
  "abi": [
    {
      "inputs": [
        {
          "internalType": "contract IController",
          "name": "_controller",
          "type": "address"
        }
      ],
      "stateMutability": "nonpayable",
      "type": "constructor"
    },
    {
      "inputs": [],
      "name": "T",
      "type": "error"
    },
    {
      "inputs": [],
      "name": "controller",
      "outputs": [
        {
          "internalType": "contract IController",
          "name": "",
          "type": "address"
        }
      ],
      "stateMutability": "view",
      "type": "function"
    },
    {
      "inputs": [
        {
          "internalType": "uint256",
          "name": "_tokenId",
          "type": "uint256"
        },
        {
          "internalType": "uint256",
          "name": "_vaultId",
          "type": "uint256"
        }
      ],
      "name": "getDelta",
      "outputs": [
        {
          "internalType": "int256",
          "name": "_delta",
          "type": "int256"
        }
      ],
      "stateMutability": "view",
      "type": "function"
    }
  ],
  "transactionHash": "0xc99638cf3ee923dca1ebcb35dcbd262ce50e3db790918ae17a0e0cf3a1760476",
  "args": [
    "0x68a154fB3e8ff6e4DA10ECd54DEF25D9149DDBDE"
  ],
  "solcInputHash": "56ac5d588ab4e7ec6ca298493f475b93",
  "bytecode": "0x608060405234801561001057600080fd5b5060405161117b38038061117b83398101604081905261002f91610054565b600080546001600160a01b0319166001600160a01b0392909216919091179055610084565b60006020828403121561006657600080fd5b81516001600160a01b038116811461007d57600080fd5b9392505050565b6110e8806100936000396000f3fe608060405234801561001057600080fd5b50600436106100365760003560e01c8063910124241461003b578063f77c479114610061575b600080fd5b61004e61004936600461092d565b61008c565b6040519081526020015b60405180910390f35b600054610074906001600160a01b031681565b6040516001600160a01b039091168152602001610058565b60008054604051631d591eb760e31b81526004810185905282916001600160a01b03169063eac8f5b89060240161050060405180830381865afa1580156100d7573d6000803e3d6000fd5b505050506040513d601f19601f820116820180604052508101906100fb9190610cad565b805160a082015160c0830151600054604051632500ed8d60e21b8152600481018990529495506101f1946001600160a01b0390911690639403b63490602401600060405180830381865afa158015610157573d6000803e3d6000fd5b505050506040513d6000823e601f3d908101601f1916820160405261017f9190810190610e01565b6000546040516318e8074960e01b8152600481018b90526001600160a01b03909116906318e8074990602401602060405180830381865afa1580156101c8573d6000803e3d6000fd5b505050506040513d601f19601f820116820180604052508101906101ec9190610fbc565b6101fb565b9150505b92915050565b6000805b836060015151811015610297578360600151818151811061022257610222610fd9565b602002602001015160000151870361028557600080610264888760600151858151811061025157610251610fd9565b60200260200101516020015189886102a1565b50925050915080826102769190611005565b610280908561102c565b935050505b8061028f81611054565b9150506101ff565b5095945050505050565b6000806000806000806102e6876102bb8c602001516103d2565b6102c88d604001516103d2565b6102e16102dc8e60200151600001516106f5565b610711565b610723565b915091506000896020015160000151131561031757871561030c5781945080955061032f565b81955080945061032f565b87156103285781925080935061032f565b8193508092505b5050606087015151600012156103525760608701515161034f908461106d565b92505b6060870151516000131561037c5760608701515161036f90611080565b610379908261106d565b90505b6040870151516000121561039d5760408701515161039a908561106d565b93505b604087015151600013156103c7576040870151516103ba90611080565b6103c4908361106d565b91505b945094509450949050565b60008060008360020b126103e9578260020b6103f1565b8260020b6000035b9050620d89e8811115610417576040516315e4079d60e11b815260040160405180910390fd5b60008160011660000361042e57600160801b610440565b6ffffcb933bd6fad37aa2d162d1a5940015b70ffffffffffffffffffffffffffffffffff1690506002821615610474576ffff97272373d413259a46990580e213a0260801c5b6004821615610493576ffff2e50f5f656932ef12357cf3c7fdcc0260801c5b60088216156104b2576fffe5caca7e10e4e61c3624eaa0941cd00260801c5b60108216156104d1576fffcb9843d60f6159c9db58835c9266440260801c5b60208216156104f0576fff973b41fa98c081472e6896dfb254c00260801c5b604082161561050f576fff2ea16466c96a3843ec78b326b528610260801c5b608082161561052e576ffe5dee046a99a2a811c461f1969c30530260801c5b61010082161561054e576ffcbe86c7900a88aedcffc83b479aa3a40260801c5b61020082161561056e576ff987a7253ac413176f2b074cf7815e540260801c5b61040082161561058e576ff3392b0822b70005940c7a398e4b70f30260801c5b6108008216156105ae576fe7159475a2c29b7443b29c7fa6e889d90260801c5b6110008216156105ce576fd097f3bdfd2022b8845ad8f792aa58250260801c5b6120008216156105ee576fa9f746462d870fdf8a65dc1f90e061e50260801c5b61400082161561060e576f70d869a156d2a1b890bb3df62baf32f70260801c5b61800082161561062e576f31be135f97d08fd981231505542fcfa60260801c5b6201000082161561064f576f09aa508b5b7a84e1c677de54f3e99bc90260801c5b6202000082161561066f576e5d6af8dedb81196699c329225ee6040260801c5b6204000082161561068e576d2216e584f5fa1ea926041bedfe980260801c5b620800008216156106ab576b048a170391f7dc42444e8fa20260801c5b60008460020b13156106cc5780600019816106c8576106c861109c565b0490505b6401000000008106156106e05760016106e3565b60005b60ff16602082901c0192505050919050565b60008082121561070d5761070882611080565b6101f5565b5090565b6000600160801b821061070d57600080fd5b600080836001600160a01b0316856001600160a01b03161115610744579293925b846001600160a01b0316866001600160a01b03161161076f576107688585856107bf565b91506107b6565b836001600160a01b0316866001600160a01b031610156107a8576107948685856107bf565b91506107a1858785610830565b90506107b6565b6107b3858585610830565b90505b94509492505050565b6000826001600160a01b0316846001600160a01b031611156107df579192915b836001600160a01b0316610818606060ff16846001600160801b0316901b8686036001600160a01b0316866001600160a01b031661087b565b816108255761082561109c565b0490505b9392505050565b6000826001600160a01b0316846001600160a01b03161115610850579192915b610873826001600160801b03168585036001600160a01b0316600160601b61087b565b949350505050565b60008080600019858709858702925082811083820303915050806000036108b457600084116108a957600080fd5b508290049050610829565b8084116108c057600080fd5b6000848688096000868103871696879004966002600389028118808a02820302808a02820302808a02820302808a02820302808a02820302808a02909103029181900381900460010186841190950394909402919094039290920491909117919091029150509392505050565b6000806040838503121561094057600080fd5b50508035926020909101359150565b634e487b7160e01b600052604160045260246000fd5b604051610100810167ffffffffffffffff811182821017156109895761098961094f565b60405290565b6040805190810167ffffffffffffffff811182821017156109895761098961094f565b6040516101a0810167ffffffffffffffff811182821017156109895761098961094f565b6040516080810167ffffffffffffffff811182821017156109895761098961094f565b604051610160810167ffffffffffffffff811182821017156109895761098961094f565b604051601f8201601f1916810167ffffffffffffffff81118282101715610a4657610a4661094f565b604052919050565b6001600160a01b0381168114610a6357600080fd5b50565b8051610a7181610a4e565b919050565b8051600281900b8114610a7157600080fd5b600060608284031215610a9a57600080fd5b6040516060810181811067ffffffffffffffff82111715610abd57610abd61094f565b60405282518152905080610ad360208401610a76565b6020820152610ae460408401610a76565b60408201525092915050565b60006101008284031215610b0357600080fd5b610b0b610965565b9050815181526020820151602082015260408201516040820152606082015160608201526080820151608082015260a082015160a082015260c082015160c082015260e082015160e082015292915050565b600060408284031215610b6f57600080fd5b610b7761098f565b9050815181526020820151602082015292915050565b60006101e08284031215610ba057600080fd5b610ba86109b2565b9050610bb382610a66565b8152610bc160208301610a76565b6020820152610bd260408301610a76565b6040820152606082015160608201526080820151608082015260a082015160a082015260c082015160c082015260e082015160e0820152610100808301518183015250610120610c2484828501610b5d565b90820152610160610c3784848301610b5d565b6101408301526101a0830151908201526101c090910151610180820152919050565b80518015158114610a7157600080fd5b600060808284031215610c7b57600080fd5b610c836109d6565b90508151815260208201516020820152604082015160408201526060820151606082015292915050565b60006105008284031215610cc057600080fd5b610cc86109f9565b82518152610cd860208401610a66565b6020820152610ce960408401610a66565b6040820152610cfb8460608501610a88565b6060820152610d0d8460c08501610af0565b6080820152610d20846101c08501610b8d565b60a0820152610d326103a08401610c59565b60c0820152610d45846103c08501610c69565b60e0820152610d58846104408501610c69565b6101008201526104c08301516101208201526104e09092015161014083015250919050565b600060e08284031215610d8f57600080fd5b60405160e0810181811067ffffffffffffffff82111715610db257610db261094f565b8060405250809150825181526020830151602082015260408301516040820152606083015160608201526080830151608082015260a083015160a082015260c083015160c08201525092915050565b60006020808385031215610e1457600080fd5b825167ffffffffffffffff80821115610e2c57600080fd5b9084019060808287031215610e4057600080fd5b610e486109d6565b8251815283830151610e5981610a4e565b818501526040838101518183015260608085015184811115610e7a57600080fd5b80860195505088601f860112610e8f57600080fd5b845184811115610ea157610ea161094f565b610eaf878260051b01610a1d565b818152878101955061024091820287018801918b831115610ecf57600080fd5b968801965b82881015610fa757878c0381811215610eed5760008081fd5b610ef561098f565b8951815261022080601f1984011215610f0e5760008081fd5b610f16610965565b9250610f248f8d8d01610b5d565b8352610f328f888d01610d7d565b8c840152610f448f6101408d01610b5d565b88840152610f568f6101808d01610b5d565b87840152610f676101c08c01610a76565b6080840152610f796101e08c01610a76565b60a08401526102008b015160c08401528a015160e0830152808b019190915287529687019695880195610ed4565b50918401919091525090979650505050505050565b600060208284031215610fce57600080fd5b815161082981610a4e565b634e487b7160e01b600052603260045260246000fd5b634e487b7160e01b600052601160045260246000fd5b818103600083128015838313168383128216171561102557611025610fef565b5092915050565b808201828112600083128015821682158216171561104c5761104c610fef565b505092915050565b60006001820161106657611066610fef565b5060010190565b808201808211156101f5576101f5610fef565b6000600160ff1b820161109557611095610fef565b5060000390565b634e487b7160e01b600052601260045260246000fdfea26469706673582212206a604802b603ace92d0d73a23a77e368e1d7853a7469e719575f74983eff479164736f6c63430008130033",
  "devdoc": {
    "kind": "dev",
    "methods": {
      "constructor": {
        "params": {
          "_controller": "controller address"
        }
      }
    },
    "title": "Reader contract",
    "version": 1
  },
  "userdoc": {
    "kind": "user",
    "methods": {
      "constructor": {
        "notice": "Reader constructor"
      },
      "getDelta(uint256,uint256)": {
        "notice": "Gets vault delta."
      }
    },
    "notice": "Reader contract with an controller",
    "version": 1
  },
  "storageLayout": {
    "storage": [
      {
        "astId": 6729,
        "contract": "src/Reader.sol:Reader",
        "label": "controller",
        "offset": 0,
        "slot": "0",
        "type": "t_contract(IController)6843"
      }
    ],
    "types": {
      "t_contract(IController)6843": {
        "encoding": "inplace",
        "label": "contract IController",
        "numberOfBytes": "20"
      }
    }
  }
}