{
  "address": "0x852D281A0E4115a2E818eBD673B7b140c9ec1fd2",
  "abi": [
    {
      "anonymous": false,
      "inputs": [
        {
          "indexed": false,
          "internalType": "address",
          "name": "strategyAddress",
          "type": "address"
        },
        {
          "indexed": false,
          "internalType": "address",
          "name": "quoterAddress",
          "type": "address"
        },
        {
          "indexed": false,
          "internalType": "uint256",
          "name": "assetId",
          "type": "uint256"
        },
        {
          "indexed": false,
          "internalType": "address",
          "name": "creator",
          "type": "address"
        }
      ],
      "name": "StrategyCreated",
      "type": "event"
    },
    {
      "inputs": [
        {
          "internalType": "address",
          "name": "_controller",
          "type": "address"
        },
        {
          "internalType": "address",
          "name": "_reader",
          "type": "address"
        },
        {
          "internalType": "uint256",
          "name": "_assetId",
          "type": "uint256"
        },
        {
          "components": [
            {
              "internalType": "uint256",
              "name": "lower",
              "type": "uint256"
            },
            {
              "internalType": "uint256",
              "name": "upper",
              "type": "uint256"
            }
          ],
          "internalType": "struct BaseStrategy.MinPerValueLimit",
          "name": "_minPerValueLimit",
          "type": "tuple"
        },
        {
          "internalType": "string",
          "name": "_name",
          "type": "string"
        },
        {
          "internalType": "string",
          "name": "_symbol",
          "type": "string"
        }
      ],
      "name": "createStrategy",
      "outputs": [
        {
          "internalType": "address",
          "name": "strategyAddress",
          "type": "address"
        },
        {
          "internalType": "address",
          "name": "quoterAddress",
          "type": "address"
        }
      ],
      "stateMutability": "nonpayable",
      "type": "function"
    }
  ],
  "transactionHash": "0xb9bdd14bb93e3b38e678b4c4ede705b57ebfeb518c1ea5b429d36ad129d14220",
  "args": [],
  "solcInputHash": "ee635b740b0c0450b27bbf5793326cb1",
  "bytecode": "0x608060405234801561001057600080fd5b5061451e806100206000396000f3fe60806040523480156200001157600080fd5b50600436106200002e5760003560e01c8063dee9aeb21462000033575b600080fd5b6200004a62000044366004620002c6565b6200006e565b604080516001600160a01b0393841681529290911660208301520160405180910390f35b60008060008888888888886040516200008790620001b6565b6200009896959493929190620003da565b604051809103906000f080158015620000b5573d6000803e3d6000fd5b50905080604051620000c790620001c4565b6001600160a01b039091168152602001604051809103906000f080158015620000f4573d6000803e3d6000fd5b5060405163f2fde38b60e01b81523360048201529092506001600160a01b0382169063f2fde38b90602401600060405180830381600087803b1580156200013a57600080fd5b505af11580156200014f573d6000803e3d6000fd5b5050604080516001600160a01b038086168252861660208201529081018a905233606082015292945084927f023f280f6ceabb84f3966b22bfa83eefc3cd4269e5b89ca1fae1426086b6508a9250608001905060405180910390a150965096945050505050565b613bcc806200044083390190565b6104dd806200400c83390190565b80356001600160a01b0381168114620001ea57600080fd5b919050565b634e487b7160e01b600052604160045260246000fd5b6040805190810167ffffffffffffffff811182821017156200022b576200022b620001ef565b60405290565b600082601f8301126200024357600080fd5b813567ffffffffffffffff80821115620002615762000261620001ef565b604051601f8301601f19908116603f011681019082821181831017156200028c576200028c620001ef565b81604052838152866020858801011115620002a657600080fd5b836020870160208301376000602085830101528094505050505092915050565b60008060008060008086880360e0811215620002e157600080fd5b620002ec88620001d2565b9650620002fc60208901620001d2565b95506040888101359550605f19820112156200031757600080fd5b506200032262000205565b6060880135815260808801356020820152925060a087013567ffffffffffffffff808211156200035157600080fd5b6200035f8a838b0162000231565b935060c08901359150808211156200037657600080fd5b506200038589828a0162000231565b9150509295509295509295565b6000815180845260005b81811015620003ba576020818501810151868301820152016200039c565b506000602082860101526020601f19601f83011685010191505092915050565b600060018060a01b038089168352808816602084015250856040830152845160608301526020850151608083015260e060a08301526200041e60e083018562000392565b82810360c084015262000432818562000392565b999850505050505050505056fe6101006040523480156200001257600080fd5b5060405162003bcc38038062003bcc8339810160408190526200003591620003fe565b8584848484818160036200004a838262000560565b50600462000059828262000560565b50505062000076620000706200023060201b60201c565b62000234565b6001600160a01b038516608081905260c085905283516007556020840151600855604051631d591eb760e31b8152600160048201526000919063eac8f5b89060240161050060405180830381865afa158015620000d7573d6000803e3d6000fd5b505050506040513d601f19601f82011682018060405250810190620000fd9190620008c7565b60208101516001600160a01b0390811660a081905260805160405163095ea7b360e01b815292166004830152600019602483015291925063095ea7b3906044016020604051808303816000875af11580156200015d573d6000803e3d6000fd5b505050506040513d601f19601f82011682018060405250810190620001839190620009aa565b505050506001600160a01b0388811660e052670e6c169e9c612d00600c556202a300600d556080516040516318e8074960e01b8152600481018a9052911693506318e8074992506024019050602060405180830381865afa158015620001ed573d6000803e3d6000fd5b505050506040513d601f19601f82011682018060405250810190620002139190620009cf565b6001600160a01b0316600b55505042600a5550620009ef92505050565b3390565b600580546001600160a01b038381166001600160a01b0319831681179093556040519116919082907f8be0079c531659141344cd1fd0a4f28419497f9722a3daafe3b4186f6b6457e090600090a35050565b6001600160a01b03811681146200029c57600080fd5b50565b8051620002ac8162000286565b919050565b634e487b7160e01b600052604160045260246000fd5b604080519081016001600160401b0381118282101715620002ec57620002ec620002b1565b60405290565b6040516101a081016001600160401b0381118282101715620002ec57620002ec620002b1565b60405161016081016001600160401b0381118282101715620002ec57620002ec620002b1565b604051601f8201601f191681016001600160401b0381118282101715620003695762000369620002b1565b604052919050565b600082601f8301126200038357600080fd5b81516001600160401b038111156200039f576200039f620002b1565b6020620003b5601f8301601f191682016200033e565b8281528582848701011115620003ca57600080fd5b60005b83811015620003ea578581018301518282018401528201620003cd565b506000928101909101919091529392505050565b60008060008060008086880360e08112156200041957600080fd5b8751620004268162000286565b6020890151909750620004398162000286565b604089810151919750909550605f19820112156200045657600080fd5b5062000461620002c7565b606088015181526080880151602082015260a08801519093506001600160401b03808211156200049057600080fd5b6200049e8a838b0162000371565b935060c0890151915080821115620004b557600080fd5b50620004c489828a0162000371565b9150509295509295509295565b600181811c90821680620004e657607f821691505b6020821081036200050757634e487b7160e01b600052602260045260246000fd5b50919050565b601f8211156200055b57600081815260208120601f850160051c81016020861015620005365750805b601f850160051c820191505b81811015620005575782815560010162000542565b5050505b505050565b81516001600160401b038111156200057c576200057c620002b1565b62000594816200058d8454620004d1565b846200050d565b602080601f831160018114620005cc5760008415620005b35750858301515b600019600386901b1c1916600185901b17855562000557565b600085815260208120601f198616915b82811015620005fd57888601518255948401946001909101908401620005dc565b50858210156200061c5787850151600019600388901b60f8161c191681555b5050505050600190811b01905550565b8051600281900b8114620002ac57600080fd5b6000606082840312156200065257600080fd5b604051606081016001600160401b0381118282101715620006775762000677620002b1565b604052825181529050806200068f602084016200062c565b6020820152620006a2604084016200062c565b60408201525092915050565b6000610100808385031215620006c357600080fd5b604051908101906001600160401b0382118183101715620006e857620006e8620002b1565b81604052809250835181526020840151602082015260408401516040820152606084015160608201526080840151608082015260a084015160a082015260c084015160c082015260e084015160e0820152505092915050565b6000604082840312156200075457600080fd5b6200075e620002c7565b9050815181526020820151602082015292915050565b60006101e082840312156200078857600080fd5b62000792620002f2565b90506200079f826200029f565b8152620007af602083016200062c565b6020820152620007c2604083016200062c565b6040820152606082015160608201526080820151608082015260a082015160a082015260c082015160c082015260e082015160e0820152610100808301518183015250610120620008168482850162000741565b908201526101606200082b8484830162000741565b6101408301526101a0830151908201526101c090910151610180820152919050565b80518015158114620002ac57600080fd5b6000608082840312156200087157600080fd5b604051608081016001600160401b0381118282101715620008965762000896620002b1565b8060405250809150825181526020830151602082015260408301516040820152606083015160608201525092915050565b60006105008284031215620008db57600080fd5b620008e562000318565b82518152620008f7602084016200029f565b60208201526200090a604084016200029f565b60408201526200091e84606085016200063f565b6060820152620009328460c08501620006ae565b608082015262000947846101c0850162000774565b60a08201526200095b6103a084016200084d565b60c082015262000970846103c085016200085e565b60e0820152620009858461044085016200085e565b6101008201526104c08301516101208201526104e09092015161014083015250919050565b600060208284031215620009bd57600080fd5b620009c8826200084d565b9392505050565b600060208284031215620009e257600080fd5b8151620009c88162000286565b60805160a05160c05160e0516130fb62000ad160003960006121ee01526000818161058b0152818161098901528181610ae301528181611023015281816113da015281816114aa015281816121bd015261229701526000818161085e01528181610c5c015261129c0152600081816104c001528181610559015281816107c90152818161095c01528181610b1801528181610ba101528181610c9901528181610d2f01528181610eea01528181610ff1015281816112d9015281816113ad015281816114d301528181611c1801528181611d9c015261226501526130fb6000f3fe608060405234801561001057600080fd5b50600436106101c45760003560e01c806388626eb8116100f9578063c1e80ca511610097578063dd62ed3e11610071578063dd62ed3e14610376578063dfcf714214610389578063e9063cf61461039c578063f2fde38b146103af57600080fd5b8063c1e80ca514610348578063c24516891461035b578063d3f0b8c11461036357600080fd5b806395d89b41116100d357806395d89b411461031257806398d5fdca1461031a578063a457c2d714610322578063a9059cbb1461033557600080fd5b806388626eb8146102dc5780638b888751146102e45780638da5cb5b146102f757600080fd5b806333194c0a116101665780634b751ae4116101405780634b751ae41461028f5780636528b503146102a257806370a08231146102ab578063715018a6146102d457600080fd5b806333194c0a1461025e57806339509351146102675780633bcec32a1461027a57600080fd5b806318160ddd116101a257806318160ddd1461022157806323b872dd146102295780632de911ca1461023c578063313ce5671461024f57600080fd5b806306fdde03146101c9578063095ea7b3146101e7578063113317e11461020a575b600080fd5b6101d16103c2565b6040516101de91906124ff565b60405180910390f35b6101fa6101f5366004612527565b610454565b60405190151581526020016101de565b610213600b5481565b6040519081526020016101de565b600254610213565b6101fa610237366004612553565b61046e565b61021361024a3660046126ee565b610492565b604051601281526020016101de565b61021360065481565b6101fa610275366004612527565b6108d4565b61028d610288366004612737565b6108f6565b005b61028d61029d366004612764565b610a54565b610213600a5481565b6102136102b936600461277d565b6001600160a01b031660009081526020819052604090205490565b61028d610ac0565b6101fa610ad4565b61028d6102f23660046127e3565b610b96565b6005546040516001600160a01b0390911681526020016101de565b6101d1610d1b565b610213610d2a565b6101fa610330366004612527565b610e05565b6101fa610343366004612527565b610e80565b6102136103563660046128b6565b610e8e565b6101fa6111c6565b61028d610371366004612764565b6111d0565b610213610384366004612912565b61122b565b61028d61039736600461294b565b611256565b61028d6103aa366004612980565b611493565b61028d6103bd36600461277d565b6115ac565b6060600380546103d19061299c565b80601f01602080910402602001604051908101604052809291908181526020018280546103fd9061299c565b801561044a5780601f1061041f5761010080835404028352916020019161044a565b820191906000526020600020905b81548152906001019060200180831161042d57829003601f168201915b5050505050905090565b600033610462818585611625565b60019150505b92915050565b60003361047c858285611749565b6104878585856117c3565b506001949350505050565b60008061049e60025490565b6104b0670de0b6b3a7640000886129ec565b6104ba9190612a19565b905060007f00000000000000000000000000000000000000000000000000000000000000006001600160a01b0316639403b6346006546040518263ffffffff1660e01b815260040161050e91815260200190565b600060405180830381865afa15801561052b573d6000803e3d6000fd5b505050506040513d6000823e601f3d908101601f191682016040526105539190810190612b9b565b905060007f00000000000000000000000000000000000000000000000000000000000000006001600160a01b031663113528a86006547f00000000000000000000000000000000000000000000000000000000000000006040518060e00160405280670de0b6b3a764000088606001516000815181106105d5576105d5612cb6565b602090810291909101810151015151516105ee8b612ccc565b6105f89190612ce8565b6106029190612d18565b8152602001670de0b6b3a7640000886060015160008151811061062757610627612cb6565b60200260200101516020015160200151600001518a61064590612ccc565b61064f9190612ce8565b6106599190612d18565b81526020018a6000015181526020018a6020015181526020018a604001518152602001600015158152602001604051806020016040528060008152508152506040518463ffffffff1660e01b81526004016106b693929190612d46565b610100604051808303816000875af11580156106d6573d6000803e3d6000fd5b505050506040513d601f19601f820116820180604052508101906106fa9190612daf565b90506000816000015160a00151826000015160800151670de0b6b3a7640000868560200151876040015161072e9190612e3b565b6107389190612ce8565b6107429190612d18565b61074c9190612e3b565b6107569190612e3b565b9050868112158015610769575060008712155b6107a75760405162461bcd60e51b815260040161079e906020808252600490820152634753533360e01b604082015260600190565b60405180910390fd5b6107b1338a611967565b6107bd81612710611a99565b94506001600160a01b037f000000000000000000000000000000000000000000000000000000000000000016632556efd26107f787612ccc565b6040518263ffffffff1660e01b815260040161081591815260200190565b6020604051808303816000875af1158015610834573d6000803e3d6000fd5b505050506040513d601f19601f820116820180604052508101906108589190612e63565b506108847f00000000000000000000000000000000000000000000000000000000000000008987611ab9565b604080518a8152602081018790526001600160a01b038a16917f490dfb4ce52333704763aee75edba596ceaab548bccafc900f79c2b9f6381b08910160405180910390a250505050949350505050565b6000336104628185856108e7838361122b565b6108f19190612e7c565b611625565b6108fe611bb9565b6006546040805160e0810182526000808252602080830187905285518385015285810151606084015285840151608084015260a083018290528351908101845290815260c08201529051630226a51560e31b81526001600160a01b037f0000000000000000000000000000000000000000000000000000000000000000169263113528a8926109b2927f00000000000000000000000000000000000000000000000000000000000000009190600401612d46565b610100604051808303816000875af11580156109d2573d6000803e3d6000fd5b505050506040513d601f19601f820116820180604052508101906109f69190612daf565b506000610a01611c13565b90508060076000015411158015610a1a57506008548111155b610a4f5760405162461bcd60e51b815260040161079e9060208082526004908201526311d4d4cd60e21b604082015260600190565b505050565b610a5c611bb9565b80670de0b6b3a764000011158015610a7b5750671bc16d674ec8000081105b610a8457600080fd5b600c8190556040518181527f425c0b48fb561011de4986235bf0fa5b2f5e5bdd64048817337398c204fe7914906020015b60405180910390a150565b610ac8611bb9565b610ad26000611cde565b565b6040516318e8074960e01b81527f00000000000000000000000000000000000000000000000000000000000000006004820152600090610b91906001600160a01b037f000000000000000000000000000000000000000000000000000000000000000016906318e8074990602401602060405180830381865afa158015610b5f573d6000803e3d6000fd5b505050506040513d601f19601f82011682018060405250810190610b839190612e8f565b6001600160a01b0316611d30565b905090565b336001600160a01b037f00000000000000000000000000000000000000000000000000000000000000001614610bf75760405162461bcd60e51b815260040161079e906020808252600490820152634753533560e01b604082015260600190565b60008080610c0784860186612eac565b9250925092506000806000610c1f8960000151611d94565b9250925092506000610c3384848985611ebb565b9050610c4181612710611f40565b600981905590508415610c5757610c5781611f4f565b610c837f0000000000000000000000000000000000000000000000000000000000000000873084611f68565b6040516312ab77e960e11b8152600481018290527f00000000000000000000000000000000000000000000000000000000000000006001600160a01b031690632556efd2906024016020604051808303816000875af1158015610cea573d6000803e3d6000fd5b505050506040513d601f19601f82011682018060405250810190610d0e9190612e63565b5050505050505050505050565b6060600480546103d19061299c565b6000807f00000000000000000000000000000000000000000000000000000000000000006001600160a01b03166349ebb77d6006546040518263ffffffff1660e01b8152600401610d7d91815260200190565b6000604051808303816000875af1158015610d9c573d6000803e3d6000fd5b505050506040513d6000823e601f3d908101601f19168201604052610dc49190810190612fa2565b90506000816040015113610dda57600091505090565b600254670de0b6b3a76400008260400151610df591906129ec565b610dff9190612a19565b91505090565b60003381610e13828661122b565b905083811015610e735760405162461bcd60e51b815260206004820152602560248201527f45524332303a2064656372656173656420616c6c6f77616e63652062656c6f77604482015264207a65726f60d81b606482015260840161079e565b6104878286868403611625565b6000336104628185856117c3565b600080610e9a60025490565b11610ed05760405162461bcd60e51b815260040161079e906020808252600490820152634753533160e01b604082015260600190565b6000610ee487610edf60025490565b612072565b905060007f00000000000000000000000000000000000000000000000000000000000000006001600160a01b0316639403b6346006546040518263ffffffff1660e01b8152600401610f3891815260200190565b600060405180830381865afa158015610f55573d6000803e3d6000fd5b505050506040513d6000823e601f3d908101601f19168201604052610f7d9190810190612b9b565b90506000610fb5838360600151600081518110610f9c57610f9c612cb6565b602002602001015160200151600001516000015161209a565b90506000610fed848460600151600081518110610fd457610fd4612cb6565b602002602001015160200151602001516000015161209a565b90507f00000000000000000000000000000000000000000000000000000000000000006001600160a01b031663113528a86006547f00000000000000000000000000000000000000000000000000000000000000006040518060e001604052808781526020018681526020018b6000015181526020018b6020015181526020018b60400151815260200160011515815260200189338e6040516020016110b1939291909283526001600160a01b039190911660208301521515604082015260600190565b6040516020818303038152906040528152506040518463ffffffff1660e01b81526004016110e193929190612d46565b610100604051808303816000875af1158015611101573d6000803e3d6000fd5b505050506040513d601f19601f820116820180604052508101906111259190612daf565b506009805460001990915594508785111561116b5760405162461bcd60e51b815260040161079e9060208082526004908201526323a9a99960e11b604082015260600190565b611175898b6120d3565b604080518b8152602081018790526001600160a01b038b16917fd999b189e070b5645f3ccf74bacda045fe621081cc1767aa51b8281dbfd87d4c910160405180910390a25050505095945050505050565b6000610b91612192565b6111d8611bb9565b80610e10111580156111ed5750621275008111155b6111f657600080fd5b600d8190556040518181527f8d6cb689962988c16fd239c4d075e5f95fdb46fdaf4b847a49b752f0baa1205190602001610ab5565b6001600160a01b03918216600090815260016020908152604080832093909416825291909152205490565b61125e611bb9565b600254156112975760405162461bcd60e51b815260040161079e906020808252600490820152630475353360e41b604082015260600190565b6112c37f0000000000000000000000000000000000000000000000000000000000000000333087611f68565b6040516312ab77e960e11b8152600481018590527f00000000000000000000000000000000000000000000000000000000000000006001600160a01b031690632556efd2906024016020604051808303816000875af115801561132a573d6000803e3d6000fd5b505050506040513d601f19601f8201168201806040525081019061134e9190612e63565b60068190556040805160e0810182528581526020808201869052845182840152848101516060830152848301516080830152600060a0830181905283519182018452815260c08201529051630226a51560e31b81526001600160a01b037f0000000000000000000000000000000000000000000000000000000000000000169263113528a892611403927f00000000000000000000000000000000000000000000000000000000000000009190600401612d46565b610100604051808303816000875af1158015611423573d6000803e3d6000fd5b505050506040513d601f19601f820116820180604052508101906114479190612daf565b5061145233856120d3565b604080518581526020810186905233917fd999b189e070b5645f3ccf74bacda045fe621081cc1767aa51b8281dbfd87d4c910160405180910390a250505050565b61149b611bb9565b6040516318e8074960e01b81527f000000000000000000000000000000000000000000000000000000000000000060048201526000907f00000000000000000000000000000000000000000000000000000000000000006001600160a01b0316906318e8074990602401602060405180830381865afa158015611522573d6000803e3d6000fd5b505050506040513d601f19601f820116820180604052508101906115469190612e8f565b6001600160a01b03169050611559612192565b80611568575061156881611d30565b6115995760405162461bcd60e51b8152602060048201526002602482015261544760f01b604482015260640161079e565b6115a2826121ab565b600b555042600a55565b6115b4611bb9565b6001600160a01b0381166116195760405162461bcd60e51b815260206004820152602660248201527f4f776e61626c653a206e6577206f776e657220697320746865207a65726f206160448201526564647265737360d01b606482015260840161079e565b61162281611cde565b50565b6001600160a01b0383166116875760405162461bcd60e51b8152602060048201526024808201527f45524332303a20617070726f76652066726f6d20746865207a65726f206164646044820152637265737360e01b606482015260840161079e565b6001600160a01b0382166116e85760405162461bcd60e51b815260206004820152602260248201527f45524332303a20617070726f766520746f20746865207a65726f206164647265604482015261737360f01b606482015260840161079e565b6001600160a01b0383811660008181526001602090815260408083209487168084529482529182902085905590518481527f8c5be1e5ebec7d5bd14f71427d1e84f3dd0314c0f7b2291e5b200ac8c7c3b925910160405180910390a3505050565b6000611755848461122b565b905060001981146117bd57818110156117b05760405162461bcd60e51b815260206004820152601d60248201527f45524332303a20696e73756666696369656e7420616c6c6f77616e6365000000604482015260640161079e565b6117bd8484848403611625565b50505050565b6001600160a01b0383166118275760405162461bcd60e51b815260206004820152602560248201527f45524332303a207472616e736665722066726f6d20746865207a65726f206164604482015264647265737360d81b606482015260840161079e565b6001600160a01b0382166118895760405162461bcd60e51b815260206004820152602360248201527f45524332303a207472616e7366657220746f20746865207a65726f206164647260448201526265737360e81b606482015260840161079e565b6001600160a01b038316600090815260208190526040902054818110156119015760405162461bcd60e51b815260206004820152602660248201527f45524332303a207472616e7366657220616d6f756e7420657863656564732062604482015265616c616e636560d01b606482015260840161079e565b6001600160a01b03848116600081815260208181526040808320878703905593871680835291849020805487019055925185815290927fddf252ad1be2c89b69c2b068fc378daa952ba7f163c4a11628f55a4df523b3ef910160405180910390a36117bd565b6001600160a01b0382166119c75760405162461bcd60e51b815260206004820152602160248201527f45524332303a206275726e2066726f6d20746865207a65726f206164647265736044820152607360f81b606482015260840161079e565b6001600160a01b03821660009081526020819052604090205481811015611a3b5760405162461bcd60e51b815260206004820152602260248201527f45524332303a206275726e20616d6f756e7420657863656564732062616c616e604482015261636560f01b606482015260840161079e565b6001600160a01b0383166000818152602081815260408083208686039055600280548790039055518581529192917fddf252ad1be2c89b69c2b068fc378daa952ba7f163c4a11628f55a4df523b3ef910160405180910390a3505050565b600081611aa8846001856123ab565b611ab291906129ec565b9392505050565b604080516001600160a01b038481166024830152604480830185905283518084039091018152606490920183526020820180516001600160e01b031663a9059cbb60e01b1790529151600092839290871691611b159190613052565b6000604051808303816000865af19150503d8060008114611b52576040519150601f19603f3d011682016040523d82523d6000602084013e611b57565b606091505b5091509150818015611b81575080511580611b81575080806020019051810190611b81919061306e565b611bb25760405162461bcd60e51b815260206004820152600260248201526114d560f21b604482015260640161079e565b5050505050565b6005546001600160a01b03163314610ad25760405162461bcd60e51b815260206004820181905260248201527f4f776e61626c653a2063616c6c6572206973206e6f7420746865206f776e6572604482015260640161079e565b6000807f00000000000000000000000000000000000000000000000000000000000000006001600160a01b03166349ebb77d6006546040518263ffffffff1660e01b8152600401611c6691815260200190565b6000604051808303816000875af1158015611c85573d6000803e3d6000fd5b505050506040513d6000823e601f3d908101601f19168201604052611cad9190810190612fa2565b9050610dff81604001518260a00151670de0b6b3a7640000611ccf9190612ce8565b611cd99190612d18565b6123c9565b600580546001600160a01b038381166001600160a01b0319831681179093556040519116919082907f8be0079c531659141344cd1fd0a4f28419497f9722a3daafe3b4186f6b6457e090600090a35050565b600080600c54670de0b6b3a7640000600b54611d4c91906129ec565b611d569190612a19565b90506000670de0b6b3a7640000600c54600b54611d7391906129ec565b611d7d9190612a19565b905081841080611d8c57508381105b949350505050565b6000806000807f00000000000000000000000000000000000000000000000000000000000000006001600160a01b0316639403b6346006546040518263ffffffff1660e01b8152600401611dea91815260200190565b600060405180830381865afa158015611e07573d6000803e3d6000fd5b505050506040513d6000823e601f3d908101601f19168201604052611e2f9190810190612b9b565b905060008160600151600081518110611e4a57611e4a612cb6565b60200260200101519050856060015186602001518760000151611e6d9190612e3b565b611e779190612e3b565b602080830151808201516040810151908301519151909201519297509091611e9f9190612e3b565b611ea99190612e3b565b93508160400151925050509193909250565b600080611f0686670de0b6b3a764000087611ed58761241f565b611edf9190612e3b565b611ee88861241f565b611ef29190612ce8565b611efc9190612d18565b611cd9919061308b565b9050611f1a84670de0b6b3a76400006130b2565b611f2c670de0b6b3a7640000836129ec565b611f369190612a19565b9695505050505050565b600081611aa884600185612489565b6020518181526000602082015260006040820152606081fd5b604080516001600160a01b0385811660248301528481166044830152606480830185905283518084039091018152608490920183526020820180516001600160e01b03166323b872dd60e01b1790529151600092839290881691611fcc9190613052565b6000604051808303816000865af19150503d8060008114612009576040519150601f19603f3d011682016040523d82523d6000602084013e61200e565b606091505b5091509150818015612038575080511580612038575080806020019051810190612038919061306e565b61206a5760405162461bcd60e51b815260206004820152600360248201526229aa2360e91b604482015260640161079e565b505050505050565b600061207e8383612e7c565b612090670de0b6b3a7640000856129ec565b611ab29190612a19565b60006120b66120b184670de0b6b3a76400006130b2565b61241f565b6120bf8461241f565b6120c99084612ce8565b611ab29190612d18565b6001600160a01b0382166121295760405162461bcd60e51b815260206004820152601f60248201527f45524332303a206d696e7420746f20746865207a65726f206164647265737300604482015260640161079e565b806002600082825461213b9190612e7c565b90915550506001600160a01b038216600081815260208181526040808320805486019055518481527fddf252ad1be2c89b69c2b068fc378daa952ba7f163c4a11628f55a4df523b3ef910160405180910390a35050565b600042600d54600a546121a59190612e7c565b10905090565b600654604051632440490960e21b81527f0000000000000000000000000000000000000000000000000000000000000000600482015260248101919091526000907f00000000000000000000000000000000000000000000000000000000000000006001600160a01b031690639101242490604401602060405180830381865afa15801561223d573d6000803e3d6000fd5b505050506040513d601f19601f820116820180604052508101906122619190612e63565b90507f00000000000000000000000000000000000000000000000000000000000000006001600160a01b031663113528a86006547f00000000000000000000000000000000000000000000000000000000000000006040518060e00160405280866122cb90612ccc565b815260200160008152602001876000015181526020018760200151815260200187604001518152602001600015158152602001604051806020016040528060008152508152506040518463ffffffff1660e01b815260040161232f93929190612d46565b610100604051808303816000875af115801561234f573d6000803e3d6000fd5b505050506040513d601f19601f820116820180604052508101906123739190612daf565b506040518181527f15305f1a00bd5019fe8d51ce959229208db3a992ed74449d793f55a67113156c9060200160405180910390a15050565b60008260001904841183021582026123c257600080fd5b5091020490565b60008082121561241b5760405162461bcd60e51b815260206004820181905260248201527f53616665436173743a2076616c7565206d75737420626520706f736974697665604482015260640161079e565b5090565b60006001600160ff1b0382111561241b5760405162461bcd60e51b815260206004820152602860248201527f53616665436173743a2076616c756520646f65736e27742066697420696e2061604482015267371034b73a191a9b60c11b606482015260840161079e565b60008260001904841183021582026124a057600080fd5b50910281810615159190040190565b60005b838110156124ca5781810151838201526020016124b2565b50506000910152565b600081518084526124eb8160208601602086016124af565b601f01601f19169290920160200192915050565b602081526000611ab260208301846124d3565b6001600160a01b038116811461162257600080fd5b6000806040838503121561253a57600080fd5b823561254581612512565b946020939093013593505050565b60008060006060848603121561256857600080fd5b833561257381612512565b9250602084013561258381612512565b929592945050506040919091013590565b634e487b7160e01b600052604160045260246000fd5b6040516060810167ffffffffffffffff811182821017156125cd576125cd612594565b60405290565b60405160c0810167ffffffffffffffff811182821017156125cd576125cd612594565b6040805190810167ffffffffffffffff811182821017156125cd576125cd612594565b60405160e0810167ffffffffffffffff811182821017156125cd576125cd612594565b604051610100810167ffffffffffffffff811182821017156125cd576125cd612594565b6040516080810167ffffffffffffffff811182821017156125cd576125cd612594565b604051601f8201601f1916810167ffffffffffffffff811182821017156126ac576126ac612594565b604052919050565b6000606082840312156126c657600080fd5b6126ce6125aa565b905081358152602082013560208201526040820135604082015292915050565b60008060008060c0858703121561270457600080fd5b84359350602085013561271681612512565b92506040850135915061272c86606087016126b4565b905092959194509250565b6000806080838503121561274a57600080fd5b8235915061275b84602085016126b4565b90509250929050565b60006020828403121561277657600080fd5b5035919050565b60006020828403121561278f57600080fd5b8135611ab281612512565b60008083601f8401126127ac57600080fd5b50813567ffffffffffffffff8111156127c457600080fd5b6020830191508360208285010111156127dc57600080fd5b9250929050565b60008060008385036101208112156127fa57600080fd5b6101008082121561280a57600080fd5b6128126125aa565b60c083121561282057600080fd5b6128286125d3565b87358152602080890135818301526040808a0135818401526060808b0135908401526080808b01359084015260a0808b01359084015291835260c08901359083015260e0880135908201529450850135905067ffffffffffffffff81111561288f57600080fd5b61289b8682870161279a565b9497909650939450505050565b801515811461162257600080fd5b600080600080600060e086880312156128ce57600080fd5b8535945060208601356128e081612512565b93506040860135925060608601356128f7816128a8565b915061290687608088016126b4565b90509295509295909350565b6000806040838503121561292557600080fd5b823561293081612512565b9150602083013561294081612512565b809150509250929050565b60008060008060c0858703121561296157600080fd5b84359350602085013592506040850135915061272c86606087016126b4565b60006060828403121561299257600080fd5b611ab283836126b4565b600181811c908216806129b057607f821691505b6020821081036129d057634e487b7160e01b600052602260045260246000fd5b50919050565b634e487b7160e01b600052601160045260246000fd5b8082028115828204841417610468576104686129d6565b634e487b7160e01b600052601260045260246000fd5b600082612a2857612a28612a03565b500490565b600067ffffffffffffffff821115612a4757612a47612594565b5060051b60200190565b600060408284031215612a6357600080fd5b612a6b6125f6565b9050815181526020820151602082015292915050565b600060e08284031215612a9357600080fd5b612a9b612619565b9050815181526020820151602082015260408201516040820152606082015160608201526080820151608082015260a082015160a082015260c082015160c082015292915050565b8051600281900b8114612af557600080fd5b919050565b60006102208284031215612b0d57600080fd5b612b1561263c565b9050612b218383612a51565b8152612b308360408401612a81565b6020820152612b43836101208401612a51565b6040820152612b56836101608401612a51565b6060820152612b686101a08301612ae3565b6080820152612b7a6101c08301612ae3565b60a08201526101e082015160c082015261020082015160e082015292915050565b60006020808385031215612bae57600080fd5b825167ffffffffffffffff80821115612bc657600080fd5b9084019060808287031215612bda57600080fd5b612be2612660565b8251815283830151612bf381612512565b8185015260408381015190820152606083015182811115612c1357600080fd5b80840193505086601f840112612c2857600080fd5b82519150612c3d612c3883612a2d565b612683565b8281526102409283028401850192858201919089851115612c5d57600080fd5b948601945b84861015612ca55780868b031215612c7a5760008081fd5b612c826125f6565b86518152612c928b898901612afa565b8189015283529485019491860191612c62565b506060830152509695505050505050565b634e487b7160e01b600052603260045260246000fd5b6000600160ff1b8201612ce157612ce16129d6565b5060000390565b80820260008212600160ff1b84141615612d0457612d046129d6565b8181058314821517610468576104686129d6565b600082612d2757612d27612a03565b600160ff1b821460001984141615612d4157612d416129d6565b500590565b838152826020820152606060408201528151606082015260208201516080820152604082015160a0820152606082015160c0820152608082015160e082015260a08201511515610100820152600060c083015160e0610120840152611f366101408401826124d3565b6000818303610100811215612dc357600080fd5b612dcb6125aa565b60c0821215612dd957600080fd5b612de16125d3565b9150835182526020840151602083015260408401516040830152606084015160608301526080840151608083015260a084015160a083015281815260c0840151602082015260e08401516040820152809250505092915050565b8082018281126000831280158216821582161715612e5b57612e5b6129d6565b505092915050565b600060208284031215612e7557600080fd5b5051919050565b80820180821115610468576104686129d6565b600060208284031215612ea157600080fd5b8151611ab281612512565b600080600060608486031215612ec157600080fd5b833592506020840135612ed381612512565b91506040840135612ee3816128a8565b809150509250925092565b8051612af5816128a8565b600082601f830112612f0a57600080fd5b81516020612f1a612c3883612a2d565b8281526102809283028501820192828201919087851115612f3a57600080fd5b8387015b85811015612f955781818a031215612f565760008081fd5b612f5e612660565b81518152612f6e8a878401612afa565b81870152610240820151604082015261026082015160608201528452928401928101612f3e565b5090979650505050505050565b600060208284031215612fb457600080fd5b815167ffffffffffffffff80821115612fcc57600080fd5b9083019060e08286031215612fe057600080fd5b612fe8612619565b82518152612ff860208401612eee565b602082015260408301516040820152606083015160608201526080830151608082015260a083015160a082015260c08301518281111561303757600080fd5b61304387828601612ef9565b60c08301525095945050505050565b600082516130648184602087016124af565b9190910192915050565b60006020828403121561308057600080fd5b8151611ab2816128a8565b81810360008312801583831316838312821617156130ab576130ab6129d6565b5092915050565b81810381811115610468576104686129d656fea2646970667358221220f11576e2e688dcbb2538bed0844f01dd3a47cbfb1e65bd86f558a34510ad854c64736f6c6343000813003360a060405234801561001057600080fd5b506040516104dd3803806104dd83398101604081905261002f91610040565b6001600160a01b0316608052610070565b60006020828403121561005257600080fd5b81516001600160a01b038116811461006957600080fd5b9392505050565b60805161045361008a600039600060a701526104536000f3fe608060405234801561001057600080fd5b506004361061002b5760003560e01c80630a39a0fa14610030575b600080fd5b61004361003e366004610231565b610055565b60405190815260200160405180910390f35b6040805163c1e80ca560e01b8152600481018690526001600160a01b038581166024830152604482018590526001606483015283516084830152602084015160a48301529183015160c48201526000917f0000000000000000000000000000000000000000000000000000000000000000169063c1e80ca59060e4016020604051808303816000875af192505050801561010c575060408051601f3d908101601f19168201909252610109918101906102d2565b60015b610151573d80801561013a576040519150601f19603f3d011682016040523d82523d6000602084013e61013f565b606091505b506101498161015b565b915050610153565b505b949350505050565b60006101668261016f565b50909392505050565b600080600083516060146101fa576044845110156101c75760405162461bcd60e51b815260206004820152601060248201526f2ab732bc3832b1ba32b21032b93937b960811b60448201526064015b60405180910390fd5b600484019350838060200190518101906101e1919061030f565b60405162461bcd60e51b81526004016101be91906103bc565b8380602001905181019061020e91906103ef565b9250925092509193909250565b634e487b7160e01b600052604160045260246000fd5b60008060008084860360c081121561024857600080fd5b8535945060208601356001600160a01b038116811461026657600080fd5b9350604086013592506060605f198201121561028157600080fd5b506040516060810181811067ffffffffffffffff821117156102a5576102a561021b565b8060405250606086013581526080860135602082015260a086013560408201528091505092959194509250565b6000602082840312156102e457600080fd5b5051919050565b60005b838110156103065781810151838201526020016102ee565b50506000910152565b60006020828403121561032157600080fd5b815167ffffffffffffffff8082111561033957600080fd5b818401915084601f83011261034d57600080fd5b81518181111561035f5761035f61021b565b604051601f8201601f19908116603f011681019083821181831017156103875761038761021b565b816040528281528760208487010111156103a057600080fd5b6103b18360208301602088016102eb565b979650505050505050565b60208152600082518060208401526103db8160408501602087016102eb565b601f01601f19169190910160400192915050565b60008060006060848603121561040457600080fd5b835192506020840151915060408401519050925092509256fea2646970667358221220f931ea2aa57e12bc22b8ce8f4a86c9ad615ef04df57a7b42d28f02188e4fa84f64736f6c63430008130033a2646970667358221220d6c525666681fee837898c383c83de9b8ff81aab27e4c6825d6bf408ece29b5b64736f6c63430008130033",
  "devdoc": {
    "kind": "dev",
    "methods": {},
    "version": 1
  },
  "userdoc": {
    "kind": "user",
    "methods": {},
    "version": 1
  },
  "storageLayout": {
    "storage": [],
    "types": null
  }
}